:030000000227FBD9
:1027FB0075C7AA75C75575FD5A75C7AA75C755759F
:10280B00FDA5787FE4F6D8FD9000007FFF7E03E402
:0C281B00F0A3DFFCDEFA758121022862C8
:102359005102223F0C765E4D5B7B0E7F5F6F7F33B0
:042369003F73633D1E
:103A2600E4FEEEC3940874809480500FC292EF13A4
:0D3A36009291EFC313FFD2920E80E7C2926F
:013A43002260
:103B0F00C293EF44C0FF123A26AF05123A26D29362
:013B1F002283
:1039AA00C293EF44C0FF123A2690027EE0D39400FD
:1039BA0074809480401612054AFF123A267401292F
:0F39CA00F9E43AFA90027EE014F080DDD2932205
:0C3B7500C293EF4488FF123A26D293223C
:103ACD00C2937F01123A26D293C2937F40123A26B7
:083ADD00D2937F05123B752214
:04236D0041027400B5
:1030A800123ACD900274E0606DE4F09001A8E070EF
:1030B80033900275E0FDE4FF123B0F900276E0FDCD
:1030C8007F02123B0F900277E0FD7F04123B0F90C6
:1030D8000278E0FD7F06123B0F900279E0FD7F0841
:1030E800123B0F22E4FDFF123B0F7D737F02123B60
:1030F8000F900222E0FD7F04123B0F9001A8E0240C
:1031080022F582E43402F583E0FD7F06123B0FE4EA
:07311800FD7F08123B0F22AE
:0C2371004102420041024F0041024600C0
:10000E009002437401F0A37402F0A37475F07F01A3
:04001E00123B20224F
:103A7F00900243E0FBA3E0FAA3E0F98F8275830085
:0B3A8F00ED1205A29002747401F022F9
:08266B009001E2EEF0A3EFF094
:102673007C037DE81205C4EF7001FF74222FF582FD
:10268300E43402F583E0FF900243E0FBA3E0FAA306
:10269300E0F9EF1205909001E2E0FEA3E0FF7C0376
:1026A3007DE81205C47E007F64CFCDCFCECCCE12A1
:1026B30005C474222FF58274023EF583E0FF900275
:1026C30043E0FBA3E0FAA3E0F9900001EF1205A2B7
:1026D3009001E2E0FEA3E0FF7C007D641205C47E6E
:1026E300007F0ACFCDCFCECCCE1205C474222FF5F6
:1026F3008274023EF583E0FF900243E0FBA3E0FA1D
:10270300A3E0F9900002EF1205A29001E2E0FEA31C
:10271300E0FF7C007D0A1205C474222DF582740249
:102723003CF583E0FF900243E0FBA3E0FAA3E0F96A
:0D273300900003EF1205A29002747401F0F3
:012740002276
:052CB4009001FDEFF0AE
:102CB90075F00A84FF7001FF74222FF582E4340253
:102CC900F583E0FF900243E0FBA3E0FAA3E0F9EF0C
:102CD9001205909001FDE075F00A84742225F0F543
:102CE90082E43402F583E0FF900243E0FBA3E0FABB
:102CF900A3E0F9900001EF1205A2ED75F00A842412
:102D090022F582E43402F583E09000021205A2ED77
:102D190075F00A84742225F0F582E43402F583E023
:0C2D29009000031205A29002747401F0E7
:012D3500227B
:052D36009001FDEDF02D
:102D3B00EF75F00A84FE7001FE74222EF582E434E6
:102D4B0002F583E0FE900243E0FBA3E0FAA3E0F977
:102D5B00EE120590EF75F00A842422F582E434021A
:102D6B00F583E0FE900243E0FBA3E0FAA3E0F990C9
:102D7B000001EE1205A2EF75F00A84742225F0F51E
:102D8B0082E43402F583E09000021205A29001FD6B
:102D9B00E075F00A842422F582E43402F583E09096
:0B2DAB0000031205A29002747401F0F6
:012DB60022FA
:103B2000900242EFF0E490024FF090027404F02211
:0D3B5B00EF14900246F09002747401F02205
:101C1500900242E024FD7003021CF9046003021DDA
:101C2500E990024FE0FF7E007033900243E0FBA392
:101C3500E0FAA3E0F912054A900247F0900001127C
:101C45000563900248F0900002120563900249F086
:101C550090000312056390024AF0021CF2EF640340
:101C65004E7037900243E0FBA3E0FAA3E0F9E412DB
:101C75000590900243E0FBA3E0FAA3E0F990000190
:101C8500E41205A2900002E41205A2900003E412FA
:101C950005A29002747401F0805390024FE064062F
:101CA500704B900247E0FF900243E0FBA3E0FAA3EC
:101CB500E0F9EF120590900248E0FF900243E0FB47
:101CC500A3E0FAA3E0F9900001EF1205A290024902
:101CD500E09000021205A290024AE090000312056E
:101CE500A290024F74FFF09002747401F090024FBD
:101CF500E004F02290024FE0FF7E00704290024720
:101D0500E0FD900243E0FBA3E0FAA3E0F9ED120544
:101D150090900248E0FD900243E0FBA3E0FAA3E0C7
:101D2500F9900001ED1205A2900249E0900002121F
:101D350005A290024AE09000031205A2021DE3EFFE
:101D450064034E704790024BE0FF900243E0FBA313
:101D5500E0FAA3E0F9EF12059090024CE0FF900243
:101D650043E0FBA3E0FAA3E0F9900001EF1205A21E
:101D750090024DE09000021205A290024EE0900004
:101D8500031205A29002747401F0805290024FE094
:101D95006406704A900247E0FF900243E0FBA3E02F
:101DA500FAA3E0F9EF120590900248E0FF90024394
:101DB500E0FBA3E0FAA3E0F9900001EF1205A29081
:101DC5000249E09000021205A290024AE090000349
:101DD5001205A29002747401F0E490024FF0900293
:051DE5004FE004F022B4
:10237D0041025500410254004102570041025100F3
:10238D0041025C004102580041025D0041025A00C9
:0D239D004102500041025B0042025200006C
:10246800E4900259F0900218E0FD7C0064047007C3
:10247800900259E04401F0ED641A4C70079002593B
:10248800E04402F0900218E064017007900259E0FD
:102498004404F0900218E064057007900259E04483
:1024A80008F0900252E07002A3E0600F900253E03F
:1024B80024FFF0900252E034FFF022900259E060CD
:1024C800549001AAE0640A701704F0FB7A007D0AB0
:1024D8007C00FF12325B900252E4F0A37414F022E5
:1024E800E4900282F0A3F090025CE0D3945A7480E6
:1024F80094804019900259E0900258F0900250E000
:1025080004F0E0640F7022F01237DB801C90025C4C
:10251800E004F0801490025CE06401700CF07B0130
:10252800FA7D0AFC7F0112325B900256E0FF9002AE
:1025380059E0FE6F602DE4900282F0A3F0900258FB
:10254800EEF0121DEA900259E0900256F090025CFB
:10255800E0D3945A7480948040047401F022E4908B
:04256800025CF022FF
:0F23AA0041026C00C10746026600C8019002584C
:102A8300EF64014E6003022B159001AAE064046019
:102A930003022B159001BEE0FEA3E0FFC39001AE3D
:102AA300E09F9001ADE09E503B7B017A007D0A7C64
:102AB300007F0112325B9001BDE0FF9001AEE02F79
:102AC300F09001ADE03400F09001BEE0FEA3E0FF22
:102AD300D39001AEE09F9001ADE09E4016EEF0A3CF
:102AE300EFF0800F9001BEE0FFA3E09001ADCFF0C7
:102AF300A3EFF09001ADE0FEA3E0FF7C007D0A129E
:102B030005C4AD077F02123978E49001DBF0A374AA
:032B130010F0229D
:102F3600EF64014E70769001AAE06404706ED3903F
:102F460001AEE094649001ADE0940040377B017AD5
:102F5600007D0A7C007F0112325B9001BDE0FFC359
:102F66009001AEE09FFF9001ADE09400FEF0A3EF6C
:102F7600F0C39464EE940050149001ADE4F0A37491
:102F860064F080099001ADE4F0A37464F09001ADA3
:102F9600E0FEA3E0FF7C007D0A1205C4AD077F02B8
:0D2FA600123978E49001DBF0A37410F022E2
:101DEA00900258E09001E1F030E00E90025AE030A3
:101DFA00E0077F017E00122A839001E1E020E103DF
:101E0A00021E9E90025AE020E103021E9E7B017A86
:101E1A00007D0A7C007F0112325B9001AAE0640215
:101E2A0070187403F090025A74FFF07B017A007DF7
:101E3A000A7C007F0112325B805A9001AAE0640397
:101E4A0070157407F0E490025AF07B01FA7D0AFCDF
:101E5A007F0112325B803D9001AAE0640470157420
:101E6A0005F0E490025AF07B01FA7D0AFC7F011228
:101E7A00325B80209001AAE064097018C2077403DB
:101E8A00F090025A74FFF07B017A007D0A7C007F91
:101E9A000112325B9001E1E020E203021F8190020D
:101EAA005AE020E203021F819001AAE06404600361
:031EBA00021F8183
:101EBD009001E2F0A3F09001ADE0FFA3E09001E40A
:101ECD00CFF0A3EFF07B017A007D0A7C007F011239
:101EDD00325B9001E4E0FEA3E0FFC394C8EE6480A2
:101EED0094805009E49001E2F0A3F0804CC3EF948C
:101EFD00C8EE648094804014EF9490EE64809481D9
:101F0D00500A9001E2E4F0A304F0802DC3EF949009
:101F1D00EE648094814015EF9458EE648094825065
:101F2D000B9001E2E4F0A37402F0800DBE020ABF33
:101F3D005807E49001E2F0A3F09001E3E025E0FF03
:101F4D009001E2E033FE74662FF58274023EF58354
:101F5D00E0FEA3E0FF9001ADEEF0A3EFF07C007D7D
:101F6D000A1205C4AD077F02123978E49001DBF047
:041F7D00A37410F049
:101F81009001E1E030E30E90025AE030E3077F0177
:051F91007E00122F3656
:011F96002228
:083B8B00900258E09002B7F02F
:013B9300220F
:1037DB00900258E09001E1F030E01890025AE0308E
:1037EB00E01190025E7401F0FF7E00122A83E490D8
:1037FB00025EF09001E1E030E31890025AE030E312
:10380B001190025E7401F0FF7E00122F36E49002DD
:02381B005EF05D
:01381D002288
:1023B90041026300420264000042026100004202DD
:0723C9005F000041025E000D
:0D3B68009002637401F0E4FFFE123B3F2267
:10325B009001EBEFF0A3ECF0A3EDF0A3EAF0A3EBFE
:10326B00F090025EE0704B9001EBE0700A9002630D
:10327B00F0FFFE123B3F22900263E070359001ECB1
:10328B00E0FFA3E0900264CFF0A3EFF09001EEE03B
:10329B00FFA3E0900261CFF0A3EFF07F647E0012FA
:1032AB003B3F9001EBE004900263F0E490025FF08F
:0332BB00A3F0225B
:102BA300900263E06401700BFFFE123B3FE490026E
:102BB30063F022900263E0D3940174809480406BAD
:102BC300A3E0FEA3E0FF90025FE0B50613A3E0B528
:102BD300070EE4FFFE123B3F900263E014F0803DDA
:102BE300900264E0FEA3E0FF900262E02FFF9002F8
:102BF30061E03EFED3900260E09F90025FE09E4062
:102C03001C900263E0D394017480948040077F6436
:102C13007E00123B3F74FF90025FF0A3F0900260CE
:0C2C2300E004F0700690025FE004F02274
:1023D000410281004202820000C106C18541027FA4
:0523E000004102800035
:1028A700E58720E40302294DE4F595A2AF9209C21A
:1028B700AF75C7AA75C755439F01A20992AF75A601
:1028C70030F5A775AF04A2AF9209C2AF75C7AA7555
:1028D700C75543A401A20992AF85AE0875A631F585
:1028E700A7A2AF9209C2AF75C7AA75C75543A4017E
:1028F700A20992AF85AE09A2AF9209C2AF75C7AA66
:1029070075C755539FFEA20992AFE50825E0FFE47E
:1029170033FEE50954017C002FFFEC3EFE74F12FD6
:10292700FF74FF3EFEEF5401F509EEC313EF13F5F5
:102937000875C7AA75C75585088475C7AA75C75589
:062947008509855387EFAE
:01294D002267
:10222B00E49001E1F09001BD740AF0A37403F0A3F4
:10223B0074E8F0A374ACF0A37428F0A3741EF0A39D
:10224B00E4F0A37406F0A3E4F0A37405F0A3E4F0A8
:10225B00A37404F0A3E4F0A37403F0A3E4F0A37459
:10226B0003F0A3E4F0A37403F0A3E4F0A37403F06E
:10227B00A3E4F0A37403F0A3E4F0A37403F0A3E4CA
:10228B00F0A37403F0A3E4F0A37403F0A3E4F0A3AE
:10229B007403F0E49001E1F09001E1E0C394647405
:1022AB00809480501400000000000000000000002B
:1022BB0000000000E004F080DFE4FD7F01123978BC
:1022CB00E4FD7F011239789001BEE0FEA3E0FF7CB4
:1022DB00007D0A1205C4AD077F0C1239789001C03E
:1022EB00E0FD7F0D1239789001C1E0FD7F0E1239B0
:1022FB00789001C2E0FD7F0F1239787DF07F2312B9
:10230B0039787D057F1C1239787D197F1D1239783C
:10231B007D057F1E1239787D057F1F12397890015C
:10232B00E17410F09001E1E0C3941C748094805030
:10233B001CE0FF25E024A3F582E43401F583E0A340
:0D234B00E0FD1239789001E1E004F080D748
:012358002262
:101A3000E49001E0F0000000000000000000000061
:101A4000000000001228A7E4F5B1F5B2F5B3F5B433
:101A5000F5ACF5AD75B19B75B22075B38175B41059
:101A600075AC01F5AD90025AF0123B9412000E12C3
:101A70003ACD12389B123A44123AB41232BE12389E
:101A80001E123B81120003D206D2AF7B017A007D89
:101A90000A7C007F0112325B12294E121F979002BE
:101AA0003EE0600BE4F0122468122BA31231F79091
:101AB000023FE0600BE4F0121C15122C2F120D8D6A
:101AC000900241E06022E4F0122EB730061A900234
:101AD0007FE004F0E0C3940374809480400A1222F3
:101AE0002BE490027FF0C206900240E07003021BDC
:101AF000E4E4F0200503021BA790025AF090028054
:101B0000E004F0E0640170287D3DFF123A7F7D0C17
:101B10007F01123A7F7D3F7F02123A7FE4FD7F030F
:101B2000123A7F900276E04480F09002747401F0E3
:101B3000900280E06403704C7D33FF123A7F900284
:101B400081E075F00A842422F582E43402F583E012
:101B5000FD7F01123A7F900281E075F00A847422C1
:101B600025F0F582E43402F583E0FD7F02123A7F2E
:101B7000E4FD7F03123A7F900276E04480F0900209
:101B8000747401F0900280E0FF7E0064057006909E
:101B900001AA740BF0EF64074E700C9001AA04F0D8
:101BA000C205E4900280F020050690025A74FFF00E
:101BB0009001AAE06404602C900283E004F07006B7
:101BC000900282E004F0900282E0B40417A3E0B433
:101BD000B0127F01123B209001AA740AF0E4900237
:101BE00082F0A3F090023DE06024E4F01214D09063
:101BF00002B3E004F0E0D3940574809480400F2099
:101C0000050C9001A87406F09001AA740CF0123033
:041C1000A8021A9874
:011C140022AD
:103435009001E1EBF0A3EAF0A3E9F0A3E0FBA3E040
:10344500FAA3E0F9C003C002C0019001E1E0FBA3CB
:10345500E0FAA3E0F91208349001E1E0FBA3E0FAF9
:10346500A3E0F99000031207F000000000900007A8
:103475001207F0000000009001E7E0FCA3E0FDA3C7
:0C348500E0FEA3E0FF90000B12075F22A6
:1036510090020DEBF0A3EAF0A3E9F090020DE0FB7C
:10366100A3E0FAA3E0F990000712072FEF2401FF6E
:10367100E43EFEE43DFDE43CFC90000B12078312A6
:10368100066BAC00AD01AE02AF0390020DE0FBA3EF
:10369100E0FAA3E0F9900003120783C312070B704D
:0736A100037F01227F0022DC
:1036A800900206EBF0A3EAF0A3E9F0900206E0FB33
:1036B800A3E0FAA3E0F990000712072FEF2401FF17
:1036C800E43EFEE43DFDE43CFC90000B120783124F
:1036D800066BAC00AD01AE02AF03900206E0FBA39F
:1036E800E0FAA3E0F9900003120783C312070B70F6
:0736F800037F01227F002285
:103AE50090000712072F900003120783C312070BDC
:083AF50070037F01227F002213
:102DB70090020CEDF0900209EBF0A3EAF0A3E9F022
:102DC700123651EF60037F002290020CE0FFC0072C
:102DD700900209E0FBA3E0FAA3E0F99000071207CD
:102DE7002F1208148F828E83D0E01205A290020959
:102DF700E0FBA3E0FAA3E0F990000712072FEF2406
:102E070001FFE43EFEE43DFDE43CFC90000B1207AD
:102E17008312066BAC00AD01AE02AF03900209E06E
:102E2700FBA3E0FAA3E0F990000712075F7F0122F6
:102E3700900205EDF0900202EBF0A3EAF0A3E9F0AF
:102E47001236A8EF60037F0022900205E0FFC0075B
:102E5700900202E0FBA3E0FAA3E0F9900007120753
:102E67002F1208148F828E83D0E01205A2900202DF
:102E7700E0FBA3E0FAA3E0F990000712072FEF2485
:102E870001FFE43EFEE43DFDE43CFC90000B12072D
:102E97008312066BAC00AD01AE02AF03900202E0F5
:102EA700FBA3E0FAA3E0F990000712075F7F012276
:102B16009001E2EBF0A3EAF0A3E9F09001E2E0FB1A
:102B2600A3E0FAA3E0F9123AE5EF60037F002290F2
:102B360001E2E0FBA3E0FAA3E0F990000312072FFD
:102B46001208148F828E83120563FF9001E5E0FB65
:102B5600A3E0FAA3E0F9EF1205909001E2E0FBA3EF
:102B6600E0FAA3E0F990000312072FEF2401FFE437
:102B76003EFEE43DFDE43CFC90000B12078312068A
:102B86006BAC00AD01AE02AF039001E2E0FBA3E047
:0D2B9600FAA3E0F990000312075F7F01220F
:1023E50041000000410001004100050041000600D8
:1032BE009001E47401F0A37400F0A374DEF0A31285
:1032CE0007BF000000967B017A00793912343590E1
:1032DE0001E47401F0A37400F0A37448F0A3120784
:1032EE00BF000000967B017A00792A1234359000D7
:1032FE0021747FF090002814F090018B04F090015F
:0E330E009214F09001747402F090000AF02204
:10397800E4FE90018CEFF0FEA37401F06EFEA3ED5F
:10398800F06EFEA3F0E4A3F0A3747EF07B017A014D
:10399800798B90018DE024069001FDF07F011231B2
:0139A8001FFF
:0139A90022FB
:10390E00E4FE90018CEFF0FEA37402F06EFEA3EDC8
:10391E00F06EFEA3EBF06EFEA3F0E4A3F0A3747EB4
:10392E00F07B017A01798B90018DE024069001FDE8
:06393E00F07F0112311FB1
:013944002260
:101F97009001E57401F0A37401F0A374E1F07B01F3
:101FA7007A007939122B16EF70030220F590002181
:101FB700E0FF9001E1E0FEB5070B9000007401F02F
:101FC7009001A6F022900000E024FE601C146046F9
:101FD700147003022063240360030220F59000229B
:101FE700EEF09000007402F022900023EEF0D394FC
:101FF70002748094804006E4900000F022E4900090
:1020070001F07B01A304F0A37400F0A37424F09003
:1020170000007403F0229001E1E0FF900002E0FB72
:10202700A3E0FAA3E0F9900001E0F582758300EFE1
:102037001205A2900001E004F0900023E02402FFC3
:10204700E433FE900001E0C39FEE6480F87480984B
:1020570050030220F59000007404F022900028E05D
:10206700FF9001E1E06F60030220F07B0190000226
:1020770004F0A37400F0A37422F0E49001E1F0905F
:102087000001F0900023E02402FFE433FE900001FA
:10209700E0C39FEE6480F8748098502B9001E1E0D4
:1020A700FF900002E0FBA3E0FAA3E0F9900001E053
:1020B700F582758300120563FEEF6E9001E1F090E3
:1020C7000001E004F080BC900002E0FBA3E0FAA36B
:1020D700E0F9900001E0F582758300120563FF9037
:0E20E70001E1E0B507031220F6E4900000F0DE
:0120F50022C8
:1020F600900022E024FD601714603524FE60211450
:10210600604E14607214700302219602222A22B2D3
:10211600859001A67401F0900024E0900281F022DF
:102126009001A5E0600302222A9001AA7407F0221A
:102136009001A67401F09001A8E0700D900024E0D3
:102146009001A8F0E49001A5F09001AA740CF02289
:1021560090018C7407F0A37402F0900295E0900150
:102166008EF0F4A3F07B017A01798B9001FD74095E
:10217600F07F0112311F22900025E0FF900024E03D
:10218600FE5F7006900295EEF022E4900295F02232
:102196007B017A007D0A7C007F0112325B9000246D
:1021A600E07026900279E04410F04408F04420F0F4
:1021B6004440F04401F04402F04404F07FD27E042F
:1021C60012266B7F01123B2022900024E0640170EE
:1021D60026900279E04410F04408F04420F0444090
:1021E600F04401F04402F04404F07F2E7E161226DD
:1021F6006B7F01123B2022900024E0640270259040
:102206000279E04410F04408F04420F04440F044E1
:1022160001F04402F04404F07FB87E2212266B7F60
:0522260001123B202223
:103A0200E4FE90000BEFF0A3EDF06FFEA3F0A374C1
:103A120003F07B017A00790A9001FD7405F0E4FF5E
:033A220012311F3F
:013A2500227E
:1039D900E4FE90000BEFF0A3EDF06FFEA3EBF06EA9
:1039E900FEA3F0A37403F07B017A00790A9001FD2C
:0839F9007406F0E4FF12311F17
:013A010022A2
:10394500E4FE90000BEFF0A3EDF06FFEA3EBF06E3D
:10395500FE9001EEE090000EF06EFEA3F0A374035E
:10396500F07B017A00790A9001FD7407F0E4FF12FB
:02397500311F00
:01397700222D
:10385E00E4FE90000BEFF0A3EDF06FFEA3EBF06E25
:10386E00FE9001EEE090000EF06EFE9001EFE09003
:10387E00000FF06EFEA3F0A37403F07B017A0079C3
:0C388E000A9001FD7408F0E4FF12311FE5
:01389A00220B
:10375000E4FE90000BEFF0A3EDF06FFEA3EBF06E34
:10376000FE9001EEE090000EF06EFE9001EFE09012
:10377000000FF06EFE9001F0E0900010F06EFEA3DE
:10378000F0A37403F07B017A00790A9001FD7409BB
:06379000F0E4FF12311FFE
:013796002210
:1029EC00E4FE90000BEFF0A3EDF06FFEA3EBF06EA6
:1029FC00FE9001EEE090000EF06EFE9001EFE09084
:102A0C00000FF06EFE9001F0E0900010F06EFE9062
:102A1C0001F1E0900011F06EFE9001F2E0900012D6
:102A2C00F06EFE9001F3E0900013F06EFE9001F456
:102A3C00E0900014F06EFE9001F5E0900015F06E41
:102A4C00FE9001F6E0900016F06EFE9001F7E0901B
:102A5C000017F06EFE9001F8E0900018F06EFEA3E7
:102A6C00F0A37403F07B017A00790A9001FD7411D4
:062A7C00F0E4FF12311F1F
:012A82002231
:10294E009001E57401F0A37401F0A374E1F07B0132
:10295E007A00792A122B16EF70030229EB900005EC
:10296E00E024FE6016146034240270649001E1E0ED
:10297E00900175F09000057402F0229001E1E09054
:10298E000176F0E4900006F07B01A304F0A374013D
:10299E00F0A37477F09000057403F0229001E1E04B
:1029AE0064037008121790E4900005F09001E1E0C6
:1029BE00FF900007E0FBA3E0FAA3E0F9900006E029
:1029CE00F582758300EF1205A2900006E004F02256
:0D29DE009001E1E06402700590000504F036
:0129EB0022C9
:101790009001ADE0FEA3E0FF7C007D0A1205C4903D
:1017A00001E2EFF09001AFE0A3E0A3E0FFA3E0903F
:1017B00001E3CFF0A3EFF09001B3E0FCA3E0FDA3C1
:1017C000E0FEA3E0FF1203D39001E51207B3E47B30
:1017D00064FAF9F89001B7E0FCA3E0FDA3E0FEA3F2
:1017E000E0FF12066B9001E9EEF0A3EFF0900175B7
:1017F000E024AF605924FE700302191D2403600326
:10180000021A2F900176E024FE601F14602C24033E
:101810006003021A2FE49001EEF0A37403F0E4A336
:10182000F07BE1FD7F50123750229001EE740AF0F8
:101830007B647D027F5012394522E49001EEF0A3D3
:101840007402F0E4FB7D037F5012385E2222900187
:10185000AAE024FD602414602B24FE602714602479
:1018600024FE602024FD7003021912240A60030282
:101870001A2FE4FD7F51123A02227B037D027F5131
:101880001239D9229001AAE0FF7E00640770047D1E
:1018900001801CEF64044E70067F037D038010906E
:1018A00001AAE0640670047F0480027F0AAD07C0CD
:1018B000059001E2E0FBE49001EEF09001E3E0FC32
:1018C000A3E09001EFF0ECA3F09001E5E0FCA3E0D1
:1018D000FDA3E0FEA3E0FFE49001F1EFF09001E54D
:1018E000E0A3E0A3E0A3E0780812071CEFE4900176
:1018F000F2EFF09001E9E0FCA3E09001F3F0ECA33B
:10190000F0E4A3F0A3F0A3F0A3F0D0057F511229D7
:10191000EC22E4FB7D057F511239D9222290017619
:10192000E024FE60591470030219DE24F9700302EA
:101930001A0A24096003021A2F9001AAE0FF640228
:101940006005EF640970299001A8E070237B037D96
:10195000017F531239D99001AA7403F090025A748E
:10196000FFF07B017A007D0A7C007F0112325B224E
:101970007B017A007D0A7C007F0212325B2290019B
:10198000AAE064046003021A2F900177E075F00A60
:10199000A4FFAEF09001ADEEF0A3EFF07C007D0A65
:1019A0001205C4AD077F02123978E49001DBF0A381
:1019B0007410F09001ADE0FEA3E0FF7C007D0A1200
:1019C00005C4AB07E49001EEF07D027F5312394568
:1019D0007B017A007D0A7C007F0112325B2290013C
:1019E000AAE0FF64046005EF640970437D037F5340
:1019F000123A029001AA7405F0E490025AF07B01B9
:101A0000FA7D0AFC7F0112325B229001AAE0640495
:101A1000701D7D0A7F53123A029001AA7405F0E40A
:0F1A200090025AF07B01FA7D0AFC7F0112325BC3
:011A2F002294
:0F3B30000001020304000A141E28323C46505ABA
:1023F5004101A5004301DD3F3F3F43019F5E760C50
:102405004101A3004101A2004401940000000041E4
:102415000198004101990041019A0041019B004149
:0B242500019C0041019D0041019E0050
:10381E00E49001A6F09001AF1207BF00000000E493
:10382E009001ADF0A3F09001B31207BF00000000AD
:10383E009001B71207BF00000000E49001BBF0A397
:10384E00F09001A9F09001A8F0C2959001ACF02281
:1031F7009001A3E070059001A2F0229001A2E004E3
:10320700F0E0D39414748094804048E4F09001AEC9
:10321700E0940A9001ADE09400400EA3E024F6F09C
:103227009001ADE034FFF08007E49001ADF0A3F02A
:10323700E49001DBF0E0FF7E001209799001ADE038
:103247007002A3E0700D9001AA7407F0E49001A248
:04325700F0A3F022CE
:1014D0009001AAE06404600B9001941207BF000021
:1014E000000022900294E06403704D9001AFE0FC94
:1014F000A3E0FDA3E0FEA3E0FFEC4D4E4F60219082
:1015000001AFE0A3E0A3E0A3E024FFFFEE34FFFE81
:10151000ED34FFFDEC34FFFC9001AF1207B380689F
:101520009001AA7405F0E490025AF07B96FA7D329D
:10153000FC7F0512325B80509001AFE0FCA3E0FD20
:10154000A3E0FEA3E02401FFE43EFEE43DFDE43C15
:10155000FC9001AF1207B3E47F707E17FDFC900191
:10156000AFE0F8A3E0F9A3E0FAA3E0FBC312070B96
:1015700040169001AA7405F0E490025AF07B96FAA6
:101580007D32FC7F0512325B900294E064016003BF
:10159000021647900194E0F8A3E0F9A3E0FAA3E073
:1015A000FBC000C001C002C0039001ADE0FCA3E09D
:1015B000FDE412039AE4FBFA79B4784312027FD077
:1015C00003D002D001D0001200859001941207B31D
:1015D0009001B3E0FCA3E0FDA3E0FEA3E0FFC004A4
:1015E000C005C006C0079001ADE0FCA3E0FDE41219
:1015F000039AE4FBFA79B4784312027FA804A905A0
:10160000AA06AB07D007D006D005D00412008190FF
:1016100001B31207B3E4FFFE7D207C419001B3E0EB
:10162000F8A3E0F9A3E0FAA3E0FB12031C506990D1
:1016300001AA7405F0E490025AF07B96FA7D32FC20
:101640007F0512325B80519001B3E0F8A3E0F9A36B
:10165000E0FAA3E0FBC000C001C002C0039001ADEE
:10166000E0FCA3E0FDE412039AE4FBFA79B47843CA
:1016700012027FD003D002D001D000120085900169
:10168000B31207B39001B3E0FCA3E0FDA3E0FEA317
:10169000E0FF9001941207B3900294E064026003AB
:1016A0000217649001ADE0FCA3E0FDE412039AE4AC
:1016B000FBFA79B4784312027FE4FBFA798C784222
:1016C000120176C004C005C006C0079001B7E0FC57
:1016D000A3E0FDA3E0FEA3E0FFE4120395A804A9A4
:1016E00005AA06AB07D007D006D005D00412031C0C
:1016F00040509001ADE0FCA3E0FDE412039AE4FB4E
:10170000FA79B4784312027FE4FBFA798C784212BA
:101710000176C004C005C006C0079001B7E0FCA375
:10172000E0FDA3E0FEA3E0FFE4120395D003D002A6
:10173000D001D0001200811203D39001B71207B379
:1017400080439001B71207BF000000009001AA7407
:1017500005F0E490025AF07B96FA7D32FC7F051288
:10176000325B8021E4FFFE7D8C7C42900194E0F8A6
:10177000A3E0F9A3E0FAA3E0FB1201761203D390F1
:0F17800001B71207B39001DBE0FF7E0012097979
:01178F002237
:100D8D009001AAE014B40C004003021173900DA859
:100D9D0075F003A4C58325F0C58373020DCC021134
:100DAD007C020E4302117C020F48020F79020F954F
:100DBD0002117C02100B0210220210810210D3903E
:100DCD000198E004F0E0D394017480948050030204
:100DDD00117CE4F0900279E054F7F054FDF054FBEF
:100DED00F054EFF054FEF054DFF0E4FDFF123A7FC3
:100DFD007D3F7F01123A7F7D637F02123A7F7D63D3
:100E0D007F03123A7F7F01123B2090018C7408F012
:100E1D00A37401F0E4A3F07B017A01798B9001FDBD
:100E2D007409F07F0112311F90025A74FFF0900186
:100E3D00AA7402F02222900198E070457B01FA7DA0
:100E4D000AFC7F0112325BE4FDFF123A7FE4FD7F65
:100E5D0001123A7F90019AE0249FF582E43401F566
:100E6D0083E0FD7F03123A7FE4FD7F02123A7F7F1C
:100E7D0001123B209001987401F090019AF0020F3D
:100E8D003D900198E004F0E0D3940A748094805072
:100E9D0003020F3D7401F0FB7A007D0A7C00FF1206
:100EAD00325B90019AE0D39402748094805030E4C8
:100EBD00FDFF123A7FE4FD7F01123A7F90019AE027
:100ECD00249FF582E43401F583E0FD7F03123A7F20
:100EDD00E4FD7F02123A7F90019AE004F08051E424
:100EED0090019AF09001ADF0A37464F07C007D0A3E
:100EFD00FF7E001205C4AB077D017F0112390E90F4
:100F0D0001ADE0FEA3E0FF7C007D0A1205C4AB0736
:100F1D007D017F0112390E9001AA7404F0E4900155
:100F2D00DBF0A3740EF09001DBE0FF7E0012097977
:100F3D00900279E054DFF054BFF022E49001DCF030
:100F4D00FD7F01123978E4FD7F011239787F01129E
:100F5D003B20E4900294F09001A2F0A304F0E49001
:100F6D000198F0A3F09001AA7406F022900199E087
:100F7D0004F0E0D394FA74809480500302117CE461
:100F8D00F09001AA7407F022E49001DCF07F707EEE
:100F9D0017FDFC9001AFE0F8A3E0F9A3E0FAA3E0A0
:100FAD00FBC312070B500320072FE49001ADF0A3F4
:100FBD00F0A31207BF000000009001B31207BF009D
:100FCD000000009001B71207BF000000009001AAB9
:100FDD007401F0FF123B20801030070DE49001AD3D
:100FED00F0A3F09001AA7409F0E49001A3F090022F
:100FFD0094F0900198F090019AF0123B68229001C4
:10100D00AA7401F0E49001A3F0900198F090019A78
:10101D00F0123B6822E49001DCF09001AF1207BFA3
:10102D00000000009001B31207BF00000000900106
:10103D00B71207BF00000000E49001BBF0A3F090D1
:10104D000279E054F7F054FDF054FBF054FEF054E7
:10105D00DFF0E4FDFF123A7FE4FD7F01123A7FE4F9
:10106D00FD7F02123A7FE4FD7F03123A7F90025A10
:10107D0074FFF022900279E04408F04402F0440439
:10108D00F04401F04420F04440F0900275E04480BB
:10109D00F09002747401F0900276E04480F09002BA
:1010AD00747401F0900277E04480F0900274740142
:1010BD00F0900278E04480F09002747401F07FB8F3
:1010CD007E2212266B22E490025AF0FDFF123A7F27
:1010DD007D737F01123A7F900222E0FD7F02123A6A
:1010ED007F9001A8E02422F582E43402F583E0FD2F
:1010FD007F03123A7F900279E054F7F054FDF054DB
:10110D00FBF054EFF054FEF054DFF054BFF09002BA
:10111D0076E0547FF09002747401F0E49001AAF02F
:10112D009001DCF09001A5E0700DFD7F0112397882
:10113D00E4FD7F011239789001A5E004F0E0D3942D
:10114D003C74809480400BE49001AAF09001A5744A
:10115D003CF090025BE0701704F07B327A007D2C3E
:0F116D00FCFF12325B22E4900198F090019AF09F
:01117C002250
:080979009001E1EEF0A3EFF0A4
:1009810078E37C017D017BFF7A3B79307E007F0536
:1009910012052478E87C017D017BFF7A3B79357E65
:1009A100007F0A120524E49001F2F09001E1E07069
:1009B10002A3E0707A900279E04408F054FDF0540B
:1009C100FBF054EFF054FEF054DFF054BFF090010F
:1009D100ADE0FAA3E0FB7C007D64FFAE021205C42A
:1009E1009001F3EFF07C007D64AF03AE021205C409
:1009F100AF05A3EFF09001F3E0FF122D36C3900194
:100A0100AEE094E89001ADE09403500FE4FDFF12D5
:100A11003A7FE4FD7F01123A7F8006E4FDFF123A3E
:100A21007F900277E04480F09002747401F022908C
:100A310001E1E07004A3E064016003020B2C900269
:100A410079E054F7F04402F054FBF054EFF054FE17
:100A5100F054DFF04440F09001B3E0FCA3E0FDA3CB
:100A6100E0FEA3E0FF9001F51207B37F007E4B7D0E
:100A7100C37C479001F5E0F8A3E0F9A3E0FAA3E015
:100A8100FB12031C400A9001F51207BF0000000091
:100A91009001F5E0FCA3E0FDA3E0FEA3E0FF12035B
:100AA100D3E47BE87A03F9F812066B9001F3EFF0D7
:100AB1009001F5E0FCA3E0FDA3E0FEA3E0FF12033B
:100AC100D3E47B0AFAF9F812066BE47B64FAF9F8CD
:100AD10012066B9001F4EBF07F007E3C7D1C7C469E
:100AE100A3E0F8A3E0F9A3E0FAA3E0FB12031C6082
:100AF10002501F9001F3E0FFA3E0FD122CB4E4FDCE
:100B0100FF123A7F900276E04480F0900274740103
:100B1100F0229001F3E0FFA3E0FD122CB4900276E5
:100B2100E04480F09002747401F0229001E1E070E1
:100B310004A3E064026003020CCE900279E054F752
:100B4100F054FDF04404F054EFF054FEF054DFF0A3
:100B510054BFF07F587E3E7D0F7C009001B7E0F8D6
:100B6100A3E0F9A3E0FAA3E0FBC312070B400A904C
:100B710001B71207BF000000007F9F7E867D017CC8
:100B8100009001B7E0F8A3E0F9A3E0FAA3E0FBD3FA
:100B910012070B5057E47BE87A03F9F89001B7E0AC
:100BA100FCA3E0FDA3E0FEA3E0FF12066B9001F3BE
:100BB100EFF0E47BE87A03F9F89001B7E0FCA3E0F9
:100BC100FDA3E0FEA3E0FF12066BAC00AD01AE0297
:100BD100AF03E47B0AFAF9F812066B9001F4EFF027
:100BE100FD9001F3E0FF122D36020C787FA07E8686
:100BF1007D017C009001B7E0F8A3E0F9A3E0FAA33E
:100C0100E0FBC312070B406F7F587E3E7D0F7C00D7
:100C11009001B7E0F8A3E0A3E0A3E0D312070B50E3
:100C210056E47BE87A03F9F89001B7E0FCA3E0FD14
:100C3100A3E0FEA3E0FF12066BE47B0AFAF9F812C7
:100C4100066B9001F3EFF0E47B64FAF9F89001B7D9
:100C5100E0FCA3E0FDA3E0FEA3E0FF12066BE47B52
:100C610064FAF9F812066BAF039001F4EFF0FD900E
:100C710001F3E0FF122CB4900277E04480F090027F
:100C8100747401F07F9F7E86FD7C009001B7E0F8CF
:100C9100A3E0F9A3E0FAA3E0FBD312070B400302A0
:100CA1000D8CE47F0F7E27FDFC9001B7E0F8A3E0F7
:100CB100A3E0A3E012070B500DE4FDFF123A7FE41D
:100CC100FD7F01123A7FE4FDFF123A7F229001E19C
:100CD100E07004A3E064036003020D8C900279E0EC
:100CE10054F7F054FDF054FBF054EFF04401F0449C
:100CF10020F04440F09001AFE0FCA3E0FDA3E0FE52
:100D0100A3E0FFE41203959001F91207B39001F9F2
:100D1100E0FCA3E0FDA3E0FEA3E0FF1203D3E47B2C
:100D21003CFAF9F812066BE47B64FAF9F812066BE7
:100D31009001F3EBF09001F9E0FCA3E0FDA3E0FEEC
:100D4100A3E0FF1203D3E47B3CFAF9F812066B909F
:100D510001F4EBF0E4FFFE7D167C449001F9E0F82C
:100D6100A3E0F9A3E0FAA3E0FB12031C50129001E7
:100D7100F3E0FFA3E0FD122CB4E4FDFF123A7F2261
:0B0D81009001F3E0FFA3E0FD122CB492
:010D8C002244
:102C2F009001DCE024F1601E14606724027075E4EB
:102C3F0090019BF09001DBF0E0FF7E00120979908C
:102C4F0001DC740FF02290019BE004F0E0D394328A
:102C5F0074809480404EE4F09001AAE0FF6401601C
:102C6F0014EF6402600FEF6404600AEF64056005FF
:102C7F00EF6406702F9001DBE004F0E0C39404745E
:102C8F008094804002E4F09001DBE0FF7E001209A7
:102C9F007922E49001DBF0E0FF7E001209799001C8
:042CAF00DC740FF0D2
:012CB30022FE
:102EB70090019DE0146017047074E49001A6F0FD82
:102EC7007F03123978E490019CF0A304F02290016B
:102ED7009CE004F09001A6E0FD704A7F0312397868
:102EE70090019CE0D39401748094804041E4F09079
:102EF700019EE004F0E0D3940A748094804020900F
:102F070001A87406F09001AA740CF090019D740258
:102F1700F07B327A007D2C7C017F0112325B22E448
:0E2F270090019DF022E490019EF090019DF03B
:012F35002279
:0A3B8100E4900293F0A3F0A3F022F9
:103AFD00E4900284F0A3F0A37407F0A304F0E4A310
:023B0D00F022A4
:04243000410218004D
:093B940043B10153B2FEC200224C
:10117D00208013900211E004F07006900210E0043C
:10118D00F0C203021466300303021456900219E0F4
:10119D00FEA3E0FFC39402EE94004032D3EF940A15
:1011AD00EE94005029900210E0FEA3E0FFC3948757
:1011BD00EE94004019D3EF94FAEE94005010E4A38E
:1011CD00F0D20190021EF0A3F0A3F0021449200109
:1011DD0003021260900219E0FEA3E0FFC39402EE39
:1011ED009400406FD3EF940AEE9400506690021273
:1011FD00E004F0E0C3941874809480500302144905
:10120D0020022C90021EE090021BF090021FE09035
:10121D00021CF0900220E090021DF0D202E4900238
:10122D0012F0C201A37403F0A37484F00214499068
:10123D00021EE0900215F090021FE0900216F09051
:10124D000220E0900217F0D204E4900212F0C201E5
:10125D0002144920010302142A900219E0FEA3E0B2
:10126D00FFC3940EEE9400500302142AD3EF94188A
:10127D00EE9400400302142A900212E004F0E014F0
:10128D00B4180040030214499012A375F003A4C5CD
:10129D008325F0C583730212EB0212F50212FF02D1
:1012AD00130902131302131D021327021331021324
:1012BD003B02134502134F02135902136302136DC0
:1012CD0002137702138102138B02139502139F02EF
:1012DD0013A90213B30213BD0213C70213D0900258
:1012ED001EE04480F002144990021EE04440F002DA
:1012FD00144990021EE04420F002144990021EE0B1
:10130D004410F002144990021EE04408F002144902
:10131D0090021EE04404F002144990021EE04402C3
:10132D00F002144990021EE04401F00214499002AB
:10133D001FE04480F002144990021FE04440F00287
:10134D00144990021FE04420F002144990021FE05E
:10135D004410F002144990021FE04408F0021449B1
:10136D0090021FE04404F002144990021FE0440271
:10137D00F002144990021FE04401F002144990025A
:10138D0020E04480F0021449900220E04440F00235
:10139D001449900220E04420F0021449900220E00C
:1013AD004410F0021449900220E04408F002144960
:1013BD00900220E04404F0021449900220E044021F
:1013CD00F08079900220E04401F020022B90021E63
:1013DD00E090021BF090021FE090021CF0900220A2
:1013ED00E090021DF0D202C201E4900212F0A3744B
:1013FD0003F0A37484F0804490021EE0900215F077
:10140D0090021FE0900216F0900220E0900217F07B
:10141D00D204C201E4900212F08021801FE49002F8
:10142D0012F0C20190021EF0A3F0A3F0900219F089
:10143D00A3F0900210F0A3F0900218F0E4900210C7
:10144D00F0A3F0900219F0A3F090021AE004F070EE
:10145D0006900219E004F0D20330024C900214E021
:10146D0024FFF0900213E034FFF0E07002A3E0706F
:10147D0002C202300432900215E0FF90021BE0B56B
:10148D000720900216E0FF90021CE0B507149002B1
:10149D0017E0FF90021DE0B50708D200C202C2049A
:1014AD008006C200C202C204300017C2AFC2009053
:1014BD00021DE0900218F0E4900220F090021DF061
:0314CD00D2AF2279
:1024340041023E0041023F0041024100410240008E
:1024440041023D00420233000042023500004202D4
:0D245400370000420239000042023B000048
:03000B0002256C5F
:10256C00C0E0C0F0C083C082C0D075D000C000C035
:0D257C0001C002C003C004C005C006C007B6
:10258900758CFF758AB412117D90023AE004F070DF
:1025990006900239E004F0D390023AE094A7900241
:1025A90039E094004009E4F0A3F090023E04F09071
:1025B9000234E004F07006900233E004F0D3900294
:1025C90034E09483900233E094064009E4F0A3F0E8
:1025D90090023F04F0900236E004F0700690023554
:1025E900E004F0D3900236E09454900235E0941060
:1025F9004009E4F0A3F090024104F090023CE004A9
:10260900F0700690023BE004F0D390023CE0949411
:1026190090023BE094204009E4F0A3F090024004CA
:10262900F0900238E004F07006900237E004F0D32D
:10263900900238E094D8900237E094404009E4F0E1
:07264900A3F090023D04F034
:10265000D007D006D005D004D003D002D001D000DE
:0B266000D0D0D082D083D0F0D0E03288
:10389B00A2AF9209C2AF75C7AA75C7554391014331
:1038AB00C60275C7AA75C7555391FEA20992AF53AD
:1038BB00DF3F43DF0353DFFB75D10275D9E4E4F53A
:0B38CB00D3F5DB53D6FDD2DED2DF22A6
:0E3B3F00AD07AC06ECF5D3AF058FDBD2DE226E
:0E3B4D00AD07AC06ECF5D4AF058FDCD2DE225E
:103AB4005389F0438901538EF7758CFF758AB4439B
:093AC400B702C2B9D2A9D28C22CA
:06246100C1084102B400B5
:103A44007F807E257D007C001238D67F607E097DD4
:0E3A5400007C00123030C208439C01D2AC222C
:04318E00AB05AA07DC
:103192009001FE1207BF0000FFFFEA14600D0470E9
:1031A20053C2998B9920994C80FB229002B47401EE
:1031B200F0AF038F9A9002B4E0640170379001FE81
:1031C200E0FCA3E0FDA3E0FEA3E0FFEC4D4E4F6068
:1031D200239001FEE0A3E0A3E0A3E024FFFFEE348E
:1031E200FFFEED34FFFDEC34FFFC9001FE1207B34D
:0431F20080C380C155
:0131F60022B6
:0B311F009001FAEBF0A3EAF0A3E9F046
:10312A00EF14602C04705CE4FF9001FDE0FEEFC335
:10313A009E5050D2089001FAE0FBA3E0FAA3E0F90E
:10314A008F82758300120563F5992008FD0F80D9D7
:10315A009001FDE0D394007480948040269001FA97
:10316A00E0FBA3E0FAA3E0F912054AFD7F01123160
:10317A008E9001FBE475F0011206199001FDE0142E
:03318A00F080CD05
:01318D00221F
:03002300020026B2
:10002600C0E0C0F0C083C082C0D075D000C000C0A0
:0D00360001C002C003C004C005C006C00721
:1000430030980FC298AF997B017A00792AAD0712D5
:090053002E37309904C299C2084D
:10005C00D007D006D005D004D003D002D001D000F8
:0B006C00D0D0D082D083D0F0D0E032A2
:03007B000234ED5F
:1034ED00C0E0C0F0C083C082C0D075D000C000C0A5
:0D34FD0001C002C003C004C005C006C00726
:10350A0030F814C2F8AF9A9002B3E4F07B017A0063
:10351A007939AD07122DB730F9079002B4E4F0C239
:01352A00F9A7
:10352B00D007D006D005D004D003D002D001D000F4
:0B353B00D0D0D082D083D0F0D0E0329E
:0700030090028974A5F022B0
:10379700E4FFEFC3940274809480500F74B52FF543
:1037A70082E43402F583E4F00F80E77B017A027943
:1037B700B59002927402F0E4FF1236FF7B017A02A1
:1037C70079B512054A64A5700A9000011205639045
:0337D700028AF073
:0137DA0022CC
:103A6200E4FF1233D890028974A5F07B017A0279BF
:0D3A7200899002717402F0E4FF12274122D6
:1033D8007E007480A807088005C333CE33CED8F9A1
:1033E8002400FFEE3445FEEFF5A6EEF5A775AEFF17
:1033F800A2AF9209C2AF75C7AA75C755439F01A26C
:103408000992AFA2AF9209C2AF75C7AA75C7554353
:10341800A501A20992AF75AF22A2AF9209C2AF75FA
:0C342800C7AA75C75543A401A20992AFC2
:013434002275
:0B27410090026EEBF0A3EAF0A3E9F0B9
:10274C007E007480A807088005C333CE33CED8F939
:10275C002400FFEE3445900272F0A3EFF0A2AF928A
:10276C0009C2AF75C7AA75C755439F01A20992AF9D
:10277C00A2AF9209C2AF75C7AA75C75543A501A2EE
:10278C000992AF75AF21E4FD900271E0FFEDC39F9C
:10279C005036A3E0FEA3E02DF5A6EEF5A790026E51
:1027AC00E0FBA3E0FAA3E0F98D82758300120563C8
:1027BC00F5AEA2AF9209C2AF75C7AA75C75543A4AF
:1027CC0001A20992AF0D80C0A2AF9209C2AF75C72A
:1027DC00AA75C75553A5FEA20992AFA2AF9209C222
:0E27EC00AF75C7AA75C755539FFEA20992AFDD
:0127FA0022BC
:0B36FF0090028FEBF0A3EAF0A3E9F0CB
:10370A007E007480A807088005C333CE33CED8F96B
:10371A002400FFEE3445FEE4FD900292E0FCEDC386
:10372A009C5022EF2DF582E43EF583E493FC90024F
:10373A008FE0FBA3E0FAA3E0F98D82758300EC1217
:05374A0005A20D80D472
:01374F002257
:030077007F0022E5
:103546009002971207B3538EF7438901D28CE4FF9A
:10355600FEFDFC900297E0F8A3E0F9A3E0FAA3E0F1
:10356600FBC312070B602F758A7E758CFF308DFDAD
:10357600C28D900297E0FCA3E0FDA3E0FEA3E02449
:10358600FFFFEE34FFFEED34FFFDEC34FFFC90024E
:09359600971207B380B8C28C2221
:10359F0090029B1207B3538EF7438901D28CE4FF3D
:1035AF00FEFDFC90029BE0F8A3E0F9A3E0FAA3E094
:1035BF00FBC312070B602F758ACA758CFA308DFD0D
:1035CF00C28D90029BE0FCA3E0FDA3E0FEA3E024EC
:1035DF00FFFFEE34FFFEED34FFFDEC34FFFC9002F5
:0935EF009B1207B380B8C28C22C4
:1035F80090029F1207B3538EEF438910D28EE4FFD7
:10360800FEFDFC90029FE0F8A3E0F9A3E0FAA3E036
:10361800FBC312070B602F758BEA758DCB308FFDBE
:10362800C28F90029FE0FCA3E0FDA3E0FEA3E0248C
:10363800FFFFEE34FFFEED34FFFDEC34FFFC90029B
:093648009F1207B380B8C28E2264
:103491009002A31207B353C9BF53C9DF43C910D266
:1034A100CAE4FFFEFDFC9002A3E0F8A3E0F9A3E06B
:1034B100FAA3E0FBC312070B602F75CC3075CDF872
:1034C10030CFFDC2CF9002A3E0FCA3E0FDA3E0FE5C
:1034D100A3E024FFFFEE34FFFEED34FFFDEC34FFEB
:0C34E100FC9002A31207B380B8C2CA22FC
:10331C009002A71207B375C40743C408E4FFFEFD6F
:10332C00FC9002A7E0F8A3E0F9A3E0FAA3E0FBC34A
:10333C0012070B603575C52C75C6CFE5C4541064E7
:10334C001070F853C4EF9002A7E0FCA3E0FDA3E0DB
:10335C00FEA3E024FFFFEE34FFFEED34FFFDEC3462
:0E336C00FFFC9002A71207B380B253C4F722F1
:10337A009002AB1207B375C40743C408E4FFFEFD0D
:10338A00FC9002ABE0F8A3E0F9A3E0FAA3E0FBC3E8
:10339A0012070B603575C5D875C6FFE5C4541064AD
:1033AA001070F853C4EF9002ABE0FCA3E0FDA3E079
:1033BA00FEA3E024FFFFEE34FFFEED34FFFDEC3404
:0E33CA00FFFC9002AB1207B380B253C4F7228F
:1038D60053B1BF53B2BF53B17F53B27F75985043B4
:1038E6008920438780438E1053C4DFAB07AA06A9FD
:1038F60005A8047FBC7ED47D0F7C0012066BEFF416
:0839060004F58DD28ED2992246
:102FB3009002AF1207B353B1BF53B2BF53B17F53A4
:102FC300B27F75985043878053C4F843C42090025E
:102FD300AFE0F8A3E0F9A3E0FAA3E0FB7FBC7ED463
:102FE3007D0F7C0012066BC3E49FFFE49EFE740119
:102FF3009DFDE49CFC780812071C8FC69002AFE08D
:10300300F8A3E0F9A3E0FAA3E0FB7FBC7ED47D0F35
:103013007C0012066BC3E49FFFE49EFE74019DFDDA
:0D302300E49CFCEFE48FC543C408D2992261
:103030009001E11207B353B1FB53B2FB53B3BF533B
:10304000B4BF75F85075C40853C4DF9001E1E0F8CF
:10305000A3E0F9A3E0FAA3E0FB7FBC7ED47D0F7C64
:103060000012066BC3E49FFFE49EFE74019DFDE425
:103070009CFC780812071C8FC69001E1E0F8A3E0E1
:10308000F9A3E0FAA3E0FB7FBC7ED47D0F7C0012A5
:10309000066BC3E49FFFE49EFE74019DFDE49CFC6F
:0830A000EFE48FC543C40822D0
:103A9A0075C7AA75C755A2AF9209C2AF75C7AA75ED
:0A3AAA00C755439F80A20992AF2286
:10007E0002043FE86480F8E933E83360110460F06D
:10008E00ED33EC337009E8FCE9FDEAFEEBFF2204E8
:10009E0060DED3EB9FEA9EE99DE8C2E78CF0C2F7E3
:1000AE0095F0400CE8CCF8E9CDF9EACEFAEBCFFBAF
:1000BE0012040A85D0F05804700320D5B3E80470FA
:1000CE00075002B2D502044992D5EC0460F7E4CC95
:1000DE00C0E0C398F8603B94186008400DD0E0FB78
:1000EE00020421E4FBFAC9FC8028E830E406E4C9E6
:1000FE00FBE4CAFCE830E305E4C9CACBFCE85407CC
:10010E006010F8C3E913F9EA13FAEB13FBEC13FCD6
:10011E00D8F130F52FC3E49CFCEF9BFFEE9AFEED79
:10012E0099FDD0E0FBEF4E4D4C701222DB03020422
:10013E0046EC2CFCEF33FFEE33FEED33FDED30E7F6
:10014E00EB020421EF2BFFEE3AFEED39FDD0E0FB82
:10015E0050130BBB0003020449ED13FDEE13FEEF2B
:08016E0013FFEC13FC02042155
:10017600EC4D6011E8497017ED33EC3304600DE483
:10018600FCFFFEFD22E933E8330470F802043F1257
:10019600040A58046009E4CC248150062850090258
:1001A6000449284003020446C0E0EB4A7044B98083
:1001B60006D0E0FB020435EF4E701CBD8008EBFF55
:1001C600EAFEE9FD80EBE98DF0A4FEE5F002025FB0
:1001D600E9CDF9EAFEEBFFEF89F0A4FCE5F0CE8964
:1001E600F0A42EFFE435F0CD89F0A42DFEE435F021
:1001F6008067EF4E7005BD80D780C3EF8BF0A4AC4F
:10020600F0EE8BF0A42CFCE435F0F8EF8AF0A42C89
:10021600E5F038FCE433CB8DF0A42CFCE5F03BF89C
:10022600EE8AF0A42CFCE5F038F8E433CF89F0A48C
:100236002CFCE5F038CF3400CE89F0A42FFFE5F092
:100246003EFEE433C98DF0A42EFEE5F039CD8AF0EA
:10025600A42FFFE5F03EFEE43DFD33D0E0FB500762
:100266000BBB000F020449EC2CFCEF33FFEE33FE10
:06027600ED33FD0204213E
:10027C00020449EC5D046005E85904700302043F74
:10028C0012040A580460F6EC4860F2EC7004FDFEAF
:10029C00FF22C860DB2481C85009C3986002500655
:1002AC000204469850CAF582E9294B4A7005AB8284
:1002BC0002043575F0007C1A7880C3EF9BEE9AED42
:1002CC0099400DC3EF9BFFEE9AFEED99FDE842F0CD
:1002DC00DC23ACF0D0E0FFD0E0FED0E0FDAB822020
:1002EC00E7101BEB60BAEC2CFCEF33FFEE33FEEDAA
:1002FC0033FD020421E803F830E705C0F075F00087
:10030C00EF2FFFEE33FEED33FD40B830E7C280AA8D
:10031C0074F8CC6480CCC86480C8F58204604FC388
:10032C00EB9FF5F0EA9E42F0E99D42F0E89C45F027
:10033C00603C501DE5825FFFE582D313CB5BCBF4B1
:10034C002B5582FB50280ABA002409B900200880DA
:10035C001DE5825BFBE582D313CF5FCFF4C3132F74
:10036C005582FF50090EBE00050DBD00010CC3EBFC
:10037C009FF5F0EA9E42F0E99D42F0E89C45F06062
:09038C0007CC4820E701B3EC2284
:1003950075F020800E75F010800575F0087D007EE3
:1003A500007F003392D530D5031206FDEC334010A3
:1003B500EF33FFEE33FEED33FDEC33FCD5F0ED22EC
:0E03C500E5F0247EA2D513CC92E7CDCEFF2228
:1003D300EDD2E7CD33EC3392D524814006E4FFFE22
:1003E300FDFC22FCE4CFCECDCC24E0501174FF8081
:1003F300EDC3CC13CCCD13CDCE13CECF13CF04701E
:07040300F030D5DE0206FD1A
:10040A00E9D2E7C933E833F892D5EDD2E7CD33EC38
:07041A0033FC5002B2D522B1
:10042100EC30E7100FBF000C0EBE00080DBD00043C
:100431000BEB6014A2D5EB13FCED92E7FD2274FFE8
:10044100FCFDFEFF22E480F8A2D574FF13FC7D8041
:03045100E480EF55
:10282700021A30E493A3F8E493A34003F68001F27D
:1028370008DFF48029E493A3F85407240CC8C333B2
:10284700C4540F4420C8834004F456800146F6DF81
:10285700E4800B0102040810204080902359E47E95
:10286700019360BCA3FF543F30E509541FFEE49376
:10287700A360010ECF54C025E060A840B8E493A33D
:10288700FAE493A3F8E493A3C8C582C8CAC583CA68
:10289700F0A3C8C582C8CAC583CADFE9DEE780BE20
:012467000074
:10045400E709F608DFFA8046E709F208DFFA803E8A
:1004640088828C83E709F0A3DFFA8032E309F60877
:10047400DFFA8078E309F208DFFA807088828C83DF
:10048400E309F0A3DFFA806489828A83E0A3F60893
:10049400DFFA805889828A83E0A3F208DFFA804C6D
:1004A40080D280FA80C680D4806980F28033801044
:1004B40080A680EA809A80A880DA80E280CA8033AD
:1004C40089828A83ECFAE493A3C8C582C8CCC58325
:1004D400CCF0A3C8C582C8CCC583CCDFE9DEE780F5
:1004E4000D89828A83E493A3F608DFF9ECFAA9F074
:1004F400EDFB2289828A83ECFAE0A3C8C582C8CCCA
:10050400C583CCF0A3C8C582C8CCC583CCDFEADEE2
:10051400E880DB89828A83E493A3F208DFF980CC44
:1005240088F0EF60010E4E60C388F0ED2402B4043D
:100534000050B9F582EB2402B4040050AF232345E4
:0605440082239004A47361
:10054A00BB010689828A83E0225002E722BBFE02AF
:09055A00E32289828A83E49322E2
:10056300BB010CE58229F582E5833AF583E022504D
:1005730006E92582F8E622BBFE06E92582F8E22297
:0D058300E58229F582E5833AF583E49322B1
:10059000BB010689828A83F0225002F722BBFE014A
:0205A000F32244
:1005A200F8BB010DE58229F582E5833AF583E8F08F
:1005B200225006E92582C8F622BBFE05E92582C83B
:0205C200F22223
:1005C400BC000BBE0029EF8DF084FFADF022E4CC1B
:1005D400F875F008EF2FFFEE33FEEC33FCEE9DECE4
:1005E400984005FCEE9DFE0FD5F0E9E4CEFD22ED2A
:1005F400F8F5F0EE8420D21CFEADF075F008EF2F74
:10060400FFED33FD4007985006D5F0F222C398FD64
:050614000FD5F0EA2201
:10061900C5F0F8A3E028F0C5F0F8E582158270026C
:060629001583E038F02209
:10062F0075F008758200EF2FFFEE33FECD33CDCC82
:10063F0033CCC58233C5829BED9AEC99E582984005
:10064F000CF582EE9BFEED9AFDEC99FC0FD5F0D6E2
:10065F00E4CEFBE4CDFAE4CCF9A88222B800C1B90C
:10066F000059BA002DEC8BF084CFCECDFCE5F0CB4A
:10067F00F97818EF2FFFEE33FEED33FDEC33FCEB83
:10068F0033FB10D703994004EB99FB0FD8E5E4F93E
:10069F00FA227818EF2FFFEE33FEED33FDEC33FC2B
:1006AF00C933C910D7059BE99A4007EC9BFCE99A1F
:1006BF00F90FD8E0E4C9FAE4CCFB2275F010EF2F64
:1006CF00FFEE33FEED33FDCC33CCC833C810D70764
:1006DF009BEC9AE899400AED9BFDEC9AFCE899F89F
:0E06EF000FD5F0DAE4CDFBE4CCFAE4C8F92232
:0E06FD00C3E49FFFE49EFEE49DFDE49CFC220E
:10070B00EB9FF5F0EA9E42F0E99D42F0E89C45F044
:01071B0022BB
:10071C00E8600FECC313FCED13FDEE13FEEF13FFBB
:03072C00D8F122DF
:10072F00BB010DE58229F582E5833AF58302088F37
:10073F005007E92582F8020883BBFE07E92582F8F6
:10074F0002089BE58229F582E5833AF5830208A723
:10075F00BB010DE58229F582E5833AF5830207B3E4
:10076F005007E92582F80208EDBBFE07E92582F85C
:04077F000208F92251
:10078300BB010DE58229F582E5833AF5830208C4AE
:100793005007E92582F80208B7BBFE07E92582F86E
:1007A3000208D0E58229F582E5833AF5830208DD64
:0C07B300ECF0A3EDF0A3EEF0A3EFF022B9
:1007BF00A8828583F0D083D0821207D61207D61273
:1007CF0007D61207D6E473E493A3C583C5F0C58398
:1007DF00C8C582C8F0A3C583C5F0C583C8C582C884
:0107EF0022E7
:1007F000BB010DE58229F582E5833AF5830207BF47
:100800005007E92582F8020905BBFE07E92582F8B1
:0408100002091E2299
:10081400BB010789828A830209495005E9F8020964
:1008240037BBFE05E9F802095B89828A8302096DF8
:10083400BB011A89828A83D0F0D0E0F8D0E0F9D0E5
:10084400E0FAD0E0FBE8C0E0C0F00209525016E93B
:10085400F8D083D082D0E0F9D0E0FAD0E0FBC082B7
:10086400C083020940BBFE16E9F8D083D082D0E0F1
:0F087400F9D0E0FAD0E0FBC082C0830209642211
:0C088300E6FC08E6FD08E6FE08E6FF22A1
:0C088F00E0FCA3E0FDA3E0FEA3E0FF22DC
:0C089B00E2FC08E2FD08E2FE08E2FF2299
:1008A700E493FC740193FD740293FE740393FF2297
:0D08B700E6FB08E6F908E6FA08E6CBF822B1
:0C08C400E0F8A3E0F9A3E0FAA3E0FB22B7
:0D08D000E2FB08E2F908E2FA08E2CBF822A8
:1008DD00E493F8740193F9740293FA740393FB2271
:0C08ED00ECF608EDF608EEF608EFF62237
:0C08F900ECF208EDF208EEF208EFF2223B
:10090500D083D082E493F608740193F608740293B9
:09091500F608740393F6740473F0
:10091E00D083D082E493F208740193F208740293A8
:09092E00F208740393F2740473DF
:09093700E6FB08E6FA08E6F922E5
:09094000EBF608EAF608E9F622DC
:09094900E0FBA3E0FAA3E0F922AF
:09095200EBF0A3EAF0A3E9F022A6
:09095B00E2FB08E2FA08E2F922CD
:09096400EBF208EAF208E9F222C4
:0C096D00E493FB740193FA740293F922E6
:00000001FF
