:020000040000FA
:1000000048040020D9000000F3000000091500009A
:1000100000000000000000000000000000000000E0
:10002000000000000000000000000000F7000000D9
:100030000000000000000000F9000000DD180000D2
:10004000651600006D160000751600007D16000094
:10005000FD000000FD000000FD000000311D00005B
:10006000FD000000FD00000085180000FD000000FC
:1000700015150000FD000000E51B0000ED1B000051
:10008000F51B0000FD000000051C00000D1C000019
:10009000151C000055160000691E0000FD00000040
:1000A000B1080000FD000000591E0000611E0000A4
:1000B0004D160000FD0000007112000085110000C7
:1000C0000448854600F0E2FB004800477528000020
:1000D000C046C0464804002009480A4A002100A141
:1000E000814200D902440848026008488047084815
:1000F0000047FEE7FEE7FEE7FEE7FEE7FEE700005B
:10010000000000200000000008ED00E0DD1B000002
:10011000C100000030B50B4601460020202201241A
:1001200009E00D46D5409D4205D31D469540491B2B
:100130002546954040191546521E002DF1DC30BD74
:1001400003460B439B0703D009E008C9121F08C0F0
:10015000042AFAD203E00B780370401C491C521E9B
:10016000F9D27047D2B201E00270401C491EFBD2A6
:1001700070470022F6E710B513460A4604461946B2
:10018000FFF7F0FF204610BDF8B502464A40D40FF5
:1001900042004B0052085B089A4202D202460846CF
:1001A00011464A0023D0C30D4A00DDB2120EAD1A2B
:1001B000202D35DA49020126490AF6058A19002C54
:1001C00000D0524220214F1B1146B9402A4110183D
:1001D000C20D9A4221D0002C17D0012D08DCDA057F
:1001E000801AD20F8019D207DBB200F0B7FAF8BD3F
:1001F000DA05801A012340001B06C01880185A42F5
:100200008018CA0F1043490007E04908C20711438C
:10021000DA05801A80194008801800F097FAF8BDB6
:1002200061000122511A001BF7E70122D207514059
:10023000AAE70122D2075040A6E7024670B54A401D
:10024000D30FDB0740002DD04A002AD0010E140E38
:10025000000212020919400A520A8418E5010446F4
:100260005443000A120A2E045043A4194219200CC8
:10027000C543AA18120C0125AD03521C52191204D1
:100280007F39240400D0521C104301D44000491E81
:10029000C2B20C06C0092018401C4008802A02D0B7
:1002A00003E0002070BD40084000002900DA002073
:1002B000184370BDF0B507460846584087B0C00FD8
:1002C000049048000E46590040084908BC1A88416D
:1002D00005D2384631461E4617460B4602465800A0
:1002E000400810434DD0300D039040055900400D9B
:1002F000490D0590401A0290402873DA1803012135
:10030000000B09050843019004980092002806D0CC
:100310001146019A494200209041009101900298B3
:1003200040210A1A0199009800F0DCF905460C46B4
:100330006B4607CB00F0F7F9C0197141039A0E0D17
:100340000023D71756401A467A40164344D0049AE1
:10035000002A2DD0029A012A039A15DC1205C01A30
:10036000914101263605001C7141D20F059ED2072E
:100370000093019202962A46234600F035FA07B010
:10038000F0BD38463146FAE71605234A0F46B21843
:10039000C01AB74101210905001C4F4100187F41D7
:1003A000114618187941E20F10436D19644113E0AA
:1003B000E2076D0815436408C2071443039A012637
:1003C0001205C01A91413605001C7141CE07400844
:1003D00030434908C01851412A46234600F0F7F936
:1003E000CDE7FFE7049801224000C117121A00234D
:1003F0008B4104983146C417381AA141EEE730B456
:100400000124E407634030BC54E730B40124E4071E
:10041000614030BC4EE700000000E0FFF0B51FB4C3
:1004200088B00B990998002448400999C00F4900E9
:1004300049080991C0070B990090490049080B91A0
:1004400009990898A64608431CD00B990A980843B6
:1004500018D0099801244000420D4800410D099828
:1004600024050003000B204309900B980003000BA8
:1004700020430B9050181C4940180022019014464C
:10048000104605E0002001460DB0F0BD032801DA5A
:10049000034600E003239C46C11A0AAE0AE05F004F
:1004A00008ADED5B4F00F75B7D430027AA187C4148
:1004B000491C5B1E6145F2DD410004AB5A52210428
:1004C000120C0A43240C401C0828DFDB0198029020
:1004D0000099704601910090059B049A079906982F
:1004E00000F082F9D0E700000DFCFFFFF0B50C46EC
:1004F0005C4085B0E40FE40703944C0000266408D8
:1005000059009446490802460296224321D0624689
:100510000A431ED06200570D4A000E032303550DF7
:10052000012402462C492405781B1B0B360B40186E
:1005300023432643614600901C46501AB44103D31E
:100540000098401C009002E0921800985B4100283F
:1005500003DA0020014605B0F0BD002001210905A5
:100560000746864611E064461D46141BB54106D376
:100570006546521BB341744607430C43A646CD075C
:1005800040084908284392185B4105460D43EAD1CB
:100590001046184313D06046194650407140084336
:1005A00006D06046101AB34106D20122002306E0AD
:1005B00000220123DB0702E00122D24353100098FE
:1005C00074460105381C6141029C039D0019694174
:1005D00000F0FDF8BFE70000FD0300000EB505497F
:1005E0000291002100910A460B46019100F0FCF8AF
:1005F00003B000BD33040000410040020122400A64
:10060000D205090E80187F2901DA0020704796294B
:1006100003DC9622511AC8407047963988407047CB
:100620004A0009030123090B1B051943094B10B5A7
:10063000520D9A4201DA002010BD064B34339A4223
:1006400003DC9A1A00F05EF810BD03495118884087
:1006500010BD0000FF030000CDFBFFFFC20FD2075B
:10066000400040080BD0C10D0723DB01C918400230
:100670000905400A1143C208400711437047002092
:100680000146704710B5002904DB0124E40740420D
:100690008C412146002B04DB1C460123DB07524220
:1006A000A341994200D1904210BD0000CB0FDB075F
:1006B000490010B5490802460A4307D00A0D07242D
:1006C0000903E401090B121B002A01DC002010BD04
:1006D000C900440F0C43C100E018D205801800F097
:1006E00035F810BD10B5202A04DB0146203A9140B0
:1006F000002010BD914020239C1A0346E34019437B
:10070000904010BD10B5202A04DB0846203AD040A6
:10071000002110BD0B46D340D0402024A21A9140A6
:100720000843194610BD10B5202A06DBCB17084632
:10073000203A1041C1170B4306E00B461341D0404D
:100740002024A21A91400843194610BD002904DA5A
:10075000401C490001D140084000704770B400249B
:10076000050C05D11024000402D1002921D0112448
:10077000050E01D100020834050F01D10001241D2E
:10078000850F01D18000A41C002801DB4000641CFF
:10079000002908D020252E1B0D46F540A14000D091
:1007A00001212943084301061B1B000ADB1D02D55A
:1007B000002070BC7047DB05181880180029F8DA93
:1007C000401C4900F5D170BC40084000704710B58E
:1007D000002B08DA0024401C614192185B411A4347
:1007E00001D14008400010BDF0B51FB482B00546ED
:1007F0000C0003D0084601F07FFB02E001F07CFB17
:1008000020300246009021462846FFF76BFF049BEC
:10081000059A04460F4618431143084314D018465E
:1008200010431BD0009840210A1A18460599FFF77B
:1008300069FF05460E46009A05990498FFF752FF96
:10084000084305D0012004E02046394607B0F0BD3A
:100850000020C11705430E432C43374300990E98DF
:100860006305401A7905E40A00220C43FD0A0A30A8
:1008700002D500200146E9E70105101969410C9CE9
:100880000D9D00196941FFF7A2FFDFE7064C012526
:10089000064E05E0E36807CC2B430C3C9847103428
:1008A000B442F7D3FFF710FC983C0000B83C0000BE
:1008B00010B5C046C04610BD00291AD0002818D077
:1008C000002202600C48826803159A4382604268E5
:1008D000F0239A430B781B071B0E1A434260826871
:1008E0000979C314C9079A43090D0A43826000209D
:1008F000704704207047000000240040024841680F
:10090000012211434160704700240040002806D0B6
:100910000449896A0905090D0180002070470420F7
:10092000704700004024004010B5002856D02C49E4
:100930004A680C239A4303799B071B0F1A434A60AA
:100940004A680323DB029A43037A9B07DB0C1A43B2
:100950004A604A6803231B029A43037B9B079B0D53
:100960001A434A604A680B159A43037CDB075B0D08
:100970001A434A601A4A40329369848A1B0B1B034C
:100980002405240D23439361D369048B1B0B1B03A4
:100990002405240D2343D3618A68037F5209520141
:1009A000DB06DB0E1A438A608A681F23008C5B011A
:1009B000C0069A43800D02438A604A680814824345
:1009C0004A608A6882438A6088684A1490438860D3
:1009D00088688A1490438860002010BD042010BDF0
:1009E00000240040024840688007C00F70470000A4
:1009F000002400400748416A0822914341620548AB
:100A000040384168C21311434160416802221143DA
:100A1000416070474024004010B5002A05D01346BD
:100A20002033002903D001295BD0042010BD816D43
:100A3000147849084900E407E40F21438165816D7A
:100A40000224A143147DE407A40F21438165816D35
:100A50000424A143147EE407640F21438165816D62
:100A60000824A143147CE407240F21438165816D90
:100A70003024A143147BA407A40E21438165816D1A
:100A8000C024A143147AA407240E21438165816DFB
:100A9000FF240134A1431479E407E40D2143816567
:100AA000816D03246402A143148CA407640D2143C7
:100AB0008165816D0324E402A143147FA407E40C43
:100AC00021438165816E1B7949084900DB07DB0FF3
:100AD00019438166816E128D062399439207520F46
:100AE0005EE0816D01242404A1431478E407E40B43
:100AF00021438165816D01246404A143147DE407D1
:100B0000A40B21438165816D0124A404A143147EBB
:100B1000E407640B21438165816D0124E404A14352
:100B2000147CE407240B21438165816D0324240593
:100B3000A143147BA407A40A21438165816D03248A
:100B4000A405A143147AA407240A21438165816D79
:100B500001242406A1431479E407E40921438165B3
:100B6000816D03246406A143148CA4076409214306
:100B70008165816D0324E406A143147FA407E40882
:100B800021438165816E1B791024DB07A143DB0EB5
:100B900019438166816E128D602399439207520E2C
:100BA00011438166002010BD10B5002902D00A68EB
:100BB000052A01D9042010BD036D0E245207A3435A
:100BC000120F13430365026DFF2301339A430B7920
:100BD000DB07DB0D1A430265026D097A70234907B2
:100BE0009A43490E0A430265002010BD002907D030
:100BF000012907D0022907D0032907D00420704714
:100C0000026104E0426102E0826100E0C261002012
:100C10007047416000207047016D0122114301655A
:100C20000020704770B588B0002305AC002A01D0C1
:100C3000D55C00E00025E5545B1CDBB2082BF5D346
:100C400002460A32531825460022AE5C521CF318A5
:100C5000D2B29BB2082AF8D3AA226D462A70BB22D0
:100C60006A700A22AA70E870297100206946225C25
:100C70000D18401CC0B26A710828F8D3180A4873CE
:100C80008B73EE20C873FF2008741122002001F03E
:100C900053F808B070BD10B58CB00121102000F0E1
:100CA00027FFFFF72BFE00F015F900240320059025
:100CB0000294039404946846047607940894099473
:100CC00002A80A94FFF730FE0120009068460471E4
:100CD000694602A8FFF7F0FD0CB010BDF7B59AB059
:100CE00006460C210BA801F087FB2C210EA801F071
:100CF00083FB2C21684601F07FFB01210A2000F0D4
:100D0000F7FE0220104F002401250D900BA90C9531
:100D10000B943846FFF748FF31463846FFF779FF16
:100D2000294638461C9AFFF761FF68460094057112
:100D30000294049405946A4601213846039506946A
:100D4000FFF76AFE1DB0F0BD0030004000B587B06F
:100D50001821684601F050FB01211C2000F0C8FE5C
:100D60000020029001906A460521402000F058FBC7
:100D700003220521402000F093FB07B000BD0000D6
:100D800030B587B0144C154D0121082000F0B0FE9D
:100D900000200090019002900390049001200590A3
:100DA0006946002000F036F9002000F0C1F800206C
:100DB00000F0FEF8012203210E2000F005FA214682
:100DC000002000F093F82946002000F0CFF8002022
:100DD00000F0BCF907B030BD40A20000F0D8000020
:100DE00030B587B0144C154D0121082000F080FE6D
:100DF0000020009001900290039004900120059043
:100E00006946022000F006F9022000F091F8022065
:100E100000F0CEF801221146102000F0D5F921464D
:100E2000022000F063F82946022000F09FF802201B
:100E300000F08CF907B030BD66FA0000F0D8000071
:100E40000EB501211F2000F053FE002000F05CFAD7
:100E5000042000F057FE00200090019002906846A8
:100E600000F040FD0EBD000070B50B4C224611464F
:100E7000601EFFF733FF094D2846FFF7CDFEFFF751
:100E800065FF224601212846FFF7B0FEFFF778FFF5
:100E9000FFF7A6FF70BD0000DC0500000030004039
:100EA00010B5112000F050FE0121022000F040FD9D
:100EB000022000F069FE002000F024FE002000F077
:100EC00063FE0021022000F033FD0021084600F0FF
:100ED000FBFA10BD10B504480168012211430160FE
:100EE000022001F093FA10BD0024004000220F4BB5
:100EF000002806D001280AD002280ED00122104670
:100F000070471868000C000408431860F7E7186A77
:100F1000000C000408431862F1E7044840300368FD
:100F20001B0C1B040B430360E9E70000000C0040AE
:100F300000210D4A002806D0012809D002280CD033
:100F40000121084670475069400840005061F8E7A9
:100F5000506B400840005063F3E70348403042695B
:100F6000520852004261ECE7000C004000220F4B97
:100F7000002806D001280AD002280ED001221046EF
:100F800070475868000C000408435860F7E7586A37
:100F9000000C000408435862F1E7044840304368FD
:100FA0001B0C1B040B434360E9E70000000C0040EE
:100FB0000C4B00211A15002806D0012808D0022861
:100FC0000AD0012108467047D8681043D860F9E775
:100FD000D86A1043D862F5E702484030C36813432B
:100FE000C360EFE7000C004001460020084A0029DA
:100FF00009D0012909D0022904D1054840300069EF
:10100000C007C00F70471069FAE7106BF8E70000DF
:10101000000C0040F0B54C4A0023022455159615EB
:101020007027002806D0012831D002285CD0012387
:101030001846F0BDD068A8430D78ED07AD0D2843E4
:10104000D060D0680D79B043ED07ED0D2843D06036
:10105000D0680D7AB8436D076D0E2843D060D06814
:101060000825A8430D7BED072D0F2843D060D068DD
:101070000425A8430D7CED076D0F2843D060D06890
:10108000097DA043C907890F0843D060D0E7D06A23
:10109000A8430D78ED07AD0D2843D062D06A0D79D5
:1010A000B043ED07ED0D2843D062D06A0D7AB84306
:1010B0006D076D0E2843D062D06A0825A8430D7BCA
:1010C000ED072D0F2843D062D06A0425A8430D7C7C
:1010D000ED076D0F2843D062D06A097DA043C90790
:1010E000890F0843D062A3E717484030C268AA437B
:1010F0000D78ED07AD0D2A43C260C2680D79B24389
:10110000ED07ED0D2A43C260C2680D7ABA436D0740
:101110006D0E2A43C260C2680825AA430D7BED0705
:101120002D0F2A43C260C2680425AA430D7CED0737
:101130006D0F2A43C260C268097DA243C907890FA7
:101140000A43C26074E70000000C00400021012245
:101150000B4B002806D0012808D002280AD0012114
:1011600008467047D8681043D860F9E7D86A10433A
:10117000D862F5E702484030C3681343C360EFE725
:10118000000C004010B5C046C04610BD01600021F3
:101190004160C2608160704710B5C046C04610BD56
:1011A00010B504464068A268904201D1002010BDED
:1011B0002268105C08706068E168401CFEF7AAFFB6
:1011C0000120616010BD000070B5C406E40E01236B
:1011D000A340002801DB184C23608407E40EFF25A0
:1011E000A5408907090EA140002808DB8608134C9A
:1011F000B60034192668AE430E4326600AE00407A1
:10120000240F083CA6080E4CB6003419E669AE431C
:101210000E43E661012A08D0002805DB0948036077
:10122000BFF34F8FBFF36F8F70BD0028FCDB054805
:101230008038036070BD000080E200E000E400E060
:1012400000ED00E080E100E070B50D46044600F0DE
:1012500065F9002801D0002070BDA16820684554C0
:10126000A068E168401CFEF755FF0120A16070BD39
:1012700010B5C046C046C046C04610BDF0B58BB0E4
:1012800005460024FF272021684608970994FEF7A9
:1012900070FF194E012D32460AD0022D08D0042DC0
:1012A00006D0062D04D0082D02D004200BB0F0BDCE
:1012B0006B461249A0000958641C69431950082C58
:1012C000F7D300211D46FF200890880008E0089C05
:1012D000671E08970DD30A4CF4620A4CF46213504F
:1012E00014582B589C42F2D1491C0829EBD3099879
:1012F000DCE70720DAE7000000000240603C000065
:101300005A5A0000A5A5000010B508490246064B30
:101310000020CB62064BCB620B6A0424D207A343A6
:10132000520F13430B6210BD5A5A000000000240D6
:10133000A5A500000068C840C007C00F704730B5C1
:1013400087B001211C2000F0D3FB0024012501946B
:10135000039404946A46042180200595029400F0C9
:101360005FF86A460321802000F05AF86A4604219B
:10137000402000F055F86A460421C02000F050F8E3
:1013800001220421802000F0B5F8012203218020F1
:1013900000F0B0F801220421402000F0ABF8012257
:1013A0000421C02000F0A6F86A460621802003959B
:1013B00000F036F86A460221C02000F031F86A4693
:1013C0000321C02000F02CF801220621802000F02B
:1013D00091F801220221C02000F08CF801220321A3
:1013E000C02000F087F86A460321C020019500F074
:1013F00017F86A4605218020059400F011F80621AF
:10140000802000F057F8FFF746FC07B030BD000021
:10141000024A10B58018FFF78DFF10BD040D024081
:1014200070B504461C4815460E460022201800F0F0
:101430004BFAB100194A09190020891808601648AA
:101440002A78001F3146201800F03EFA12482A7907
:101450000C383146201800F037FA0F482A7A10303D
:101460003146201800F030FA0B482A7B1430314600
:10147000201800F029FA08482A7C18303146201834
:1014800000F022FA04482A7D20303146201800F06E
:101490001BFA002070BD00000C0D0240000C024041
:1014A00089000818024940180260002070470000B7
:1014B000000C0240034B10B50122C01800F004FAE2
:1014C000002010BD0C0D024010B5094A53680124DC
:1014D0006403C007A343800C034353605068032395
:1014E0009B0289079843090D08435060002010BDF6
:1014F000000F0240034B10B5C01800F0E5F90020C2
:1015000010BD0000080D024008B500200090002822
:10151000FDD008BD10B5C046C04610BD10B504468C
:10152000C1688068401CFEF7F5FD6068814201D10A
:10153000012010BD002010BDF8B53F4D00243F48EC
:101540006C7100780126C107002900D06E718107F7
:1015500003D56979022211436971410703D569797D
:10156000042211436971010703D5697908221143E7
:101570006971C10603D5697910221143697140066A
:1015800003D5687940210843687105218020FFF761
:101590003FFF002806D000F0F7FFE878002816D1BA
:1015A000EE7014E0E878012811D12879401CC0B20F
:1015B000287132280BD122480A22047021481421B4
:1015C000447086702C71EC70012000F007FD687982
:1015D000A9791D4F88420BD03C80687001F01EF83D
:1015E0006879A8712878782801D92E7000E02C70CD
:1015F0006979002911D03C80287878280AD9697047
:10160000A878401CC0B2A870052802D1AC7000F0C8
:10161000DDFFF8BD401C2870F8BD28780128FBD1FB
:1016200008482C7000790028F6D1012208211046C4
:1016300000F0D4FCF8BD000064000020AA000020E7
:1016400050000020E00000200C00002010B5C04633
:10165000C04610BD10B5C046C04610BD10B5C0464E
:10166000C04610BD10B5C046C04610BD10B5C0463E
:10167000C04610BD10B5C046C04610BD10B5C0462E
:10168000C04610BDF8B50321C020FFF7C1FE0122FE
:1016900000217B4C002803D0A078002805D0C1E0B1
:1016A000608A401C6082A170C0E0208A831E082BE3
:1016B00009D8658A873D732D05D8A171E270E17163
:1016C00021726172ACE0E578002D6ED0082B1BD83A
:1016D000A079401CC0B2A07118280BD32079002833
:1016E000E07908D06073207AA073607AE073627149
:1016F000A171E17094E0A072207AE072607A2073A8
:101700002271A171E1707FE00E380A284DD8A079CE
:101710000825401CC7B2A771102004263B0000F02A
:1017200002FC197F0E1116191D202326292C313495
:10173000383B3E4145484D5054575A5D7F00E07953
:10174000802301E0E07940231843E07168E0E37909
:10175000202000E0E3790343E37161E0E07928436E
:10176000F3E7E0793043F0E7E0790223ECE7E07952
:101770001043EAE7207A802301E0207A40231843CF
:1017800020724DE0207A2023F9E7237A0343237265
:1017900046E0207A2843F3E7207A3043F0E7207AC6
:1017A0000223ECE7207A1043EAE731E0607A8023F5
:1017B00001E0607A40231843607231E0607A2023B0
:1017C000F9E7637A034363722AE0607A2843F3E718
:1017D000607A3043F0E7607A0223ECE7607A1043E6
:1017E00060722379002BE37907D06373237AA373A4
:1017F000E0736271E170A17112E0A372237AE37267
:1018000020732271E170A171E1208000A08207E0C5
:10181000A171E170E1712172617221826182617056
:1018200061822182208A401C2082A27020790028B7
:101830001DD0A08A401E0004000CA08200D121719E
:101840006079002813D0A07A637B98420BD1E07AAC
:10185000A37B984207D1207BE37B984203D122707F
:101860002171617106E0217021716171F8BD2078EC
:101870000028FBD02170207B607061722173F8BD5D
:101880009400002010B5C046C04610BD1CB5010A2A
:101890006A461170507000200190D070907001461F
:1018A0000320FFF7BFF91CBD70B5054600240022D8
:1018B00011460220FFF7B6F92846FFF7E7FF641C40
:1018C000E4B2032CF3D370BD01238B400168012ADD
:1018D00002D09943016070471943FBE710B5C04639
:1018E000C04610BD70B5044600680025002804D02D
:1018F000012811D0022816D004250121206800F00B
:1019000017F8206800F040F9606800F0CDF8A06892
:1019100000F0DCF8284670BD032000F049F90320F0
:1019200000F024F9E9E7032000F0FEF8E5E7000005
:1019300070B50E460546002400F09AFA002E01D03C
:10194000012100E000211C4A106A002D07D0012D62
:1019500010D0022D24D004241062204670BD1368DC
:101960005B085B000B4313600029F5D0D3681B05AF
:10197000FAD5F1E7136A01252D072B4313620F4EA9
:10198000F36806252B43F36013680225AB434D0033
:101990002B4313600029DFD013695B06FAD5DBE720
:1019A00013680425AB438D002B4313600029D3D06B
:1019B0005369DB04FAD5CFE700200040000D024058
:1019C00010B58AB0002414222D4903A8FEF7B8FBF5
:1019D0002B48001F006808900020009001900290A2
:1019E000284801886A4611814188D1808188918088
:1019F000C088508023482030008823491080086820
:101A00008006800F04D0012827D0022831D126E09B
:101A1000C86812894005400D904201D1079C28E01A
:101A2000C8686A464005D288400D904201D1069CA4
:101A30001FE0C8686A4640059288400D904201D177
:101A4000059C16E0C8686A4640055288400D9042E1
:101A500001D1049C0DE0039C0BE00C4C09E01088C4
:101A60004A699205920D9042684601D1448C00E08B
:101A7000048C08680AB0C005410F2046C84010BD5C
:101A8000843C0000000C1000002000400048E801E9
:101A900010B5FFF795FF034909684905890FC8404C
:101AA00010BD00000020004010B5044600F0E0F931
:101AB000054A1168FF20C13081436007C00D014312
:101AC0001160002010BD00000020004010B5044649
:101AD00000F0CEF9054A1168032040028143A007B7
:101AE000400D01431160002010BD000000200040A7
:101AF0000A4610B501460248FFF7E6FE002010BD79
:101B00002020004006494000401800880549400553
:101B1000CA68400DD20AD2020243CA600020704750
:101B2000000C10000020004010B5064A0146536921
:101B300000200324A4028907A343090D0B4353612A
:101B400010BD0000002000400649400040180088F9
:101B5000054980054A69800D920A920202434A6152
:101B600000207047000C10000020004010B5054A0E
:101B700001461369002030248907A343890E0B43D3
:101B8000136110BD0020004070B50446002500F030
:101B90006FF90648016830229143A207920E114363
:101BA000016000F013F8284670BD000000200040DE
:101BB000054A0146136900209B089B008907890F8D
:101BC0000B431361704700000020004010B5FFF781
:101BD000F7FE0149086010BD0000002010B5FFF7B6
:101BE000F5FF10BD10B500F019F810BD10B5C046D6
:101BF000C04610BD10B500F04DF810BD10B5C04680
:101C0000C04610BD10B5C046C04610BD10B5C04698
:101C1000C04610BD10B5C046C04610BD10B500206E
:101C2000FFF7E2F9012831D1194B0121D888401C76
:101C300082B20020DA800A2A01D9D88019701A8964
:101C4000521C92B21A81642A01D9188159705A899A
:101C5000521C92B25A81FA2A01D9588199709A89F4
:101C6000FF24521C92B2F5349A81A24201D9988184
:101C7000D970DA897D24521C92B2E400DA81A24242
:101C800001D9D88119710020FFF752F910BD000069
:101C90001A00002010B50220FFF7A6F9012804D190
:101CA000FFF7F0FC0220FFF743F910BDF8B5FEF78F
:101CB000A1FEFEF797FE0028FBD11A48FEF726FE8C
:101CC0001849FF23184C0A8800204100615A0D462C
:101CD000643D954204DA6431914201D9034603E040
:101CE000401CC0B20928F0D3104A00200127164634
:101CF0000546123698420AD14100545A642C01D24A
:101D0000641C5452A1B2032903D3375402E04100AA
:101D100055523554401CC0B20928EBD301F000FFE6
:101D2000F8BD000018000020C43B0000C4000020E3
:101D300010B500F013F810BD70B514460D46064EF0
:101D400006E02978304600F052F8641EE4B26D1CBB
:101D5000002CF6D170BD00000001004010B50B4C06
:101D60000021204600F02DF801280DD10021204649
:101D700000F012F8204600F037F80146044A00202F
:101D800010700448FFF760FA10BD00000001004029
:101D90002C000020FC00002010B500221430FFF7BA
:101DA00093FD002010BD10B50122001DFFF78CFD32
:101DB000002010BD10B50122001DFFF785FD002099
:101DC00010BD10B51030FFF7B5FA10BD10B5426860
:101DD0000978C02389079A43090E0A434260042107
:101DE000FFF7E1FF002010BD0068C0B2704710B5DA
:101DF00004460068000A00020843206001212046D2
:101E0000FFF7DFFF0028F9D001212046FFF7C4FFCC
:101E1000002010BD10B50246536800200124640262
:101E2000A3430C79E407A40D234353600A68002AF6
:101E300011D0012A03D0022A0DD0032A0BD10A792E
:101E40008868C968521C50434901FEF763F90121B3
:101E50000904081A80B210BD10B5C046C04610BDB6
:101E600010B5C046C04610BD10B5C046C04610BD36
:101E70000348024981600349816070475A5A000053
:101E800000200040A5A5000070B58AB0102168466A
:101E900000F0B2FA182104A800F0AEFA01210820DF
:101EA000FFF726FE01210846FFF722FE00246846C0
:101EB00004714B208001012500950390FFF7E8FD98
:101EC000029069460B48FFF7A5FF064604A90120CA
:101ED00009950894FFF79EF831460120FFF706F8B0
:101EE00031460120FFF742F80120FFF72FF90AB031
:101EF00070BD0000000100402021020C01D0102123
:101F00001046020A01D010460839020901D01046D5
:101F1000091F820801D01046891E420801D0881E80
:101F20007047081A704730B47446641E2578641CE4
:101F3000AB4200D21D46635D5B00E31830BC18471E
:101F400002E008C8121F08C1002AFAD17047704782
:101F5000002001E001C1121F002AFBD1704710B51B
:101F6000002204214020FFF7C5FA012001F00CFEF9
:101F7000012204214020FFF7BDFA00220421402065
:101F8000FFF7B8FA402001F0FFFD012204214020B4
:101F9000FFF7B0FA062000F077FE10BD70B50D46D1
:101FA0000446002204214020FFF7A4FAC020204369
:101FB00001F0EAFD284601F0E7FD0122042140205E
:101FC000FFF798FA70BD000010B5034901200870B2
:101FD000002000F077FE10BD4600002070B50D4CCB
:101FE0000546607800280ED10026002D0CD0207800
:101FF000002808D161807D20A280C00000F062FE30
:102000006D1C2570E68070BD2670002000F05AFE21
:1020100070BD00004600002010B5124C2078012849
:102020000BD00FD9E088618888420CD1002000F0E5
:1020300049FE2078401E207010E0002000F042FE93
:102040000020207010BDA2885118814206D27D2048
:10205000C00000F037FE0020C043E080E088401C54
:10206000E08010BD4600002070B5304D2879002872
:1020700004D1012208211046FFF7B0FFA8780428F8
:102080000DD006283AD0022803D0032801D0052815
:1020900004D1012208210020FFF7A0FF70BD2448D1
:1020A0004478012C04D0022C0BD0032C14D01EE059
:1020B000A86820493C30884201D9FF202D30A86013
:1020C00012E01D49E868FEF75FF81C49E8608842A5
:1020D0000ADD1B48E86007E01A4928691A4A4018D7
:1020E0002861904200D92961204600F0BFFE0120FE
:1020F00000F0F6FD15490520488070BDE888F921FB
:10210000890088420BD2297D401880B2E8800A21DC
:10211000FEF700F8C1B2022001F098FC00E0E9806F
:10212000002028760D20687670BD0000E0000020B9
:1021300060000020341700000000784200767247EB
:1021400000007A4310270000583E0F006E00002068
:1021500070B5304D2879002804D10122082110469D
:10216000FFF73CFFA87804280DD006283CD00228B1
:1021700003D0032801D0052804D101220821002022
:10218000FFF72CFF70BD24484478012C04D0022CAA
:102190000CD0032C15D020E0FF21A86869318842BB
:1021A00001D33C3800E01D48A86013E01C49E868F2
:1021B000884203DB1B49FEF738F800E01A48E86064
:1021C00008E01A492869884202D31949401800E0FA
:1021D00018482861204600F049FE012000F080FDEB
:1021E00015490520488070BDE88864280BD9297DF1
:1021F000401A80B2E8800A21FDF78CFFC1B20220AC
:1022000001F024FC01E06420E880002028760D2005
:10221000687670BDE00000206000002034170000E8
:1022200000009C430000784200767247204E000078
:10223000F0D8FFFF583E0F006E000020F8B5524C5A
:10224000524B0126267018461A7841788078092A60
:1022500001D1FF2938D001293AD14C4F00253B79D3
:10226000F978FA1C1B020B437F79012831D0474EC5
:1022700000282DD1507911790002084331468A7A1D
:10228000497A12020A4340BA51BA02460A430FD0B1
:10229000884202D2024608461146884208D3FF22ED
:1022A000F532904204D8002902D0394A9081D18178
:1022B00058BA0090B07971790002084341BAF61C0F
:1022C0000A292AD8CFB232E0FF2801D100F00EF956
:1022D000F8BD5ABA00211046384307D000203346D3
:1022E0008340134204D0401CC1B205E0294609E0F6
:1022F000401CC0B20D28F2D3F80700D00E21B80759
:1023000000D50F210029E3D06078002800D161704A
:1023100001F0E4FB0A20A070F8BD0A2801D8C7B27A
:1023200005E00A2F03D9F0780A2800D80746194893
:102330000178002901D10D210170032FE8D0A07888
:10234000082801D0092819D1072F06D00A2F07D055
:1023500011480078002806D010E000F099FE0DE04A
:1023600000F0C6FE0AE0009800F086F800F042FD9A
:10237000E08025766576002000F078FD39460098EB
:1023800001F04EFAF8BD0000E00000203802002005
:1023900074000020060000205100002070B5144C8D
:1023A000144A20790025002808D001280ED1E078B1
:1023B000401CE0701178002909D017E015702946FB
:1023C000032001F043FBE5700120207170BD032064
:1023D00001F03CFBE0780128F8D9E5706079401CF9
:1023E000C0B260710A2801D8257170BD6571FBE724
:1023F00050000020E0000020002805D00022491EE7
:1024000002D30270401CFAE770470000F8B504469A
:102410000F4D0E4868610026AE61052028610D4809
:10242000012700683F06009008E0AE610A49009865
:10243000FDF770FE381AA9698142FCD8641EF4D2F7
:102440002869400840002861F8BD0000FFFFFF0038
:1024500000E000E000000020A086010003480146E3
:10246000401E80B20029FAD17047000010270000FA
:102470000A2148430009704710B50A493E23CA891A
:102480008989002805D0914200D86421884201D36F
:10249000184610BD3E2250434A088018FDF73AFE08
:1024A00080B210BD7400002010B5FFF758FD0E4833
:1024B0000178002916D000210170441C21780020E9
:1024C000FFF76CFD61780220FFF768FDA17804201A
:1024D000FFF764FDE1780620FFF760FD2179082011
:1024E000FFF75CFD10BD000040000020F8B51D4D59
:1024F00003216878FDF70EFEBF26FD271A4C002940
:1025000010D020460079EF23DF221840012921D086
:1025100040084000104030403840F321084020710E
:10252000124811E012480079002804D10122082144
:102530001046FFF753FD20793121084330403840E1
:10254000F321084020710B4800F028FC6878401CFB
:102550006870F8BD4008400010404E2108432071CB
:102560000548F1E77400002041000020B822000077
:10257000E0000020D20400002E16000010B5062056
:10258000FEF77CFE10BD000010B50D4988780A28C2
:1025900014D0002812D00B4A00201070C880D070D0
:1025A000507048700A20887007490120087000F0B8
:1025B00097FB0A221E210120FFF710FD10BD00002D
:1025C000E0000020600000206E000020F8B50F48F9
:1025D00004780F480078012816D80E4E012730786D
:1025E0000D4D2040C007002804D02F70FFF73CFDA0
:1025F00000202870200707D53078000704D52F70F9
:10260000FFF7A6FD00202870F8BD0000650000203F
:102610006B0000206C00002047000020F8B58648C1
:10262000047886480078012877D8854800782040CB
:10263000C00701D0FFF718FDA00700250127814E34
:10264000002833DA7E48007880072FD57E4800794D
:10265000002804D1012208211046FFF7BFFC7A4967
:102660000322887802281AD0032806D0042816D01E
:10267000062816D0052814D018E03078401CC0B2C7
:1026800030700C2803D3E1203570C00088606C4A9C
:10269000FF2010706D4A0420507077715FE08A70DF
:1026A000F5E7012208210020FFF798FC600762D5BA
:1026B0006348007840075ED563480079002804D15C
:1026C000012208211046FFF789FC5F49887802281B
:1026D00008D0042813D0032833D0062846D0052874
:1026E00044D048E004208870554AFF201070E12053
:1026F000CD60C0000D618860757138462DE0534A89
:102700005078401CC0B25070042807D3E120CD603F
:10271000C0000D61886057700EE026E0022802D0EC
:10272000032805D008E08D6049480D61C86003E0CA
:102730008D604848CD6008614148FF2303705078A0
:102740000DE0777104228A703D4AFF231370E12265
:10275000CD60D2000D6138468A603C4A50700876E0
:1027600000F084FB022000F0BBFAF8BD0122082132
:102770000020FFF733FCE0062CD531480078C00676
:1027800028D531480079002804D1012208211046BB
:10279000FFF724FC2C4905228878022806D004285B
:1027A00007D003280BD006280FD013E0B571F571C0
:1027B00006E07079002800D00120B07100E0B77108
:1027C0008A701F49FF20087004E0012208210020C0
:1027D000FFF704FC600621D51948007840061DD596
:1027E00019480079002804D1012208211046FFF77A
:1027F000F5FB1549184A8878052806D0062808D020
:10280000042814D0032812D008E0B57115700920EF
:1028100001E0157007208870094805702007A4D5CD
:10282000074800780007A0D5FFF792FCF8BD757146
:10283000B571F5718F70F8BD650000206B00002048
:102840006C000020AC000020E000002060000020B0
:1028500000007A4450C300005100002000B5044934
:1028600002484860012000F03BFA00BD4100002012
:1028700030000020FEF7E4FAFEF712FBFEF7F4FA50
:10288000FEF75DFDFFF77AFE00F08EFFFFF7E6FF33
:10289000FFF765FB01F04EF800F0EAFB00F06AF983
:1028A00000F05EF9854800F079FA854880210278C9
:1028B000844B0A430270427801250A4342708278B1
:1028C0000A438270C2780A43C2701D7001797E2269
:1028D00029431143017100F061F97B4E7B4835704B
:1028E0000079002804D1012208211046FFF776FB69
:1028F000002401F035F876480178002906D00470EC
:10290000FEF71AFEFFF7D2F9FFF786FB7148017850
:10291000002908D0047000F05DF901F0EBF800F038
:102920007BFA00F071FD6C48017800291FD004701B
:10293000F27904216A40F271C020FEF7DBFDFFF757
:102940002DFD3078002812D03079401CC0B2307193
:1029500003280CD30022FFF781FD521CD2B2642A57
:10296000F9D30021012001F071F8347134705B4813
:10297000017800296ED004707079002853D058482F
:102980000470B079401CC0B2B07102281CD13D2146
:10299000002000F08BF90C21012000F087F95E2166
:1029A000022000F083F90021032000F07FF9444861
:1029B000D1220179490849001140017141788022F2
:1029C000114341703F480570B079042828D1332164
:1029D000002000F06BF90A21B078FDF79BFB414F16
:1029E000395C012000F062F90A21B078FDF792FB12
:1029F000795C022000F05AF90021032000F056F91A
:102A00002F48F1220179490849001140DF22114085
:102A100011400171417880221143417029480570AD
:102A2000B079062806D0294FB878042807D00328A3
:102A300005D00FE0254885707471B4710AE03089C3
:102A4000401C80B23081142804D1012000F048F9E4
:102A5000BD70348124480178002924D0047000F02E
:102A600071FB22480178491C01702149087800282F
:102A700009D0401CC0B20870042804D30C700A218D
:102A80001F2000F0E3FF1B4F387800280AD0F078B1
:102A9000401CC0B2F070022805D300F08DF8F4702D
:102AA0003C7000E0F4707078401CC0B270700A286E
:102AB00000D01EE77470FFF7F7FC1AE7B822000099
:102AC000410000204000002004000020E000002021
:102AD0001A0000201B0000201C0000201D00002008
:102AE0006C000020D63B00001E0000202C000020BF
:102AF0006E0000206D00002070B50F490028CC89C1
:102B00008D8906D0A54201D80A246425062801D85B
:102B1000204670BD3E280DD2291B801F4843382116
:102B20001C30FDF7F7FA001980B2A04200D220460F
:102B3000A842EED9284670BD7400002010B50749A0
:102B400000220A72888201238B70CA7003220A71E4
:102B500000F01EF8FEF7A8FE10BD00007400002073
:102B600003480021017041708170C17070470000FE
:102B70006000002000210548E12201704170D20070
:102B80004280017141718171C1717047AC000020B8
:102B900010B50009FFF7B0FF10BD0000034804495D
:102BA000007848700349087170470000B4000020A5
:102BB00010000020E000002003480449007948701C
:102BC0000349086070470000E0000020100000206A
:102BD000B4000020F0B52A4E3578012D4FD0344690
:102BE0000834012723786278A178E078022D09D093
:102BF000032D44D17578002D25D0032D29D0062D25
:102C000031D039E07578002D04D0032D0BD0062D7E
:102C10000FD031E07068017821704178617081785F
:102C2000A170C07813E0706800210170417081705C
:102C300017E0746823706270A170E070FF207070FC
:102C40001048077018E0746823706270A170E0701B
:102C500012E070682179017061794170A179817009
:102C6000E179C170ECE7746823706270A170E07064
:102C700004480770002070707078401C7070F0BDC0
:102C8000300000204000002010B50446002204213E
:102C90004020FEF72FFC8820204300F075FF012222
:102CA00004214020FEF726FC10BD0000034A5268B4
:102CB00011540349012008707047000030000020C3
:102CC00040000020044910B5081A82B201210348CF
:102CD000FDF78CFF10BD0000DC0500000030004057
:102CE00003490870002048700249012008707047AD
:102CF000300000204000002070B50E460A21FDF78C
:102D000009FA094D2A5C094844682270685C6070C1
:102D10000A213046FDF7FEF9285CA070685CE0707F
:102D200003490120087070BDD63B00003000002030
:102D30004000002070B50E460A21FDF7EBF90A4A63
:102D4000084D54682B5C2370285C6070685CA07030
:102D50000A213046FDF7DEF9285CE07003490120C6
:102D6000087070BDD63B00003000002040000020FD
:102D700010B5074A00245268064B1470185C907016
:102D8000585CD070044954700120087010BD0000D8
:102D900030000020D63B00004000002070B57D21AF
:102DA0000646C900FDF7B6F90F4DC0B22A5C0F48C0
:102DB0004468084622706421FDF7ACF9285C607015
:102DC00064213046FDF7A6F908460A21FDF7A2F96D
:102DD000285CA0700A213046FDF79CF9685CE07021
:102DE00003490120087070BDD63B00003000002070
:102DF0004000002010B53E21002803D03E2802D319
:102E0000F920800010BDF922920050431F30FDF7D9
:102E100081F980B210BD000070B5124C0C25617EA6
:102E2000114A00200B2904D00C2908D00D2905D106
:102E300000E09070207600F019F8657670BD91780A
:102E4000491CC9B291703229F8D99070217E491C71
:102E5000C9B22176042900D32076207E00F006F83E
:102E600070BD0000E000002050000020FEB5784C4E
:102E70000246FB23802721790126764D7648002AD9
:102E80002CD021460979B143012A49D0022A63D0C6
:102E9000032A7DD0042A20D11940952001406F4893
:102EA00021710078401CC4B20C2C00D90124672188
:102EB0000020FFF7FBFE0A212046FDF72BF9684CA6
:102EC0000D46215C0120FFF7F1FE615D0220FFF756
:102ED000EDFE00210320FFF7E9FEFEBD314319405E
:102EE000952211402171C0880A2100090290FDF746
:102EF00011F9C0B2009101907D210298C900884269
:102F000007D200210846FFF7D1FE00210320FFF77A
:102F1000CDFE00990198FFF72BFFA07838434AE0D7
:102F20001940F722114062221143217184683C212B
:102F30002046FDF7EFF80E466421FDF7EBF84B2035
:102F40000A46C00084423146104602D2FFF7D4FE42
:102F50007BE0FFF7D1FEFEBD04221143D5221140D4
:102F6000402211432171C068FDF746FB7D21C90055
:102F70000090FDF7CFF8C0B201900A210098FDF74C
:102F8000C9F86421FDF7C6F8364A0098904200E07F
:102F900014E0019806D8FFF7AFFE00210846FFF7BE
:102FA00085FE01E0FFF7A8FE6078384360702E7060
:102FB000A0784006400EA0702E70FEBD1940082378
:102FC0001943234A9D231940234811710469264857
:102FD00084420ED87D21C9002046FDF79BF8C4B27B
:102FE00008460A21FDF796F8C1B22046FFF7A2FE77
:102FF00016E01D481D49C0432018884210D81949C1
:103000002046491CFDF786F8C0B201906421204695
:10301000FDF780F86421FDF77DF80198FFF76CFE5D
:103020000B488178394381700B482E7000690E4936
:103030008842C2D80B49884207D800210846FFF7CA
:1030400035FE00210120FFF731FE0021084642E74E
:103050004100002040000020E0000020AC000020E3
:10306000D63B00000F2700009F860100B8B70D0077
:1030700005480021017064228160C280202202750F
:103080000171024841707047E000002050000020AC
:1030900070B5134DA878082801D009281FD1002445
:1030A0006C76EC80AC60EC602C6100F061FB012080
:1030B000A8700C49FF2008700B480C494470CC7074
:1030C0004C708471C47104724472FEF77DFF052157
:1030D0001F2000F0BBFC05211F2000F0B7FC70BDD5
:1030E000E00000206C000020500000206000002064
:1030F00010B510498878082801D0092818D1642013
:10310000C88000208860C8600861487602228A7002
:10311000094AFF2111700949094A4870D07050705E
:103120008871C87108724872FEF74EFF00F020FBEC
:1031300010BD0000E00000206C00002050000020C6
:1031400060000020F0B5A24C0026A078A14D85B00B
:10315000062802D0EE6005B0F0BD9F4801274278F6
:103160009B488068411E042A07D09C4B5B79002B4A
:1031700003D19A4BDB79002B03D0002879D0A160D2
:10318000D3E0012A10D0401C9549A060884214D396
:10319000667600F0EDFA6F700720A0709148067017
:1031A0002079002804D008E00028F1D0A16008E0D0
:1031B000962232210520FEF711FF87484078022829
:1031C0001CD0E088FDF70AFA874A884BFDF78EF994
:1031D0000022874BFDF78AF901910090E068FDF726
:1031E0003DFA019B009AFDF765F8FDF75FFAE06094
:1031F000E8607948407803283CD082E0E088FDF719
:10320000EDF9794A794BFDF771F90022784BFDF71A
:103210006DF90190009103910290E868FDF71EFAA4
:10322000039B029AFDF746F8FDF740FAE860019922
:10323000009800910190E068FDF710FA019B009A58
:10324000FDF7DDF8FDF732FA6A49E060884258DAA6
:10325000667600F08DFA6F700720A07061480670E6
:1032600020790028C5D1962232210520FEF7B6FE2E
:10327000BFE74DE0E088FDF7B1F95B4A5B4BFDF736
:1032800035F900225A4BFDF731F900225A4BFDF770
:10329000C5F8019100902069FDF7A0F9019B009A03
:1032A000FDF7F0F91AD8E088FDF798F94E4A4F4B30
:1032B000FDF71CF900224E4BFDF718F900224E4B8A
:1032C000FDF7ACF805460E462069FDF787F92A465A
:1032D0003346FDF794F8FDF7A3F970E026616676B2
:1032E00000F046FA6F700720A0703E480670207903
:1032F000002800D02FE7962232210520FEF76EFE2F
:103300005EE03E49E868FCF798FFFDF775F956E086
:10331000667600F02DFA6F700720A0703148962273
:10332000067032210520FEF759FE2C490879401C11
:10333000C0B20871B42820D30E71487809281CD275
:10334000401CC0B2487009780A2251432C4A89189F
:10335000405C00F0BDFBE0800A21FCF7DBFEC6B25A
:103360003146022000F072FB3146022000F06EFB75
:10337000962232210220FEF731FEE088FDF72EF979
:10338000194A1A4BFDF7B2F80022194BFDF7AEF8B7
:1033900006460F46E068FDF761F932463B46FCF70A
:1033A00089FFFDF783F9E0601449E860FCF745FF09
:1033B000FDF722F913492061884201D3481E20619C
:1033C000A078062896D1207EFFF750FDC3E60000C6
:1033D000E00000205000002060000020AC00002031
:1033E000701700006C0000209A9999999999F93FFB
:1033F00000807640000020410080514000008C4257
:10340000E63B0000583E0F00F8B5CE4DCE48A978F7
:103410000079CE4E0024CE4F0B00FEF784FD0BEF5B
:10342000079090903AD5F0EDECEBEF00B879401CA6
:10343000C0B2B87101287CD9BC71FFF79BFBC249AF
:103440008122087940084000104008710021084698
:10345000FFF72CFC3F210120FFF728FC632102200D
:10346000FFF724FC63210320FFF720FCEC80AC6015
:10347000EC6002202C61A870B648FF210170012089
:10348000FFF72EFC05211F2000F0E0FA05211F2088
:10349000ADE0AD499F22104008710120FFF720FCEC
:1034A000B87900280BD0401CC0B2B8710A2846D9A0
:1034B0000120B871A3480079002821D025E0A64852
:1034C0004078042805D07079002802D1B07900280E
:1034D00001D03471747000210846FFF7E7FB00212A
:1034E0000120FFF7E3FB00210220FFF7DFFB9B48F1
:1034F000397A415C0320FFF7D9FB0120B8711DE048
:10350000012208211046FEF769FD387A022817D8F3
:1035100000210846FFF7CAFB00210120FFF7C6FB88
:1035200000210220FFF7C2FB8C48397A415C03205E
:1035300000E004E0FFF7BAFB387A401C3872F8BDAF
:103540008348047284484078042805D070790028A4
:1035500002D1B079002801D0012700E00027002F18
:1035600010D07470347130780A2148437C49401877
:10357000205C00F0ADFA0546724871888160012038
:10358000F07101E06425F471B4716E4E002FF58086
:1035900009D0642000F056FA642000F053FA6C4819
:1035A0000521417207E06A484472284600F04AFA51
:1035B000284600F047FA0620B0700B2070762046AF
:1035C0003476FFF753FCF8BD787A0028FBD0401E14
:1035D0000006000E7872F6D1E8880A21FCF79AFD01
:1035E000C4B22146022000F031FA2146022000F048
:1035F0002DFAF8BD60E039E02EE000E09FE0524A8D
:10360000EF21084010717878002803D12C766C7671
:10361000FFF72CFCAC60EC604F482C61407804282C
:1036200005D07079002802D1F079002801D03471DA
:1036300074700021012000F009FA0021012000F03F
:1036400005FA45487C72C47044707471F471B471A9
:10365000BC71FC71082007E0F879401CC0B2F87119
:10366000FA28C6D9FC710920A870C2E73D48052197
:1036700004701F2000F0EAF905211F2000F0E6F990
:10368000B879401CC0B2B8710128B2D96C76EC8010
:10369000AC60EC602C6100F06BF80120A8702D4943
:1036A000FF2008702C487C70C4704470BC713C7260
:1036B0007C72FEF789FC9CE73C72BC7125487C72E9
:1036C000047073210220FFF7F1FA68780A21FCF7F1
:1036D00021FD2548415C0320FFF7E8FA0021084658
:1036E000FFF7E4FA00210120FFF7E0FA16498122F2
:1036F000087940084000104008716C761B48AC7097
:103700000178002906D10221017014210A220846FD
:10371000FEF764FC3878002807D10021012000F072
:1037200095F90021012000F091F93878401CC0B2D1
:103730003870322899D9AC703220387059E7BC7192
:1037400057E70000E000002041000020AC0000200E
:10375000500000206C00002060000020E33B0000CF
:10376000E63B00006E000020D63B00006700002012
:1037700010B50C49812208794008400010400871BA
:1037800000210846FFF792FA3F210120FFF78EFA49
:1037900063210220FFF78AFA63210320FFF786FAEC
:1037A00010BD00004100002010B586B01821684609
:1037B000FEF722FE01211C20FEF79AF9002001905D
:1037C0006A460521C020FDF72BFE01220521C020FD
:1037D000FDF766FE01246A460621C0200194FDF72C
:1037E0001FFE01220621C020FDF75AFEFEF74CFB0A
:1037F00000940A4C69462046FEF7E8FA002120466C
:10380000FEF7D8FA00212046FEF7C6FA012203216E
:103810000720FDF7D9FC06B010BD000000010040F4
:10382000F3B5414E0446B078404F002581B00028E2
:103830001ED0B87806281BD10298002805D003288E
:1038400003D0072801D00A2811D1F078401CC0B25B
:10385000F07004280CD3F5703079002807D0401E92
:103860003071B08AFFF794F9FEF71EF800E0B570EA
:103870007079002833D0B878062830D12046FEF77A
:10388000FBFDFFF7B7FA0246F18A20328A4204D3E1
:103890002031884201D8757121E0B079002803D029
:1038A000728B23498A4200D17483401CC0B2B0712C
:1038B000042814D3708B84420FD1F07900280AD0E9
:1038C000401EF071308BFDF7E1FF308BFDF7DEFF1E
:1038D0001748708302E0757100E07483B571307A27
:1038E00000281ED0B878072803D0082801D009285E
:1038F00017D102980A2815D0072813D0002C11D010
:10390000707A401CC0B2707204280AD37572B07A03
:10391000002807D0401EB072002201210220FDF7CE
:1039200081F9FEBD3572FEBD74000020E00000206C
:10393000FFFF0000084910B5FF2208462D3210385D
:10394000FDF724FC05480021C1614170642181819B
:103950000A21C18110BD00000C010020740000206C
:1039600038B569463448FDF71BFC00285AD0334C63
:103970000025E069324A0300FEF7D5FA0A060E1662
:103980001E262F3E444E555B68460078AA2801D17A
:10399000012046E0002044E068460078BB2801D0C2
:1039A000B828F7D102203CE068460078092840D1C9
:1039B00010702082032034E0684600785070218A1D
:1039C0000818208204202CE0684600789070218A34
:1039D000081820822570052023E0684601782078A9
:1039E0001218401CD170C0B22070228A5118218256
:1039F000082817D3062014E0684600780002608289
:103A000007200EE06946608A097808436082218AAF
:103A10008842BFD1082004E068460078EE28B9D17A
:103A20000920E06138BD68460078FF2801D1FEF723
:103A300005FCE56138BD0000FC000020740000209A
:103A40003802002010B5FFF779F810BDF8B5002551
:103A5000012603271D4C01280CD0022817D003286B
:103A600004D01F2812D10A2927D205E000221146CE
:103A7000012027E0002909D1A570657100220121EC
:103A80000220FDF7CFF826726572A772F8BD0846CE
:103A90000091FEF7EDFCFFF7ADF9E0820098FEF72C
:103AA000E7FCFFF729F820836671A5710021E77113
:103AB000C9436183FDF7EAFEF8BD00F00FF802216B
:103AC00000220846FDF7AEF8F8BD000074000020A3
:103AD00010B50A214843FFF78DF910BD04480021B5
:103AE000817041710172C170817141727047000033
:103AF0007400002010B50848807804280BD10749CD
:103B00004888002807D0401E0004000C488002D1DD
:103B10000220FFF7E5F810BDE00000206E00002055
:103B2000174A10784108174849000378DB07DB0F74
:103B30001943FD2319404378DB079B0F1943FB23EF
:103B400019408378DB075B0F1943F7231940C378CB
:103B5000DB071B0F1943EF2319400379DB07DB0E4B
:103B60001943DF23194043798079DB079B0E194302
:103B7000BF23C0071940400E014311707047000079
:103B8000AA000020D600002070B5054600240022BF
:103B900003218020FDF7AEFCEA07D20F042180202C
:103BA000FDF7A8FC6D08012203218020FDF7A2FC8F
:103BB000641CE4B2082CEAD3002203218020FDF724
:103BC00099FC70BDB6037E041405DC057206080777
:103BD0000208000C000D3F0C765E4D5B7B0E7F5F94
:103BE0000073635E760C03030605050404040403F6
:103BF000030304040505050606040204060606067A
:103C00000602030203030506060605040303030672
:103C10000606060606050504020605040606050353
:103C20000302020606060606050302020204040455
:103C3000050606060602020405050605060303023C
:103C4000020506050606050204030203040506062E
:103C50000605030202030506060606060503000024
:103C600020000000170000001B000000504600006C
:103C7000E022020018000000F0000000E80300004D
:103C80000080009600093D0000127A000024F40034
:103C90004086510100366E01B83C00000000002053
:103CA000B4000000401F00006C3D0000B400002084
:103CB00094030000501F000000093D0000000000B8
:103CC000000100000000000000000000003F0000B4
:103CD00000000000000000000000000000000000E4
:103CE00000000000000000000000000000000000D4
:103CF00000000000000000000000000000000000C4
:103D000000000000000000000000000000000000B3
:103D100000000000000000000000000000000000A3
:103D20000000000000000000000000000000000093
:103D3000000000000000000064000A000000000015
:103D40000000000000000000000000000000000073
:103D50000000000000000000000000000000000063
:0C3D600000000000000000000000000057
:04000005000000C136
:00000001FF
