:020000040000FA
:1000000028060020D500000003160000411500005E
:1000100000000000000000000000000000000000E0
:100020000000000000000000000000000B160000AF
:10003000000000000000000005160000C5180000C8
:100040009B1F0000ED15000007160000891300003B
:1000500049180000A7130000A913000000000000C9
:100060000000000000000000000000000000000090
:10007000990A0000ED0E0000971F0000991F000074
:10008000371500000000000000000000EB15000024
:10009000ED000000ED0000006112000045150000B9
:1000A000000000000916000000000000ED00000044
:1000B0003D19000000000000000000006312000075
:1000C0000348854600F066FC0048004729350000DB
:1000D00028060020064908688546064880470648E5
:1000E0000047FEE7FEE7FEE7FEE7FEE7FEE700006B
:1000F00000000000ED180000C1000000D2B201E0D5
:100100000270401C491EFBD270470022F6E710B572
:1001100013460A4604461946FFF7F0FF204610BD75
:10012000F8B502464A40D40F42004B0052085B0823
:100130009A4202D20246084611464A0023D0C30D15
:100140004A00DDB2120EAD1A202D35DA4902012621
:10015000490AF6058A19002C00D0524220214F1B73
:100160001146B9402A411018C20D9A4221D0002CE4
:1001700017D0012D08DCDA05801AD20F8019D207BA
:10018000DBB200F06EFBF8BDDA05801A01234000F7
:100190001B06C01880185A428018CA0F1043490025
:1001A00007E04908C2071143DA05801A80194008A0
:1001B000801800F04EFBF8BD61000122511A001BAF
:1001C000F7E70122D2075140AAE70122D2075040A7
:1001D000A6E7024670B54A40D30FDB0740002DD09A
:1001E0004A002AD0010E140E000212020919400A18
:1001F000520A8418E50104465443000A120A2E04E8
:100200005043A4194219200CC543AA18120C012509
:10021000AD03521C521912047F39240400D0521C21
:10022000104301D44000491EC2B20C06C009201878
:10023000401C4008802A02D003E0002070BD400826
:100240004000002900DA0020184370BD70B5024656
:100250004A40D50F40004A00ED07400852080028E8
:1002600014D0002A12D0C40DD30D41020120C005C4
:100270005202490A520AE41A091812187D349142AE
:1002800001D3641C00E04900002C01DA002070BD9D
:100290000023914201D3891A0343400849000028F2
:1002A000F7D100290AD0914202D10121C90705E006
:1002B000914201D2012101E00121C943E005C018AA
:1002C000401900F0C6FA70BDF0B507460846584020
:1002D00087B0C00F049048000E46590040084908F6
:1002E000BC1A884105D2384631461E4617460B4691
:1002F00002465800400810434CD0300D0390400592
:100300005900400D490D0590401A0290402872DABC
:1003100018030121000B090508430190049800927D
:10032000002805D001995242002088410092019096
:10033000029840210A1A0199009800F056FA0546E1
:100340000C466B4607CB00F071FAC0197141039A55
:100350000E0D0023D71756401A467A40164344D054
:10036000049A002A2DD0029A012A039A15DC12055C
:10037000C01A914101263605001C7141D20F059E1D
:10038000D2070093019202962A46234600F0AFFA64
:1003900007B0F0BD38463146FAE71605224A0F4647
:1003A000B218C01AB74101210905001C4F410018BD
:1003B0007F41114618187941E20F10436D196441CD
:1003C00013E0E2076D0815436408C2071443039A5B
:1003D00001261205C01A91413605001C7141CE0755
:1003E000400830434908C01851412A46234600F0CE
:1003F00071FACDE7FFE7049801224000C117121AF5
:1004000000238B4104983146C417381AA141EEE706
:1004100030B40124E407634030BC55E730B4012414
:10042000E407614030BC4FE70000E0FFF0B51FB4C7
:1004300088B00B990998002448400999C00F4900D9
:1004400049080991C0070B990090490049080B9190
:1004500009990898A64608431CD00B990A980843A6
:1004600018D0099801244000420D4800410D099818
:1004700024050003000B204309900B980003000B98
:1004800020430B9050181C4940180022019014463C
:10049000104605E0002001460DB0F0BD032801DA4A
:1004A000034600E003239C46C11A0AAE0AE05F003F
:1004B00008ADED5B4F00F75B7D430027AA187C4138
:1004C000491C5B1E6145F2DD410004AB5A52210418
:1004D000120C0A43240C401C0828DFDB0198029010
:1004E0000099704601910090059B049A079906981F
:1004F00000F0FDF9D0E700000DFCFFFFF0B50C4661
:100500005C4085B0E40FE40703944C0000266408C7
:1005100059009446490802460296224321D0624679
:100520000A431ED06200570D4A000E032303550DE7
:10053000012402462C492405781B1B0B360B40185E
:1005400023432643614600901C46501AB44103D30E
:100550000098401C009002E0921800985B4100282F
:1005600003DA0020014605B0F0BD00200121090595
:100570000746864611E064461D46141BB54106D366
:100580006546521BB341744607430C43A646CD074C
:1005900040084908284392185B4105460D43EAD1BB
:1005A0001046184313D06046194650407140084326
:1005B00006D06046101AB34106D20122002306E09D
:1005C00000220123DB0702E00122D24353100098EE
:1005D00074460105381C6141029C039D0019694164
:1005E00000F078F9BFE70000FD0300000122D20708
:1005F000002800DB101A002900DB511A814201D8C3
:1006000001207047002070470122D207002800DB3C
:10061000101A002900DB511A814201D201207047D3
:10062000002070470122D207002800DB101A0029A1
:1006300000DB511A814201D301207047002070472E
:100640000122D207002800DB101A002900DB511A12
:10065000814201D90120704700207047C217C10FA5
:10066000504010B54018CA079623002100F0F9F851
:1006700010BD10B500229623114600F0F2F810BD0F
:100680000EB5C217C10F5040CA0740180021054BD4
:100690000293019200910A460B4600F028F903B03C
:1006A00000BD000033040000C20F410040020123DE
:1006B000400ADB05D207090EC0187F2901DA0020A5
:1006C0007047962903DC9623591AC84001E09639F1
:1006D0008840002AF4D04042704741004002012285
:1006E000400AD205090E80187F2901DA00207047E0
:1006F000962903DC9622511AC840704796398840E3
:100700007047000070B5CD0F4A0009030123090BA3
:100710001B0519430B4BED070024520D9A4201DAD9
:10072000002070BD074B34339A4203DC9A1A00F064
:100730006CF802E00449511888402C43F1D0404243
:1007400070BD0000FF030000CDFBFFFFC20FD2070A
:10075000400040080BD0C10D0723DB01C91840023F
:100760000905400A1143C2084007114370470020A1
:1007700001467047CB0FDB07490010B54908024618
:100780000A4307D00A0D07240903E401090B121BD1
:10079000002A01DC002010BDC900440F0C43C10039
:1007A000E018D205801800F054F810BD70B504466A
:1007B000002903D000202022012310E0002801D0CE
:1007C0000020C043C046C0460DE02546D5408D42BE
:1007D00005D30D469540641B1D46954040191546AE
:1007E000521E002DF1DC214670BD10B5202A04DB1D
:1007F0000146203A9140002010BD914020239C1AD0
:100800000346E3401943904010BD10B5202A04DB95
:100810000846203AD040002110BD0B46D340D040BE
:100820002024A21A91400843194610BD10B5202A71
:1008300006DBCB170846203A1041C1170B4306E0F0
:100840000B461341D0402024A21A91400843194678
:1008500010BD002904DA401C490001D140084000C5
:10086000704770B40024050C05D11024000402D197
:10087000002921D01124050E01D100020834050FF2
:1008800001D10001241D850F01D18000A41C002886
:1008900001DB4000641C002908D020252E1B0D46DA
:1008A000F540A14000D001212943084301061B1B4C
:1008B000000ADB1D02D5002070BC7047DB0518184C
:1008C00080180029F8DA401C4900F5D170BC4008B6
:1008D0004000704710B5002B08DA0024401C61412D
:1008E00092185B411A4301D14008400010BDF0B599
:1008F0001FB482B005460C0003D0084604F006F889
:1009000002E004F003F82030024600902146284619
:10091000FFF76BFF049B059A04460F4618431143EB
:10092000084314D0184610431BD0009840210A1ADF
:1009300018460599FFF769FF05460E46009A059986
:100940000498FFF752FF084305D0012004E0204639
:10095000394607B0F0BD0020C11705430E432C43B4
:10096000374300990E986305401A7905E40A00227E
:100970000C43FD0A0A3002D500200146E9E70105D3
:10098000101969410C9C0D9D00196941FFF7A2FFE8
:10099000DFE70000064C0125064E05E0E36807CCC2
:1009A0002B430C3C98471034B442F7D3FFF78CFB31
:1009B000044A0000244A000080B582B0014601A824
:1009C0000180008808280FD0FFE701A800880428CC
:1009D0000AD0FFE701A80088022805D0FFE701A898
:1009E0000088012801D1FFE704E0CB48DA2101F0BB
:1009F000AFFCFFE701A8028802490868904308603D
:100A000002B080BD780000400120820711680143D8
:100A10001160704780B582B001900198072801D815
:100A2000FFE705E0BC481521090101F091FCFFE753
:100A300003480090009801998900405A02B080BD97
:100A40004000004080B582B0014601A801800088C6
:100A500008280FD0FFE701A8008804280AD0FFE784
:100A600001A80088022805D0FFE701A80088012816
:100A700001D1FFE704E0A848C12101F069FCFFE7CC
:100A80000448006801A909880840411E884102B055
:100A900080BDC0467C00004080B501F097FD80BD60
:100AA00080B582B001AA108000910098002804D07F
:100AB000FFE70098012801D1FFE704E09648EE2106
:100AC00001F046FCFFE701A800880009002806D1D4
:100AD000FFE701A80088002801D0FFE704E08E4866
:100AE000EF2101F035FCFFE70098002807D0FFE771
:100AF00001A80288064908681043086006E001A8BA
:100B000002880349086890430860FFE702B080BD8F
:100B100074000040F0B589B008900898006800287B
:100B20000FD0FFE70898006810280AD0FFE7089860
:100B30000068202805D0FFE708980068302801D118
:100B4000FFE704E074485D2101F002FCFFE756492D
:100B50000868564A104308600120810708683F2250
:100B6000D2009043089B9A681C6822435B681A4332
:100B700010430860089801694D4A10680F230293DA
:100B80001940DB43019318404018106008988169B0
:100B900010680907090EF023DB430593184040183D
:100BA00010600898016A10680907090D414B049309
:100BB0001840401810600898816A10680907090CED
:100BC0003D4F3840401810600898016B10680907C5
:100BD000090B3A4E3040401810600898816B10683D
:100BE0000907090A364D2840401810600898016C22
:100BF000106809070909334C204040181060089814
:100C0000816C10680907304B18404018019910603A
:100C10000898C2682D480790006803900298024027
:100C20000398084004998018079A10600898406952
:100C300012680007000E06900598024006981218E8
:100C400007980260089AD26900681207120D0840DE
:100C50000799801808600898426A08681207120C01
:100C60003840801808600898C26A08681207120B9A
:100C70003040801808600898426B08681207120A12
:100C80002840801808600898C26B0868120712098B
:100C90002040801808600898426C086812071840C5
:100CA0008018086009B0F0BD3840004001005A5A71
:100CB0002C000040FFF0FFFFFF0FFFFFFFFFF0FFE2
:100CC000FFFF0FFFFFFFFFF0FFFFFF0F28000040B7
:100CD00080B582B001900198002804D0FFE7019808
:100CE000012801D1FFE705E00B488521490001F00B
:100CF0002FFBFFE70198002806D0FFE707490868A7
:100D000001221043086005E004490868012290436D
:100D10000860FFE702B080BD854900000800004080
:100D200088B0079006A8017004AA0021118003AAC8
:100D300011806A4611800078032804DBFFE706A9CA
:100D400002200870FFE705A900200870FFE705A84A
:100D5000007806A9097888420FDAFFE7079805A905
:100D60000A785200805A09784A0001A98852FFE7A0
:100D70000598401C05A90870E9E7019804A90880B6
:100D8000019803A9088005A900200870FFE705A8BD
:100D9000007806A90978884233DAFFE705A80078C9
:100DA000410001A8405A04A90988884208DDFFE7EC
:100DB00005A80078410001A8405A04A90880FFE76F
:100DC00005A80078410001A8405A03A90988884273
:100DD00008DAFFE705A80078410001A8405A03A9F6
:100DE0000880FFE7009805A909784A0001A9895AF7
:100DF000401869460880FFE70598401C05A908705F
:100E0000C5E768460088410802A80180008808B04C
:100E10007047000080B582B001900198002804D08E
:100E2000FFE70198012801D1FFE705E0D3485B21E6
:100E3000890001F08DFAFFE7019AD2490868012381
:100E40001A4098438018086002B080BD80B582B017
:100E500001900198002806D0FFE701983F49084219
:100E600001D0FFE704E0C5486A2101F071FAFFE70D
:100E70000198C0430149086002B080BD7014004071
:100E800081B00090009A6E49086801231A40984387
:100E90008018086001B07047044908682022904318
:100EA00008600868104308607047C046484000402A
:100EB00080B582B001900198002806D0FFE7019824
:100EC0000849084201D0FFE704E0AC48612101F085
:100ED0003FFAFFE70448006801990840411E884135
:100EE00002B080BDFF3F0F001014004080B501F03C
:100EF00035FA80BD80B582B001900091019800283C
:100F000006D0FFE701981549084201D0FFE704E049
:100F10009A484D2101F01CFAFFE70098002804D000
:100F2000FFE70098012801D1FFE704E093484E2134
:100F300001F00EFAFFE70098002806D0FFE7019ABB
:100F4000074908681043086005E0019A04490868E9
:100F500090430860FFE702B080BDC046FF00F30089
:100F60000C140040B0B582B0019001988068002850
:100F700005D0FFE701988068102801D1FFE704E061
:100F80007E48282101F0E4F9FFE70198C0680828AD
:100F900005D0FFE70198C068002801D1FFE704E011
:100FA0007648292101F0D4F9FFE70198406800282C
:100FB0000FD0FFE70198406820280AD0FFE701988A
:100FC0004068402805D0FFE701984068602801D1BB
:100FD000FFE704E069482A2101F0BAF9FFE7019828
:100FE000408A002801D1FFE704E064482B2101F08A
:100FF000AFF9FFE711490868202210430860104943
:101000000868F8229043019B9A68DC6822431C68B8
:10101000651EAC41E40122435B681A43104308603B
:10102000019800690749086001984069064908600D
:10103000019880690549086002B0B0BD38400040A1
:1010400000140040281400402C14004030140040CC
:10105000B0B582B0019001980068002805D0FFE784
:1010600001980068012801D1FFE704E04348FA2114
:1010700001F06EF9FFE701984068002805D0FFE70E
:1010800001984068012801D1FFE704E03B48FB21BB
:1010900001F05EF9FFE7019880680F2801D8FFE7AB
:1010A00004E03648FC2101F053F9FFE70198C068DD
:1010B000012805D0FFE70198C068002801D1FFE7AB
:1010C00004E02E48FD2101F043F9FFE70198406953
:1010D000002805D0FFE701984069012801D1FFE70A
:1010E00004E02648FE2101F033F9FFE724490868AF
:1010F0000322904308600198C2680868D207520F23
:101100000423DB431840801808600198426908688E
:10111000D207120F0824E443204080180860019889
:10112000826808685207520E7025A843801808602C
:10113000019882680868520301252D042A40A843BB
:1011400080180860019842680E490868D207120F9B
:10115000204080180860019802680868D207920F42
:101160000224A04380180860019882690868D207A9
:10117000520F18408018086002B0B0BDAE490000A0
:10118000181400402014004081B0014668460180D8
:1011900000880249086001B07047C046341400401E
:1011A00081B0009000980249086001B07047C046C5
:1011B0002414004080B50120FFF78AFD80BD0000A7
:1011C00080B50120C00200F07FFAC2490868034AD6
:1011D0001043086002490348086080BD01005A5A64
:1011E00000000020006CDC0280B586B0059004A8E9
:1011F000017003A900200870FFE703A8007804A984
:101200000978884228DAFFE70120C0030290FFE74F
:101210001248012100F0C8FB01460020002901907E
:1012200007D1FFE70298401E0290411E88410190BD
:10123000FFE70198C007002801D0FFE7E8E705981D
:1012400003A90978415C054800F06CFEFFE70398AC
:10125000401C03A90870D0E706B080BD0010004014
:101260007047704782B0014601A8017000780B28D2
:1012700003D3FFE70A20009003E001A80078009064
:10128000FFE70098C0B202B0704783B002900191AE
:101290000092019802990860029900204860029922
:1012A000886000980299C86003B0704780B50E4806
:1012B0004621405A0D490988884210DDFFE70C4A53
:1012C0001088411C88B21180C92807D3FFE708495C
:1012D00000200880032002F0DDFBFFE703E0044963
:1012E00000200880FFE780BDE40000200C00002003
:1012F000EE01002080B584B002900191029800F0C8
:1013000045F9002804D0FFE703A90020087012E087
:10131000029908684968405C019908700299009137
:101320004868401CC968FFF741FA0098416003A96A
:1013300001200870FFE703A8007804B080BD80B5E5
:1013400084B0029001A80170029800F033F90028DF
:1013500004D0FFE703A90020087011E00198029A69
:10136000116892688854029900918868401CC96885
:10137000FFF71CFA0098816003A901200870FFE7BD
:1013800003A8007804B080BD704782B00190019836
:101390000090FFE70098411E0091002801D0FFE770
:1013A000F8E702B0704770477047000083B00290C2
:1013B0000191029800900921C906884205D0FFE7F3
:1013C00000984349884206D00BE0A6490868434A82
:1013D0001043086006E0A34908683F4A10430860CC
:1013E00000E0FFE701984068002807D1FFE7019877
:1013F00002680299C8691043C86167E001980268F1
:101400000299C8699043C86101980079C006002814
:1014100041D5FFE701980268029908681043086007
:101420000198026802990869904308610198406830
:10143000112807D1FFE70198026802990869104353
:101440000861FFE7019802680299486A9043486280
:10145000019802680299886A9043886201988068BE
:1014600081210840812807D1FFE70198026802998D
:10147000486A10434862FFE701988068822108406B
:10148000822807D1FFE7019802680299886A104311
:101490008862FFE719E001980268029908689043A2
:1014A000086001984068202807D1FFE7019802688A
:1014B000029948689043486006E0019802680299E2
:1014C000486810434860FFE7FFE7FFE703B0704755
:1014D000000100483040004020005A5A10005A5A7B
:1014E00084B0009101460098029101A908800298F9
:1014F000006D0988084203D0FFE70120039002E055
:1015000000200390FFE7039804B0704783B0029077
:1015100001A8018000920098012805D1FFE701A8E9
:1015200000880299C86504E001A8008802998865CE
:10153000FFE703B070477047E74800687047C04650
:10154000FFE7FEE77047000080B584B00390039882
:101550000290E04801687D20C000FFF727F90146AE
:101560000298FFF723F900F085F9002801D0FFE782
:1015700008E000210191C84300F0A2FD0198024952
:101580000860FFE704B080BDB800002082B0009082
:10159000009948688968884204D1FFE701A90120C1
:1015A000087003E001A900200870FFE701A8007897
:1015B00002B0704780B584B00290029948680190EB
:1015C0008868401CC968FFF7F1F80198884204D187
:1015D000FFE703A90120087003E003A900200870B9
:1015E000FFE703A8007804B080BD7047704780B55E
:1015F00082B0019001F09CFC02F014F8002002B0CF
:1016000080BD7047704770477047704780B582B0A3
:101610000190009101983621C943084205D1FFE7A6
:101620000198002801D0FFE704E081480C4900F050
:101630008FFEFFE70098002808D0FFE701980949CE
:101640000A6810431F4A1043086007E0054908680C
:10165000019A90431B4A10430860FFE702B080BD27
:10166000870200003040004080B582B001900091B8
:101670000198C009002805D1FFE70198002801D092
:10168000FFE704E06A480D4900F062FEFFE70098BA
:10169000002808D0FFE7019809490A681043094A61
:1016A0001043086007E006490868019A9043054A1C
:1016B00010430860FFE702B080BDC0469E020000F4
:1016C0003840004000005A5A80B584B0029001A909
:1016D0005648088002980121C902884258D0FFE785
:1016E000029801210903884252D0FFE702980321A2
:1016F000C90288424CD0FFE7029801214903884281
:1017000046D0FFE702980521C902884240D0FFE792
:1017100002980321090388423AD0FFE70298072183
:10172000C902884234D0FFE7029801218903884228
:101730002ED0FFE702980921C902884228D0FFE78E
:10174000029805210903884222D0FFE702980B2165
:10175000C90288421CD0FFE702980321490388424E
:1017600016D0FFE702980D21C902884210D0FFE78A
:1017700002980721090388420AD0FFE702980F2147
:10178000C902884204D0FFE70298002801D1FFE790
:1017900005E027488D21490000F0DAFDFFE70298B7
:1017A0000121C90288420DD1FFE7224800684007A5
:1017B000002806D1FFE720490868204A1043086046
:1017C000FFE7FFE7029855490988564A1140084348
:1017D000534908601A4908681A4A10430860FFE72D
:1017E0004F480168002009040029009006D4FFE753
:1017F00001A80088411E88410090FFE70098C007BB
:10180000002805D0FFE70198401E01A90880E7E7FE
:1018100001A80088002803D1FFE70120039002E01F
:1018200000200390FFE7039804B080BDFFFF000095
:1018300058490000004000400840004010005A5A3B
:101840000440004001005A5A704780B584B00390AC
:10185000FFF772FE029003980190FFE7FFF76CFE1E
:101860000299401A0199884201D2FFE7F6E704B0D5
:1018700080BD000080B584B002900298401E000E2A
:10188000002803D0FFE70120039011E00298401EDA
:101890000949086000200190C043032100F010FCBA
:1018A000019806490860064A072111600390FFE786
:1018B000039804B080BDC04614E000E018E000E0EA
:1018C00010E000E0034802680349086880180860D7
:1018D0007047C046B40000201802002001490248A9
:1018E000086070470000002000093D0080B50B48EB
:1018F00002880B4908680B4B1A400B4B18408018A4
:1019000008600A4802880A4908680A4B1A400A4BCC
:10191000184080180860FFF7E1FF80BDC007100085
:1019200018400040FF07000000F8FFFFC20710004A
:1019300020400040FF03000000FCFFFF80B500F0E6
:1019400025FE80BD80B582B0019068460180019877
:101950006C49884205D0FFE701986B49884201D164
:10196000FFE705E06948BB21490000F0F1FCFFE713
:10197000684600880B49084206D1FFE768460088A0
:10198000002801D0FFE705E06048FF21783100F032
:10199000DFFCFFE7684602880199086A9043086205
:1019A00002B080BDA1F1000080B582B00190684610
:1019B000018001985349884205D0FFE701985249B8
:1019C000884201D1FFE705E050486521890000F019
:1019D000BFFCFFE70020002806D1FFE7684600882B
:1019E000002801D0FFE705E04848FF21963100F0CC
:1019F000AFFCFFE70198C069694609880840411EAD
:101A0000884102B080BDC04680B582B00190684672
:101A1000018001983B49884205D0FFE701983A4987
:101A2000884201D1FFE705E03848AD21490000F0C8
:101A30008FFCFFE7684600883549084206D1FFE77A
:101A400068460088002801D0FFE705E02F48FF2105
:101A50005C3100F07DFCFFE70198C06969460988A8
:101A60000840411E884102B080BDC04680B584B0A8
:101A7000039002A80180019203982249884205D070
:101A8000FFE703982049884201D1FFE705E01F489E
:101A9000FF21363100F05CFCFFE702A800881C49FA
:101AA000084206D1FFE702A80088002801D0FFE71E
:101AB00005E016489B21490000F04AFCFFE7019829
:101AC000002804D0FFE70198012801D1FFE705E0D5
:101AD0000E48FF21383100F03BFCFFE70198002859
:101AE00007D0FFE702A8028803998868104388603E
:101AF00006E0029A03998868904380B28860FFE705
:101B000004B080BD000C004000100040D849000027
:101B1000A0F1000080B590B00F900E910DA90020AB
:101B200008800CA908800B900F98FB49884205D0CB
:101B3000FFE70F98F949884201D1FFE704E0F84830
:101B4000892100F005FCFFE70E980068002807D007
:101B5000FFE70E980068DC49884201D8FFE704E0FF
:101B6000EF488A2100F0F4FBFFE70E9880880028F8
:101B700015D0FFE70E9880880121490288420ED0D7
:101B8000FFE70E98808801218902884207D0FFE78D
:101B90000E98808803214902884201D1FFE704E0C2
:101BA000F5488B2100F0D4FBFFE70E98C088002891
:101BB0000ED0FFE70E98C08801214903884207D064
:101BC000FFE70E98C08803210903884201D1FFE78F
:101BD00004E0E9488C2100F0BBFBFFE70E98806829
:101BE000002807D0FFE70E988068B849884201D8DE
:101BF000FFE704E0E0488D2100F0AAFBFFE70E9824
:101C00008089002807D0FFE70E988089012109020A
:101C1000884201D1FFE704E0D7488E2100F098FB0D
:101C2000FFE70E98C08900280AD0FFE70E98C08908
:101C3000202805D0FFE70E98C089102801D1FFE7C2
:101C400004E0CD488F2100F083FBFFE70E98008A67
:101C500000280FD0FFE70E98008A08280AD0FFE777
:101C60000E98008A0C2805D0FFE70E98008A0428F9
:101C700001D1FFE704E0C048902100F069FBFFE7D5
:101C80000E98408A8008002806D1FFE70E98408A07
:101C9000002801D0FFE704E0B748912100F058FB8D
:101CA000FFE70E98808A00280FD0FFE70E98808A01
:101CB00008280AD0FFE70E98808A042805D0FFE79D
:101CC0000E98808A0C2801D1FFE704E0AA489221EF
:101CD00000F03EFBFFE70F980A90A549884205D027
:101CE000FFE70A98A349884208D00FE078490868BE
:101CF0007A4A1043784A1040086008E0744908683E
:101D0000744A1043744A1040086000E0FFE70F98DF
:101D10000068734908400E9AD188938819439389C3
:101D20001943D3891943138A1943528A114308432B
:101D30000F9908600F9840680C2188430E99898A92
:101D400008430F9948600E98008A002806D0FFE7E4
:101D50000F99086840221043086005E00F99086851
:101D6000402290430860FFE70E988088002838D111
:101D7000FFE70E9806908068FEF77BFC0146069808
:101D8000079100680001FEF774FC01460798FEF712
:101D90005DFA0B900B98FEF787FC01460DA80990A1
:101DA00001800B9908910088FEF758FC01460898BD
:101DB000FEF707FA8321C905FEF70BFAFEF7C6FC0A
:101DC0000022484BFEF780FAFEF79CFC0999024678
:101DD0000CA8028009880F9AD16000880F990861C9
:101DE0006FE00E9880880121490288421FD1FFE7E9
:101DF0000E9804908068FEF73CFC0146049805911B
:101E00000068C000FEF735FC01460598FEF71EFA93
:101E1000FEF79CFC0022334BFEF756FAFEF772FCED
:101E200001460DA8018000880F99C86048E00E980F
:101E300080880121890288421FD1FFE70E98029015
:101E40008068FEF716FC0146029803910068800046
:101E5000FEF70FFC01460398FEF7F8F9FEF776FC53
:101E60000022204BFEF730FAFEF74CFC01460DA88D
:101E7000018000880F99C86021E00E98009080686A
:101E8000FEF7F7FB8721C905FEF7A3F90146009885
:101E900001910068FEF7EDFB01460198FEF7D6F9C7
:101EA000FEF754FC00220F4BFEF70EFAFEF72AFC59
:101EB00001460DA8018000880F99C860FFE7FFE781
:101EC000FFE710B080BDC046001BB700006CDC020D
:101ED0003840004010005A5AFFFF5A5A08005A5A18
:101EE000C8C8FFFF0000E03F80B582B001900198B4
:101EF0001F49884205D0FFE701981E49884201D159
:101F0000FFE704E01C48762100F022FAFFE7019881
:101F1000406AC0B202B080BD000C0040001000401A
:101F2000D849000080B582B00190684601700198E0
:101F30000F49884205D0FFE701980E49884201D138
:101F4000FFE704E00C48452100F002FAFFE768468D
:101F50000078FF2801DCFFE704E00748462100F095
:101F6000F7F9FFE7684600780199886202B080BD02
:101F7000000C004000100040D849000080B584B03B
:101F800003AB1870029101A90A7002980978FFF753
:101F90002BF904B080BD70477047704780B52A4860
:101FA0000168491C01600078C007002807D1FFE7DD
:101FB0000920C00608210122FFF7A8FA06E009203F
:101FC000C00608210022FFF7A1FAFFE71E480068BB
:101FD0001E49884212D3FFE71D480078002805D02B
:101FE000FFE71B480078072808D1FFE716490020C3
:101FF000086019490878401C087018E01248006809
:102000001449884212D3FFE71148007800280DD008
:10201000FFE70F480078072808D0FFE70A490020AB
:1020200008600D490878401C0870FFE7FFE70A4880
:102030000078062807DBFFE7074906200870012023
:1020400001F026FEFFE780BDD000002060EA00001E
:10205000E4000020204E00000D02002081B000901E
:102060000098002808D4FFE700991F2001400120B4
:10207000884012490860FFE701B0704781B00090C6
:102080000098002808D4FFE700991F200140012094
:1020900088400A490860FFE701B0704781B00090AE
:1020A0000098002808D4FFE700991F200140012074
:1020B000884002490860FFE701B0704700E100E096
:1020C00070B582B0019000910198002814D4FFE708
:1020D00001980321CB4318406A4A805801998C0724
:1020E000E50EFF24AC40A043009CA401E4B2AC4048
:1020F00020431940885018E001980F2420400838E8
:102100000321CB4318405E4A805801998D07EE0E9B
:10211000FF25B540A843009DAD01EDB2B540284371
:102120002140083919408850FFE702B070BDC04611
:1021300070B582B0019000910198002814D4FFE797
:1021400001980321CB4318404E4A805801998C07CF
:10215000E50EFF24AC40A043009CA401E4B2AC40D7
:1021600020431940885018E001980F242040083877
:102170000321CB431840424A805801998D07EE0E47
:10218000FF25B540A843009DAD01EDB2B540284301
:102190002140083919408850FFE702B070BDC046A1
:1021A00070B582B0019000910198002814D4FFE727
:1021B00001980321CB431840324A805801998C077B
:1021C000E50EFF24AC40A043009CA401E4B2AC4067
:1021D00020431940885018E001980F242040083807
:1021E0000321CB431840264A805801998D07EE0EF3
:1021F000FF25B540A843009DAD01EDB2B540284391
:102200002140083919408850FFE702B070BDC04630
:1022100070B582B0019000910198002814D4FFE7B6
:1022200001980321CB431840164A805801998C0726
:10223000E50EFF24AC40A043009CA401E4B2AC40F6
:1022400020431940885018E001980F242040083896
:102250000321CB4318400A4A805801998D07EE0E9E
:10226000FF25B540A843009DAD01EDB2B540284320
:102270002140083919408850FFE702B070BDC046C0
:102280001CED00E000E400E082B0019000910098B5
:10229000019988620199002048620199886A08635F
:1022A000486AC8620199886A8863486A48630199E4
:1022B000886A0864486AC8630199886A8864486AB9
:1022C000486402B07047000080B584B000200390DD
:1022D00002900190984A1168544B19431160029082
:1022E00080200390702001900920C00601A9FFF70B
:1022F0005DF804B080BDC04680B596B003A80190DB
:102300004C21FDF702FF0198102103910021049157
:1023100080210591042107910691052209920891D7
:1023200006220B920A91FFF7AFFF0198FEF7F2FB2E
:10233000FEF76AFB02200121FEF7B2FB0C2002909F
:102340000321FFF765FF0298FFF7A8FE16B080BDD6
:1023500082B001900091FFE7FEE7000080B582B0F7
:102360000120FEF7A5FD012801D0FFE71DE00120B7
:10237000FEF76CFD7348019001980D490988401AD9
:10238000009000980199884203D9FFE7002000904F
:10239000FFE768460088FEF7F7FE06494888401CBC
:1023A00048800120FEF794FCFFE702B080BDC046E4
:1023B00004000020F801002080B58AB01A48FFF719
:1023C000C3F85D490868194A104308600868594A0B
:1023D000104308600020069009900890079008209C
:1023E000019007902020029008908020059009908D
:1023F0000920C006049007A90391FEF7D7FF0199B1
:102400000498069AFFF782F8029B03990498059AAC
:10241000079208930992FEF7C9FF04980599069A56
:10242000FFF774F80AB080BD006CDC0210005A5A45
:1024300080B582B000200190FEF722FD0198FEF7E2
:10244000E9FC02B080BD80B582B00020FEF7A8FE96
:1024500001200190FEF7DEFC0198FEF711FD02B0AD
:1024600080BD000080B598B00020029017901690B3
:1024700015902F4908682F4A104308602E490868B4
:1024800010430860012003901590202016908020B2
:1024900017902A4815A9FEF789FF294908680722DD
:1024A000019210430860FEF7F7FC0199029814901E
:1024B00013901290119010900F900E900E900F901C
:1024C00010901190129111214901139114900EA8AE
:1024D000FEF748FD029803990D900C900B900A901E
:1024E00009900890079007900890062209920A9098
:1024F0000C910B900D9007A8FEF7AAFD11480690CD
:102500000699193905A801800088FEF73DFE02985A
:10251000FEF780FC03990846FEF7ECFC0D200490C2
:102520000221FFF705FE0498FFF798FD18B080BD63
:102530003840004020005A5A304000400001004816
:1025400018010048210200000248006801210840EB
:102550007047C0460014004080B50920C0068021A5
:102560000022FEF7D3FF80BD80B50920C006802180
:102570000122FEF7CBFF80BD80B50920C006802177
:10258000FEF7AEFF411E884180BD000080B582B0DD
:102590000C480421FFF738FA002810D0FFE709485B
:1025A0000090FFF7A1FC014601A8017001780648E0
:1025B000FEF7C5FE00980421FFF7C4F9FFE702B05B
:1025C00080BDC04600100040C401002080B582B02C
:1025D0000220FEF737FA01282CD1FFE71648417890
:1025E00001A801700078012820DCFFE70020FEF739
:1025F00011FA01A9009109784A00974988520120EF
:10260000FEF708FA009909784A0094498852022096
:10261000FEF700FA009909784A0091498852064964
:102620004878401C487000F043FFFFE70220FEF7A7
:10263000C3F9FFE702B080BDCC00002080B582B0B6
:102640002A484078002804D0FFE72B490020087072
:1026500049E0FFF791FF002804D1FFE72649002059
:10266000087040E075484821415A6846018000885A
:102670004009192806D3FFE7684600881C498842AC
:1026800004D3FFE71C49002008702CE019480068BB
:102690004009182804D8FFE717490020087022E0F5
:1026A00014480168822048436421FEF77FF80190B6
:1026B000684600880199884205D9FFE70E490878E5
:1026C000401C087003E00C4900200870FFE70A482E
:1026D0000078102807D3FFE707490020087005207D
:1026E00001F0D8F9FFE702B080BDC046D900002054
:1026F000A10F000008000020D400002080B582B0A7
:102700004E48008AC82820D8FFE700F057FF019004
:1027100001F0C8FE01460198884205DDFFE70C493B
:102720000878401C087003E0094900200870FFE7A2
:1027300007480078152807D3FFE7054900200870EF
:10274000032001F0A7F9FFE7FFE702B080BDC04614
:10275000D500002080B582B000F030FF019001F07C
:10276000A1FE01460198884210DDFFE70A4A107871
:10277000411CC8B21170152807D3FFE70649002095
:102780000870032001F086F9FFE703E0024900200A
:102790000870FFE702B080BDD600002080B5274951
:1027A000088AC9886431884210D9FFE70A4A10783C
:1027B000411CC8B211700B2807D3FFE7064900205F
:1027C0000870062001F066F9FFE703E002490020E7
:1027D0000870FFE780BDC046D700002080B51748CD
:1027E000C089002817D0FFE71449088AC989C83171
:1027F000884210D3FFE70A4A1078411CC8B2117012
:10280000062807D3FFE7064900200870062001F0DC
:1028100041F9FFE703E0024900200870FFE780BDAF
:10282000D800002080B50548008C3D2804D3FFE780
:10283000032001F02FF9FFE780BDC046E40000202F
:1028400005490020488008800449488008800449E0
:10285000488008807047C046C0000020C4000020A7
:10286000C800002080B586B005A9002008708D48FA
:102870004078401E0290222800D92DE30298810062
:1028800001A040588746C04615290000972B00003C
:10289000E12B0000D92E0000E92B0000D92E00000A
:1028A000EB2B0000ED2B0000EF2B0000E72A0000CF
:1028B000F92B0000012C00003B2C00006F2C0000C5
:1028C0009F2C0000ED2C0000172D00003F2D000074
:1028D000672D00008F2D0000B72D0000DF2D0000B8
:1028E000072E00002F2E0000572E00007F2E000024
:1028F000A72E0000CF290000E92A0000232B0000AA
:102900005D2B0000CD290000CD290000CD2900005D
:10291000E72C000063488078002801D1FFE7DCE263
:10292000614840785F49C97888424ED0FFE75D48EA
:10293000C07800280BD1FFE75C49012088705A4A13
:10294000002050700520D081042008703CE05548DC
:10295000C078012837D1FFE7544901208870524AD6
:102960005070022008704F488078022816D3FFE785
:102970004C48007901F0D6FE014604A80180008889
:102980004949C988884205DDFFE74748C08804A94E
:102990000880FFE704984449C8810AE04249C88991
:1029A000498A884204DAFFE73F49488AC881FFE73D
:1029B000FFE73D480190C06BFDF776FE0199088660
:1029C000488A0882FFE7FFE7FFE786E285E23548AD
:1029D0008078002801D1FFE77FE23248C0780B28D9
:1029E00004DBFFE72F490A20C870FFE72D48C078B5
:1029F00000900A2870D80098810001A040588746AE
:102A00002D2A00002D2A0000392A0000452A000046
:102A1000512A00005D2A0000692A0000752A000082
:102A2000812A00008D2A0000992A00001E492048B2
:102A3000C8630320888455E01B491E48C8630520ED
:102A400088844FE018491C48C8630520888449E001
:102A500015491A48C8630520888443E0124918487C
:102A6000C863062088843DE00F491648C8630620E5
:102A7000888437E00C491448C8630720888431E013
:102A800009491248C863082088842BE00649104889
:102A9000C8630920888425E003490E48C8630920DB
:102AA00088841FE0FC010020E4000020D900002001
:102AB000000020420000A0420000C8420000F04296
:102AC00000000C43000011430000154300001843B0
:102AD00000001C4300001F43FE49FD48C863052059
:102AE0008884FFE7F9E1F8E1FD488078002801D10A
:102AF000FFE7F2E1FA48C0781A2804DBFFE7F8495B
:102B00001920C870FFE7F648C078012804DCFFE709
:102B1000F3490220C870FFE7F148C078F449888281
:102B2000DBE1EF488078002801D1FFE7D5E1EC48F0
:102B3000C0780B2804DBFFE7E9490A20C870FFE7EB
:102B4000E748C078002804DCFFE7E5490120C870A9
:102B5000FFE7E348C078E649C882BEE1E0488078F4
:102B6000002801D1FFE7B8E1DD48C0780B2804DB7D
:102B7000FFE7DB490A20C870FFE7D948C078002882
:102B800004DCFFE7D6490120C870FFE7D448C078CD
:102B9000FB490883A1E1D2488078002801D1FFE7F2
:102BA0009BE1F64901208870CD48C078092804D8F7
:102BB000FFE7CB490A20C870FFE7C948C078C94978
:102BC0004978884205DDFFE7C6484078C449C870A7
:102BD000FFE7C348C07801F0A5FDE949C8817CE161
:102BE000E6490120887078E177E176E175E1E44912
:102BF0003220C882088370E1062000F04BFF6CE1B0
:102C0000B7488078002801D1FFE766E1B448C07872
:102C10000A2811D3FFE7B248C07864280CD8FFE730
:102C2000AF48C178AF484170407801F07BFDD4498E
:102C3000C88000F0F7FFFFE74FE1A948807800283F
:102C400001D1FFE749E1A648C078A649C978884282
:102C50000CDDFFE7A248C178A24881708078C8499E
:102C6000C87000F0DFFF00F0E3FEFFE735E19C48AD
:102C70008078002801D1FFE72FE19948C078994971
:102C8000897888420ADAFFE79548C1789548C1708B
:102C9000C078BB49087100F0C5FFFFE71DE190480F
:102CA0008078002801D1FFE717E18D48C1780A201C
:102CB0004843039003988008442804D8FFE7452040
:102CC00080000390FFE703988849884204D3FFE718
:102CD000892080000390FFE70399A94801810089BA
:102CE00084490880F9E000F0A3FEF6E07C48807893
:102CF000002801D1FFE7F0E07948C078FEF7B2FA8A
:102D000005A90870059877494871059876490872B1
:102D100005980875E1E072488078002801D1FFE746
:102D2000DBE06F48C078FEF79DFA05A908700598AA
:102D30006C49887105986C4920228854CDE0684818
:102D40008078002801D1FFE7C7E06548C078FEF72A
:102D500089FA05A9087005986249C8710598624901
:102D60002C228854B9E05E488078002801D1FFE722
:102D7000B3E05B48C078FEF775FA05A908700598BE
:102D8000584908720598584938228854A5E0544893
:102D90008078002801D1FFE79FE05148C078FEF716
:102DA00061FA05A9087005984E49487205984E4980
:102DB0004422885491E04A488078002801D1FFE7F6
:102DC0008BE04748C078FEF74DFA05A908700598D2
:102DD0004449887205984449502288547DE040480F
:102DE0008078002801D1FFE777E03D48C078FEF702
:102DF00039FA05A9087005983A49C87205983A4900
:102E00005C22885469E036488078002801D1FFE7C9
:102E100063E03348C078FEF725FA05A908700598E5
:102E200030490873059830496822885455E02C4889
:102E30008078002801D1FFE74FE02948C078FEF7ED
:102E400011FA05A90870059826494873059826497E
:102E50007422885441E022488078002801D1FFE79D
:102E60003BE01F48C078FEF7FDF905A908700598FA
:102E70001C49887305981C49802288542DE0184805
:102E80008078002801D1FFE727E01548C078FEF7D9
:102E9000E9F905A9087005981249C87305981249FF
:102EA0008C22885419E00E488078002801D1FFE771
:102EB00013E00B48C078FEF7D5F905A9087005980E
:102EC00008490874059808499822885405E0C046C6
:102ED0000000A042E4000020FFE706B080BDC0462D
:102EE000FC010020D4010020180000202502000071
:102EF000E40000200C00002080B5204880780128E4
:102F000014D1FFE71D484078002806D0FFE71B4892
:102F10004178042001F0DCFB04E00320022101F0F1
:102F2000D7FBFFE7154900208870FFE780BDC0464A
:102F300080B5124901200870114900208886114A85
:102F4000CA630A220A8605228A8464224A820F22E0
:102F50008A820322CA820A83892292000A815A2223
:102F6000CA7014220A717D22D200CA80542288526B
:102F700000F058FE00F056FB80BDC046D90000208E
:102F8000E40000200000204180B598B00B48007894
:102F9000401E1290052800D90EE21298810001A06F
:102FA00040588746C12F000051310000CB3200004D
:102FB0003B3300004933000067330000D900002094
:102FC000002011901590FE490870FE490870FE49D6
:102FD000087001F0C3FB119814A90870FFE714A84A
:102FE0000078632800D98CE0F8484078002808D1A0
:102FF000FFE7FD480078002803D1FFE7FEF7DAF885
:10300000FFE7F9480078FC494978884273D0FFE728
:10301000F9484078002807D0FFE7F7484078F249A0
:103020000870FEF7C7F8FFE7F3484078002861D141
:10303000FFE7ED48007800285CD0FFE7EA49002070
:103040000E900870E3480A904821415A05200B90E1
:103050004843FDF715FBE94A0C92E94B0D93FDF748
:10306000E5F90E9AE74B0F93FDF748FAFDF74AFB97
:103070000A9902460B9817AB10931A804A22895A74
:103080004843FDF7FDFA0C9A0D9BFDF7CFF90E9A18
:103090000F9BFDF733FAFDF735FB0246109816A992
:1030A0000A80008809884631884208D8FFE716A8B8
:1030B000008817A909884631884205D9FFE7CB491E
:1030C0000878401C0870FFE717A8008809280AD86C
:1030D000FFE716A80088092805D8FFE7C449087843
:1030E000401C0870FFE7F1484621415A15984018E6
:1030F0001590FFE7FFE7FFE71498401C14A908703C
:103100006DE715986421FDF751FBE8495422885278
:10311000B6480078062809D3FFE7B44900200870B4
:10312000AB49022048700620087046E1B04800789C
:10313000062809D3FFE7AE4900200870A449022001
:1031400048700620087038E1A1490020087034E179
:10315000A549002009900870A4490870A449087086
:1031600001F0FCFA099813A90870FFE713A800788A
:10317000632800D986E0E7484078002808D1FFE7B7
:1031800099480078002803D1FFE7FEF713F8FFE71E
:1031900095480078DF49497888426DD0FFE7DD48DF
:1031A0004078002807D0FFE7DA4840788E49087059
:1031B000FEF700F8FFE7D748407800285BD1FFE72B
:1031C00089480078002856D0FFE7874900200690FC
:1031D0000870F74802904821415A0520039048435F
:1031E000FDF74EFA854A0492854B0593FDF71EF9CB
:1031F000069A844B0793FDF781F9FDF783FA02994C
:103200000246039817AB08931A804A22895A48430A
:10321000FDF736FA049A059BFDF708F9069A079B15
:10322000FDF76CF9FDF76EFA0246089816A90A80B8
:10323000008809884631884208D8FFE716A8008828
:1032400017A909884631884205D9FFE767490878F8
:10325000401C0870FFE717A8008809280AD8FFE774
:1032600016A80088092805D8FFE761490878401C9E
:103270000870FFE7FFE7FFE7FFE71398401C13A97B
:10328000087073E759480078062809D3FFE75749C3
:10329000002008704E4902204870062008708CE01B
:1032A00053480078062809D3FFE7514900200870E9
:1032B000474902204870062008707EE044490020FB
:1032C00008704C490120087077E044480068FDF719
:1032D000EBF90146D84801902A228154C06BFDF7D2
:1032E000E3F9019948863E4919200880FFF72CF937
:1032F000002805D0FFE7FFF73FF9002819D1FFE7C5
:10330000CD4907200870488A088200200884488434
:103310003449087001F0A0F8FFF792FA01F0CCF8F8
:103320007D20800000F082F801F0CEF800F032FB42
:10333000FFE72749002008703FE0BF4909200870D7
:1033400023490020087038E001F0C2F8224800F05C
:103350006DF801F0B5F80620012101F0B9F91C491A
:103360000020087029E01A4840780090012808D011
:10337000FFE70098801E06280BD8FFE700F0A2FBAD
:103380000BE0AD49032008830520C881092008709F
:1033900003E0002000F07CFCFFE70D4840780028A7
:1033A00006D0FFE70A484178042001F091F9FFE7D1
:1033B00007490020087000E0FFE718B080BDC04654
:1033C000E0000020DE000020DF000020CC00002014
:1033D000D9000020E4000020DC05000018000020D7
:1033E00004000020F0010020E0000020DE000020AA
:1033F000DF00002020020020CC0000205BD3BCE3D3
:1034000014CD59400000B04080B582B001A90880B9
:10341000FFE701AA1088411E1180002804D0FFE7B1
:103420003C20FDF7B2FFF4E702B080BD80B582B06A
:103430000190FFE70198411E0191002804D0FFE7A9
:103440000120FEF702FAF5E702B080BD80B57A48A8
:103450000078072805D1FFE7FFF77CF9FFF7E2F9CD
:10346000FFE775480078082805D0FFE77248007824
:10347000092805D1FFE7FFF741F9FFF7DFF8FFE77C
:103480006D480078082805D0FFE76B4800780728CA
:1034900003D1FFE7FFF782F9FFE7674800780828C4
:1034A00003D1FFE7FFF79AF9FFE780BDE4000020B2
:1034B00080B584B017484078022828DBFFE715491B
:1034C000039100204870144802210191FDF728FC67
:1034D0000199594A02924623D0521048FDF720FC28
:1034E0000199029A4A23D0520D48FDF719FC02991E
:1034F0004822885200F0A4F803990A4802785342FF
:103500005A4102700078424250410870FFE704B00F
:1035100080BDC046CC000020C0000020C4000020B8
:10352000C8000020E100002080B582B0002001909A
:10353000FDF746FEFEF740FF01F024F901F01DF90A
:1035400001F00CF901F018F96420FEF750F8FFE7DC
:10355000FEF724FD7D20000169460880F3480078CD
:10356000072804D1FFE7694612480880FFE768464C
:103570000088002804D1FFE7694601200880FFE7A2
:103580000D48408869460988884208DBFFE70A49F8
:103590000020488000F0A6FBFFF758FFFFE700F08F
:1035A000B5FFFFF7F1FC01F08BF9FFF7A5FCCFE7C2
:1035B000E40000204C040000F801002081B0DB4949
:1035C0004620085A5422895A884209DDFFE7D74924
:1035D0004620085A5422895A401A6946088003E056
:1035E000694600200880FFE76846008801B0704700
:1035F00080B582B0CD48017901A80170007800281B
:1036000004D1FFE701A914200870FFE701A80178A1
:1036100037200001484332306421FDF7C7F802B07B
:1036200080BDC04680B5C14800890449088000F0CB
:10363000FFF900F011FA80BDE40000200C0000202A
:1036400080B594B0F9494820085A4A22895A411A4B
:1036500013A80180008800B2002804D5FFE713A951
:1036600000200880FFE7FA494620085A5422895A68
:10367000884208DDFFE7F6494620085A5422895A55
:10368000401A069002E000200690FFE7069810AA74
:103690001080A74801680B0BC91A128889180160AD
:1036A0000068000B12A90880E948418E11AA118018
:1036B000007807280AD0FFE7E5480078082805D0F9
:1036C000FFE7E3480078092805D1FFE700F064FE32
:1036D00011A90880FFE7DE4800780590072809D087
:1036E000FFE70598082826D0FFE70598092800D1AC
:1036F000E2E017E1FA4804900079FCF7BAFF049978
:10370000886311A8008801F0A7F80F900F9811287E
:1037100003DCFFE712200F90FFE70F988C498842E7
:1037200004DBFFE7872080000F90FFE70FA80088E9
:1037300000F088FEF7E0EA4880780C214143804899
:103740004018C07A0EA9088000200D9012A80088A9
:103750000988884218DDFFE712A800880EA90988A9
:10376000401A0C900C99DE484422805A48430121AB
:10377000C902401800130D900D98512803DBFFE794
:1037800050200D90FFE7FFE70D98039000F0ACF993
:103790000399484300130D9011A800880D99401813
:1037A0000B904B2080000A90CD48008A4008D62814
:1037B00003D8FFE7A5200A90FFE70B9811A9098815
:1037C0000A9A8918884206DDFFE711A800880A993D
:1037D00040180B90FFE70B9801F062F800F032FE02
:1037E000FDF764FD139809A908800B98002803D5FC
:1037F000FFE70020029002E00B980290FFE702989A
:1038000008A9088009A800880988884207DBFFE723
:1038100009A8008808A90988401A019006E008A8AC
:10382000008809A90988401A0190FFE701980790CC
:1038300044480088002808D0FFE742490888401E15
:1038400008804149002008701CE009A8008808A9E8
:1038500009889F31884210D9FFE73B4A1078411C04
:10386000C8B211703C2807D3FFE737490020087021
:10387000062000F00FF9FFE703E03349002008704D
:10388000FFE7FFE7079840089F2810D3FFE72F4A7C
:103890001078411CC8B21170142807D3FFE72B49D8
:1038A00000200870082000F0F5F8FFE703E0274942
:1038B00000200870FFE736E011A8008800F0CCFF78
:1038C00000F0C0FD13A8008800B2FCF7C7FE19493C
:1038D000FCF77FFC1849FCF77CFCFCF7E5FE174978
:1038E0000870EA48808A0978884205DAFFE7E748E5
:1038F000808E09280BD3FFE7E449002088860870F2
:10390000F64905200870192000F09CFDFFE7F448F7
:10391000008AFF212E31884203D3FFE7FDF7C6FC62
:10392000FFE700E0FFE714B080BDC046E4000020E0
:10393000E80100200000FC426F12833A1C020020C4
:103940001800002010000020ED010020EC010020F4
:103950001D02000080B582B0014601A801800C491B
:1039600000910088400919280BD3FFE701A80088BF
:103970007D214901884204D8FFE701A80088009012
:10398000FFE700984049086000F066F802B080BD8B
:10399000A409000080B586B00020049003A9087037
:1039A00005A90870FFE705A80078132824DCFFE7C5
:1039B0000120FFF73BFDCA484821415A02A8018077
:1039C00000884009192811D3FFE702A800887D214B
:1039D000490188420AD8FFE702A8018804984018E4
:1039E00004900398401C03A90870FFE7FFE70598BF
:1039F000401C05A90870D6E703A8007800280ED05F
:103A0000FFE7049803A909784A088018FCF7CEFE5E
:103A1000014601A801800088FFF79CFF03E0002019
:103A2000FFF798FFFFE706B080BDC046E400002026
:103A300081B0AB48C178684601700078002805D095
:103A4000FFE76846007803490880FFE701B0704748
:103A5000E40000200E00002080B582B00A48006813
:103A6000019001984009182804D8FFE71920400167
:103A70000190FFE701994808044A8018FCF796FE78
:103A80000349086002B080BD0800002000408800A3
:103A90001400002080B582B0014601A801700078B2
:103AA000002804D0FFE701988C494870FFE78B4954
:103AB00000910120887000F005F800990620087038
:103AC00002B080BD80B500F0FBFC00F001FD834931
:103AD000002008708249087048700249087080BD53
:103AE000E40000202002002080B588B07C48008AD5
:103AF00006A908804B20800005A90880D720420035
:103B000004A802800122D20203AB1A80008809882F
:103B1000884205DDFFE706A80088002804D1FFE7FA
:103B200007A90020088040E006A8008805A90988A8
:103B300088420EDAFFE706A8018803A800884843F8
:103B400005A909884A088018FCF730FE07A90880F3
:103B50002BE006A8008804A90988884205DBFFE756
:103B60000120000307A908801FE004A8008805A918
:103B70000A88801A029006A800880988411A03A8BA
:103B8000028801200003801A48430299490840181E
:103B900001900398009001980299FCF707FE0146F6
:103BA0000098401807A90880FFE707A8008808B018
:103BB00080BDC04680B582B04948006C0021FCF74A
:103BC0003FFD002805D1FFE74549442200208852E7
:103BD0001EE04348006C0F49FCF7FBFA3F21090641
:103BE000FCF79EFAFCF779FD019001980A4988429A
:103BF00003D3FFE709480190FFE701980003084954
:103C000040180649FCF7D2FD354944228852FFE7A7
:103C100002B080BD00007A44112700001027000088
:103C20008813000080B584B02D48C088652806D36D
:103C3000FFE72B48C088643803A9088003E003A984
:103C400000200880FFE72649C8780979401A0290C9
:103C500003A80088002804D0FFE70298002804DCAD
:103C6000FFE71F490020C8610EE00298FCF7F6FC50
:103C7000019003A80088FCF7FCFC01460198FCF7C2
:103C8000E5FA1749C861FFE704B080BDE4000020F1
:103C900081B00146684601700078002806D0FFE731
:103CA00000980E49487001208870FFE70C480078A2
:103CB00008280AD0FFE70A480078072805D0FFE760
:103CC00007480078092806D1FFE705490520C88183
:103CD00009200870FFE701B07047C046D9000020F6
:103CE000E400002080B5AEB0FC48007810900728B2
:103CF00009D0FFE71098082800D1F2E010980928B1
:103D000000D14FE205E300F07DFB2DA90880F348C8
:103D1000808C002804D0FFE7F048808C0F9003E0EF
:103D2000EE48C08A0F90FFE70F982CA90880EB4857
:103D3000408E2DA9098888422DDAFFE7E749002047
:103D4000C8844884E64908702CA800882B902B98DA
:103D50000B2803D3FFE70A202B90FFE7DF48408EB4
:103D60002B9940182A902A982DA90988884204D9AD
:103D7000FFE72DA800882A90FFE72A98FF21F63157
:103D8000884204D3FFE77D2080002A90FFE72A982D
:103D9000D2494886A1E0D148018C491C01840079B0
:103DA000FCF767FC2990299801218907FCF73AFC68
:103DB000002803D1FFE7CB482990FFE7C7480E90C2
:103DC000C1690D91408AFCF754FCFCF7BFFC00224E
:103DD000C54BFCF779FAFCF7CDFC01460D98FCF7D2
:103DE000F8F92999FCF79CF93F210906FCF798F9A5
:103DF000FCF75AFC0E9926AA10804820085A4A223D
:103E0000895A411A28A80180008800B2002804D5E8
:103E1000FFE728A900200880FFE728A8008800B253
:103E2000FCF71CFCB149FCF7D4F9B149FCF7D1F916
:103E3000FCF73AFC27A90880A848008C0F2806D870
:103E4000FFE7A64900204884A549087044E026A859
:103E5000008827A9098888420CDAFFE700F0FCFAFD
:103E60009E490820087000200884C88448849C4922
:103E7000087030E09948408C282805D8FFE797491A
:103E8000488C401C4884FFE79448408C292821D363
:103E9000FFE700F0BBFA45218900884215DCFFE707
:103EA0008F4A1078411CC8B2117003280CD3FFE769
:103EB00000F0D2FA89490820087000200884C884DC
:103EC000488487490870FFE703E0854900200870AF
:103ED000FFE7FFE7FFE7FFE7FFE78049488A08823F
:103EE00017E27E49088AC989884206DAFFE77B49DA
:103EF000CA8A088A801808820CE07849088AC98929
:103F0000884206DDFFE77549CA8A088A801A088256
:103F1000FFE7FFE771480A900079FCF7AAFB01462A
:103F20000A982591C1690B91008AFCF7A2FBFCF766
:103F30000DFC00220C926C4BFCF7C6F9FCF71AFC46
:103F400001460B98FCF745F92599FCF7E9F8249010
:103F500024986849FCF73DF96749FCF73AF90C9950
:103F600023902398FCF76CFB002804D1FFE722A9DB
:103F70000020088015E023986049FCF745FB0028E5
:103F800004D1FFE722A9FD48088009E023983F21DA
:103F90000906FCF7C5F8FCF787FB22A90880FFE7B4
:103FA000FFE7FFF725FB21A9088022A800880988E0
:103FB000884204DAFFE7219822A90880FFE7F04849
:103FC000C078002816D0FFE7ED48C17837200001FF
:103FD000484332306421FCF7E9FB20A9088022A87D
:103FE00000880988884204DDFFE7209822A908801C
:103FF000FFE7FFE7E248408E1FA9088022981EAA2B
:10400000108022A80088098888420FDDFFE72298E7
:104010001F99411A1DA8018000880B2805D3FFE7CE
:104020001F980A301EA90880FFE716E022A8008822
:104030001FA9098888420FDAFFE71F982299411AC1
:104040001CA8018000880B2805D3FFE71F980A38B9
:104050001EA90880FFE7FFE7FFE7F948808C0028EA
:1040600004D0FFE7F648808C099003E0F448C08A4A
:104070000990FFE709981BA90880F148018B1AA84D
:1040800001800088002804D1FFE71AA901200880D8
:10409000FFE7EB48408E1EA90988884217DAFFE740
:1040A0001E98E749498E411A19A8018000881BA96A
:1040B0000988884204DCFFE71E98F849488605E035
:1040C000F649488E1B9A80184886FFE730E0F3488F
:1040D000408E1EA90988884229DD11E0E4000020F5
:1040E000F00100200000A041000059C00000FC4287
:1040F0006F12833A00005C440AD7233C00E07F47FC
:10410000E648408E1E99411A18A8018000881AA915
:104110000988884204DCFFE71E98E049488605E0EC
:10412000DE49488E1A9A801A4886FFE7FFE7FFE7C4
:10413000DA48016C089180780C214143934840187B
:10414000007AFCF78BFA01460898FCF74FFA002832
:1041500009D1FFE7D1480790006C8E49FBF7E0FFDB
:10416000079908641BE0CD48016C069180780C210A
:10417000414386484018007AFCF770FA01460698D9
:10418000FCF750FA002809D1FFE7C4480590006CFD
:104190007F49FBF7C5FF05990864FFE7FFE7FFF7D5
:1041A00009FDB6E000F02EF917A90880BB48018B85
:1041B00016AA1180008AC72811D8FFE7B748008BDC
:1041C000022805D3FFE7B548008B4008049002E0C1
:1041D00001200490FFE7049816A90880FFE7AF4983
:1041E000088AC98988421BDAFFE7AC49C889098A6D
:1041F000401A14A9088016A800880988884204DBA0
:10420000FFE7A648C089039006E0A448008A1699F3
:10421000401880B20390FFE70398A049088221E08C
:104220009E49088AC98988421BDDFFE79B49088AA5
:10423000C989401A13A9088016A8008809888842ED
:1042400004DBFFE79548C089029006E09348008AA6
:104250001699401A80B20290FFE702988F490882AF
:10426000FFE7FFE78D48008A042805DCFFE78B495C
:10427000888E401C8886FFE78848018B15A801803E
:104280000088002804D1FFE715A901200880FFE776
:104290008248408E17A90988884211DAFFE715A8DD
:1042A0000088022805D3FFE715A800884008019080
:1042B00002E001200190FFE7019815A90880FFE7BF
:1042C0007648408E15A90988884206DDFFE7159AD1
:1042D0007249488E801A488603E07049002048865B
:1042E000FFE76E48006C2749FCF780F9002809D1E8
:1042F000FFE76A480090006C2349FBF711FF009923
:10430000086403E065491F480864FFE7FFF752FCB3
:10431000FFE76248008A6421FCF748FA014612A8C8
:10432000017000780D2804D3FFE712A90C20087053
:10433000FFE712A8007859498978884204DBFFE733
:1043400012985649887016E0544880786421414399
:1043500011A80180008829280CD3FFE74F48008A64
:1043600011A909882839884204D2FFE712984B49DD
:104370008870FFE7FFE72EB080BDC046FFFF00005A
:10438000E4000020CDCCCC3DCDCCCCBD180000202D
:10439000CDCC4C3ECDCC4CBE85B04048408E0002CA
:1043A0000490049803903E48006802900398029994
:1043B000401A01900420009001980099884203DD82
:1043C000FFE7009801900AE001980099494288426D
:1043D00004DAFFE7009840420190FFE7FFE7019908
:1043E0000298401802900298002803D5FFE70020A9
:1043F0000290FFE702992A4801600068000A80B233
:1044000005B0704780B5FFF7F3F880BD81B0234950
:104410004620085A5422895A884209DDFFE71F497D
:104420004620085A5422895A401A6946088003E0F7
:10443000694600200880FFE76846008801B07047A1
:10444000E400002081B06946088000980149088096
:1044500001B070470400002081B00A4900200860C4
:1044600009490870094908700949088009490A483A
:1044700008800A48408E00020090009808490860B1
:1044800001B07047E8010020ED010020EC010020A0
:10449000EE0100201000002002560000E400002081
:1044A000F401002003480188CD2040004843800AE1
:1044B0007047C0460C00002080B5FEF755F880BD5F
:1044C00080B5FEF749F880BD80B5FDF7BCFF80BD23
:1044D00080B5FDF7ADFF80BD80B5774809498722DB
:1044E000FCF7D3FE0849642048705A2088701420D5
:1044F000C87072497F220A707E20C87188490A708C
:10450000C87180BD3C010020D401002010B588B0E6
:10451000694807A9FCF7EEFE014606A8017000787D
:10452000002801D1FFE7C5E007A8007863490978B2
:10453000884204D1FFE7624901200870BAE0604870
:104540000078401E0090032800D9B2E00098810056
:1045500001A040588746C0466945000077450000E5
:10456000A3450000CB4500000798544948705449C2
:10457000022008709EE007995048817080780328D7
:1045800004DBFFE74E490020087093E04E4900200D
:1045900008704A48C01C4B4908604949032008700C
:1045A00088E0079947480268474803785C1C047014
:1045B000D154007841498978891C884204DBFFE79F
:1045C0003F4904200870FFE774E007A800783B49E2
:1045D000C979884269D1FFE73848401C39490860E9
:1045E00007A90020087038490870FFE736480078AE
:1045F00032498978891C88420FDAFFE73148006820
:1046000031490978415C0798484007A90870FFE7DD
:104610002D490878401C0870E8E7079804A908703D
:104620002848016808784978401801A9087005A948
:1046300000200870FFE705A80078204989788842A3
:1046400010DAFFE701981F490A6805A90978891857
:104650008978401801A90870FFE70598401C05A952
:104660000870E8E701A800780721FCF79FF803A885
:10467000017014480168114880784018807802A9B8
:10468000087004A800780978884207D0FFE703A8DB
:10469000007802A90978884206D1FFE70B4900207B
:1046A0000870FEF7DFF8FFE7FFE705490020087014
:1046B00000E0FFE708B010BDC4010020FC010020AD
:1046C0000C02002008020020040200200D0200203D
:1046D00010B584B003AA107002A8017001AB0020CD
:1046E0001870039A0E494A70039C019A62401A702E
:1046F00001248C70019A62401A70029ACA70029C5E
:10470000019A62401A70019A0A7148717E228A7178
:104710008A78921DD2B2FDF731FC04B010BDC046BC
:104720000E02002081B00146684601700078092819
:1047300004D8FFE769460A200870FFE7684600785A
:10474000652804D3FFE7694664200870FFE76846E0
:1047500001780A20484301B07047000080B5FDF79A
:10476000B3FDFDF7C9FD0349032008700020487020
:1047700080BDC046CC000020704780B5FDF772FEBA
:1047800080BD0000B0B594B0002005901390129049
:10479000119010900F900E900D900C900B90FFF7D1
:1047A0009BFE2020019001210891FCF72FFF089922
:1047B0001020FCF759FF01980421079111911290E4
:1047C0008020029013902048039011A90491FCF7D7
:1047D000EDFD029A03980499082311931123129373
:1047E0001392FCF7E3FD0598089B184A116807240B
:1047F0002502A9431D024919116011682403A14330
:104800001B03C91811600BA98880C880104A0D923B
:104810008881C88108820320099048824B2040018A
:104820000B900C480690FDF775F906980799089AC1
:10483000FDF71CF909991C200A90FDF7B1FC0A98B4
:10484000FDF71CFC14B0B0BD000100481801004881
:10485000006CDC020010004082B0019001990E480B
:1048600000684843800B009000980C49884204D3AC
:10487000FFE7872080000090FFE70098002807D01E
:10488000FFE70098112803D8FFE712200090FFE708
:104890006846008802B07047140000201D02000026
:1048A00080B582B001900198002803D5FFE7002071
:1048B0000190FFE70198FFF7CFFF02B080BD000035
:1048C00080B582B00E480078012817D1FFE70D4966
:1048D00001910888401C08800120FEF795FD019891
:1048E0000088152809DBFFE70649002008800449F5
:1048F0000870054903200870FFE7FFE702B080BD9C
:10490000200200201E020020D90000202021020CDD
:1049100001D010211046020A01D0104608390209C0
:1049200001D01046091F820801D01046891E420896
:1049300001D0881E7047081A704702E008C8121F8D
:1049400008C1002AFAD170477047002001E001C178
:10495000121F002AFBD170472E2E2F2E2E2F2E2E07
:104960002F2E2E2F4C69627261726965732F7372DC
:10497000632F637733326C3031305F7379736374D4
:10498000726C2E63002E2E2F2E2E2F2E2E2F2E2EBB
:104990002F4C69627261726965732F7372632F6342
:1049A0007733326C3031305F6164632E63002E2EBA
:1049B0002F2E2E2F2E2E2F2E2E2F4C6962726172CB
:1049C0006965732F7372632F637733326C303130C4
:1049D0005F6174696D2E63002E2E2F2E2E2F2E2ECA
:1049E0002F2E2E2F4C69627261726965732F73725C
:1049F000632F637733326C3031305F756172742EA0
:104A000063000000284A000000000020C0000000F1
:104A10003A490000E84A0000C00000206805000094
:104A20004A4900000000000000093D001900000094
:104A3000A40900002402F00002560000220E00002B
:104A400000009041E803E803021E041700009041B3
:104A5000E803E803021E041700000042E803E8032D
:104A6000031E041700003842E803E803031E041E77
:104A700000007042E803E8030319051E0000944299
:104A8000E803E8030319061E0000B042E803E80348
:104A90000219071E0000CC42E803E80302140728AD
:104AA0000000E842E803E80302140728000002437C
:104AB000E803E8030214031E00001043E803E803C0
:104AC0000214082100001E43E803E803021408232F
:104AD00000002C43E803E80302140823010000004F
:084AE0000400000000000000CA
:04000005000000C136
:00000001FF
