:020000040000FA
:1000000070060020D9000000F3000000B11A0000C3
:1000100000000000000000000000000000000000E0
:10002000000000000000000000000000F7000000D9
:100030000000000000000000F9000000BF1B0000ED
:100040002D1B0000351B00003D1B0000451B000060
:10005000FD000000FD00000009200000112000004C
:10006000FD000000FD000000891B0000FD000000F5
:10007000C11A0000FD000000411F0000491F0000E0
:10008000511F0000FD000000611F0000691F0000FB
:10009000711F00001D1B000087210000FD000000F3
:1000A000D9090000FD000000772100007F21000039
:1000B000F71A0000FD000000A7180000B5170000A7
:1000C0000448854600F076FC004800477132000085
:1000D000C046C0467006002009480A4A002100A117
:1000E000814200D902440848026008488047084815
:1000F0000047FEE7FEE7FEE7FEE7FEE7FEE700005B
:10010000000000200000000008ED00E0391F0000A2
:10011000C100000030B50B4601460020202201241A
:1001200009E00D46D5409D4205D31D469540491B2B
:100130002546954040191546521E002DF1DC30BD74
:1001400070B500242546002801DA01244042002928
:1001500001DA01254942FFF7DDFFAC4200D0404201
:10016000002C00D0494270BD03460B439B0703D0CF
:1001700009E008C9121F08C0042AFAD203E00B786C
:100180000370401C491C521EF9D27047F8B5024654
:100190004A40D40F42004B0052085B089A4202D2F8
:1001A0000246084611464A0023D0C30D4A00DDB27C
:1001B000120EAD1A202D35DA49020126490AF6053C
:1001C0008A19002C00D0524220214F1B1146B94001
:1001D0002A411018C20D9A4221D0002C17D0012DAF
:1001E00008DCDA05801AD20F8019D207DBB200F0E2
:1001F00049FBF8BDDA05801A012340001B06C01830
:1002000080185A428018CA0F1043490007E0490875
:10021000C2071143DA05801A80194008801800F0DF
:1002200029FBF8BD61000122511A001BF7E70122EA
:10023000D2075140AAE70122D2075040A6E7024662
:1002400070B54A40D30FDB0740002DD04A002AD0BA
:10025000010E140E000212020919400A520A8418F3
:10026000E50104465443000A120A2E045043A4191F
:100270004219200CC543AA18120C0125AD03521CCB
:10028000521912047F39240400D0521C104301D4A7
:100290004000491EC2B20C06C0092018401C40088C
:1002A000802A02D003E0002070BD400840000029F1
:1002B00000DA0020184370BD70B502464A40D50FE1
:1002C00040004A00ED0740085208002814D0002AD8
:1002D00012D0C40DD30D41020120C0055202490ABB
:1002E000520AE41A091812187D34914201D3641C91
:1002F00000E04900002C01DA002070BD002391428B
:1003000001D3891A0343400849000028F7D1002986
:100310000AD0914202D10121C90705E0914201D2E0
:10032000012101E00121C943E005C018401900F096
:10033000A1FA70BDF0B507460846584087B0C00F17
:10034000049048000E46590040084908BC1A8841EC
:1003500005D2384631461E4617460B46024658001F
:10036000400810434DD0300D039040055900400D1A
:10037000490D0590401A0290402873DA18030121B4
:10038000000B09050843019004980092002806D04C
:100390001146019A49420020904100910190029833
:1003A00040210A1A0199009800F030FA05460C46DF
:1003B0006B4607CB00F04BFAC0197141039A0E0D42
:1003C0000023D71756401A467A40164344D0049A61
:1003D000002A2DD0029A012A039A15DC1205C01AB0
:1003E000914101263605001C7141D20F059ED207AE
:1003F0000093019202962A46234600F089FA07B03C
:10040000F0BD38463146FAE71605234A0F46B218C2
:10041000C01AB74101210905001C4F4100187F4156
:10042000114618187941E20F10436D19644113E029
:10043000E2076D0815436408C2071443039A0126B6
:100440001205C01A91413605001C7141CE074008C3
:1004500030434908C01851412A46234600F04BFA60
:10046000CDE7FFE7049801224000C117121A0023CC
:100470008B4104983146C417381AA141EEE730B4D5
:100480000124E407634030BC54E730B40124E4079E
:10049000614030BC4EE700000000E0FFF0B51FB443
:1004A00088B00B990998002448400999C00F490069
:1004B00049080991C0070B990090490049080B9120
:1004C00009990898A64608431CD00B990A98084336
:1004D00018D0099801244000420D4800410D0998A8
:1004E00024050003000B204309900B980003000B28
:1004F00020430B9050181C494018002201901446CC
:10050000104605E0002001460DB0F0BD032801DAD9
:10051000034600E003239C46C11A0AAE0AE05F00CE
:1005200008ADED5B4F00F75B7D430027AA187C41C7
:10053000491C5B1E6145F2DD410004AB5A522104A7
:10054000120C0A43240C401C0828DFDB019802909F
:100550000099704601910090059B049A07990698AE
:1005600000F0D6F9D0E700000DFCFFFFF0B50C4617
:100570005C4085B0E40FE40703944C000026640857
:1005800059009446490802460296224321D0624609
:100590000A431ED06200570D4A000E032303550D77
:1005A000012402462C492405781B1B0B360B4018EE
:1005B00023432643614600901C46501AB44103D39E
:1005C0000098401C009002E0921800985B410028BF
:1005D00003DA0020014605B0F0BD00200121090525
:1005E0000746864611E064461D46141BB54106D3F6
:1005F0006546521BB341744607430C43A646CD07DC
:1006000040084908284392185B4105460D43EAD14A
:100610001046184313D060461946504071400843B5
:1006200006D06046101AB34106D20122002306E02C
:1006300000220123DB0702E00122D243531000987D
:1006400074460105381C6141029C039D00196941F3
:1006500000F051F9BFE70000FD030000C217C10F11
:10066000504010B54018CA079623002100F00AF93F
:1006700010BD10B500229623114600F003F910BDFD
:100680000EB5C217C10F5040CA0740180021054BD4
:100690000293019200910A460B4600F039F903B02B
:1006A00000BD0000330400000EB505490291002191
:1006B00000910A460B46019100F02AF903B000BDF3
:1006C00033040000C20F410040020123400ADB0551
:1006D000D207090EC0187F2901DA00207047962939
:1006E00003DC9623591AC84001E096398840002A55
:1006F000F4D040427047410040020122400AD20536
:10070000090E80187F2901DA00207047962903DC42
:100710009622511AC84070479639884070470000A9
:100720004A0009030123090B1B051943094B10B5A6
:10073000520D9A4201DA002010BD064B34339A4222
:1007400003DC9A1A00F072F810BD03495118884072
:1007500010BD0000FF030000CDFBFFFFC20FD2075A
:10076000400040080BD0C10D0723DB01C91840022F
:100770000905400A1143C208400711437047002091
:100780000146704710B5002904DB0124E40740420C
:100790008C412146002B04DB1C460123DB0752421F
:1007A000A341994200D1904210BD0000CB0FDB075E
:1007B000490010B5490802460A4307D00A0D07242C
:1007C0000903E401090B121B002A01DC002010BD03
:1007D000C900440F0C43C100E018D205801800F096
:1007E00049F810BD0122D207002800DB101A0029A9
:1007F00000DB511A814270470122D207002800DB3A
:10080000101A002900DB511A8842704710B5202ABF
:1008100004DB0146203A9140002010BD9140202386
:100820009C1A0346E3401943904010BD10B5202A9E
:1008300004DB0846203AD040002110BD0B46D340CF
:10084000D0402024A21A91400843194610BD10B58B
:10085000202A06DBCB170846203A1041C1170B436C
:1008600006E00B461341D0402024A21A91400843D1
:10087000194610BD002904DA401C490001D1400886
:100880004000704770B40024050C05D1102400040A
:1008900002D1002921D01124050E01D10002083413
:1008A000050F01D10001241D850F01D18000A41C7A
:1008B000002801DB4000641C002908D020252E1BE5
:1008C0000D46F540A14000D001212943084301060F
:1008D0001B1B000ADB1D02D5002070BC7047DB0526
:1008E000181880180029F8DA401C4900F5D170BCAE
:1008F00040084000704710B5002B08DA0024401C67
:10090000614192185B411A4301D14008400010BD7B
:10091000F0B51FB482B005460C0003D0084601F0C4
:10092000D7FC02E001F0D4FC2030024600902146C2
:100930002846FFF76BFF049B059A04460F461843B1
:100940001143084314D0184610431BD0009840218F
:100950000A1A18460599FFF769FF05460E46009AE0
:1009600005990498FFF752FF084305D0012004E0E1
:100970002046394607B0F0BD0020C11705430E439D
:100980002C43374300990E986305401A7905E40A11
:1009900000220C43FD0A0A3002D500200146E9E797
:1009A0000105101969410C9C0D9D00196941FFF763
:1009B000A2FFDFE7064C0125064E05E0E36807CC01
:1009C0002B430C3C98471034B442F7D3FFF77CFB21
:1009D000603F0000803F000010B500F009F910BD35
:1009E000FEB503460C460020029001900022002133
:1009F00006E04800185A4E006F46B853481CC1B272
:100A0000A142F6DB684600880290684600880190A3
:100A100000201AE046006F46BF5B029EB74203DD2E
:100A200046006F46BE5B029646006F46BF5B019E66
:100A3000B74203DA46006F46BE5B019646006F463A
:100A4000BE5BB618B2B2461CF0B20228E2DB10461A
:100A5000D60F3618F603350C2846FEBD0820C043D5
:100A60000149486270470000402400404178012954
:100A700008D11B4989680122920391438918184AB9
:100A8000916006E016498968012292039143144A55
:100A900091608178012908D11149896801225203A6
:100AA000914389180E4A916006E00D498968012238
:100AB000520391430A4A9160C178012908D108493B
:100AC00089680122120391438918054A916006E062
:100AD00003498968012212039143014A91607047DA
:100AE0000024004010B50246002901D0002A01D19F
:100AF000042010BD022010700C48806801239B0266
:100B00009843C018094B98600878D8601846C068A8
:100B1000FF231B0298434B781B02FF24240223402F
:100B20001843024BD8600020E3E700000024004097
:100B30000348406840084000401C01494860704735
:100B4000002400400448406801218903884340187C
:100B500001494860704700000024004000B502468B
:100B6000002901D1042000BD130001F0C8FB0805D5
:100B70000B11171D242B32391C48006B0005000D8A
:100B800008802FE01948406B0005000D088029E01F
:100B90001648806B0005000D088023E01348C06BE9
:100BA0000005000D08801DE0104840300068000579
:100BB000000D088016E00D48403040680005000D2B
:100BC00008800FE00948403080680005000D08806B
:100BD00008E006484030C0680005000D088001E0CC
:100BE0000420C0E700BF0020BDE700000024004053
:100BF00010B51948006A0007C00F00282AD017480E
:100C00000078022802D003281AD108E0134840785F
:100C10004000134A81180020FFF7A0FF10E00F48A2
:100C2000407840000F4A81180120FFF797FF0B48DA
:100C3000407840000C4A81180220FFF78FFF00BF68
:100C400000BF06484078401C0449487002F0CAFAC8
:100C5000FFF704FF10BD00004024004018000020F2
:100C60002000002024000020280000200146002948
:100C700001D1042070473A4840680C2290434A78DA
:100C800092000C231A401043354A506010464068C9
:100C90005A0290438A78D2025B021A401043304ACB
:100CA000506010464068DA109043CA781202DB1098
:100CB0001A4010432A4A506010464068121590436B
:100CC0000A79920201239B021A401043244A506081
:100CD000234840308069000B00030A891205120D79
:100CE00010431F4A403290611046C069000B000358
:100CF0008A891205120D1043194A4032D0611848F2
:100D00008068400940010A7CD206D20E1043144A82
:100D10009060104680681F22520190434A7C520125
:100D20001F235B011A4010430D4A90601046406833
:100D3000121490430A4A506010468068121490437F
:100D4000074A90601046806852149043044A9060AD
:100D50001046806892149043014A9060002089E711
:100D6000002400400B48406A082188430949486232
:100D7000084840384068C91388434018054940393D
:100D800048600846406802218843801C0149403978
:100D9000486070474024004030B50346002A01D126
:100DA000042030BD002902D001297DD165E0986D75
:100DB000400840001478E407E40F20439865986DDC
:100DC0000224A0435479640002252C4020439865F6
:100DD000986D0424A0439479A40004252C4020435A
:100DE0009865986D0824A0431479E40008252C40E8
:100DF00020439865986D3024A043D4782401302591
:100E00002C4020439865986DC024A0439478A40199
:100E1000C0252C4020439865986DFF240134A043E1
:100E200054782402FF2501352C4020439865986DA5
:100E300003246402A043147A640203256D022C404B
:100E400020439865986DAC00A043D479E402AD00CE
:100E50002C4020439865986E40084000547AE4077F
:100E6000E40F20439866986E0624A043947A6400A9
:100E700006252C40204398666FE0986D01242404D9
:100E8000A0431478240401252D042C4020439865A8
:100E9000986D6C00A043547964046D002C4020438D
:100EA0009865986D6C0000E055E0A0439479A40427
:100EB0006D002C4020439865986D6C00A043147918
:100EC000E4046D002C4020439865986D03242405AC
:100ED000A043D478240503252D052C402043986594
:100EE000986DAC00A0439478A405AD002C4020433D
:100EF0009865986D01242406A043547824060125A2
:100F00002D062C4020439865986D03246406A04369
:100F1000147A640603256D062C4020439865986D6D
:100F2000AC00A043D479E406AD002C402043986582
:100F3000986E1024A043547A240110252C4020439D
:100F40009866986E6024A043947A640160252C40D2
:100F50002043986601E0042023E700BF002020E73B
:100F600030B5034614465A6D002C03D0012088404A
:100F7000024304E001208840154685432A465A650D
:100F8000002030BD01460022FF20053042500020E5
:100F9000704701460868000C000408600020704794
:100FA000024601208840C343FF20053083500020C3
:100FB000704730B50346002907D1D86D400840007E
:100FC000D407E40F2043D8650CE0012908D1D86D7F
:100FD0000424A043940004252C402043D86501E05C
:100FE000042030BD0020FCE710B50246FF24013488
:100FF000A3581C46CC40E007C00F10BD10B50246F8
:10100000002901D1042010BD0878052801DD042045
:10101000F9E7106D0E2398430B785B000E242340F4
:1010200018431065106DFF23013398434B781B0262
:10103000FF240134234018431065106D702398433A
:101040008B781B0170242340184310650020DAE7D9
:101050000346002901D11A610DE0012901D15A612D
:1010600009E0022901D19A6105E0032901D1DA6181
:1010700001E0042070470020FCE702465160002098
:1010800070470146086D40084000401C086500207C
:1010900070470146086D4008400008650020704711
:1010A0001CB514211E4802F011F8022101A802F01B
:1010B0000DF80421684602F009F80121102000F023
:1010C000CDFEFFF735FD00F061F9022014490870EC
:1010D00000204870022088700320C870002008712A
:1010E000087448740846FFF7C1FD01216846017085
:1010F000002141708170C170FFF7B8FC062168467D
:1011000001710121417101A90548FFF7EBFCFFF7CF
:1011100019FD01220221182000F078FB1CBD0000FF
:1011200018010020F0B585B004460D46174603218E
:1011300003A801F0CBFF0B21684601F0C7FF012196
:101140000A2000F08BFE04216846017301214173DF
:101150000021817303A91D48FFF750FF21461B485A
:10116000FFF78BFF00262A4631461848FFF770FF2D
:1011700002262A4631461548FFF76AFF0122002160
:101180001248FFF716FF00216846017001214170E7
:10119000022181700321C17000210171012141717F
:1011A00081716A4600210948FFF7F6FD0748FFF7FD
:1011B000E9FE012207210548FFF7D2FE0122114670
:1011C000142000F023FB05B0F0BD00000038004003
:1011D0001CB50621684601F079FF01211C2000F0B2
:1011E0003DFE0020694648706A46022100F0FAFB85
:1011F00005220221002000F035FC1CBD1CB5012495
:101200000121082000F02AFE00216846017041708B
:10121000032181700021C170017101214171694672
:10122000022000F08FF9002800D000BF022000F05B
:10123000E9F8022000F03AF901220021102000F024
:10124000E5FA20461CBD00007CB50024104D2E465A
:101250000121082000F002FE002168460170417063
:1012600081700121C1700021017101214171694624
:10127000002000F067F9002800D001242946002052
:1012800000F092F83146002000F0E2F820467CBDE4
:10129000A0F6000008B501211F2000F0DFFD0020AE
:1012A00000F008FB002000F0E5FD00216846017019
:1012B0004170817000F087FC08BD1CB506216846AE
:1012C00001F004FF01211C2000F0C8FD0020694648
:1012D00048706A46012100F085FB042201210020AC
:1012E00000F0C0FB1CBD1CB50621684601F0EEFEF7
:1012F00001211C2000F0B2FD0021684641706A46C1
:101300000521C02000F06EFB01220521C02000F065
:10131000A9FB0121684641706A460621C02000F001
:1013200061FB01220621C02000F09CFB1CBD0000D7
:1013300008B500F091FF012000906946084800F0D0
:10134000C0FE0021064800F0A6FE0021044800F07F
:101350008DFE01220321072000F058FA08BD00008D
:10136000000100401CB501211C2000F077FD012187
:101370006846417081700021C170017141716A46F7
:101380000321C02000F02EFB1CBD000010B5054855
:1013900000680121084303490860022001F0C4FEEF
:1013A00010BD00000024004010B502460020002AB5
:1013B00004D0012A0BD0022A1DD111E0104B1B686A
:1013C0001B0C1B048CB223430D4C236015E00C4B0B
:1013D0001B6A1B0C1B048CB22343094C23620CE0D8
:1013E000074B40331B681B0C1B048CB22343044C7B
:1013F0004034236001E0012000BF00BF10BD0000A9
:10140000000C004001460020002904D0012909D029
:10141000022917D10DE00D4A5269520852000B4BB8
:101420005A6111E0094A526B52085200074B5A6345
:101430000AE0064A4032526952085200034B4033D8
:101440005A6101E0012000BF00BF7047000C00405E
:1014500010B502460020002A04D0012A0BD0022A2F
:101460001DD111E0104B5B681B0C1B048CB2234395
:101470000D4C636015E00C4B5B6A1B0C1B048CB2BB
:101480002343094C63620CE0074B40335B681B0C41
:101490001B048CB22343044C4034636001E0012000
:1014A00000BF00BF10BD0000000C0040014600203E
:1014B000002904D001290BD002291DD111E0104AC6
:1014C000D26801239B029A43D2180D4BDA6015E0D3
:1014D0000B4AD26A01239B029A43D218084BDA6264
:1014E0000CE0074A4032D26801239B029A43D2188B
:1014F000034B4033DA6001E0012000BF00BF7047BA
:10150000000C004001460020002904D0012907D02A
:10151000022910D109E00A4A1269D007C00F0CE075
:10152000074A126BD007C00F07E0054A4032126924
:10153000D007C00F01E0002000BF00BF70470000CF
:10154000000C004030B502460020002A04D0012AD9
:1015500047D0022A7ED18BE06D4BDB680124640208
:10156000A3430C78640201256D022C402343684C90
:10157000E3602346DB68A415A3434C7824026D1076
:101580002C402343624CE3602346DB687024A34372
:101590008C78240170252C4023435D4CE360234666
:1015A000DB680824A343CC78E40008252C402343BF
:1015B000574CE3602346DB680424A3430C79A40062
:1015C00004252C402343524CE3602346DB6802246D
:1015D000A3434C79640002252C4023434C4CE36028
:1015E00094E04B4BDB6A01246402A3430C78640251
:1015F00001256D022C402343454CE3622346DB6A00
:10160000A415A3434C7824026D102C402343404C76
:10161000E3622346DB6A7024A3438C78240170259F
:101620002C4023433A4CE3622346DB6A0824A3435D
:10163000CC78E40008252C402343354CE362234654
:10164000DB6A0424A3430C79A40004252C40234323
:101650002F4C00E058E0E3622346DB6A0224A343F8
:101660004C79640002252C402343294CE3624DE071
:10167000274B4033DB6801246402A3430C786402E7
:1016800001256D022C402343214C4034E360234666
:10169000DB68A415A3434C7824026D102C4023432F
:1016A0001B4C4034E3602346DB687024A3438C78F2
:1016B000240170252C402343154C4034E36023461D
:1016C000DB680824A343CC78E40008252C4023439E
:1016D0000F4C4034E3602346DB680424A3430C79B9
:1016E000A40004252C402343094C4034E3602346E6
:1016F000DB680224A3434C79640002252C40234379
:10170000034C4034E36001E0012000BF00BF30BD66
:10171000000C004001460020002904D001290AD015
:1017200002291AD10FE00F4AD26852085200521C07
:101730000C4BDA6013E00B4AD26A52085200521C7A
:10174000084BDA620BE0074A4032D2685208520076
:10175000521C044B4033DA6001E0012000BF00BF9F
:1017600070470000000C004001460020002904D012
:10177000012909D0022917D10DE00D4AD26852087B
:1017800052000B4BDA6011E0094AD26A520852004B
:10179000074BDA620AE0064A4032D2685208520029
:1017A000034B4033DA6001E0012000BF00BF704707
:1017B000000C004010B5C046C04610BD01460A29C5
:1017C00001D90A2070470846FCE701600023436006
:1017D0008360C260704710B5C046C04610BD70B58A
:1017E00004460D46204600F06FF9002801D0002085
:1017F00070BD61682068405C28706268501CE168B8
:10180000FEF788FC61600120F2E7000070B5044635
:101810000E4615462046002805DBC206D20E0121E1
:101820009140144A116000BF3146204600F076FD19
:10183000012D0ED12046002809DB00BF00BFC206E3
:10184000D20E012191400C4A116000BF00BF00BFC1
:101850000FE0204600280ADBC206D20E012191408B
:10186000054A80321160BFF34F8FBFF36F8F00BF07
:1018700000BF70BD80E200E000E100E070B504460A
:101880000D46204600F029F9002801D0002070BD47
:10189000A16820684554A268501CE168FEF73AFC34
:1018A000A1600120F3E710B5C046C046C046C0465F
:1018B00010BD000010B501460020084A084BDA624E
:1018C000084ADA621A46126A04239A438B000424F7
:1018D00023401A43024B1A6210BD00005A5A0000FE
:1018E00000000240A5A5000002461068C840C007DD
:1018F000C00F704708B514480078002806D00128AA
:1019000011D002280ED003281BD119E0012168460E
:101910000170417069460D48FFF7E4F802200A495A
:1019200008700FE00EE00621684601700121417049
:1019300069460648FFF7D6F803200349087001E01E
:1019400000E000BF00BF08BD180000201801002003
:101950001CB501211C2000F081FA0421802000F038
:101960008BF80621802000F087F80221C02000F0CB
:1019700083F8002168464170C170012101716A46F7
:101980000421C02000F02EF81CBD000070B50446F4
:101990000D46044960180022294600F001F9002094
:1019A00070BD0000100E0240F8B504460E46154604
:1019B0000548A9004018071901223146384600F0B1
:1019C000EFF80020F8BD0000300D024070B504466D
:1019D0000D46034960182946FFF786FF70BD0000D9
:1019E000000E024070B504460E4615461B496018AD
:1019F0000022314600F0D4F8002019496118B200E5
:101A000088502A781549091F6018314600F0C8F837
:101A10006A7812490C396018314600F0C1F8AA788A
:101A20000E4910316018314600F0BAF8EA780B49D7
:101A300014316018314600F0B3F82A79074918319B
:101A40006018314600F0ACF86A790449203160181A
:101A5000314600F0A5F8002070BD00000C0D0240DA
:101A6000000C024010B50346024818188C000251C1
:101A7000002010BD000C024070B504460D4604491C
:101A800060180122294600F08BF8002070BD00008C
:101A90000C0D024070B504460D4616460349601809
:101AA0003246294600F07CF8002070BD080D024047
:101AB00008B50020009000BF00980028FCD008BDA9
:101AC00010B5C046C04610BD01468A6848689042BD
:101AD00001D1012070470020FCE710B50446A26840
:101AE000501CE168FEF716FB6068814201D10120BD
:101AF00010BD0020FCE710B5C046C04610BD000078
:101B000070B5054600F044F803480169642002F00E
:101B100083F80446204670BD2C01002010B5C04655
:101B2000C04610BD10B5C046C04610BD10B5C04679
:101B3000C04610BD10B5C046C04610BD10B5C04669
:101B4000C04610BD10B500F001F810BD10B503215E
:101B5000C020FFF73BFF012811D10321C020FFF770
:101B600015FF07480078022807D10648006A0007D9
:101B7000C00F002801D102F06DF8FFF7BBFE10BDC9
:101B8000180000204024004010B5C046C04610BDDB
:101B900001480249086170478D3A00002C0100207D
:101BA00010B5012A05D1036801248C40234303604A
:101BB00004E0036801248C40A343036010BD10B50A
:101BC000C046C04610BD70B50446002520780028E8
:101BD00004D0012803D002280CD107E00CE0032038
:101BE00000F094F9032000F06BF905E0032000F009
:101BF00055F901E0042500BF00BF2078012100F065
:101C00000BF8207800F06CF9607800F0FFF8A0780D
:101C100000F010F9284670BDF8B505460C460027BF
:101C200000F00EFB002C01D0012000E00020044653
:101C30002C48066A002D04D0012D15D0022D49D163
:101C400034E02848006840084000E107C90F084315
:101C50002449086000BF002C05D02248C068000558
:101C6000C00F0028F7D037E01E48006A012109079D
:101C7000884340181B4908621B48C0680621084376
:101C80001949C86017480068022188436100022290
:101C9000114008431349086000BF002C05D01148CB
:101CA00000694006C00F0028F7D015E00D48006815
:101CB00004218843A1000422114008430949086017
:101CC00000BF002C05D007484069C004C00F0028A1
:101CD000F7D001E0042700BF00BF02480662384683
:101CE000F8BD000000200040000D024030B589B072
:101CF00000241422394904A8FEF736FA3748143074
:101D00000068039000200090019002903448018800
:101D100068460181324841886846C18030488188E0
:101D2000684681802E48C188684641802C48203012
:101D30000188684601802B4800688006850F002DC9
:101D400004D0012D2CD0022D3AD12BE02548C068BB
:101D50004005400D69460989884201D1089C1EE072
:101D60002048C0684005400D6946C988884201D1B5
:101D7000079C14E01B48C0684005400D69468988EF
:101D8000884201D1069C0AE01648C0684005400D13
:101D900069464988884201D1059C00E0049C11E015
:101DA000114C0FE0684600880E4949698905890D84
:101DB000884202D16846C48901E06846848901E00E
:101DC000002400BF00BF07480068C005410F20463F
:101DD000C8400446204609B030BD0000483F00001E
:101DE000000C1000002000400048E80110B500245D
:101DF000FFF77CFF0446044800684005810F204639
:101E0000C8400446204610BD0020004010B50446DE
:101E100000F016FA06480068FF21C1318843A1018D
:101E2000FF22C1321140084301490860002010BD63
:101E30000020004010B5044600F002FA0648006891
:101E400003214902884361020322520211400843E0
:101E500001490860002010BD0020004070B5044614
:101E60000D462A4621460248FFF79AFE002070BD23
:101E70002020004001464A00064BD2181288500527
:101E8000400D054AD268D20AD2020243024BDA6000
:101E900000207047000C10000020004010B50146E3
:101EA0000020064A526903239B029A438B020324B3
:101EB000A40223401A43014B5A6110BD0020004088
:101EC00010B501460020054A126930239A430B01E0
:101ED000302423401A43014B1A6110BD00200040FA
:101EE00070B504460025264600F0AAF906480068A9
:101EF00030218843310130221140084302490860F3
:101F000000F012F8284670BD002000400146002075
:101F1000044A1269920892008B079B0F1A43014BE7
:101F20001A6170470020004010B5FFF7DFFE01493D
:101F3000086010BD0000002010B5FFF7F5FF10BDD0
:101F400010B5C046C04610BD10B5C046C04610BD55
:101F500010B500F011F810BD10B5C046C04610BD58
:101F600010B5C046C04610BD10B5C046C04610BD35
:101F700010B500F017F810BD10B50220FFF7C2FA37
:101F800001280CD1064840694008400004494861D6
:101F90000846C06840084000C860FEF7E3FE10BD78
:101FA000400C004010B507211148FFF71DF801282B
:101FB0001DD107210E48FEF7F3FF0E4800880E4999
:101FC000081A82B202210A48FFF742F80B484088FB
:101FD000401C0A4948800A480078032807D109486C
:101FE000006A0007C00F002801D1FEF7BBFE10BD3C
:101FF000003800400E0000202102000010000020E8
:10200000180000204024004010B5C046C04610BD56
:1020100010B500F013F810BDF8B507460D4616468A
:10202000002405E0295D044800F061F8601CC4B29A
:10203000B442F7DBF8BD00000001004010B50021FC
:10204000084800F032F801280BD10021054800F0C3
:102050000DF8044800F047F8044621460248FFF70F
:102060000DFC10BD000100406001002070B5044669
:102070000D460022294620461430FFF791FD00202E
:1020800070BD70B504460D4601222946201DFFF79C
:1020900087FD002070BD70B504460D46012229461B
:1020A000201DFFF77DFD002070BD70B504460D4674
:1020B0000026294620461030FFF716FC064630461B
:1020C00070BD70B504460D466068C021884329780C
:1020D0008901C02211400843606004212046FFF7B7
:1020E000D0FF002070BD01460868C0B2704770B5CF
:1020F00004460D462068000A0002E9B20843206049
:1021000000BF01212046FFF7D0FF0028F9D00121B0
:102110002046FFF7ABFF002070BD70B505460C46AA
:10212000002668680121490288436178490201223A
:1021300052021140084368602078002806D0012828
:1021400006D0022803D0032811D102E000BF0FE01F
:1021500000BF63785B1C62685A431046A268510155
:10216000FDF7D8FF01210904081A86B200E000BF7C
:1021700000BF304670BD10B5C046C04610BD10B59A
:10218000C046C04610BD10B5C046C04610BD0000D8
:1021900010B526480068401C2449086008460078AD
:1021A000C007C00F002805D101220421C020FFF77D
:1021B00071FC04E000220421C020FFF76BFC1B48E7
:1021C00000681B49884210D31A480078002803D0C1
:1021D00018480078072808D10020144908601648DC
:1021E0000078401C1449087014E010480068134936
:1021F00088420FD30F48007800280BD00D48007894
:10220000072807D00020094908600B480078401CC7
:102210000949087008480078052805DD06200649A8
:102220000870012001F0B4F810BD00000800002083
:1022300060EA0000F80100200C000020204E0000A1
:102240000248034988600348886070475A5A000072
:1022500000200040A5A5000010B586B000240C2188
:1022600003A800F033FF062101A800F02FFF012191
:102270000820FFF7F3FD01210846FFF7EFFD0021DD
:10228000684641734B204001059001216846017367
:10229000FFF7ACFD049003A90C48FFF73EFF04468E
:1022A0000121684641720021017201A90120FFF756
:1022B00049F921460120FFF777F821460120FFF771
:1022C000C7F80120FFF726FA06B010BD0001004054
:1022D0002021020C01D010211046020A01D0104624
:1022E0000839020901D01046091F820801D01046A2
:1022F000891E420801D0881E7047081A704730B402
:102300007446641E2578641CAB4204D3635D5B0095
:10231000E31830BC18471D46F8E7000010B5002848
:1023200019DB1A4A03231B02D21883089B00D258D8
:102330008307DC0EFF23A3409A438B071B0E840701
:10234000E40EA3401A43114B032424021B198408F2
:10235000A4001A5118E00E4A03071B0F083B9B0804
:102360009B00D2588307DC0EFF23A3409A438B07C0
:102370001B0E8407E40EA3401A43054B0407240FE9
:10238000083CA408A4001A5110BD000000E100E0C0
:102390001CED00E002E008C8121F08C1002AFAD1B3
:1023A00070477047002001E001C1121F002AFBD1D5
:1023B00070470000FEB500240025002600270020FD
:1023C000009050E030484078002803D1002C01D123
:1023D000FEF7C8FC2C484078A04240D02A484078FC
:1023E000002803DD28484478FEF7BCFC26484078E6
:1023F000002834D1002C32DD00242448C18F403025
:1024000000888B2292008018814207D81F484030F4
:1024100000881E49C98F8918884201D9681CC5B235
:102420001A48C18F40300088814205DD1748C18FAE
:1024300040300088081A00E0002080B20190019826
:10244000772801D9701CC6B21048C08F4F2806D219
:102450000E48403000884F2801D2781CC7B200983F
:10246000401CC0B2009000986428ABD3052D01D960
:102470000220FEBD052E01D90220FAE7052F01D961
:102480000220F6E70020F4E718000020F801002001
:10249000F8B54448C18F40300088814205DD41488D
:1024A000C18F40300088081A00E0002084B23E4806
:1024B0000088844209DB3D480078FF280ED23B4863
:1024C0000078401C3949087008E038480078002836
:1024D00004D036480078401E3449087033480078EC
:1024E0000C2808D90020314908703149088005209E
:1024F00000F028FFF8BD2B480078082803D02948B1
:102500000078072849D1002C43D02A4800882A495E
:10251000884201DB012000E000200546002D01D0AB
:102520005E2000E050200646002D01D00A2000E089
:102530000A200746002D07D11A488089C82803D2EF
:1025400000201B49088023E0012D09D1154880890E
:10255000FF212D31884203D200201549088017E061
:10256000642060430F49898D714388420DD2104821
:102570000088401C80B20E490880B84208DD002067
:102580000880062000F0A2FE02E000200849088032
:1025900006E000200649088002E000200449088087
:1025A00000BFA7E7F80100204E00002058000020DF
:1025B0005A0000200E0000201A02000010B51E482C
:1025C0008089FF21913188421AD81B48808F1B498E
:1025D0000988884210DD1A480088401C80B21849DA
:1025E00008807D21890188420DD900201449088086
:1025F000032000F0A7FE10BD00201149088002E072
:1026000000200F4908800C48808F0E4909888842B5
:102610000DDD0D480078401CC0B20B490870C82879
:1026200008D900200870032000F08CFE02E0002092
:102630000549087000BFDEE7F80100204C000020CB
:10264000540000204A000020560000200FB470B54E
:1026500010A9C889098A401A05B2002D00DA0025A0
:1026600021480078062806D100202049087070BC57
:1026700008BC04B018471E480078072807D11C483A
:10268000448D2046FF303F30281A06B217E0184824
:10269000007808280FD11649C98C164A51430846BC
:1026A0007D21C900FDF736FD84B22046FF303F3062
:1026B000281A06B203E000200C490870D7E7002E64
:1026C0000DDD0A480078401CC0B208490870022895
:1026D00008D300200870082000F034FE02E000203B
:1026E0000249087000BFC2E75C00002057000020CC
:1026F000F8010020D10300000348002101800348B5
:102700000180034801807047200000202400002041
:1027100028000020F0B587B000250024FE4840784E
:102720000300FFF7ECFD33F01BEFEEF0EDF0ECEB08
:10273000EAE9E8E7E6E5E4E3E2E1E0DFDEDDDCDB71
:10274000DAD9D8A9D7D6D5647B92D4F0F0F0F0F0DE
:10275000F0F0F0F0F0F0F0D3D2D1F000EF48407894
:10276000ED49C978884241D0EB48C07800280ED1A5
:102770000120EB4988700020E8494870E84948701A
:102780000520E64948810420E54908702EE0E2482A
:10279000C07801282AD1E2484078002800D0C6E25B
:1027A000DE480078092800D1C1E20120DC498870A8
:1027B000DA4948700220DA490870D7480079D749C9
:1027C000C988884203DDD5488179D3480171D3494E
:1027D000486BFDF790FFD1494885CF4800790A2121
:1027E0004843CE4948810846C08988819FE2CA494A
:1027F000C878FDF73EFF0646CA49FDF75DFDCA49A8
:10280000C860C868C749FDF71AFD0746FDF773FFA2
:10281000C6B23146202001F01FFB88E2BE49C878CD
:10282000FDF727FF0646BF49FDF746FDBE49086193
:102830000869BC49FDF703FD0746FDF75CFFC6B21A
:102840003146212001F008FB71E2B349C878FDF759
:1028500010FF0646B349FDF72FFDB34948614869AB
:10286000B049FDF7ECFC0746FDF745FFC6B231461F
:10287000222001F0F1FA5AE2A748C0780F2802DDC1
:102880000F20A549C870A448C0780300FFF737FDA2
:1028900010090A10163C42484E545A60666C727811
:1028A0007E8400BFA1489D4948630220C88379E027
:1028B0009E489A4948630420C88373E09B4897491F
:1028C00048630620C8836DE079E123E216E281E1E6
:1028D00091E07DE069E005E2F8E1EBE1DEE1D1E1E4
:1028E000C4E1B7E1AAE19DE190E183E173E15BE13D
:1028F0002FE1E8E0BAE0B5E056E0AEE0A8E0A6E0FF
:10290000A4E09FE08AE011E28948844948630220FC
:10291000C88347E08648814948630420C88341E072
:1029200083487E4948630620C8833BE081487B4951
:1029300048630220C88335E07E4878494863042014
:10294000C8832FE07B48754948630620C88329E087
:102950007448724948630220C88323E071486F4974
:1029600048630420C8831DE06E486C494863062014
:10297000C88317E07048694948630220C88311E0A2
:102980006D48664948630420C8830BE06A48634980
:1029900048630620C88305E0664860494863042010
:1029A000C88300BF00BFC2E1C1E15B48C078142802
:1029B00002DD14205849C8705748C078022802DA4E
:1029C00002205549C8705448C07854490882AEE185
:1029D0005148C0780F2802DD0F204F49C8704E487B
:1029E000C078012802DA01204B49C8704A48C078F3
:1029F0004A4948829BE14848C0780F2802DD0F20F1
:102A00004549C8704448C078012802DA012042498B
:102A1000C8704148C0784149888288E10120404916
:102A200088703D48C07845494978884203DD43486D
:102A300040783949C8703848C5780A206843374912
:102A4000488174E101203649887070E16FE16EE1E0
:102A50005A21082001F000FA69E150202F494882EC
:102A6000888264E1072000F051FC60E12A48C078C8
:102A700032494870084640780A2148432749C880AF
:102A80002E4949780A22514308466438FDF7F8FD7B
:102A90000391029029498978284AD278881AFDF74B
:102AA000EFFD06460022264BFDF7F8FC0191009051
:102AB000039B029AFDF75AFD05910490FDF776FEFF
:102AC0001649886133E11448C0781C49887008466B
:102AD00080781249C870194949780A22514308463A
:102AE0006438FDF7BBFD154905908978134AD27803
:102AF000881AFDF7B3FD07467F21C905FDF79FFB47
:102B000006460599FDF7D8FB044988610B49897889
:102B10008122D200514315E030000020F80100204E
:102B20005C0000200000C842440200200000204257
:102B3000000070420000A0420000F0424C01002062
:102B40000000F03F08466421FDF7E4FA864908805A
:102B5000EDE08648C0788649C8700846C078854947
:102B60000871834949780A22514308466438FDF7C1
:102B700087FD039102907E4989787D4AD278881A30
:102B8000FDF77EFD064600227B4BFDF787FC019199
:102B90000090039B029AFDF7E9FC05910490FDF774
:102BA00005FE74498861C2E07048C0780A21484334
:102BB000704908810846008970490880B7E06B4871
:102BC000C078002805D06948C0780A2148436C497C
:102BD0000880ACE0ABE06549C878FEF7EFFD04463D
:102BE0006348447140796749087261484179654892
:102BF00001759CE05D49C878FEF7E0FD04465C483D
:102C0000847181795F481830017290E05749C87823
:102C1000FEF7D4FD04465648C471C17959482430A2
:102C2000017284E05149C878FEF7C8FD0446504857
:102C30000472017A53483030017278E04B49C87809
:102C4000FEF7BCFD04464A484472417A4D483C3088
:102C500001726CE04549C878FEF7B0FD044644486F
:102C60008472817A47484830017260E03F49C878F1
:102C7000FEF7A4FD04463E48C472C17A4148543070
:102C8000017254E03949C878FEF798FD0446384887
:102C90000473017B3B486030017248E03349C878D7
:102CA000FEF78CFD044632484473417B35486C3056
:102CB00001723CE02D49C878FEF780FD04462C489F
:102CC0008473817B2F487830017230E02749C878BF
:102CD000FEF774FD04462648C473C17B294884303E
:102CE000017224E02149C878FEF768FD04462048B7
:102CF0000474017C23489030017218E01B49C878A5
:102D0000FEF75CFD04461A484474417C1D489C3023
:102D100001720CE01549C878FEF750FD04461448CE
:102D20008474817C1748A830017200E000BF00BFA6
:102D30000E4840780C2814DB0C484078202810D02E
:102D40000A48407821280CD008484078222808D02A
:102D500006484078082804D0044AD178507801F019
:102D60007BF807B0F0BD00004E00002030000020CE
:102D70004C010020F80100200000F03F4A00002034
:102D80004C0000206400002010B50B48807801281A
:102D900010D109484078002805D007484178042020
:102DA00001F05AF803E00221032001F055F8002059
:102DB0000149887010BD00005C000020F0B585B0AE
:102DC00001201E49087000201D49C8851D48486320
:102DD0000A2048850520C8833220C8810F20088238
:102DE000032048828882FF20913008815A20C870D1
:102DF000142008714B200001C880C9880846643837
:102E0000FDF73EFC019100900D49C9780C4A1279FA
:102E1000881AFDF735FC044600220B4BFDF73EFBFC
:102E20000646019B009AFDF7A1FB03910290FDF776
:102E3000BDFC0349886105B0F0BD00005C000020C6
:102E4000F8010020000020410000F03FF0B585B0FF
:102E5000944800780300FFF752FA07F505162A6731
:102E6000C8D4F50001F01AF8FFF7A4FA0446002CC4
:102E700005D002208B4948700620087002E000202F
:102E8000884908700AE101F009F8FFF793FA04464F
:102E9000002C05D00220834948700620087005E008
:102EA00000208049087001207F490870F6E07F49C2
:102EB0000868FDF720FCC1B27D4801717D480069BA
:102EC000C007C00F002805D07B48C068C007C00FEE
:102ED000002825D10D207649203988851920774989
:102EE00008800720724920390870754800F0FEF804
:102EF000FFF702FC6E482038C0896D49203988816F
:102F0000486BFDF7F8FB6A49203948850020888323
:102F100000F088FEFF20F53000F034F900F0A6FE46
:102F2000002060490870B9E061482038C18F403006
:102F30000088814206DD5E482038C18F403000881D
:102F4000081A00E0002086B259482038868580891A
:102F500057492039898A884207DD554820388089B9
:102F600053492039898A401A00E0002087B238B2DC
:102F7000FDF774FB53490090FDF759F901904C4857
:102F8000203881690198FDF75AF903903046FDF722
:102F900070FB4D490190FDF78FF902900399FDF701
:102FA00046F90546012189072846FDF71BFC01D299
:102FB0000125AD073E492039C878FDF75AFB29465F
:102FC0000390FDF70FFC05D239492039C878FDF789
:102FD00050FB05463648203805630920344920391E
:102FE000087000202F49087058E000F02DFE00F016
:102FF00053FE0121062000F02FFF00202949087010
:103000004CE0284840780300FFF779F909351E079E
:103010000835091D0C06350000BF00BF00BF00F0D9
:10302000A3F92CE022482038808A192803D21920DD
:103030001F492039888200201D49203948810920F4
:1030400008701CE029E000BF1C480588872080002C
:10305000854200DD0546012D00DA01252946184884
:1030600000F0BCFD032012492039888205204881E8
:103070000920087003E0002000F08AF900BF00BFBB
:1030800008484078002804D006484178042000F021
:10309000E3FE00200349087000E000BF00BF05B058
:1030A000F0BD00005C00002004000020640000204F
:1030B0001802002040380040000C00400E000020A4
:1030C000440200200000C8427B14024110B50A46A9
:1030D0000146002900D110BD02E000230B70491CFD
:1030E0001346521E002BF8D100BFF4E70949C16016
:1030F00009490161094941610021018141818161E1
:1031000087218900018401214184054941620549E3
:10311000816270479A99193E0AD7A33DCDCC4C3DA8
:103120000000A0410000A0C170B505461148124939
:10313000486100208861052008610FE000200E49E9
:1031400088610E490E480068FCF7E4FF012109067A
:103150000C1A00BF08488069A042FBD828466D1EA3
:103160000028EBD10448006940084000024908618A
:1031700070BD0000FFFFFF0000E000E0A08601003E
:103180000000002070B50546114812494861002032
:1031900088610520086110E000200E4988617D21CA
:1031A000C9000D480068FCF7B5FF012109060C1A9B
:1031B00000BF08488069A042FBD828466D1E002841
:1031C000EAD104480069400840000249086170BD26
:1031D000FFFFFF0000E000E00000002010B5FFF757
:1031E00057F910BD00B58FB01B484078022831DB7D
:1031F00000201949487002211848FDF7F1FB1849D1
:10320000888702211748FDF7EBFB154940310880FC
:1032100002211548FDF7E4FB1149C8873C22103113
:103220006846FCF7A1FF0E480FC800F0DDFA0F4812
:103230000078002801D1012000E000200B4908702F
:1032400008460078002802D10349087002E00120F6
:10325000014908700FB000BD1800002020000020B8
:10326000F801002024000020280000202C0000206D
:10327000FEF710F8FEF76CFB00F03EFE00F02AFEB1
:1032800000F00CFE00F018FE6420FEF739FC18E098
:10329000FEF77EFF0B4840887D210901884208DB4C
:1032A0000020094908800749488000F0A3F8FFF78B
:1032B00095FF00F015FDFFF7C9FD00F025FEFFF7B3
:1032C00063FDE5E7100000205000002010B5044623
:1032D000002C01D00A48447001200949887003205D
:1032E00008498882002000F053F8052005494881EC
:1032F000002048700449087006200149087010BD7C
:103300005C000020F801002004000020002801D00B
:103310000A4948700121094A91700949898A192985
:1033200002D21921064A91820021054A51810921C0
:1033300011700621014A1170704700005C000020E6
:10334000F801002010B50446002C01D00548447057
:1033500001200449887000F007F806200149087030
:1033600010BD00005C00002010B500F06DFC00F006
:1033700093FC002003490870034908704870034912
:10338000087010BD5C000020F8010020040000203F
:1033900070B50446002C04D0124844700120114935
:1033A000887011480078082807D00F48007807284F
:1033B00003D00D480078092813D10C4805888720D0
:1033C0008000854200DD0546012D00DA01252946F1
:1033D000074800F003FC05200349488109200870D4
:1033E00000BF70BD5C000020F80100200E0000202E
:1033F00044020020F0B587B000200590ED48007829
:10340000072804D008287DD009287CD11CE1E94890
:103410008089E8494989884206DAE6488089E54991
:10342000498A4018E3498881E2488089E14949890D
:10343000884206DDDF488089DE49498A401ADD4935
:103440008881DC498889FDF72FF90022DA4B019148
:103450000090FDF714F803910290FDF7A7F904908E
:10346000D44881690498FCF7EAFE0646D148016B0E
:103470003046FCF78BFE0546FDF73DF984B2204649
:10348000FDF712F90546CD4ACD4BFDF707F803913C
:103490000290FDF745F9C74988850846C18F40303D
:1034A0000088081A07B2002F00DA00273846FDF717
:1034B000E7F80546C34AC44BFCF7F0FF03910290BE
:1034C000FDF72EF9C0B20590BA48408DB949C98BB5
:1034D0004018B8494885C978BC4A51430846642118
:1034E000FCF718FE85B2B348408DA84201DDB14813
:1034F0004585B048408DAF49898D884206DDAD488D
:10350000808D01E01CE045E1AA494885A948808BEF
:10351000401CA84988830846808B0F280FDD05983A
:1035200084420CDA00208883486BFDF7E4F8A14957
:10353000488500208863082008700020088429E15D
:103540009C4880899B494989884206DA9948808944
:103550009849498A401897498881964880899549B1
:103560004989884206DD934880899249498A401AF0
:10357000904988818F498889FDF796F800228E4B03
:1035800001910090FCF77BFF0546FDF70FF90290D3
:10359000884881690298FCF752FE03908548016BC8
:1035A0000398FCF7F3FD0490FDF7A5F884B22046DC
:1035B000FDF77AF80546814A814BFCF76FFF0391CE
:1035C0000290FDF7ADF87B49888589780C2251433C
:1035D0007F4A8918087AFDF74CF805467548816BD3
:1035E0002846FDF7FFF80FD27249886BFDF7B6F851
:1035F0000546784A784BFCF742FF03910290FDF7AD
:10360000D5F86C4988631EE06A4989780C225143D9
:103610006F4A8918087AFDF72CF805466548816BD2
:103620002846FDF7E9F80ED26249886BFDF796F857
:103630000546684A684BFCF77DFE03910290FDF752
:10364000B5F85C498863A5E05A4880895949498999
:10365000884216DA57494989564A9289891A88B2A6
:103660005449898A814204DB52494989514A9181EE
:1036700006E0504989894F4A928A89184D4A9181BA
:103680001CE04C4880894B494989884216DD4949EC
:103690008989484A5289891A88B24649898A814269
:1036A00004DB44494989434A918106E041498989BB
:1036B000404A928A891A3F4A918100BF3D488089D9
:1036C000052804DA3B48C08D401C3A49C885394971
:1036D000086B01218907FDF78FF80FD23549086B78
:1036E000FDF73CF805463B4A3C4BFCF7C8FE03910E
:1036F0000290FDF75BF82F49086303E00120800783
:103700002C4908632B498889FCF7CEFF0546002227
:10371000294BFCF7B4FE01910090FDF747F80290A9
:10372000244881690298FCF78AFD03902148016BC7
:103730000398FCF72BFD0490FCF7DDFF84B22046D4
:10374000FCF7B2FF05461D4A1D4BFCF7A7FE03918F
:103750000290FCF7E5FF17498885886BFCF7FEFFB0
:1037600005461C4A1E4BFDF70DF80FD21149886B18
:10377000FCF7F4FF0546174A194BFCF780FE03914E
:103780000290FDF713F80B49886302E015480949D8
:10379000886300BF00BF074988896421FCF7D0FC1B
:1037A00004498870084680780E2801D90E20887058
:1037B00007B0F0BDF801002000005940C3F5285CB7
:1037C0008F42204054E3A59BC420C03F2D0300003E
:1037D000640000209A9999999999C93F9999D93F7C
:1037E0009999B93FCDCCCC3D0FB4F0B58FB020A89E
:1037F000C189008A081A05B29A480078072804D0BF
:10380000082827D0092878D1C8E0002D00DA002543
:1038100094490879FCF72DFF9249086310A8837C2E
:10382000AAB20846418D904800F038F904468F4806
:103830000088401C844208D98C480088401C84B20F
:103840002046FCF716FF884988618948048087482C
:103850000480F8E020A8818910A8807C0C225043C5
:10386000844A8018C07A081A002821DD20A98A8994
:1038700010A9897C0C2359437E4BC918C97A501A68
:10388000FCF7ECFE07467748816B3846FCF7D7FC1F
:1038900006467949FCF710FD0446FCF72CFF7149F8
:1038A000C8840846808DC98C40186E49C88403E0DE
:1038B0006C48808D6B49C88410A8837CAAB2694883
:1038C000C18C694800F0EAF804466649C9786B4A39
:1038D000514308466421FCF71DFC80B20E900E98FF
:1038E00000280BD05F49C98C8722920051430846BB
:1038F0000E99FCF70FFC80B202E0A3E08720800065
:1039000006463046513087218900884201D9084651
:1039100001E03046513087B2522E02D9304651383C
:1039200000E0012080B20D90BC4206DD3C462046FE
:10393000FCF79FFE4C49886108E00D98844205DA47
:103940000D9C2046FCF795FE474988614748008852
:10395000401C844209D945480088401C84B2204656
:10396000FCF787FE4049886111E040480088A0428A
:103970000DDD3E480088001B032808D93B4800881D
:10398000C01E84B22046FCF774FE3749886138486F
:10399000048036480480FEF711FE54E0002D00DA62
:1039A00000252846FCF75AFE06463549FCF747FC39
:1039B0000446FCF7A0FE3349087010A8837CAAB225
:1039C0002848818D284800F069F804462748008877
:1039D000401C844209D925480088401C84B22046F6
:1039E000FCF747FE2049886111E020480088A0428A
:1039F0000DDD1E480088001B032808D91B480088DD
:103A0000C01E84B22046FCF734FE1749886118486E
:103A10000480164804801348008A1A4909788842AD
:103A200003DA1048C08D082809D900200D49C8853F
:103A3000087005201449087019200D490880FEF708
:103A4000BDFD00E000BF00BF3C2218A96846FCF79E
:103A50008BFB14A80FC8FEF7F9FD0FB0F0BC08BC33
:103A600004B01847F8010020440200205200002052
:103A70000E00002064000020000020412D03000003
:103A80002506013E480000205C00002010B50446D9
:103A900000F004FAFFF792F9600010BDFFB58BB09B
:103AA00004460E4617463846FCF7E3FD07903046BD
:103AB000FCF7DFFD06900799FCF7B9FB0A900A2096
:103AC000205EFCF7CBFD04900820205EFCF7C6FDCD
:103AD000012189070190FCF7B2FB02900A99FCF7DB
:103AE000AAFB03900499FCF751FB05906169FCF770
:103AF000A6FB079020690A99FCF7A1FB0590082016
:103B0000205EFCF7ABFD02900A99FCF794FB039052
:103B1000E168FCF794FB04900599FCF737FB0690ED
:103B20000799FCF733FB0546208960810A98FCF76A
:103B3000C9FD00B2208124480990244808900E98BD
:103B4000012803D82248099022480890284609995C
:103B5000FCF752FE00D8099D28460899FCF742FE62
:103B600000D8089DE5611C49A069FCF745FE04D812
:103B700000212846FCF740FE0FD37F21C905A0692C
:103B8000FCF730FE04D800212846FCF72BFE04D3B6
:103B90002946A069FCF7FAFAA0610F49A069FCF771
:103BA0002BFE01D80C48A0617F21C905A069FCF754
:103BB00019FE02D87F20C005A061A069FCF79BFD1B
:103BC00080B20FB0F0BD00000000A0410000A0C115
:103BD00000002041000020C10000074470B50446E9
:103BE0000D462846FCF745FD06460A493046FCF7D7
:103BF00003FE00D8074E7F21C9053046FCF7F2FDD1
:103C000001D87F26F605002020816081E061A66151
:103C100070BD00000000074470B505460C462846FC
:103C2000A04770BD10B5FDF70FFB002805D0054873
:103C3000007804210843034908700020FDF76AFD5D
:103C400010BD00001400002010B50020FDF78CFD11
:103C500010BD000010B504490220FDF7F9FB022059
:103C6000FDF758FD10BD0000AAFF000010B50122AD
:103C700011214901481CFDF755FA01221121490182
:103C8000481CFDF74FFA0348FDF783F90148FDF79B
:103C9000F8F910BD0038004010B50348FDF779F978
:103CA0000148FDF7F6F910BD0038004010B5872235
:103CB00007490848FDF789FD7F20074908707E20E5
:103CC000C8717F20054908707E20C87110BD0000B2
:103CD000700100206001002030000020380000202A
:103CE000FEB502A95648FDF77AFD0190019800281B
:103CF0007DD0544800786946097A884206D101206F
:103D000051490870002051490870FEBD4E480078A6
:103D1000012806D002280CD0032821D0042867D11E
:103D200034E06846007A47494870022046490870E6
:103D300083E06846007A4349887008468078022804
:103D400003DD002040490870DFE70020404908708B
:103D50003C48C01C3F49086003203B4908706CE0A8
:103D60006846007A3B490968394A127888543848CD
:103D70000078401C3649087032488078801C0978E9
:103D8000884202DC04203049087056E02D48C07992
:103D90006946097A88424BD12A48401C2D4908605F
:103DA000002002902A4908700DE02A48006828493E
:103DB0000978405C6946097A4840029024480078B6
:103DC000401C234908701F488078801C20490978CE
:103DD0008842EADC6846007A00901E48006807784E
:103DE0001C4800684078C019C7B2002409E025E0EB
:103DF00022E0A01C17490968085CC019C7B2601C02
:103E0000C4B210488078A042F3DC07213846FCF7A2
:103E100081F90D460B488078801C0E4909680E5CBC
:103E20000098B04201D0B54201D1FEF773FC00BF4B
:103E300000200549087000E000BF00BF00BF64E734
:103E40006001002030000020400000200C00002015
:103E5000410000204400002070B505460E460024B5
:103E60000D48457020466840044601200A49887084
:103E700044400846C6702046704004460846047117
:103E8000002048717E20887108468078801DC2B26B
:103E90000020FEF7C1F870BD3800002010B5FDF716
:103EA000FFF8012003490870FDF724FD00200149B7
:103EB000487010BD1800002010B5FDF753FA02221B
:103EC0000321C020FDF770FD012200210320FDF732
:103ED0009DFC10BD10B5FDF791F9002805D00548EF
:103EE00000780221084303490870FDF7E6F9FDF761
:103EF0006FF910BD1400002010B5FFF7D7FEFDF7D5
:103F0000F2F9FDF715FA10BD10B50C48007801283C
:103F100013D10B480088401C094908800120FFF795
:103F200003F907480088142807DD002004490880A9
:103F30000249087003200349087010BD04000020E6
:103F4000060000205C00002000093D0000127A00FD
:103F50000024F4004086510100366E010080009676
:103F6000803F0000000000201801000094230000A2
:103F7000984000001801002058050000A42300000C
:103F800000093D00000000000000000000001900D2
:103F90000000000000000000000000000000000021
:103FA0000000000000000000000000000000000011
:103FB0000000000000000000000000000000000001
:103FC000000000000000000000002402AA00A0037E
:103FD00000000000000000000000000000000000E1
:103FE0000000000000009041E803E803021E0412F4
:103FF00000009041E803E803021E041200000042A2
:10400000E803E803031E041700003842E803E8034E
:10401000031E041E00007042E803E8030319051E96
:1040200000009442E803E8030319061E0000B042B2
:10403000E803E8030219071E0000CC42E803E80386
:10404000021407280000E842E803E80302140728E6
:1040500000000243E803E8030214082800001043AC
:10406000E803E8030214082100001E43E803E80304
:104070000214082300002C43E803E8030214082379
:1040800000003A43E803E803021408230000484311
:08409000E803E8030214082311
:04000005000000C136
:00000001FF
