:020000040000FA
:1000000078060020D9000000F3000000391B000032
:1000100000000000000000000000000000000000E0
:10002000000000000000000000000000F7000000D9
:100030000000000000000000F9000000471C000064
:10004000B51B0000BD1B0000C51B0000CD1B000040
:10005000FD000000FD00000091200000992000003C
:10006000FD000000FD000000111C0000FD0000006C
:10007000491B0000FD000000C91F0000D11F000047
:10008000D91F0000FD000000E91F0000F11F000063
:10009000F91F0000A51B00000F220000FD0000005A
:1000A000210A0000FD000000FF21000007220000DF
:1000B0007F1B0000FD0000002F190000FD1700004D
:1000C0000448854600F09AFC00480047853200004D
:1000D000C046C0467806002009480A4A002100A10F
:1000E000814200D902440848026008488047084815
:1000F0000047FEE7FEE7FEE7FEE7FEE7FEE700005B
:10010000000000200000000008ED00E0C11F00001A
:10011000C100000030B50B4601460020202201241A
:1001200009E00D46D5409D4205D31D469540491B2B
:100130002546954040191546521E002DF1DC30BD74
:1001400070B500242546002801DA01244042002928
:1001500001DA01254942FFF7DDFFAC4200D0404201
:10016000002C00D0494270BD03460B439B0703D0CF
:1001700009E008C9121F08C0042AFAD203E00B786C
:100180000370401C491C521EF9D27047F8B5024654
:100190004A40D40F42004B0052085B089A4202D2F8
:1001A0000246084611464A0023D0C30D4A00DDB27C
:1001B000120EAD1A202D35DA49020126490AF6053C
:1001C0008A19002C00D0524220214F1B1146B94001
:1001D0002A411018C20D9A4221D0002C17D0012DAF
:1001E00008DCDA05801AD20F8019D207DBB200F0E2
:1001F0006DFBF8BDDA05801A012340001B06C0180C
:1002000080185A428018CA0F1043490007E0490875
:10021000C2071143DA05801A80194008801800F0DF
:100220004DFBF8BD61000122511A001BF7E70122C6
:10023000D2075140AAE70122D2075040A6E7024662
:1002400070B54A40D30FDB0740002DD04A002AD0BA
:10025000010E140E000212020919400A520A8418F3
:10026000E50104465443000A120A2E045043A4191F
:100270004219200CC543AA18120C0125AD03521CCB
:10028000521912047F39240400D0521C104301D4A7
:100290004000491EC2B20C06C0092018401C40088C
:1002A000802A02D003E0002070BD400840000029F1
:1002B00000DA0020184370BD70B502464A40D50FE1
:1002C00040004A00ED0740085208002814D0002AD8
:1002D00012D0C40DD30D41020120C0055202490ABB
:1002E000520AE41A091812187D34914201D3641C91
:1002F00000E04900002C01DA002070BD002391428B
:1003000001D3891A0343400849000028F7D1002986
:100310000AD0914202D10121C90705E0914201D2E0
:10032000012101E00121C943E005C018401900F096
:10033000C5FA70BDF0B507460846584087B0C00FF3
:10034000049048000E46590040084908BC1A8841EC
:1003500005D2384631461E4617460B46024658001F
:10036000400810434DD0300D039040055900400D1A
:10037000490D0590401A0290402873DA18030121B4
:10038000000B09050843019004980092002806D04C
:100390001146019A49420020904100910190029833
:1003A00040210A1A0199009800F054FA05460C46BB
:1003B0006B4607CB00F06FFAC0197141039A0E0D1E
:1003C0000023D71756401A467A40164344D0049A61
:1003D000002A2DD0029A012A039A15DC1205C01AB0
:1003E000914101263605001C7141D20F059ED207AE
:1003F0000093019202962A46234600F0ADFA07B018
:10040000F0BD38463146FAE71605234A0F46B218C2
:10041000C01AB74101210905001C4F4100187F4156
:10042000114618187941E20F10436D19644113E029
:10043000E2076D0815436408C2071443039A0126B6
:100440001205C01A91413605001C7141CE074008C3
:1004500030434908C01851412A46234600F06FFA3C
:10046000CDE7FFE7049801224000C117121A0023CC
:100470008B4104983146C417381AA141EEE730B4D5
:100480000124E407634030BC54E730B40124E4079E
:10049000614030BC4EE700000000E0FFF0B51FB443
:1004A00088B00B990998002448400999C00F490069
:1004B00049080991C0070B990090490049080B9120
:1004C00009990898A64608431CD00B990A98084336
:1004D00018D0099801244000420D4800410D0998A8
:1004E00024050003000B204309900B980003000B28
:1004F00020430B9050181C494018002201901446CC
:10050000104605E0002001460DB0F0BD032801DAD9
:10051000034600E003239C46C11A0AAE0AE05F00CE
:1005200008ADED5B4F00F75B7D430027AA187C41C7
:10053000491C5B1E6145F2DD410004AB5A522104A7
:10054000120C0A43240C401C0828DFDB019802909F
:100550000099704601910090059B049A07990698AE
:1005600000F0FAF9D0E700000DFCFFFFF0B50C46F3
:100570005C4085B0E40FE40703944C000026640857
:1005800059009446490802460296224321D0624609
:100590000A431ED06200570D4A000E032303550D77
:1005A000012402462C492405781B1B0B360B4018EE
:1005B00023432643614600901C46501AB44103D39E
:1005C0000098401C009002E0921800985B410028BF
:1005D00003DA0020014605B0F0BD00200121090525
:1005E0000746864611E064461D46141BB54106D3F6
:1005F0006546521BB341744607430C43A646CD07DC
:1006000040084908284392185B4105460D43EAD14A
:100610001046184313D060461946504071400843B5
:1006200006D06046101AB34106D20122002306E02C
:1006300000220123DB0702E00122D243531000987D
:1006400074460105381C6141029C039D00196941F3
:1006500000F075F9BFE70000FD030000C217C10FED
:10066000504010B54018CA079623002100F02EF91B
:1006700010BD10B500229623114600F027F910BDD9
:100680000EB5C217C10F5040CA0740180021054BD4
:100690000293019200910A460B4600F05DF903B007
:1006A00000BD0000330400000EB505490291002191
:1006B00000910A460B46019100F04EF903B000BDCF
:1006C00033040000C20F410040020123400ADB0551
:1006D000D207090EC0187F2901DA00207047962939
:1006E00003DC9623591AC84001E096398840002A55
:1006F000F4D040427047410040020122400AD20536
:10070000090E80187F2901DA00207047962903DC42
:100710009622511AC84070479639884070470000A9
:1007200070B5CD0F4A0009030123090B1B051943BE
:100730000B4BED070024520D9A4201DA002070BDE8
:10074000074B34339A4203DC9A1A00F093F802E024
:100750000449511888402C43F1D0404270BD00003C
:10076000FF030000CDFBFFFF4A0009030123090B33
:100770001B051943094B10B5520D9A4201DA0020AE
:1007800010BD064B34339A4203DC9A1A00F072F81B
:1007900010BD03495118884010BD0000FF03000040
:1007A000CDFBFFFFC20FD207400040080BD0C10DA8
:1007B0000723DB01C91840020905400A1143C2089A
:1007C00040071143704700200146704710B50029CB
:1007D00004DB0124E40740428C412146002B04DB6A
:1007E0001C460123DB075242A341994200D19042AB
:1007F00010BD0000CB0FDB07490010B549080246C9
:100800000A4307D00A0D07240903E401090B121B50
:10081000002A01DC002010BDC900440F0C43C100B8
:10082000E018D205801800F049F810BD0122D20767
:10083000002800DB101A002900DB511A81427047A2
:100840000122D207002800DB101A002900DB511A10
:100850008842704710B5202A04DB0146203A9140B7
:10086000002010BD914020239C1A0346E340194309
:10087000904010BD10B5202A04DB0846203AD04035
:10088000002110BD0B46D340D0402024A21A914035
:100890000843194610BD10B5202A06DBCB170846C1
:1008A000203A1041C1170B4306E00B461341D040DC
:1008B0002024A21A91400843194610BD002904DAE9
:1008C000401C490001D140084000704770B400242A
:1008D000050C05D11024000402D1002921D01124D7
:1008E000050E01D100020834050F01D10001241DBD
:1008F000850F01D18000A41C002801DB4000641C8E
:10090000002908D020252E1B0D46F540A14000D01F
:1009100001212943084301061B1B000ADB1D02D5E8
:10092000002070BC7047DB05181880180029F8DA21
:10093000401C4900F5D170BC40084000704710B51C
:10094000002B08DA0024401C614192185B411A43D5
:1009500001D14008400010BDF0B51FB482B005467B
:100960000C0003D0084601F0F7FC02E001F0F4FCB3
:1009700020300246009021462846FFF76BFF049B7B
:10098000059A04460F4618431143084314D01846ED
:1009900010431BD0009840210A1A18460599FFF70A
:1009A00069FF05460E46009A05990498FFF752FF25
:1009B000084305D0012004E02046394607B0F0BDC9
:1009C0000020C11705430E432C43374300990E986E
:1009D0006305401A7905E40A00220C43FD0A0A3037
:1009E00002D500200146E9E70105101969410C9C78
:1009F0000D9D00196941FFF7A2FFDFE7064C0125B5
:100A0000064E05E0E36807CC2B430C3C98471034B6
:100A1000B442F7D3FFF758FB243F0000443F0000E7
:100A200010B500F009F910BDFEB503460C460020D4
:100A3000029001900022002106E04800185A4E0062
:100A40006F46B853481CC1B2A142F6DB6846008825
:100A5000029068460088019000201AE046006F4628
:100A6000BF5B029EB74203DD46006F46BE5B029647
:100A700046006F46BF5B019EB74203DA46006F46F1
:100A8000BE5B019646006F46BE5BB618B2B2461C0E
:100A9000F0B20228E2DB1046D60F3618F603350C0A
:100AA0002846FEBD0820C043014948627047000047
:100AB000402400404178012908D11B49896801225E
:100AC000920391438918184A916006E01649896893
:100AD000012292039143144A91608178012908D13F
:100AE0001149896801225203914389180E4A916085
:100AF00006E00D4989680122520391430A4A916038
:100B0000C178012908D1084989680122120391435B
:100B10008918054A916006E0034989680122120399
:100B20009143014A916070470024004010B502468D
:100B3000002901D0002A01D1042010BD022010702C
:100B40000C48806801239B029843C018094B9860A9
:100B50000878D8601846C068FF231B0298434B787A
:100B60001B02FF24240223401843024BD8600020BC
:100B7000E3E70000002400400348406840084000CC
:100B8000401C014948607047002400400448406808
:100B900001218903884340180149486070470000DB
:100BA0000024004000B50246002901D1042000BD08
:100BB000130001F0E8FB08050B11171D242B323937
:100BC0001C48006B0005000D08802FE01948406BA1
:100BD0000005000D088029E01648806B0005000D17
:100BE000088023E01348C06B0005000D08801DE05D
:100BF0001048403000680005000D088016E00D48E0
:100C0000403040680005000D08800FE00948403082
:100C100080680005000D088008E006484030C06884
:100C20000005000D088001E00420C0E700BF00209F
:100C3000BDE700000024004010B51948006A000715
:100C4000C00F00282AD017480078022802D00328B5
:100C50001AD108E0134840784000134A8118002058
:100C6000FFF7A0FF10E00F48407840000F4A8118BE
:100C70000120FFF797FF0B48407840000C4A81188D
:100C80000220FFF78FFF00BF00BF06484078401CDE
:100C90000449487002F0B0FAFFF704FF10BD0000ED
:100CA00040240040180000202000002024000020E4
:100CB000280000200146002901D1042070473A484D
:100CC00040680C2290434A7892000C231A4010434B
:100CD000354A5060104640685A0290438A78D202E2
:100CE0005B021A401043304A506010464068DA10E8
:100CF0009043CA781202DB101A4010432A4A50600F
:100D000010464068121590430A79920201239B0213
:100D10001A401043244A5060234840308069000B39
:100D200000030A891205120D10431F4A40329061D8
:100D30001046C069000B00038A891205120D10438A
:100D4000194A4032D06118488068400940010A7C45
:100D5000D206D20E1043144A9060104680681F22BB
:100D6000520190434A7C52011F235B011A401043F9
:100D70000D4A906010464068121490430A4A506031
:100D80001046806812149043074A906010468068AD
:100D900052149043044A9060104680689214904325
:100DA000014A9060002089E7002400400B48406A17
:100DB0000821884309494862084840384068C913F7
:100DC0008843401805494039486008464068022178
:100DD0008843801C014940394860704740240040E6
:100DE00030B50346002A01D1042030BD002902D0CD
:100DF00001297DD165E0986D400840001478E40732
:100E0000E40F20439865986D0224A0435479640050
:100E100002252C4020439865986D0424A0439479C2
:100E2000A40004252C4020439865986D0824A04315
:100E30001479E40008252C4020439865986D3024EF
:100E4000A043D478240130252C4020439865986D28
:100E5000C024A0439478A401C0252C402043986569
:100E6000986DFF240134A04354782402FF250135F6
:100E70002C4020439865986D03246402A043147AA3
:100E8000640203256D022C4020439865986DAC00E8
:100E9000A043D479E402AD002C4020439865986EBD
:100EA00040084000547AE407E40F20439866986EA7
:100EB0000624A043947A640006252C4020439866BB
:100EC0006FE0986D01242404A043147824040125C4
:100ED0002D042C4020439865986D6C00A0435479F4
:100EE00064046D002C4020439865986D6C0000E010
:100EF00055E0A0439479A4046D002C4020439865EC
:100F0000986D6C00A0431479E4046D002C402043DC
:100F10009865986D03242405A043D47824050325FF
:100F20002D052C4020439865986DAC00A043947823
:100F3000A405AD002C4020439865986D012424063B
:100F4000A0435478240601252D062C4020439865A3
:100F5000986D03246406A043147A640603256D0685
:100F60002C4020439865986DAC00A043D479E406EA
:100F7000AD002C4020439865986E1024A043547A0D
:100F8000240110252C4020439866986E6024A043CD
:100F9000947A640160252C402043986601E0042087
:100FA00023E700BF002020E730B5034614465A6D02
:100FB000002C03D001208840024304E00120884037
:100FC000154685432A465A65002030BD0146002259
:100FD000FF20053042500020704701460868000C91
:100FE0000004086000207047024601208840C34387
:100FF000FF20053083500020704730B5034600299C
:1010000007D1D86D40084000D407E40F2043D865CD
:101010000CE0012908D1D86D0424A04394000425D4
:101020002C402043D86501E0042030BD0020FCE7BF
:1010300010B50246FF240134A3581C46CC40E007FB
:10104000C00F10BD10B50246002901D1042010BD0B
:101050000878052801DD0420F9E7106D0E23984378
:101060000B785B000E24234018431065106DFF239E
:10107000013398434B781B02FF240134234018436B
:101080001065106D702398438B781B0170242340EA
:10109000184310650020DAE70346002901D11A61E0
:1010A0000DE0012901D15A6109E0022901D19A61BB
:1010B00005E0032901D1DA6101E004207047002036
:1010C000FCE702465160002070470146086D400869
:1010D0004000401C0865002070470146086D40082C
:1010E00040000865002070471CB514211E4801F01F
:1010F00077FF022101A801F073FF0421684601F087
:101100006FFF0121102000F0EDFEFFF735FD00F02C
:1011100061F902201449087000204870022088708C
:101120000320C87000200871087448740846FFF74F
:10113000C1FD012168460170002141708170C170BC
:10114000FFF7B8FC0621684601710121417101A930
:101150000548FFF7EBFCFFF719FD012202211820DB
:1011600000F098FB1CBD00001C010020F0B585B00C
:1011700004460D461746032103A801F031FF0B2159
:10118000684601F02DFF01210A2000F0ABFE04218A
:1011900068460173012141730021817303A91D4831
:1011A000FFF750FF21461B48FFF78BFF00262A461A
:1011B00031461848FFF770FF02262A463146154887
:1011C000FFF76AFF012200211248FFF716FF0021F6
:1011D0006846017001214170022181700321C170B4
:1011E000002101710121417181716A460021094884
:1011F000FFF7F6FD0748FFF7E9FE01220721054842
:10120000FFF7D2FE01221146142000F043FB05B087
:10121000F0BD0000003800401CB50621684601F012
:10122000DFFE01211C2000F05DFE002069464870B1
:101230006A46022100F01AFC05220221002000F07B
:1012400055FC1CBD1CB501240121082000F04AFEFC
:101250000021684601704170032181700021C17036
:101260000171012141716946022000F08FF90028C7
:1012700000D000BF022000F0E9F8022000F03AF9A7
:1012800001220021102000F005FB20461CBD0000BB
:101290007CB50024104D2E460121082000F022FECE
:1012A000002168460170417081700121C1700021E8
:1012B0000171012141716946002000F067F90028A1
:1012C00000D001242946002000F092F83146002089
:1012D00000F0E2F820467CBDA0F6000008B5012130
:1012E0001F2000F0FFFD002000F028FB002000F090
:1012F00005FE0021684601704170817000F0A7FC76
:1013000008BD1CB50621684601F06AFE01211C20BB
:1013100000F0E8FD0020694648706A46012100F0AF
:10132000A5FB04220121002000F0E0FB1CBD1CB540
:101330000621684601F054FE01211C2000F0D2FD78
:101340000021684641706A460521C02000F08EFBEE
:1013500001220521C02000F0C9FB0121684641702F
:101360006A460621C02000F081FB01220621C02030
:1013700000F0BCFB1CBD000008B500F0B1FF01206F
:1013800000906946084800F0E0FE0021064800F0A1
:10139000C6FE0021044800F0ADFE01220321072013
:1013A00000F078FA08BD0000000100401CB50121E2
:1013B0001C2000F097FD01216846417081700021DA
:1013C000C170017141716A460321C02000F04EFBDB
:1013D0001CBD000010B50548006801210843034901
:1013E0000860022001F02AFE10BD00000024004029
:1013F00010B502460020002A04D0012A0BD0022A90
:101400001DD111E0104B1B681B0C1B048CB2234335
:101410000D4C236015E00C4B1B6A1B0C1B048CB29B
:101420002343094C23620CE0074B40331B681B0C21
:101430001B048CB22343044C4034236001E00120A0
:1014400000BF00BF10BD0000000C0040014600209E
:10145000002904D0012909D0022917D10DE00D4A35
:101460005269520852000B4B5A6111E0094A526B03
:1014700052085200074B5A630AE0064A403252694A
:1014800052085200034B40335A6101E0012000BF73
:1014900000BF7047000C004010B502460020002A33
:1014A00004D0012A0BD0022A1DD111E0104B5B6839
:1014B0001B0C1B048CB223430D4C636015E00C4BDA
:1014C0005B6A1B0C1B048CB22343094C63620CE067
:1014D000074B40335B681B0C1B048CB22343044C4A
:1014E0004034636001E0012000BF00BF10BD000078
:1014F000000C004001460020002904D001290BD037
:1015000002291DD111E0104AD26801239B029A439F
:10151000D2180D4BDA6015E00B4AD26A01239B0208
:101520009A43D218084BDA620CE0074A4032D2687C
:1015300001239B029A43D218034B4033DA6001E047
:10154000012000BF00BF7047000C00400146002092
:10155000002904D0012907D0022910D109E00A4A44
:101560001269D007C00F0CE0074A126BD007C00FFA
:1015700007E0054A40321269D007C00F01E00020A1
:1015800000BF00BF70470000000C004030B50246AD
:101590000020002A04D0012A47D0022A7ED18BE005
:1015A0006D4BDB6801246402A3430C7864020125BF
:1015B0006D022C402343684CE3602346DB68A4158E
:1015C000A3434C7824026D102C402343624CE3600B
:1015D0002346DB687024A3438C78240170252C40BB
:1015E00023435D4CE3602346DB680824A343CC78A7
:1015F000E40008252C402343574CE3602346DB6876
:101600000424A3430C79A40004252C402343524C0A
:10161000E3602346DB680224A3434C79640002257F
:101620002C4023434C4CE36094E04B4BDB6A012499
:101630006402A3430C78640201256D022C4023430D
:10164000454CE3622346DB6AA415A3434C7824028D
:101650006D102C402343404CE3622346DB6A702428
:10166000A3438C78240170252C4023433A4CE36239
:101670002346DB6A0824A343CC78E40008252C40E9
:101680002343354CE3622346DB6A0424A3430C79ED
:10169000A40004252C4023432F4C00E058E0E362D3
:1016A0002346DB6A0224A3434C79640002252C40C4
:1016B0002343294CE3624DE0274B4033DB68012490
:1016C0006402A3430C78640201256D022C4023437D
:1016D000214C4034E3602346DB68A415A3434C78D7
:1016E00024026D102C4023431B4C4034E3602346FE
:1016F000DB687024A3438C78240170252C4023439D
:10170000154C4034E3602346DB680824A343CC78BF
:10171000E40008252C4023430F4C4034E36023466B
:10172000DB680424A3430C79A40004252C40234344
:10173000094C4034E3602346DB680224A3434C7920
:10174000640002252C402343034C4034E36001E055
:10175000012000BF00BF30BD000C0040014600204A
:10176000002904D001290AD002291AD10FE00F4A1A
:10177000D26852085200521C0C4BDA6013E00B4A3C
:10178000D26A52085200521C084BDA620BE0074A38
:101790004032D26852085200521C044B4033DA6087
:1017A00001E0012000BF00BF70470000000C0040B6
:1017B00001460020002904D0012909D0022917D1AF
:1017C0000DE00D4AD268520852000B4BDA6011E06E
:1017D000094AD26A52085200074BDA620AE0064A06
:1017E0004032D26852085200034B4033DA6001E0C5
:1017F000012000BF00BF7047000C004010B5C0467C
:10180000C04610BD01460A2901D90A207047084682
:10181000FCE70160002343608360C2607047000002
:1018200010B50C48808F0C49098888420EDD0B48A2
:101830000078401C0949087008460078C82808DD6F
:1018400000200870032001F0CDFD02E000200349D4
:10185000087010BDFC0100200A01002016010020C4
:1018600010B5C046C04610BD70B504460D462046B2
:1018700000F06EF9002801D0002070BD616820687A
:10188000405C28706268501CE168FEF743FC6160B0
:101890000120F2E770B504460E46154620460028A2
:1018A00005DBC206D20E01219140144A116000BF2F
:1018B0003146204600F076FD012D0ED1204600284D
:1018C00009DB00BF00BFC206D20E012191400C4AC5
:1018D000116000BF00BF00BF0FE0204600280ADBF8
:1018E000C206D20E01219140054A80321160BFF339
:1018F0004F8FBFF36F8F00BF00BF70BD80E200E06D
:1019000000E100E070B504460D46204600F029F9DC
:10191000002801D0002070BDA16820684554A2684D
:10192000501CE168FEF7F6FBA1600120F3E710B55B
:10193000C046C046C046C04610BD000010B50146B6
:101940000020084A084BDA62084ADA621A46126A2C
:1019500004239A438B00042423401A43024B1A6247
:1019600010BD00005A5A000000000240A5A500006A
:1019700002461068C840C007C00F704708B5144839
:101980000078002806D0012811D002280ED00328A4
:101990001BD119E0012168460170417069460D486C
:1019A000FFF7C4F802200A4908700FE00EE0062194
:1019B000684601700121417069460648FFF7B6F894
:1019C00003200349087001E000E000BF00BF08BD2C
:1019D000180000201C0100201CB501211C2000F073
:1019E00081FA0421802000F08BF80621802000F08D
:1019F00087F80221C02000F083F80021684641707A
:101A0000C170012101716A460421C02000F02EF846
:101A10001CBD000070B504460D4604496018002244
:101A2000294600F001F9002070BD0000100E0240B0
:101A3000F8B504460E4615460548A9004018071992
:101A400001223146384600F0EFF80020F8BD0000D2
:101A5000300D024070B504460D4603496018294612
:101A6000FFF786FF70BD0000000E024070B504460F
:101A70000E4615461B4960180022314600F0D4F886
:101A8000002019496118B20088502A781549091FA9
:101A90006018314600F0C8F86A7812490C396018AD
:101AA000314600F0C1F8AA780E491031601831466D
:101AB00000F0BAF8EA780B4914316018314600F0AA
:101AC000B3F82A79074918316018314600F0ACF8AC
:101AD0006A79044920316018314600F0A5F80020E9
:101AE00070BD00000C0D0240000C024010B5034612
:101AF000024818188C000251002010BD000C024052
:101B000070B504460D46044960180122294600F0CC
:101B10008BF8002070BD00000C0D024070B504462B
:101B20000D461646034960183246294600F07CF8F7
:101B3000002070BD080D024008B50020009000BFD5
:101B400000980028FCD008BD10B5C046C04610BDA6
:101B500001468A684868904201D101207047002000
:101B6000FCE710B50446A268501CE168FEF7D2FA03
:101B70006068814201D1012010BD0020FCE710B552
:101B8000C046C04610BD000070B5054600F044F8E0
:101B900003480169642002F021F80446204670BD24
:101BA0003001002010B5C046C04610BD10B5C0467B
:101BB000C04610BD10B5C046C04610BD10B5C046E9
:101BC000C04610BD10B5C046C04610BD10B500F0EF
:101BD00001F810BD10B50321C020FFF73BFF01281D
:101BE00011D10321C020FFF715FF07480078022814
:101BF00007D10648006A0007C00F002801D102F093
:101C00000BF8FFF7BBFE10BD180000204024004079
:101C100010B5C046C04610BD014802490861704772
:101C2000853A00003001002010B5012A05D1036873
:101C300001248C402343036004E0036801248C40AA
:101C4000A343036010BD10B5C046C04610BD70B5BB
:101C5000044600252078002804D0012803D002285B
:101C60000CD107E00CE0032000F094F9032000F011
:101C70006BF905E0032000F055F901E0042500BFF1
:101C800000BF2078012100F00BF8207800F06CF9FB
:101C9000607800F0FFF8A07800F010F9284670BDD9
:101CA000F8B505460C46002700F00EFB002C01D0CD
:101CB000012000E0002004462C48066A002D04D0D4
:101CC000012D15D0022D49D134E028480068400884
:101CD0004000E107C90F08432449086000BF002CF9
:101CE00005D02248C0680005C00F0028F7D037E0B3
:101CF0001E48006A01210907884340181B490862F1
:101D00001B48C068062108431949C8601748006885
:101D100002218843610002221140084313490860F0
:101D200000BF002C05D0114800694006C00F0028F4
:101D3000F7D015E00D48006804218843A100042273
:101D4000114008430949086000BF002C05D007482E
:101D50004069C004C00F0028F7D001E0042700BF8D
:101D600000BF024806623846F8BD0000002000406F
:101D7000000D024030B589B000241422394904A86E
:101D8000FEF7F2F937481430006803900020009005
:101D900001900290344801886846018132484188A8
:101DA0006846C18030488188684681802E48C18855
:101DB000684641802C4820300188684601802B48C5
:101DC00000688006850F002D04D0012D2CD0022D37
:101DD0003AD12BE02548C0684005400D6946098985
:101DE000884201D1089C1EE02048C0684005400D93
:101DF0006946C988884201D1079C14E01B48C06825
:101E00004005400D69468988884201D1069C0AE058
:101E10001648C0684005400D69464988884201D18E
:101E2000059C00E0049C11E0114C0FE0684600881E
:101E30000E4949698905890D884202D16846C489DD
:101E400001E06846848901E0002400BF00BF074824
:101E50000068C005410F2046C8400446204609B02E
:101E600030BD00000C3F0000000C100000200040BE
:101E70000048E80110B50024FFF77CFF0446044841
:101E800000684005810F2046C8400446204610BD2A
:101E90000020004010B5044600F016FA064800681D
:101EA000FF21C1318843A101FF22C1321140084303
:101EB00001490860002010BD0020004010B5044614
:101EC00000F002FA064800680321490288436102D3
:101ED000032252021140084301490860002010BD4E
:101EE0000020004070B504460D462A4621460248AF
:101EF000FFF79AFE002070BD2020004001464A00F6
:101F0000064BD21812885005400D054AD268D20AF5
:101F1000D2020243024BDA6000207047000C10002E
:101F20000020004010B501460020064A52690323F4
:101F30009B029A438B020324A40223401A43014BC1
:101F40005A6110BD0020004010B501460020054A2E
:101F5000126930239A430B01302423401A43014B6A
:101F60001A6110BD0020004070B5044600252646C9
:101F700000F0AAF906480068302188433101302278
:101F8000114008430249086000F012F8284670BD6D
:101F90000020004001460020044A12699208920085
:101FA0008B079B0F1A43014B1A61704700200040BA
:101FB00010B5FFF7DFFE0149086010BD00000020EA
:101FC00010B5FFF7F5FF10BD10B5C046C04610BDF7
:101FD00010B5C046C04610BD10B500F011F810BDD8
:101FE00010B5C046C04610BD10B5C046C04610BDB5
:101FF00010B5C046C04610BD10B500F017F810BDB2
:1020000010B50220FFF7A2FA01280CD1064840695A
:1020100040084000044948610846C0684008400044
:10202000C860FEF7C3FE10BD400C004010B507218C
:102030001148FEF7FDFF01281DD107210E48FEF7CC
:10204000D3FF0E4800880E49081A82B202210A48BE
:10205000FFF722F80B484088401C0A4948800A488C
:102060000078032807D10948006A0007C00F00283C
:1020700001D1FEF79BFE10BD003800400E0000208D
:102080002102000010000020180000204024004021
:1020900010B5C046C04610BD10B500F013F810BD15
:1020A000F8B507460D461646002405E0295D0448AC
:1020B00000F061F8601CC4B2B442F7DBF8BD000068
:1020C0000001004010B50021084800F032F8012856
:1020D0000BD10021054800F00DF8044800F047F846
:1020E000044621460248FFF70DFC10BD00010040E8
:1020F0006401002070B504460D46002229462046A2
:102100001430FFF791FD002070BD70B504460D46F8
:1021100001222946201DFFF787FD002070BD70B504
:1021200004460D4601222946201DFFF77DFD0020B3
:1021300070BD70B504460D46002629462046103075
:10214000FFF716FC0646304670BD70B504460D46D6
:102150006068C021884329788901C0221140084362
:10216000606004212046FFF7D0FF002070BD0146CB
:102170000868C0B2704770B504460D462068000A72
:102180000002E9B20843206000BF01212046FFF7AA
:10219000D0FF0028F9D001212046FFF7ABFF002037
:1021A00070BD70B505460C460026686801214902DD
:1021B0008843617849020122520211400843686055
:1021C0002078002806D0012806D0022803D0032852
:1021D00011D102E000BF0FE000BF63785B1C6268B2
:1021E0005A431046A2685101FDF794FF01210904EA
:1021F000081A86B200E000BF00BF304670BD10B5BF
:10220000C046C04610BD10B5C046C04610BD10B592
:10221000C046C04610BD000010B526480068401CEE
:102220002449086008460078C007C00F002805D17F
:1022300001220421C020FFF771FC04E000220421E8
:10224000C020FFF76BFC1B4800681B49884210D375
:102250001A480078002803D018480078072808D1C9
:1022600000201449086016480078401C1449087082
:1022700014E010480068134988420FD30F480078D3
:1022800000280BD00D480078072807D00020094906
:1022900008600B480078401C09490870084800781D
:1022A000052805DD062006490870012001F0F2F836
:1022B00010BD00000800002060EA0000FC010020C2
:1022C0000C000020204E00000248034988600348AB
:1022D000886070475A5A000000200040A5A5000001
:1022E00010B586B000240C2103A800F079FE062169
:1022F00001A800F075FE01210820FFF7F3FD012180
:102300000846FFF7EFFD0021684641734B2040016E
:102310000590012168460173FFF7ACFD049003A905
:102320000C48FFF73EFF0446012168464172002138
:10233000017201A90120FFF729F921460120FFF7C9
:1023400057F821460120FFF7A7F80120FFF706FA0A
:1023500006B010BD000100402021020C01D0102168
:102360001046020A01D010460839020901D0104671
:10237000091F820801D01046891E420801D0881E1C
:102380007047081A704730B47446641E2578641C80
:10239000AB4204D3635D5B00E31830BC18471D46B5
:1023A000F8E7000010B5002819DB1A4A03231B02C6
:1023B000D21883089B00D2588307DC0EFF23A3406A
:1023C0009A438B071B0E8407E40EA3401A43114B5C
:1023D000032424021B198408A4001A5118E00E4A91
:1023E00003071B0F083B9B089B00D2588307DC0E9A
:1023F000FF23A3409A438B071B0E8407E40EA340E0
:102400001A43054B0407240F083CA408A4001A51E2
:1024100010BD000000E100E01CED00E002E008C893
:10242000121F08C1002AFAD170477047002001E04E
:1024300001C1121F002AFBD17047000010B50E48E1
:102440008089C82816DC0C48808FAA2805DD0B4837
:102450000078401C0949087002E000200749087014
:1024600006480078142805DD002004490870032080
:1024700000F0B8FF10BD0000FC0100201501002095
:10248000F0B585B01B48C18F40300088814204DD23
:102490001848C18F403000880F1AB9007818FEF72D
:1024A000EFF80546144A154BFDF7F8FF0022144BD0
:1024B00001910090FEF75AF803910290FEF730F96F
:1024C0000446104909888C4205DB0F480078401CFF
:1024D0000D49087002E000200B4908700A48007896
:1024E0000F2805DD002008490870052000F07AFF5C
:1024F00005B0F0BDFC0100205BD3BCE314CD594016
:102500000000B0400C010020190100200348002108
:1025100001800348018003480180704720000020AB
:102520002400002028000020F0B587B000250024FA
:10253000FB4840780300FFF726FF32F01AEFEEF079
:10254000EDF0ECEBEAE9E8E7E6E5E4E3E2E1E0DF21
:10255000DEDDDCDBDAD9D89AD7D6D5556C83D4F05A
:10256000F0F0F0F0F0F0F0F0F0F0F0D3D2F0ED4851
:102570004078EB49C978884233D0E948C0780028D0
:102580000BD10120E84988700020E64948700520F9
:1025900048810420E449087023E0E148C07801281C
:1025A0001FD1E1498870DF4948700220DE49087078
:1025B000DB480079DB49C988884203DDD948817945
:1025C000D7480171D749486BFEF795F8D54948853A
:1025D000D34800790A214843D24948810846C08936
:1025E000888179E2CE49C8786421FDF7A9FD0646C5
:1025F000FEF734F8CD49C860C868CD49FDF71FFE25
:102600000746FEF778F8C6B23146202001F006FCF6
:1026100062E2C349C8786421FDF792FD0646FEF7E1
:102620001DF8C24908610869C149FDF708FE07465F
:10263000FEF761F8C6B23146212001F0EFFB4BE214
:10264000B749C8786421FDF77BFD0646FEF706F81A
:10265000B64948614869B649FDF7F1FD0746FEF7FE
:102660004AF8C6B23146222001F0D8FB34E2AC4829
:10267000C0780A2802DD0A20A949C870A848C07895
:102680000300FFF780FE0B07080E141A20264B519B
:10269000575D630000BFA748A24948630320C88371
:1026A0005AE0A5489F4948630520C88354E0A048E4
:1026B0009C4948630520C8834EE0A0489949486377
:1026C0000520C88348E09E48964948630620C88391
:1026D00042E09C48934948630620C8833CE0EEE111
:1026E000E1E148E161E04DE039E0D0E1C3E1B6E18C
:1026F000A9E19CE18FE182E175E168E15BE14EE1F6
:102700003EE12DE1E0E0B4E086E081E026E07AE021
:1027100078E076E074E06FE05AE0DCE18A488149D5
:1027200048630720C88317E088487E49486308202B
:10273000C88311E086487B4948630920C8830BE0C1
:102740008448784948630A20C88305E07A48754977
:1027500048630520C88300BF00BFBDE1BCE17048ED
:10276000C078192802DD19206D49C8706C48C078FE
:10277000022802DA02206A49C8706948C0786949AB
:102780000882A9E16648C0780A2802DD0A20644967
:10279000C8706348C078012802DA01206049C87017
:1027A0005F48C0785F49488296E15D48C0780A2852
:1027B00002DD0A205A49C8705948C078012802DA57
:1027C00001205749C8705648C0785649888283E12D
:1027D0000120554988705248C0785F49497888423D
:1027E00003DD5D4840784E49C8704D48C5780A20E1
:1027F00068434C4948816FE101204B4988706BE187
:102800006AE169E168E1502046494882888263E1D3
:10281000072000F0B5FD5FE14148C0784E4948709F
:10282000084640780A2148433E49C8804A494978C9
:102830000A22514308466438FDF722FF03910290B3
:1028400045498978444AD278881AFDF719FF064627
:102850000022424BFDF722FE01910090039B029A59
:10286000FDF784FE05910490FDF7C4FF2D498861B2
:1028700032E12B48C0783849887008468078294969
:10288000C870354949780A22514308466438FDF733
:10289000F7FE03910290304989782F4AD278881A3E
:1028A000FDF7EEFE064600222C4BFDF7F7FD0191E9
:1028B0000090039B029AFDF759FE05910490FDF7E5
:1028C00099FF1849886107E11548C0782249C87006
:1028D0000846C078134908711F4949780A225143B4
:1028E00008466438FDF7CCFE039102901A498978B6
:1028F000194AD278881AFDF7C3FE06460022174B04
:10290000FDF7CCFD01910090039B029AFDF72EFE8E
:1029100005910490FDF76EFF02498861DCE000003C
:1029200030000020FC010020480000204802002068
:102930000000C842000020420000A0420000F04217
:1029400000000C43000020430000344300004843D3
:1029500000005C4300007043500100200000F03F85
:102960005F48C0780A2148435E49088108460089CB
:102970005D490880B0E05A48C0785C490880ABE007
:102980005749C878FEF73EFF0446594844714079DC
:102990005849087256484179564801759CE050499B
:1029A000C878FEF72FFF0446514884718179514859
:1029B0001830017290E04A49C878FEF723FF0446B8
:1029C0004B48C471C1794B482430017284E04449BA
:1029D000C878FEF717FF044645480472017A454857
:1029E0003030017278E03E49C878FEF70BFF0446AC
:1029F0003F484472417A3F483C3001726CE03849AC
:102A0000C878FEF7FFFE044639488472817A394857
:102A10004830017260E03249C878FEF7F3FE0446A0
:102A20003348C472C17A33485430017254E02C499F
:102A3000C878FEF7E7FE04462D480473017B2D4855
:102A40006030017248E02649C878FEF7DBFE044694
:102A500027484473417B27486C3001723CE0204991
:102A6000C878FEF7CFFE044621488473817B214855
:102A70007830017230E01A49C878FEF7C3FE044688
:102A80001B48C473C17B1B488430017224E0144985
:102A9000C878FEF7B7FE044615480474017C154853
:102AA0009030017218E00E49C878FEF7ABFE04467C
:102AB0000F484474417C0F489C3001720CE0084977
:102AC000C878FEF79FFE044609488474817C094853
:102AD000A830017200E000BF00BF07B0F0BD0000E9
:102AE00030000020FC0100200A0100200C01002021
:102AF000500100205000002010B50B4880780128BC
:102B000010D109484078002805D0074841780420B2
:102B100001F084F903E00221032001F07FF9002095
:102B20000149887010BD000048000020F0B585B054
:102B300001201E49087000201D49C8851D484863B2
:102B40000A2048850520C8833220C8810F200882CA
:102B5000032048828882FF20913008815A20C87063
:102B6000142008714B200001C880C98808466438C9
:102B7000FDF786FD019100900D49C9780C4A127944
:102B8000881AFDF77DFD044600220B4BFDF786FCFD
:102B90000646019B009AFDF7E9FC03910290FDF7C0
:102BA00029FE0349886105B0F0BD000048000020FF
:102BB000FC010020000020410000F03F70B586B00D
:102BC000F84800780300FFF7DEFB07FD0595FCFBE6
:102BD000FAF9FD0001F044F900266BE0F248407874
:102BE000002805D1F1480078002801D1FEF7DEF871
:102BF000ED484078ED490978884259D0EA48407854
:102C0000002805DDE8484078E8490870FEF7CEF86E
:102C1000E548407800284BD1E4480078002847DD9B
:102C20000020E2490870E249C98F8A008818FDF740
:102C300027FDE04AE04B01910090FDF72FFC0022B8
:102C4000DE4B03910290FDF791FC05910490FDF796
:102C50008BFD84B2D649403109888A008818FDF777
:102C60000FFDD44AD44B01910090FDF717FC0022D0
:102C7000D24B03910290FDF779FC05910490FDF78A
:102C800073FD85B228464630844203DC2046463038
:102C9000854204DDCA480078401CC94908700A2CE6
:102CA00006DA0A2D04DAC7480078401CC5490870C6
:102CB000701CC6B2642E91DBC1480078052808DD7F
:102CC0000020BF4908700220B649487006200870ED
:102CD0000FE0BC480078052808DD0020B9490870DD
:102CE0000520B04948700620087002E00020AD4978
:102CF000087054E101F0B4F8002671E0AA48407869
:102D0000002805D1A9480078002801D1FEF74EF827
:102D1000A5484078A549097888425FD0A248407804
:102D2000002805DDA0484078A0490870FEF73EF86D
:102D30009D484078002851D19C48007800284DDDFE
:102D400000209A4908709A49C98F8A008818FDF7AF
:102D500097FC984A984B01910090FDF79FFB002249
:102D6000964B03910290FDF701FC05910490FDF74D
:102D7000FBFC84B28E49403109888A008818FDF72F
:102D80007FFC8C4A8C4B01910090FDF787FB002261
:102D90008A4B03910290FDF7E9FB05910490FDF742
:102DA000E3FC85B228464630844203DC20464630A8
:102DB00085420ADD82480078401C04E095E088E006
:102DC00070E030E0EAE07E4908700A2C06DA0A2D4D
:102DD00004DA7C480078401C7A490870701CC6B23E
:102DE000642E8BDB76480078052808DD00207449C6
:102DF000087002206B4948700620087012E0714884
:102E00000078052808DD00206E4908700320654918
:102E100048700620087005E0002062490870012013
:102E200069490870BBE069490868FDF764FCC1B2F4
:102E30005F48203001710D205D4988851920644963
:102E4000088064480069C007C00F002805D06248A8
:102E5000C068C007C00F002820D10720544908705F
:102E60005E4800F0CDF819215C4800F099FE00F0B2
:102E7000DFFAFFF74BFB4E48C0894D498881486B0C
:102E8000FDF739FC4A4948850020888300F0ACFEF4
:102E9000FF20F53000F000F900F0CAFE00204149A3
:102EA00008707CE04A48068887208000864200DD62
:102EB0000646012E00DA01263146484800F070FE31
:102EC00000F0B6FA09203A49087000203549087028
:102ED00065E000F09BFE00F0C1FE0121062000F03D
:102EE0009DFF00202F49087059E02E4840780300CC
:102EF000FFF749FA09422A07084209420C06420034
:102F000000BF00BF00BF00F07FFA39E02848808A88
:102F1000192802D219202649888200202449488194
:102F20002B48068887208000864200DD0646012E59
:102F300000DA01263146294800F032FE00F078FA26
:102F400009201B4908701BE0214806888720800063
:102F5000864200DD0646012E00DA012631461F4872
:102F600000F01EFE00F064FA03201149888205205B
:102F700048810920087003E0002000F08BFA00BFB0
:102F800000BF08484078002804D006484178042053
:102F900000F044FF00200349087000E000BF00BFBC
:102FA00006B070BD48000020180000200401002079
:102FB000FC0100205BD3BCE314CD59400000B040BD
:102FC0000501002006010020040000205000002020
:102FD0000E00002040380040000C00404802002055
:102FE00010B50A460146002900D110BD02E00023B9
:102FF0000B70491C1346521E002BF8D100BFF4E79A
:103000000949C16009490161094941610021018102
:103010004181816187218900018401214184054921
:103020004162054981627047CDCC4C3E9A99193E68
:103030000AD7233D0000A0410000A0C170B505469D
:1030400011481249486100208861052008610FE09D
:1030500000200E4988610E490E480068FDF75AF8B5
:10306000012109060C1A00BF08488069A042FBD85C
:1030700028466D1E0028EBD1044800694008400036
:103080000249086170BD0000FFFFFF0000E000E0A2
:10309000A08601000000002070B5054611481249C5
:1030A0004861002088610520086110E000200E4979
:1030B00088617D21C9000D480068FDF72BF80121CA
:1030C00009060C1A00BF08488069A042FBD82846B0
:1030D0006D1E0028EAD104480069400840000249FA
:1030E000086170BDFFFFFF0000E000E0000000206D
:1030F000F8B505460E4615480078082807D013484D
:103100000078092803D0002011490870F8BDF02488
:103110000E4840890D498989884200DA64342F19A4
:10312000BE420ED90A480078401C0949087008467A
:1031300000782D2808DB00200870082000F052F9E4
:1031400002E000200249087000BFDFE7FC01002018
:1031500017010020F8B504460E4617461C480078B3
:1031600008280BD01A480078092807D0184800789A
:10317000072803D0002017490870F8BD002C03D1A0
:10318000002014490870F8E7351B002D03DC0020EF
:1031900010490870F1E7012F01D80E2000E0182037
:1031A0000090009885420ED90A480078401C0949D1
:1031B000087008460078022808DB00200870082004
:1031C00000F010F902E000200249087000BFD4E7C7
:1031D000FC0100201801002010B5064800780828DE
:1031E00003D004480078092803D1FFF727F9FFF737
:1031F00047F910BDFC01002000B58FB01B48407896
:10320000022831DB00201949487002211848FDF7D7
:103210000BFC1849888702211748FDF705FC154962
:103220004031088002211548FDF7FEFB1149C8878F
:103230003C2210316846FCF797FF0E480FC800F09B
:103240004FFB0F480078002801D1012000E000204A
:103250000B49087008460078002802D1034908701D
:1032600002E00120014908700FB000BD18000020E5
:1032700020000020FC010020240000202800002065
:103280002C000020FEF72AF8FEF7A6FB00F016FE41
:1032900000F002FE00F0E4FD00F0F0FD6420FEF717
:1032A00073FC18E0FEF7B8FF0B4840887D21090148
:1032B000884208DB0020094908800749488000F05F
:1032C0001DF9FFF789FF00F0EDFCFFF777FC00F038
:1032D000FDFDFFF711FCE5E7100000200E010020C6
:1032E0000FB4FEB510A8818B08A880780C2250433B
:1032F0001F4A8018C07A0C1A1E48858D0026002CA3
:1033000026DD2046FDF7AAF900901A48816B009847
:10331000FCF795FF07461849FCF7CEFF0190002106
:103320000198FDF78DFA08D23F2109060198FCF7B4
:103330002DFF0746FDF7DFF906460C2169430846D5
:103340006421FCF7E7FE0746BE4200D93E4600BFB7
:10335000A8190A49884204D90021C943054AD184E1
:1033600001E0044AD084FEBC08BC04B01847000049
:1033700050000020FC01002000002041FFFF000061
:1033800070B50446002C01D0124844700120114948
:1033900088701148808A192802D219200E49888223
:1033A00000200D4948810D4805888720800085420E
:1033B00000DD0546012D00DA01252946084800F008
:1033C000EFFB00F035F80920034908700620014999
:1033D000087070BD48000020FC0100200E00002095
:1033E0004802002010B50446002C01D00548447066
:1033F00001200449887000F007F806200149087090
:1034000010BD00004800002010B500F0FFFB00F0E8
:1034100025FC0020034908700349087048700349DF
:10342000087010BD48000020FC01002004000020AE
:1034300000200149087070471401002010B50146B2
:103440000A22124B1B78002B06D10846104B18801D
:1034500001230E4C237010BD0D4B1888814208DDEE
:103460000C1AA3B2934202DD8418A0B200E0084611
:1034700008E0441AA3B2934202DD841AA0B200E02D
:10348000084600BF024B188000BFE4E7140100208B
:103490001201002070B50446002C04D0134844707B
:1034A00001201249887012480078082807D0104877
:1034B0000078072803D00E480078092815D10D4858
:1034C000058887208000854200DD0546012D00DA51
:1034D00001252946084800F063FBFFF7A9FF0520F6
:1034E000034948810920087000BF70BD48000020D2
:1034F000FC0100200E00002048020020F0B587B03B
:1035000000200590E8480078072804D008287DD0DE
:1035100009287CD112E1E4488089E349498988423D
:1035200006DAE1488089E049498A4018DE49888105
:10353000DD488089DC494989884206DDDA4880898E
:10354000D949498A401AD8498881D7498889FDF7DD
:10355000ABF805460022D54BFCF791FF0191009096
:10356000FDF748F90290D04881690298FCF767FEA0
:103570000390CD48016B0398FCF708FE0490FDF71B
:10358000BAF884B22046FDF78FF80546C84AC94B01
:10359000FCF784FF03910290FDF7E6F8C2498885A5
:1035A0000846C18F40300088081A07B2002F00DAA1
:1035B00000273846FDF764F80546BF4ABF4BFCF7C5
:1035C0006DFF03910290FDF7CFF8C0B20590B648A9
:1035D000408DB549C98B4018B34948850846808B52
:1035E000401C88830846808B0F2822DD0598844282
:1035F0001FDAB348058887208000854200DD054634
:10360000012D00DA01252946AE4801E012E03BE138
:1036100000F0C6FAFFF70CFF0020A3498883486B2F
:10362000FDF769F8A0494885082008700020088443
:1036300000BF29E19C4880899B494989884206DA74
:10364000994880899849498A4018974988819648BD
:10365000808995494989884206DD93488089924945
:10366000498A401A904988818F498889FDF71CF85A
:10367000054600228D4BFCF702FF01910090FDF7FB
:10368000B9F80290884881690298FCF7D8FD039048
:103690008548016B0398FCF779FD0490FDF72BF842
:1036A00084B22046FDF700F80546814A814BFCF7BD
:1036B000F5FE03910290FDF757F87B4988858978DC
:1036C0000C225143804A8918087AFCF7D2FF05463C
:1036D0007548816B2846FDF7A9F80FD27249886BAF
:1036E000FDF760F80546794A794BFCF7C8FE03916F
:1036F0000290FDF77FF86C4988631EE06A4989787B
:103700000C225143704A8918087AFCF7B2FF05462B
:103710006548816B2846FDF793F80ED26249886BA5
:10372000FDF740F80546694A694BFCF703FE039133
:103730000290FDF75FF85C498863A5E05A488089EC
:1037400059494989884216DA57494989564A92891E
:10375000891A88B25449898A814204DB52494989CD
:10376000514A918106E0504989894F4A928A8918C5
:103770004D4A91811CE04C4880894B4949898842D7
:1037800016DD49498989484A5289891A88B24649C9
:10379000898A814204DB44494989434A918106E090
:1037A00041498989404A928A891A3F4A918100BFDA
:1037B0003D488089052804DA3B48C08D401C3A49C1
:1037C000C8853949086B01218907FDF739F80FD2FF
:1037D0003549086BFCF7E6FF3C4A3E4B03910290EB
:1037E000FCF74DFE0546FDF705F82F49086303E099
:1037F000012080072C4908632B498889FCF754FF76
:1038000005460022294BFCF73AFE01910090FCF797
:10381000F1FF0290244881690298FCF710FD0390A3
:103820002148016B0398FCF7B1FC0490FCF763FF9F
:1038300084B22046FCF738FF05461D4A1D4BFCF7B5
:103840002DFE03910290FCF78FFF17498885886B46
:10385000FCF7A8FF05461D4A1F4BFCF7B7FF0FD228
:103860001149886BFCF79EFF0546184A1A4BFCF776
:1038700006FE03910290FCF7BDFF0B49886302E04E
:1038800016480949886300BF00BF07498889642139
:10389000FCF756FC04498870084680780E2801D948
:1038A0000E20887007B0F0BDFC01002000005940D8
:1038B000C3F5285C8F42204054E3A59BC420C03F41
:1038C0000E00002048020020500000209A9999998B
:1038D0009999C93F9999D93F9999B93FCDCCCC3D98
:1038E0000FB4F0B58FB020A8C189008A081A04B2BD
:1038F0005D480078072804D0082823D009287DD106
:1039000053E0002C00DA002457490879FCF7B1FE97
:10391000554908635548058810A8837CA2B208461B
:10392000418D534800F0B6F85249088010A8827CB7
:10393000084601882846FFF70DFC4E4800884B4991
:1039400008808BE03C2218A96846FCF70DFC14A8FF
:103950000FC8FFF7C5FC4449C88CFFF76FFD06464A
:103960004248058810A8837CA2B23146404800F046
:1039700091F84049088010A8827C084601882846B2
:10398000FFF7E8FB002C01DA002000E0A0B20746B8
:103990003848028839463046FFF7AAFB3548008888
:1039A00032490880FDF73CFF58E03C2218A96846E0
:1039B000FCF7DAFB14A80FC8FFF792FC002C00DA22
:1039C00000242046FCF74AFE07462B49FCF737FC4B
:1039D0000546FCF790FE294908702349C88CFFF77B
:1039E0002DFD06462148058810A8837CA2B23146E9
:1039F0001F4800F04FF81F49088000E02DE010A894
:103A0000827C084601882846FFF7A4FBA1B219482A
:103A100002883046FFF76CFB1348008A1749097883
:103A2000884203DA1048C08D082809D900200E49C1
:103A3000C885087005201249087019200D490880B2
:103A400009488089FF212D31884201D9FDF7E8FE20
:103A5000084800880549088000E000BF00BF0FB09B
:103A6000F0BC08BC04B01847FC0100201001002085
:103A7000480200200E0000202506013E080100201B
:103A80004800002010B5044600F0EAF9FFF74EF8B0
:103A9000600010BDFFB589B004460E461746384693
:103AA000FCF7E7FD05903046FCF7E3FD049005992F
:103AB000FCF7BDFB08900A20205EFCF7CFFD082133
:103AC0000290615E4800FCF7C9FD00900899FCF780
:103AD000B2FB01900299FCF759FB03906169FCF776
:103AE000AEFB059020690899FCF7A9FB039008201C
:103AF000205EFCF7B3FD00900899FCF79CFB019059
:103B0000E168FCF79CFB02900399FCF73FFB0490F3
:103B10000599FCF73BFB0546208960810898FCF776
:103B2000D1FD00B2208119480790194806900C98E1
:103B3000012803D817480790174806902846079988
:103B4000FCF77EFE00D8079D28460699FCF76EFE1E
:103B500000D8069DE5612946A069FCF717FBA06126
:103B60000E49A069FCF76CFE01D80C48A0617F21CA
:103B7000C905A069FCF75AFE02D87F20C005A061E4
:103B8000A069FCF7B8FD80B20DB0F0BD0000A04107
:103B90000000A0C100002041000020C10000074437
:103BA00070B504460D462846FCF763FD06460A49F3
:103BB0003046FCF745FE00D8074E7F21C905304648
:103BC000FCF734FE01D87F26F605002020816081B5
:103BD000E061A66170BD00000000074470B50546B5
:103BE0000C462846A04770BD10B5FDF751FB0028D4
:103BF00005D00548007804210843034908700020D7
:103C0000FDF7ACFD10BD00001400002010B5002031
:103C1000FDF7CEFD10BD000010B504490220FDF7F0
:103C20003BFC0220FDF79AFD10BD0000AAFF00003A
:103C300010B5012211214901481CFDF797FA012214
:103C400011214901481CFDF791FA0348FDF7C5F918
:103C50000148FDF73AFA10BD0038004010B503489E
:103C6000FDF7BBF90148FDF738FA10BD00380040F8
:103C700010B5872207490848FDF7CBFD7F2007498B
:103C800008707E20C8717F20054908707E20C871A9
:103C900010BD0000740100206401002030000020ED
:103CA00038000020FEB502A95648FDF7DDFD019061
:103CB000019800287DD0544800786946097A8842E6
:103CC00006D1012051490870002051490870FEBDFD
:103CD0004E480078012806D002280CD0032821D0B5
:103CE000042867D134E06846007A474948700220CA
:103CF0004649087083E06846007A43498870084660
:103D00008078022803DD002040490870DFE70020AA
:103D1000404908703C48C01C3F49086003203B49AB
:103D200008706CE06846007A3B490968394A1278A5
:103D3000885438480078401C3649087032488078EA
:103D4000801C0978884202DC04203049087056E063
:103D50002D48C0796946097A88424BD12A48401CCF
:103D60002D490860002002902A4908700DE02A4879
:103D7000006828490978405C6946097A4840029001
:103D800024480078401C234908701F488078801C14
:103D9000204909788842EADC6846007A00901E488B
:103DA000006807781C4800684078C019C7B2002432
:103DB00009E025E022E0A01C17490968085CC01949
:103DC000C7B2601CC4B210488078A042F3DC07215F
:103DD0003846FCF79FF90D460B488078801C0E4949
:103DE00009680E5C0098B04201D0B54201D1FEF7DF
:103DF0009BFB00BF00200549087000E000BF00BF2A
:103E000000BF64E764010020300000204000002073
:103E10000C000020410000204400002070B5054641
:103E20000E4600240D484570204668400446012097
:103E30000A49887044400846C670204670400446CF
:103E400008460471002048717E20887108468078F9
:103E5000801DC2B20020FEF723F970BD380000209B
:103E600010B5FDF741F9012003490870FDF786FD03
:103E700000200149487010BD1800002010B5FDF762
:103E800095FA02220321C020FDF7D2FD0122002174
:103E90000320FDF7FFFC10BD10B5FDF7D3F9002896
:103EA00005D0054800780221084303490870FDF752
:103EB00028FAFDF7B1F910BD1400002010B5FFF786
:103EC000D7FEFDF734FAFDF757FA10BD10B50C48D0
:103ED0000078012813D10B480088401C094908804C
:103EE0000120FFF7ABF807480088142807DD002001
:103EF000044908800249087003200349087010BD76
:103F000004000020060000204800002000093D00B9
:103F100000127A000024F4004086510100366E0140
:103F200000800096443F0000000000201C010000BB
:103F30001C240000604000001C0100205C05000003
:103F40002C24000000093D000000000000000000DB
:103F50000000190000000000000000000000000048
:103F60000000000000000000000000000000000051
:103F70000000000000000000000000000000000041
:103F80000000000000000000000000000000000031
:103F90000000000000009041E803E803021E04173F
:103FA00000009041E803E803021E041700000042ED
:103FB000E803E803031E041700003842E803E8039F
:103FC000031E041E00007042E803E8030319051EE7
:103FD00000009442E803E8030319061E0000B04203
:103FE000E803E8030219071E0000CC42E803E803D7
:103FF000021407280000E842E803E8030214072837
:1040000000000243E803E8030214031E000010430B
:10401000E803E8030214082100001E43E803E80354
:104020000214082300002C43E803E80302140823C9
:1040300000003A43E803E803021408230000484361
:10404000E803E80302140823000000000000240233
:10405000F000000000000000000000000000000070
:04000005000000C136
:00000001FF
