:020000040000FA
:1000000050060020D9000000F3000000BD1A0000D7
:1000100000000000000000000000000000000000E0
:10002000000000000000000000000000F7000000D9
:100030000000000000000000F90000003F1C00006C
:10004000A51B0000AD1B0000B51B0000BD1B000080
:10005000FD000000FD00000069200000712000008C
:10006000FD000000FD000000091C0000FD00000074
:10007000CD1A0000FD000000C11F0000C91F0000D4
:10008000D11F0000FD000000E11F0000E91F00007B
:10009000F11F0000951B0000E7210000FD0000009B
:1000A000150A0000FD000000D7210000DF2100003C
:1000B000031B0000FD000000B318000079170000CA
:1000C0000448854600F094FC004800474530000095
:1000D000C046C0465006002009480A4A002100A137
:1000E000814200D902440848026008488047084815
:1000F0000047FEE7FEE7FEE7FEE7FEE7FEE700005B
:10010000000000200000000008ED00E0B91F000022
:10011000C100000030B50B4601460020202201241A
:1001200009E00D46D5409D4205D31D469540491B2B
:100130002546954040191546521E002DF1DC30BD74
:1001400070B500242546002801DA01244042002928
:1001500001DA01254942FFF7DDFFAC4200D0404201
:10016000002C00D0494270BD03460B439B0703D0CF
:1001700009E008C9121F08C0042AFAD203E00B786C
:100180000370401C491C521EF9D27047F8B5024654
:100190004A40D40F42004B0052085B089A4202D2F8
:1001A0000246084611464A0023D0C30D4A00DDB27C
:1001B000120EAD1A202D35DA49020126490AF6053C
:1001C0008A19002C00D0524220214F1B1146B94001
:1001D0002A411018C20D9A4221D0002C17D0012DAF
:1001E00008DCDA05801AD20F8019D207DBB200F0E2
:1001F00067FBF8BDDA05801A012340001B06C01812
:1002000080185A428018CA0F1043490007E0490875
:10021000C2071143DA05801A80194008801800F0DF
:1002200047FBF8BD61000122511A001BF7E70122CC
:10023000D2075140AAE70122D2075040A6E7024662
:1002400070B54A40D30FDB0740002DD04A002AD0BA
:10025000010E140E000212020919400A520A8418F3
:10026000E50104465443000A120A2E045043A4191F
:100270004219200CC543AA18120C0125AD03521CCB
:10028000521912047F39240400D0521C104301D4A7
:100290004000491EC2B20C06C0092018401C40088C
:1002A000802A02D003E0002070BD400840000029F1
:1002B00000DA0020184370BD70B502464A40D50FE1
:1002C00040004A00ED0740085208002814D0002AD8
:1002D00012D0C40DD30D41020120C0055202490ABB
:1002E000520AE41A091812187D34914201D3641C91
:1002F00000E04900002C01DA002070BD002391428B
:1003000001D3891A0343400849000028F7D1002986
:100310000AD0914202D10121C90705E0914201D2E0
:10032000012101E00121C943E005C018401900F096
:10033000BFFA70BDF0B507460846584087B0C00FF9
:10034000049048000E46590040084908BC1A8841EC
:1003500005D2384631461E4617460B46024658001F
:10036000400810434DD0300D039040055900400D1A
:10037000490D0590401A0290402873DA18030121B4
:10038000000B09050843019004980092002806D04C
:100390001146019A49420020904100910190029833
:1003A00040210A1A0199009800F04EFA05460C46C1
:1003B0006B4607CB00F069FAC0197141039A0E0D24
:1003C0000023D71756401A467A40164344D0049A61
:1003D000002A2DD0029A012A039A15DC1205C01AB0
:1003E000914101263605001C7141D20F059ED207AE
:1003F0000093019202962A46234600F0A7FA07B01E
:10040000F0BD38463146FAE71605234A0F46B218C2
:10041000C01AB74101210905001C4F4100187F4156
:10042000114618187941E20F10436D19644113E029
:10043000E2076D0815436408C2071443039A0126B6
:100440001205C01A91413605001C7141CE074008C3
:1004500030434908C01851412A46234600F069FA42
:10046000CDE7FFE7049801224000C117121A0023CC
:100470008B4104983146C417381AA141EEE730B4D5
:100480000124E407634030BC54E730B40124E4079E
:10049000614030BC4EE700000000E0FFF0B51FB443
:1004A00088B00B990998002448400999C00F490069
:1004B00049080991C0070B990090490049080B9120
:1004C00009990898A64608431CD00B990A98084336
:1004D00018D0099801244000420D4800410D0998A8
:1004E00024050003000B204309900B980003000B28
:1004F00020430B9050181C494018002201901446CC
:10050000104605E0002001460DB0F0BD032801DAD9
:10051000034600E003239C46C11A0AAE0AE05F00CE
:1005200008ADED5B4F00F75B7D430027AA187C41C7
:10053000491C5B1E6145F2DD410004AB5A522104A7
:10054000120C0A43240C401C0828DFDB019802909F
:100550000099704601910090059B049A07990698AE
:1005600000F0F4F9D0E700000DFCFFFFF0B50C46F9
:100570005C4085B0E40FE40703944C000026640857
:1005800059009446490802460296224321D0624609
:100590000A431ED06200570D4A000E032303550D77
:1005A000012402462C492405781B1B0B360B4018EE
:1005B00023432643614600901C46501AB44103D39E
:1005C0000098401C009002E0921800985B410028BF
:1005D00003DA0020014605B0F0BD00200121090525
:1005E0000746864611E064461D46141BB54106D3F6
:1005F0006546521BB341744607430C43A646CD07DC
:1006000040084908284392185B4105460D43EAD14A
:100610001046184313D060461946504071400843B5
:1006200006D06046101AB34106D20122002306E02C
:1006300000220123DB0702E00122D243531000987D
:1006400074460105381C6141029C039D00196941F3
:1006500000F06FF9BFE70000FD030000C217C10FF3
:10066000504010B54018CA079623002100F028F921
:1006700010BD10B500229623114600F021F910BDDF
:100680000EB5C217C10F5040CA0740180021054BD4
:100690000293019200910A460B4600F057F903B00D
:1006A00000BD0000330400000EB505490291002191
:1006B00000910A460B46019100F048F903B000BDD5
:1006C00033040000410040020122400AD205090E15
:1006D00080187F2901DA00207047962903DC9622D2
:1006E000511AC840704796398840704770B5CD0F91
:1006F0004A0009030123090B1B0519430B4BED07A6
:100700000024520D9A4201DA002070BD074B3433A9
:100710009A4203DC9A1A00F0A7F802E00449511843
:1007200088402C43F1D0404270BD0000FF03000020
:10073000CDFBFFFF4A0009030123090B1B051943E9
:10074000094B10B5520D9A4201DA002010BD064B3C
:1007500034339A4203DC9A1A00F086F810BD03493C
:100760005118884010BD0000FF030000CDFBFFFFC3
:10077000C20FD207400040080BD0C10D0723DB0198
:10078000C91840020905400A1143C2084007114335
:10079000704700200146704710B5002904DB012492
:1007A000E40740428C412146002B04DB1C46012318
:1007B000DB075242A3418B4200D1824210BD0000B0
:1007C00010B5002904DB0124E40740428C41214696
:1007D000002B04DB1C460123DB075242A341994254
:1007E00000D1904210BD0000CB0FDB07490010B5CF
:1007F000490802460A4307D00A0D07240903E40109
:10080000090B121B002A01DC002010BDC900440F97
:100810000C43C100E018D205801800F049F810BD63
:100820000122D207002800DB101A002900DB511A30
:10083000814270470122D207002800DB101A0029EC
:1008400000DB511A8842704710B5202A04DB0146AC
:10085000203A9140002010BD914020239C1A03466D
:10086000E3401943904010BD10B5202A04DB084630
:10087000203AD040002110BD0B46D340D040202468
:10088000A21A91400843194610BD10B5202A06DB74
:10089000CB170846203A1041C1170B4306E00B4620
:1008A0001341D0402024A21A91400843194610BD9C
:1008B000002904DA401C490001D14008400070477B
:1008C00070B40024050C05D11024000402D10029C5
:1008D00021D01124050E01D100020834050F01D1E9
:1008E0000001241D850F01D18000A41C002801DB1C
:1008F0004000641C002908D020252E1B0D46F54021
:10090000A14000D001212943084301061B1B000A16
:10091000DB1D02D5002070BC7047DB05181880185D
:100920000029F8DA401C4900F5D170BC40084000AD
:10093000704710B5002B08DA0024401C6141921862
:100940005B411A4301D14008400010BDF0B51FB40F
:1009500082B005460C0003D0084601F0F3FC02E02B
:1009600001F0F0FC20300246009021462846FFF7B7
:100970006BFF049B059A04460F4618431143084336
:1009800014D0184610431BD0009840210A1A18466C
:100990000599FFF769FF05460E46009A05990498E8
:1009A000FFF752FF084305D0012004E020463946F6
:1009B00007B0F0BD0020C11705430E432C43374359
:1009C00000990E986305401A7905E40A00220C4349
:1009D000FD0A0A3002D500200146E9E70105101999
:1009E00069410C9C0D9D00196941FFF7A2FFDFE7EB
:1009F000064C0125064E05E0E36807CC2B430C3C72
:100A000098471034B442F7D3FFF75EFB1839000063
:100A10003839000010B500F0CBF810BD0820C043F5
:100A20000149486270470000402400404178012994
:100A300008D11B4989680122920391438918184AF9
:100A4000916006E016498968012292039143144A95
:100A500091608178012908D11149896801225203E6
:100A6000914389180E4A916006E00D498968012278
:100A7000520391430A4A9160C178012908D108497B
:100A800089680122120391438918054A916006E0A2
:100A900003498968012212039143014A916070471A
:100AA0000024004010B50246002901D0002A01D1DF
:100AB000042010BD022010700C48806801239B02A6
:100AC0009843C018094B98600878D8601846C068E9
:100AD000FF231B0298434B781B02FF242402234070
:100AE0001843024BD8600020E3E7000000240040D8
:100AF0000348406840084000401C01494860704776
:100B000000240040044840680121890388434018BC
:100B100001494860704700000024004000B50246CB
:100B2000002901D1042000BD130001F022FC0805BA
:100B30000B11171D242B32391C48006B0005000DCA
:100B400008802FE01948406B0005000D088029E05F
:100B50001648806B0005000D088023E01348C06B29
:100B60000005000D08801DE01048403000680005B9
:100B7000000D088016E00D48403040680005000D6B
:100B800008800FE00948403080680005000D0880AB
:100B900008E006484030C0680005000D088001E00C
:100BA0000420C0E700BF0020BDE700000024004093
:100BB00010B51C48006A0007C00F002831D01A4841
:100BC0000078022802D003281BD10FE0174900202B
:100BD000FFF7A4FF15483638C08EFF21C331884285
:100BE00003DD084611493639C8860AE00F49091D58
:100BF0000120FFF793FF0D49891C0220FFF78EFFAC
:100C000000BF00BF084840780749087000F078FE30
:100C100005484078401C0449487002F0F9F9FFF794
:100C2000FDFE10BD402400401800002012020020EC
:100C30000146002901D1042070473A4840680C223F
:100C400090434A7892000C231A401043354A506072
:100C5000104640685A0290438A78D2025B021A40DA
:100C60001043304A506010464068DA109043CA780A
:100C70001202DB101A4010432A4A506010464068A6
:100C8000121590430A79920201239B021A401043E5
:100C9000244A5060234840308069000B00030A89D1
:100CA0001205120D10431F4A403290611046C06970
:100CB000000B00038A891205120D1043194A4032B5
:100CC000D06118488068400940010A7CD206D20EE3
:100CD0001043144A9060104680681F2252019043CE
:100CE0004A7C52011F235B011A4010430D4A906059
:100CF00010464068121490430A4A506010468068BB
:100D000012149043074A9060104680685214904332
:100D1000044A90601046806892149043014A9060A3
:100D2000002089E7002400400B48406A08218843DE
:100D300009494862084840384068C9138843401848
:100D40000549403948600846406802218843801CB4
:100D500001494039486070474024004030B503469F
:100D6000002A01D1042030BD002902D001297DD103
:100D700065E0986D400840001478E407E40F2043D4
:100D80009865986D0224A0435479640002252C4094
:100D900020439865986D0424A0439479A400042509
:100DA0002C4020439865986D0824A0431479E400F2
:100DB00008252C4020439865986D3024A043D478B2
:100DC000240130252C4020439865986DC024A04311
:100DD0009478A401C0252C4020439865986DFF2489
:100DE0000134A04354782402FF2501352C402043D0
:100DF0009865986D03246402A043147A6402032565
:100E00006D022C4020439865986DAC00A043D479C6
:100E1000E402AD002C4020439865986E40084000E5
:100E2000547AE407E40F20439866986E0624A043A2
:100E3000947A640006252C40204398666FE0986DF4
:100E400001242404A0431478240401252D042C40FB
:100E500020439865986D6C00A043547964046D003C
:100E60002C4020439865986D6C0000E055E0A0434D
:100E70009479A4046D002C4020439865986D6C0013
:100E8000A0431479E4046D002C4020439865986DCC
:100E900003242405A043D478240503252D052C40E4
:100EA00020439865986DAC00A0439478A405AD00EC
:100EB0002C4020439865986D01242406A043547863
:100EC000240601252D062C4020439865986D0324A7
:100ED0006406A043147A640603256D062C40204363
:100EE0009865986DAC00A043D479E406AD002C4021
:100EF00020439865986E1024A043547A240110254D
:100F00002C4020439866986E6024A043947A640134
:100F100060252C402043986601E0042023E700BFB1
:100F2000002020E730B5034614465A6D002C03D04C
:100F300001208840024304E0012088401546854393
:100F40002A465A65002030BD01460022FF200530A8
:100F500042500020704701460868000C00040860F9
:100F600000207047024601208840C343FF2005301F
:100F700083500020704730B50346002907D1D86D53
:100F800040084000D407E40F2043D8650CE0012955
:100F900008D1D86D0424A043940004252C4020439C
:100FA000D86501E0042030BD0020FCE710B5024602
:100FB000FF240134A3581C46CC40E007C00F10BDED
:100FC00010B50246002901D1042010BD087805287B
:100FD00001DD0420F9E7106D0E2398430B785B00C8
:100FE0000E24234018431065106DFF2301339843EE
:100FF0004B781B02FF240134234018431065106D09
:10100000702398438B781B0170242340184310658C
:101010000020DAE70346002901D11A610DE0012919
:1010200001D15A6109E0022901D19A6105E0032941
:1010300001D1DA6101E0042070470020FCE702469C
:101040005160002070470146086D40084000401C78
:101050000865002070470146086D4008400008659B
:10106000002070471CB514211E4801F03BFF0221EF
:1010700001A801F037FF0421684601F033FF012188
:10108000102000F02BFFFFF733FD00F061F9022084
:101090001449087000204870022088700320C8702E
:1010A00000200871087448740846FFF7C1FD01214B
:1010B00068460170002141708170C170FFF7B6FC75
:1010C0000621684601710121417101A90548FFF718
:1010D000E9FCFFF717FD01220221182000F09CFB1C
:1010E0001CBD0000FC000020F0B585B004460D4694
:1010F0001746032103A801F0F5FE0B21684601F015
:10110000F1FE01210A2000F0E9FE04216846017386
:10111000012141730021817303A91D48FFF750FF8E
:1011200021461B48FFF78BFF00262A463146184808
:10113000FFF770FF02262A4631461548FFF76AFF7F
:10114000012200211248FFF716FF002168460170B6
:1011500001214170022181700321C17000210171C0
:101160000121417181716A4600210948FFF7F6FDAE
:101170000748FFF7E9FE012207210548FFF7D2FEE5
:1011800001221146142000F047FB05B0F0BD00001D
:10119000003800401CB50621684601F0A3FE01217D
:1011A0001C2000F09BFE0020694648706A46022120
:1011B00000F01EFC05220221002000F059FC1CBD9D
:1011C0001CB501240121082000F088FE002168469A
:1011D00001704170032181700021C17001710121F2
:1011E00041716946022000F08FF9002800D000BF4D
:1011F000022000F0E9F8022000F03AF90122002173
:10120000102000F009FB20461CBD00007CB5002426
:10121000104D2E460121082000F060FE0021684696
:101220000170417081700121C170002101710121A3
:1012300041716946002000F067F9002800D00124C0
:101240002946002000F092F83146002000F0E2F834
:1012500020467CBDA0F6000008B501211F2000F04B
:101260003DFE002000F02CFB002000F043FE00219A
:10127000684601704170817000F0E5FC08BD1CB546
:101280000621684601F02EFE01211C2000F026FEFA
:101290000020694648706A46012100F0A9FB04223B
:1012A0000121002000F0E4FB1CBD1CB506216846AE
:1012B00001F018FE01211C2000F010FE00216846FC
:1012C00041706A460521C02000F092FB01220521F1
:1012D000C02000F0CDFB0121684641706A4606211E
:1012E000C02000F085FB01220621C02000F0C0FBD9
:1012F0001CBD000008B500F0E9FF01200090694620
:10130000084800F00EFF0021064800F0F4FE00211E
:10131000044800F0DBFE01220321072000F07CFAE4
:1013200008BD0000000100401CB501211C2000F098
:10133000D5FD01216846417081700021C1700171A5
:1013400041716A460321C02000F052FB1CBD000021
:1013500010B50548006801210843034908600220D0
:1013600001F0EAFD10BD00000024004010B5024667
:101370000020002A04D0012A0BD0022A1DD111E03E
:10138000104B1B681B0C1B048CB223430D4C2360B9
:1013900015E00C4B1B6A1B0C1B048CB22343094C3D
:1013A00023620CE0074B40331B681B0C1B048CB200
:1013B0002343044C4034236001E0012000BF00BF00
:1013C00010BD0000000C004001460020002904D0A0
:1013D000012909D0022917D10DE00D4A526952089E
:1013E00052000B4B5A6111E0094A526B52085200ED
:1013F000074B5A630AE0064A4032526952085200CB
:10140000034B40335A6101E0012000BF00BF704729
:10141000000C004010B502460020002A04D0012A2A
:101420000BD0022A1DD111E0104B5B681B0C1B0472
:101430008CB223430D4C636015E00C4B5B6A1B0CB4
:101440001B048CB22343094C63620CE0074B40330E
:101450005B681B0C1B048CB22343044C4034636058
:1014600001E0012000BF00BF10BD0000000C0040E3
:1014700001460020002904D001290BD002291DD1EA
:1014800011E0104AD26801239B029A43D2180D4BF7
:10149000DA6015E00B4AD26A01239B029A43D21804
:1014A000084BDA620CE0074A4032D26801239B0203
:1014B0009A43D218034B4033DA6001E0012000BFA9
:1014C00000BF7047000C004001460020002904D0F6
:1014D000012907D0022910D109E00A4A1269D00770
:1014E000C00F0CE0074A126BD007C00F07E0054A97
:1014F00040321269D007C00F01E0002000BF00BFDA
:1015000070470000000C004030B502460020002A61
:1015100004D0012A47D0022A7ED18BE06D4BDB68D4
:1015200001246402A3430C78640201256D022C405F
:101530002343684CE3602346DB68A415A3434C783F
:1015400024026D102C402343624CE3602346DB6889
:101550007024A3438C78240170252C4023435D4CD8
:10156000E3602346DB680824A343CC78E400082525
:101570002C402343574CE3602346DB680424A343F9
:101580000C79A40004252C402343524CE3602346ED
:10159000DB680224A3434C79640002252C402343DA
:1015A0004C4CE36094E04B4BDB6A01246402A343A0
:1015B0000C78640201256D022C402343454CE36204
:1015C0002346DB6AA415A3434C7824026D102C40FB
:1015D0002343404CE3622346DB6A7024A3438C78A8
:1015E000240170252C4023433A4CE3622346DB6AF6
:1015F0000824A343CC78E40008252C402343354C31
:10160000E3622346DB6A0424A3430C79A400042587
:101610002C4023432F4C00E058E0E3622346DB6A72
:101620000224A3434C79640002252C402343294C17
:10163000E3624DE0274B4033DB6801246402A3439F
:101640000C78640201256D022C402343214C403468
:10165000E3602346DB68A415A3434C7824026D1095
:101660002C4023431B4C4034E3602346DB6870244A
:10167000A3438C78240170252C402343154C40341F
:10168000E3602346DB680824A343CC78E400082504
:101690002C4023430F4C4034E3602346DB68042492
:1016A000A3430C79A40004252C402343094C403467
:1016B000E3602346DB680224A3434C7964000225DF
:1016C0002C402343034C4034E36001E0012000BF81
:1016D00000BF30BD000C004001460020002904D0AE
:1016E00001290AD002291AD10FE00F4AD268520804
:1016F0005200521C0C4BDA6013E00B4AD26A5208BB
:101700005200521C084BDA620BE0074A4032D268A2
:1017100052085200521C044B4033DA6001E00120B1
:1017200000BF00BF70470000000C004001460020D1
:10173000002904D0012909D0022917D10DE00D4A52
:10174000D268520852000B4BDA6011E0094AD26AA3
:1017500052085200074BDA620AE0064A4032D26869
:1017600052085200034B4033DA6001E0012000BF11
:1017700000BF7047000C004010B5C046C04610BD09
:101780000160002343608360C260704710B5114858
:10179000C08E11490988884217DD10480078401C26
:1017A0000E49087008460078322811DD00200C49E7
:1017B000087008490870052009494870062008701B
:1017C00001F074FF01F09AFF02E000200349087065
:1017D00010BD0000DC010020EE000020F900002018
:1017E0004400002010B5C046C04610BD70B5044688
:1017F0000D46204600F06EF9002801D0002070BD93
:1018000061682068405C28706268501CE168FEF7DF
:1018100081FC61600120F2E770B504460E46154672
:101820002046002805DBC206D20E01219140144A51
:10183000116000BF3146204600F0AAFD012D0ED1F7
:101840002046002809DB00BF00BFC206D20E0121DE
:1018500091400C4A116000BF00BF00BF0FE020465E
:1018600000280ADBC206D20E01219140054A8032CF
:101870001160BFF34F8FBFF36F8F00BF00BF70BD0C
:1018800080E200E000E100E070B504460D4620462D
:1018900000F029F9002801D0002070BDA16820685F
:1018A0004554A268501CE168FEF734FCA160012099
:1018B000F3E710B5C046C046C046C04610BD0000A4
:1018C00010B501460020084A084BDA62084ADA627D
:1018D0001A46126A04239A438B00042423401A43B5
:1018E000024B1A6210BD00005A5A0000000002406C
:1018F000A5A5000002461068C840C007C00F704789
:1019000008B514480078002806D0012811D0022814
:101910000ED003281BD119E00121684601704170E7
:1019200069460D48FFF7BEF802200A4908700FE02B
:101930000EE00621684601700121417069460648A3
:10194000FFF7B0F803200349087001E000E000BF92
:1019500000BF08BD18000020FC0000201CB50121BC
:101960001C2000F0BBFA0421802000F08BF8062137
:10197000802000F087F80221C02000F083F80021C9
:1019800068464170C170012101716A4603218020BF
:1019900000F02EF81CBD000070B504460D46044949
:1019A00060180022294600F03BF9002070BD0000BD
:1019B000100E0240F8B504460E4615460548A9002B
:1019C0004018071901223146384600F029F9002055
:1019D000F8BD0000300D024070B504460D460349C5
:1019E00060182946FFF786FF70BD0000000E024018
:1019F00070B504460E4615461B4960180022314654
:101A000000F00EF9002019496118B20088502A78B8
:101A10001549091F6018314600F002F96A78124929
:101A20000C396018314600F0FBF8AA780E491031E5
:101A30006018314600F0F4F8EA780B491431601868
:101A4000314600F0EDF82A7907491831601831461F
:101A500000F0E6F86A79044920316018314600F058
:101A6000DFF8002070BD00000C0D0240000C0240A9
:101A700010B50346024818188C000251002010BD12
:101A8000000C024070B504460D460449601801225E
:101A9000294600F0C5F8002070BD00000C0D024082
:101AA00070B504460D46164603496018324629466D
:101AB00000F0B6F8002070BD080D024008B5002007
:101AC000009000BF00980028FCD008BD10B5C046AB
:101AD000C04610BD01468A684868904201D1012085
:101AE00070470020FCE710B50446A268501CE1686E
:101AF000FEF710FB6068814201D1012010BD00207B
:101B0000FCE710B5C046C04610BD000070B50546E4
:101B100000F07EF803480169642001F0AFFD04463F
:101B2000204670BD1001002010B5FFF79BFA012080
:101B300003490870FFF7E4FE00200149487010BD1A
:101B40001800002010B5FFF7EFFB02220321C02090
:101B5000FFF730FF012200210320FFF75DFE10BDDB
:101B600010B5FFF72DFB002805D0054800780221AD
:101B7000084303490870FFF782FBFFF70BFB10BD1A
:101B80001400002010B501F0C3FDFFF78EFBFFF736
:101B9000B1FB10BD10B5C046C04610BD10B5C04663
:101BA000C04610BD10B5C046C04610BD10B5C046F9
:101BB000C04610BD10B5C046C04610BD10B500F0FF
:101BC00001F810BD10B50321C020FFF705FF012863
:101BD00015D10321C020FFF7DFFE0948006A000786
:101BE000C00F00280BD107480078022801D101F06E
:101BF00063FD04480078032801D1FFF795F810BD74
:101C0000402400401800002010B5C046C04610BD5A
:101C100001480249086170470936000010010020A0
:101C200010B5012A05D1036801248C4023430360C9
:101C300004E0036801248C40A343036010BD10B589
:101C4000C046C04610BD70B5044600252078002867
:101C500004D0012803D002280CD107E00CE00320B7
:101C600000F094F9032000F06BF905E0032000F088
:101C700055F901E0042500BF00BF2078012100F0E4
:101C80000BF8207800F06CF9607800F0FFF8A0788D
:101C900000F010F9284670BDF8B505460C4600273F
:101CA00000F008FB002C01D0012000E000200446D9
:101CB0002C48066A002D04D0012D15D0022D49D1E3
:101CC00034E02848006840084000E107C90F084395
:101CD0002449086000BF002C05D02248C0680005D8
:101CE000C00F0028F7D037E01E48006A012109071D
:101CF000884340181B4908621B48C06806210843F6
:101D00001949C8601748006802218843610002220F
:101D1000114008431349086000BF002C05D011484A
:101D200000694006C00F0028F7D015E00D48006894
:101D300004218843A1000422114008430949086096
:101D400000BF002C05D007484069C004C00F002820
:101D5000F7D001E0042700BF00BF02480662384602
:101D6000F8BD000000200040000D024030B589B0F1
:101D700000241422394904A8FEF7F6F93748143034
:101D80000068039000200090019002903448018880
:101D900068460181324841886846C1803048818860
:101DA000684681802E48C188684641802C48203092
:101DB0000188684601802B4800688006850F002D49
:101DC00004D0012D2CD0022D3AD12BE02548C0683B
:101DD0004005400D69460989884201D1089C1EE0F2
:101DE0002048C0684005400D6946C988884201D135
:101DF000079C14E01B48C0684005400D694689886F
:101E0000884201D1069C0AE01648C0684005400D92
:101E100069464988884201D1059C00E0049C11E094
:101E2000114C0FE0684600880E4949698905890D03
:101E3000884202D16846C48901E06846848901E08D
:101E4000002400BF00BF07480068C005410F2046BE
:101E5000C8400446204609B030BD000000390000EB
:101E6000000C1000002000400048E80110B50024DC
:101E7000FFF77CFF0446044800684005810F2046B8
:101E8000C8400446204610BD0020004010B504465E
:101E900000F010FA06480068FF21C1318843A10113
:101EA000FF22C1321140084301490860002010BDE3
:101EB0000020004010B5044600F0FCF90648006818
:101EC0000321490288436102032252021140084360
:101ED00001490860002010BD0020004070B5044694
:101EE0000D462A4621460248FFF79AFE002070BDA3
:101EF0002020004001464A00064BD21812885005A7
:101F0000400D054AD268D20AD2020243024BDA607F
:101F100000207047000C10000020004010B5014662
:101F20000020064A526903239B029A438B02032432
:101F3000A40223401A43014B5A6110BD0020004007
:101F400010B501460020054A126930239A430B015F
:101F5000302423401A43014B1A6110BD0020004079
:101F600070B504460025264600F0A4F9064800682E
:101F70003021884331013022114008430249086072
:101F800000F012F8284670BD0020004001460020F5
:101F9000044A1269920892008B079B0F1A43014B67
:101FA0001A6170470020004010B5FFF7DFFE0149BD
:101FB000086010BD0000002010B5FFF7F5FF10BD50
:101FC00010B5C046C04610BD10B5C046C04610BDD5
:101FD00010B500F011F810BD10B5C046C04610BDD8
:101FE00010B5C046C04610BD10B5C046C04610BDB5
:101FF00010B500F017F810BD10B50220FFF764FA15
:1020000001280CD106484069400840000449486155
:102010000846C06840084000C860FEF785FE10BD55
:10202000400C004010B507210B48FEF7BFFF012808
:1020300011D107210848FEF795FF08480088084994
:10204000081A82B202210448FEF7E4FF05484088DE
:10205000401C0449488010BD003800400E0000209C
:10206000210200001000002010B5C046C04610BD7F
:1020700010B500F013F810BDF8B507460D4616462A
:10208000002405E0295D044800F061F8601CC4B23A
:10209000B442F7DBF8BD00000001004010B500219C
:1020A000084800F032F801280BD10021054800F063
:1020B0000DF8044800F047F8044621460248FFF7AF
:1020C000E3FB10BD000100404401002070B5044650
:1020D0000D460022294620461430FFF7A1FD0020BE
:1020E00070BD70B504460D4601222946201DFFF73C
:1020F00097FD002070BD70B504460D4601222946AB
:10210000201DFFF78DFD002070BD70B504460D4603
:102110000026294620461030FFF7ECFB06463046E5
:1021200070BD70B504460D466068C02188432978AB
:102130008901C02211400843606004212046FFF756
:10214000D0FF002070BD01460868C0B2704770B56E
:1021500004460D462068000A0002E9B208432060E8
:1021600000BF01212046FFF7D0FF0028F9D0012150
:102170002046FFF7ABFF002070BD70B505460C464A
:1021800000266868012149028843617849020122DA
:1021900052021140084368602078002806D00128C8
:1021A00006D0022803D0032811D102E000BF0FE0BF
:1021B00000BF63785B1C62685A431046A2685101F5
:1021C000FDF7A8FF01210904081A86B200E000BF4C
:1021D00000BF304670BD10B5C046C04610BD10B53A
:1021E000C046C04610BD10B5C046C04610BD000078
:1021F00010B52A480068401C284908600846007845
:10220000C007C00F002805D1012203218020FFF75D
:1022100047FC04E0002203218020FFF741FC1F4817
:1022200000681F49884210D31E480078002803D058
:102230001C480078072808D10020184908601A486F
:102240000078401C1849087014E0144800681749C9
:1022500088420FD31348007800280BD0114800782B
:10226000072807D000200D4908600F480078401C5F
:102270000D4908700C48007805280DDD06200A4934
:10228000087001200A494870052006494881092044
:10229000087006200649087010BD000008000020E4
:1022A00048EE0000DC0100200C0000204C4F000034
:1022B0004400002002480349886003488860704752
:1022C0005A5A000000200040A5A5000010B586B0B5
:1022D00000240C2103A800F005FE062101A800F04F
:1022E00001FE01210820FFF7F9FD01210846FFF753
:1022F000F5FD0021684641734B2040010590012106
:1023000068460173FFF7B2FD049003A90C48FFF77C
:1023100034FF04460121684641720021017201A97F
:102320000120FFF7F1F821460120FFF71FF82146B1
:102330000120FFF76FF80120FFF7CEF906B010BDBE
:10234000000100402021020C01D010211046020A99
:1023500001D010460839020901D01046091F820831
:1023600001D01046891E420801D0881E7047081A05
:10237000704730B47446641E2578641CAB4204D3A5
:10238000635D5B00E31830BC18471D46F8E70000AA
:1023900010B5002819DB1A4A03231B02D218830840
:1023A0009B00D2588307DC0EFF23A3409A438B0780
:1023B0001B0E8407E40EA3401A43114B032424028E
:1023C0001B198408A4001A5118E00E4A03071B0FBA
:1023D000083B9B089B00D2588307DC0EFF23A340D9
:1023E0009A438B071B0E8407E40EA3401A43054B48
:1023F0000407240F083CA408A4001A5110BD0000D3
:1024000000E100E01CED00E002E008C8121F08C176
:10241000002AFAD170477047002001E001C1121F65
:10242000002AFBD17047000010B512488089C828E7
:102430001EDC1048C08EAA2805DD0F480078401C1D
:102440000D49087002E000200B4908700A48007826
:1024500014280DDD00200949087006490870032082
:10246000064948700620087001F020F901F046F98D
:1024700010BD0000DC010020F80000204400002016
:10248000F0B585B01E48008F1D49498F884204DD94
:102490001B48008F1A49498F471AB9007818FEF770
:1024A000EFF80546174A184BFDF7F8FF0022174BC7
:1024B00001910090FEF75AF803910290FEF716F989
:1024C00004460A2C05DC12480078401C10490870AC
:1024D00002E000200E4908700D4800780A280DDD42
:1024E00000200C4908700649087008200949487006
:1024F0000620087001F0DAF801F000F905B0F0BD2F
:10250000DC0100205BD3BCE314CD59400000B04097
:10251000FB00002044000020F0B585B01F48008F6C
:102520001E49498F884204DD1C48008F1B49498F92
:10253000471AB9007818FEF7A3F80546184A194B50
:10254000FDF7ACFF0022184B01910090FEF70EF84A
:1025500003910290FEF7CAF80446144909888C4298
:1025600005DB13480078401C1149087002E0002088
:102570000F4908700E4800780F280DDD00200D4926
:1025800008700649087008200A494870062008703B
:1025900001F08CF801F0B2F805B0F0BDDC010020CC
:1025A0005BD3BCE314CD59400000B040F0000020E4
:1025B000FA00002044000020034800210180034865
:1025C0000180034801807047200000202400002083
:1025D0002800002070B586B00024FA484078030037
:1025E000FFF7C7FE24FC13FBFAFCF9FCF8F7F6BC76
:1025F000F5F4F3F2F1F0EFEEEDECEBEAE9E8E7E603
:10260000E59DBDD0FD586F86E3FCEF484078ED496D
:10261000C97888423DD0EB48C078002815D1012008
:10262000EA4988700020E84948700520488108463A
:1026300080780C214843E6494018017AE24820306E
:1026400001750420E149087023E0DE48C0780128C4
:102650001FD1DE498870DC4948700220DB490870D0
:10266000D8480079D849C988884203DDD64881799D
:10267000D4480171D449086BFEF724F8D249C884C4
:10268000D04800790A214843CF4948810846C0898B
:10269000888106E2CB49C8786421FDF751FD0546E3
:1026A000FDF7DCFFCB49C860C868CB49FDF7C7FD23
:1026B0000646FEF707F8C5B22946202001F0DEF8ED
:1026C000EFE1C049C8786421FDF73AFD0546FDF702
:1026D000C5FFC04908610869BF49FDF7B0FD06465E
:1026E000FDF7F0FFC5B22946212001F0C7F8D8E177
:1026F000B449C8786421FDF723FD0546FDF7AEFF18
:10270000B44948614869B449FDF799FD0646FDF7AB
:10271000D9FFC5B22946222001F0B0F8C1E1A9488D
:10272000C0780300FFF725FE061804080C101418E3
:10273000AA48A54908630FE0A948A34908630BE02C
:10274000A848A149086307E0A7489F49086303E038
:10275000A6489D49086300BF00BFA2E1A1E19948D6
:10276000C078192802DD19209649C8709548C078AC
:102770000A2802DA0A209349C8709248C078924920
:1027800008828EE18F48C078062802DD06208D4938
:10279000C8708C48C078012802DA01208949C870C5
:1027A0008848C078884948827BE1E7E017E06EE11D
:1027B00064E15AE150E146E13CE132E128E11FE108
:1027C000F7E0EDE0DFE0CEE0A1E075E047E03CE0DF
:1027D00033E031E02FE02DE028E013E060E17948BC
:1027E000C078062802DD06207649C8707548C07892
:1027F000012802DA01207349C8707248C078724912
:1028000088824EE10120714988706E48C07878490D
:102810004978884203DD764840786A49C87069483B
:10282000C4780A206043684948813AE10120674939
:10283000887036E135E134E133E13F206D490880AD
:1028400032206149488288822BE100205F4908706C
:102850005D49087000F02AFF00F050FF21E159485F
:10286000C07863494870084640780A214843564971
:10287000C8805F4949780A22514308466438FDF709
:10288000FFFE039102905A498978594AD278881AF2
:10289000FDF7F6FE05460022574BFDF7FFFD0191BF
:1028A0000090039B029AFDF761FE05910490FDF7ED
:1028B0009BFF45498861F4E04248C0784C498870E4
:1028C000084680784049C870494949780A225143EE
:1028D00008466438FDF7D4FE039102904449897894
:1028E000434AD278881AFDF7CBFE05460022424BB8
:1028F000FDF7D4FD01910090039B029AFDF736FE8F
:1029000005910490FDF770FF2F498861C9E02D48BB
:10291000C0783749C8700846C0782B4908713449D7
:1029200049780A22514308466438FDF7A9FE054656
:102930000E462F4989782E4AD278881AFDF7A0FED4
:1029400000222D4B01910090FDF7A8FD2A46334649
:1029500003910290FDF70AFE05910490FDF744FFF4
:10296000194988619DE01748C0780A2148431649F3
:102970000881084600891F49088092E01148C07804
:102980001E4908808DE00F48C078194948710846F3
:1029900040790F490872164841790D48017580E069
:1029A0000848C1781248817181790948183001724C
:1029B00077E00448C1780E48C171C17904482430D9
:1029C00001726EE02C000020DC0100204400002099
:1029D0004C000020200200200000C84200002041DE
:1029E000000070410000A0410000C8410000F0411B
:1029F00030010020EE0000200000F03FF000002039
:102A00002948C17829480172017A2948017248E0B1
:102A10002548C17825484172417A25480C30017219
:102A20003FE02148C17821488172817A20481830DE
:102A3000017236E01C48C1781C48C172C17A1C483A
:102A4000243001722DE01848C17818480173017BC9
:102A500017483030017224E01348C178134841739D
:102A6000417B13483C3001721BE00F48C1780F488E
:102A70008173817B0E484830017212E00A48C178A8
:102A80000A48C173C17B0A485430017209E0064804
:102A9000C17806480174017C05486030017200E08D
:102AA00000BF00BF06B070BD2C0000203001002028
:102AB0007C00002010B50B488078012810D109480F
:102AC0004078002805D007484178042000F0D6FE61
:102AD00003E00121032000F0D1FE002001498870AD
:102AE00010BD000044000020F0B585B001201C4955
:102AF00008701C481C4908630A20C8842820C88123
:102B00000F200882032048828882FF2091300881AC
:102B10005A20C870142008714B200001C880C98851
:102B200008466438FDF7ACFD019100900E49C97864
:102B30000D4A1279881AFDF7A3FD044600220B4BBB
:102B4000FDF7ACFC0646019B009AFDF70FFD0391D3
:102B50000290FDF749FE0449886105B0F0BD000010
:102B60004400002000002041DC0100200000F03F74
:102B700070B586B0CC4800780300FFF7FAFB07FD7C
:102B80000593FCFBFAF9FD00FEF7CEFF00266AE094
:102B9000C6484078002805D1C5480078002801D1F2
:102BA000FEF7C2F8C1484078C1490978884258D038
:102BB000BE484078002805DDBC484078BC49087014
:102BC000FEF7B2F8B948407800284AD1B8480078F2
:102BD000002846DD0020B6490870B649098F8A00F2
:102BE0008818FDF74DFDB44AB44B01910090FDF7F4
:102BF00055FC0022B24B03910290FDF7B7FC059102
:102C00000490FDF797FD84B2AA49498F8A0088187D
:102C1000FDF736FDA84AA94B01910090FDF73EFC57
:102C20000022A74B03910290FDF7A0FC05910490B0
:102C3000FDF780FD85B228461E30844203DC204625
:102C40001E30854204DD9F480078401C9D49087075
:102C50000A2C06DA0A2D04DA9B480078401C9A49AF
:102C60000870701CC6B2642E92DB96480078052866
:102C700007DD00209349087006208B4948700870D2
:102C80000FE091480078052808DD00208E49087083
:102C90000220854948700620087002E00020824921
:102CA0000870FDE0FEF740FF002670E07F484078A6
:102CB000002805D17E480078002801D1FEF734F8BD
:102CC0007A4840787A49097888425ED077484078D7
:102CD000002805DD7548407875490870FEF724F82E
:102CE00072484078002850D17148007800284CDDA7
:102CF00000206F4908706F49098F8A008818FDF716
:102D0000BFFC6D4A6D4B01910090FDF7C7FB00229F
:102D10006B4B03910290FDF729FC05910490FDF7A0
:102D200009FD84B26349498F8A008818FDF7A8FC21
:102D3000614A624B01910090FDF7B0FB0022604BAD
:102D400003910290FDF712FC05910490FDF7F2FC4F
:102D500085B228461E30844203DC20461E30854260
:102D600004DD58480078401C564908700A2C04E0DD
:102D700076E069E061E02CE091E006DA0A2D04DA01
:102D800051480078401C50490870701CC6B2642E2F
:102D90008CDB4C480078052807DD00204949087085
:102DA000062041494870087012E04748007805281D
:102DB00008DD00204449087002203B494870062085
:102DC000087005E000203849087001203F4908706C
:102DD00066E03F490868FDF775FCC1B23548203010
:102DE00081700D203349088519203A4908803A48F6
:102DF0000069C007C00F002805D03848C068C00768
:102E0000C00F002815D107202A490870344800F067
:102E100079F8FFF7D1FB2748C0892649888100202F
:102E2000888300F031FCFF20F53000F0B3F800F0AB
:102E30004FFC00201C49087032E009201D49087031
:102E40000020194908702BE000F030FC00F056FC1F
:102E50000121062000F012FD0020134908701FE038
:102E6000052014494881092008700F48407803283C
:102E700004D100F01BFC00F041FC00E000BF00BFEB
:102E800009484078002804D007484178042000F021
:102E9000F5FC0520074948810920087000E000BFC3
:102EA00000BF06B070BD00004400002018000020E4
:102EB000E8000020DC0100205BD3BCE314CD5940C6
:102EC0000000B040E9000020EA00002004000020DB
:102ED0004C0000200E00002040380040000C004054
:102EE0002002002010B50A460146002900D110BD7D
:102EF00002E000230B70491C1346521E002BF8D130
:102F000000BFF4E70849C16008494161002101811F
:102F1000418181618721890001840521418404491F
:102F20004162044981627047CDCC4C3D0AD7233DB4
:102F30000000A0410000A0C170B50546114812492B
:102F4000486100208861052008610FE000200E49DB
:102F500088610E490E480068FDF7DCF8012109067A
:102F60000C1A00BF08488069A042FBD828466D1E95
:102F70000028EBD10448006940084000024908617C
:102F800070BD0000FFFFFF0000E000E0A086010030
:102F90000000002070B50546114812494861002024
:102FA00088610520086110E000200E4988617D21BC
:102FB000C9000D480068FDF7ADF8012109060C1A9B
:102FC00000BF08488069A042FBD828466D1E002833
:102FD000EAD104480069400840000249086170BD18
:102FE000FFFFFF0000E000E00000002010B50748F0
:102FF0000078082803D005480078092805D1FFF794
:1030000013FAFFF789FAFFF73BFA10BDDC01002045
:1030100000B58DB00948407802280CDB0020074934
:103020004870342206496846FDF79EF80448103877
:103030000FC800F069F90DB000BD000018000020B5
:10304000EC010020FEF708F9FEF788FCFEF79AFD78
:10305000FEF786FDFEF768FDFEF774FD6420FEF7BF
:1030600055FD17E0FFF7C4F80B4840880B4988422C
:1030700008DB00200A4908800749488000F012F860
:10308000FFF7B4FF00F05EFBFFF772FD00F018FCE5
:10309000FFF710FDE6E70000100000209808000090
:1030A000F2000020F0B585B08F480078072804D0E2
:1030B000082848D0092845D18BE08B4880898A4967
:1030C0004989884206DA884880898749498A4018B0
:1030D000854988818448808983494989884206DDF9
:1030E000814880898049498A401A7F4988817E4980
:1030F0008889FDF7D9FA00227C4B01910090FDF7F9
:10310000BEF90546FDF770FB0746774881693846EA
:10311000FDF795F802907448C16A0298FDF736F8F9
:103120000390FDF7CFFA84B22046FDF7BDFA704A4E
:10313000704B03910290FDF7B1F90546FDF7FAFADD
:1031400069490885C5E06848808967494989884296
:1031500006DA654880896449498A4018624988814D
:103160006148808960494989884206DD5E488089D6
:103170005D49498A401A5C4988815B498889FDF725
:1031800093FA05460022594BFDF779F90191009019
:10319000FDF72AFB0290544881690298FDF74FF829
:1031A00007465148C16A3846FCF7F0FF0390FDF727
:1031B00089FA84B22046FDF777FA4D4A4D4B0391C8
:1031C0000290FDF76BF90546FDF7B4FA464908850C
:1031D0007FE04548808944494989884206DA424867
:1031E00080894149898A40183F4988813E488089C1
:1031F0003D494989884206DD3B4880893A49898AA8
:10320000401A394988813849C86A3B49FDF712FBA1
:103210000FD23549C86AFDF7ABFA0022374B03914C
:103220000290FDF72CF90546FDF7DEFA2E49C8623B
:1032300002E031482C49C8622B498889FDF734FAED
:1032400005460022294BFDF71AF901910090FDF780
:10325000CBFA0290244881690298FCF7F0FF0746F8
:103260002148C16A3846FCF791FF0390FDF72AFA1E
:1032700084B22046FDF718FA1D4A1E4B03910290B6
:10328000FDF70CF90546FDF755FA17490885203179
:10329000087DFDF709FA0546194A1A4BFDF790FA21
:1032A00012D211492031087DFDF7FEF9144A154B61
:1032B00003910290FDF7E3F80546FDF73BFAC1B232
:1032C00009482030017503E00021074820300175CE
:1032D00000BF00BF044988896421FCF731FF02491F
:1032E000887005B0F0BD0000DC01002000005940EE
:1032F000C3F5285C8F422040000020410000E03FE1
:103300009A9999999999B93F0FB4F0B585B010A8D9
:10331000018C408C081A04B2AE480078072804D00B
:1033200008287DD009287CD1F3E0002C00DA0024A5
:10333000A8490879FDF79DF9A649C8622046FDF71E
:103340009FF9A54AA54B03910290FDF7A7F8054602
:10335000FDF74AFAA24908609E49888B1821FCF7BC
:10336000EFFE002928D19B48C08C401C9949C88495
:10337000097908463C30FDF783F99A4A9A4B039144
:103380000290FDF78BF80546FDF7D4F980B291491C
:10339000C98C884210DA8F49097908463C30FDF71C
:1033A0006FF9904A904B03910290FDF777F805462C
:1033B000FDF7C0F98749C88408A8837AA2B2854876
:1033C000C18C8A4800F028F9894908808149087928
:1033D000FDF74FF906467F4988690021FCF72FFF6A
:1033E00007463146FCF7D2FE0546FDF76BF97949F1
:1033F000C88310A9CA8B08A9897A0C2359437D4B2D
:10340000C918C97A511A08AA927A0C235A43794BDF
:10341000D218127A514308460A21FCF791FE01E0C6
:103420003BE0CFE06B49C98B40186A49C883084626
:10343000808B7149884204DA6648808B401C65495C
:1034400088836448808BFF219131884224DB644863
:103450000068FDF78DF9039102905E49C88BFDF776
:1034600008F90746FDF784F905460022634BFDF78E
:1034700006F801910090039B029AFDF78DF90BD29B
:10348000002054498883086BFDF71CF95149C88412
:10349000082008700020C88395E010A8C18B08A8F8
:1034A000807A0C225043534A8018C07A081A0028A8
:1034B0001EDD10A9CA8B08A9897A0C2359434D4BEC
:1034C000C918C97A511A08AA927A0C235A43494B4F
:1034D000D218127A514308460A21FCF731FE3D49C1
:1034E00088840846008D898C40183A49888403E016
:1034F0003848008D3749888408A8837AA2B23548B5
:10350000818C3A4800F088F839490880FEF73EF986
:1035100059E010A8C18B08A8807A0C225043354A84
:103520008018C07A081A00281ADD10A9CA8B08A9C9
:10353000897A0C2359432F4BC918C97A511A254A45
:103540002032127D514308460A21FCF7F9FD21493A
:1035500088840846008D898C40181E49888403E0C1
:103560001C48008D1B4988842046FDF789F81A4ABB
:103570001A4B03910290FCF791FF0546FDF7DAF82C
:103580001F49087008A8837AA2B21248818C174894
:1035900000F042F8164908800E48008A1849097858
:1035A000884208DD00200B49087005201549087085
:1035B00019200F49088007488089C82801DDFEF7D7
:1035C000E5F800E000BF00BF05B0F0BC08BC04B0E7
:1035D00018470000DC01002054E3A59BC420C03F35
:1035E000F4000020C3F5285C8F4220402002002018
:1035F0000E0000204C00002060EA00000000E03FC8
:10360000EC0000204400002010B50446FEF78CFAC0
:10361000FFF76AFA600010BDFEB504460D46164677
:10362000AF1B3846FDF71AF813490090FCF744FE2B
:103630000190A0690199FCF7A9FDA061208CFDF71C
:1036400018F80090A169FDF7EBF803D8208CFDF77E
:1036500010F8A061608CFDF70CF80090A169FDF7EF
:10366000E9F803D8608CFDF704F8A061A069FDF7C4
:1036700029F880B2FEBD00000000A04070B50546EC
:103680000C462846A04770BD10B5FDF7BFFD0028C9
:1036900005D005480078042108430349087000203C
:1036A000FEF71AF810BD00001400002010B500202D
:1036B000FEF73CF810BD000010B504490220FDF7EC
:1036C000A9FE0220FEF708F810BD0000AAFF0000C6
:1036D00010B5012211214901481CFDF705FD012209
:1036E00011214901481CFDF7FFFC0348FDF733FC9D
:1036F0000148FDF7A8FC10BD0038004010B5034894
:10370000FDF729FC0148FDF7A6FC10BD003800407C
:1037100010B5872207490848FEF732F87F2007498D
:1037200008707E20C8717F20054908707E20C8710E
:1037300010BD000054010020440100202C00002096
:103740003400002038B569464648FEF74FF8044675
:10375000002C7DD04448007869460978884206D11B
:1037600001204249087000204149087038BD3F4897
:103770000078012806D002280CD0032821D0042884
:103780006BD134E0684600783749487002203749E9
:10379000087063E06846007833498870084680788E
:1037A000022803DD002031490870DFE7002031499D
:1037B00008702D48C01C3049086003202B49087050
:1037C0004CE0684600782C4909682A4A12788854E7
:1037D00028480078401C2749087023488078801CBE
:1037E0000978884202DC04202049087036E01E482F
:1037F000C07969460978884228D11B48401C1E4977
:103800000860002000901B4908700DE01A4800680D
:1038100018490978405C6946097848400090154885
:103820000078401C134908700F488078801C1149AB
:1038300009788842EADC104800680E490978405C43
:1038400069460978884201D1FEF7C4FE002001E0F4
:1038500005E002E00549087000E000BF00BF00BFBE
:1038600084E70000440100202C0000203C000020E0
:103870000C0000203D0000204000002070B50546EF
:103880000E4600240D48457020466840044601203D
:103890000A49887044400846C67020467040044675
:1038A00008460471002048717E208871084680789F
:1038B000801DC2B20020FEF7DFFB70BD3400002087
:1038C00010B50C480078012813D10B480088401C23
:1038D000094908800120FFF72FFB074800881428BA
:1038E00007DD0020044908800249087003200349CD
:1038F000087010BD040000200600002044000020D5
:1039000000093D0000127A000024F40040865101B5
:1039100000366E010080009638390000000000205B
:10392000FC00000008240000343A0000FC000020E5
:10393000540500001824000000093D0000000000AC
:10394000000000000000190000000000000000005E
:103950000000000000000000000000000000000067
:103960000000000000000000000000000000000057
:103970000000000000000000000000000000000047
:103980000000000000009041E803E803031E041754
:1039900000009041E803E803031E04170000004202
:1039A000E803E803031E041700003842E803E803B5
:1039B000031E041E00007042E803E8030319051EFD
:1039C00000009442E803E8030319061E0000B04219
:1039D000E803E8030219071E0000CC42E803E803ED
:1039E000021407280000E842E803E803021407284D
:1039F00000000243E803E8030214031E0000104322
:103A0000E803E8030214082100001E43E803E8036A
:103A10000214082300002C43E803E80302140823DF
:103A20000000000000009B01F0000000000000000A
:043A30000000000092
:04000005000000C136
:00000001FF
