:020000040000FA
:1000000020070020D50000007727000045240000CD
:1000100000000000000000000000000000000000E0
:100020000000000000000000000000004B30000055
:10003000000000000000000079270000B934000033
:10004000CD460000032700007D2A0000DD1D0000D2
:10005000A5320000411F0000431F00000000000007
:100060000000000000000000000000000000000090
:100070007507000077070000C9460000CB46000066
:10008000CF20000000000000000000000127000059
:10009000CD150000ED1500000D16000049240000EC
:1000A0000000000049300000000000006D3C00002E
:1000B000A13C00000000000000000000651B0000E3
:1000C0000348854600F044FB00480047074800000D
:1000D00020070020064908688546064880470648EC
:1000E0000047FEE7FEE7FEE7FEE7FEE7FEE700006B
:1000F00000000000E1340000C1000000F8B5024635
:100100004A40D40F42004B0052085B089A4202D288
:100110000246084611464A0023D0C30D4A00DDB20C
:10012000120EAD1A202D35DA49020126490AF605CC
:100130008A19002C00D0524220214F1B1146B94091
:100140002A411018C20D9A4221D0002C17D0012D3F
:1001500008DCDA05801AD20F8019D207DBB200F072
:100160005EFAF8BDDA05801A012340001B06C018AC
:1001700080185A428018CA0F1043490007E0490806
:10018000C2071143DA05801A80194008801800F070
:100190003EFAF8BD61000122511A001BF7E7012267
:1001A000D2075140AAE70122D2075040A6E70246F3
:1001B00070B54A40D30FDB0740002DD04A002AD04B
:1001C000010E140E000212020919400A520A841884
:1001D000E50104465443000A120A2E045043A419B0
:1001E0004219200CC543AA18120C0125AD03521C5C
:1001F000521912047F39240400D0521C104301D438
:100200004000491EC2B20C06C0092018401C40081C
:10021000802A02D003E0002070BD40084000002981
:1002200000DA0020184370BD70B502464A40D50F71
:1002300040004A00ED0740085208002814D0002A68
:1002400012D0C40DD30D41020120C0055202490A4B
:10025000520AE41A091812187D34914201D3641C21
:1002600000E04900002C01DA002070BD002391421B
:1002700001D3891A0343400849000028F7D1002917
:100280000AD0914202D10121C90705E0914201D271
:10029000012101E00121C943E005C018401900F027
:1002A000B6F970BDF0B507460846584087B0C00F94
:1002B000049048000E46590040084908BC1A88417D
:1002C00005D2384631461E4617460B4602465800B0
:1002D000400810434CD0300D039040055900400DAC
:1002E000490D0590401A0290402872DA1803012146
:1002F000000B09050843019004980092002805D0DE
:1003000001995242002088410092019002984021B8
:100310000A1A0199009800F046F905460C466B460A
:1003200007CB00F061F9C0197141039A0E0D00234B
:10033000D71756401A467A40164344D0049A002AEA
:100340002DD0029A012A039A15DC1205C01A914198
:1003500001263605001C7141D20F059ED20700937D
:10036000019202962A46234600F09FF907B0F0BD9D
:1003700038463146FAE71605224A0F46B218C01A27
:10038000B74101210905001C4F4100187F4111466A
:1003900018187941E20F10436D19644113E0E20728
:1003A0006D0815436408C2071443039A0126120519
:1003B000C01A91413605001C7141CE0740083043F8
:1003C0004908C01851412A46234600F061F9CDE79B
:1003D000FFE7049801224000C117121A00238B4145
:1003E00004983146C417381AA141EEE730B401240D
:1003F000E407634030BC55E730B40124E4076140B2
:1004000030BC4FE70000E0FF0122D207002800DBEC
:10041000101A002900DB511A814201D801207047CF
:10042000002070470122D207002800DB101A0029A3
:1004300000DB511A814201D2012070470020704731
:100440000122D207002800DB101A002900DB511A14
:10045000814201D301207047002070470122D2075A
:10046000002800DB101A002900DB511A814201D953
:100470000120704700207047C217C10F504010B5CF
:100480004018CA079623002100F0C9F810BD10B526
:1004900000229623114600F0C2F810BDC20F4100A1
:1004A00040020123400ADB05D207090EC0187F294C
:1004B00001DA00207047962903DC9623591AC840B8
:1004C00001E096398840002AF4D04042704741004C
:1004D00040020122400AD205090E80187F2901DA64
:1004E00000207047962903DC9622511AC8407047B5
:1004F000963988407047000070B5CD0F4A00090357
:100500000123090B1B0519430B4BED070024520D6A
:100510009A4201DA002070BD074B34339A4203DC63
:100520009A1A00F050F802E00449511888402C4310
:10053000F1D0404270BD0000FF030000CDFBFFFF83
:10054000C20FD207400040080BD0C10D0723DB01CA
:10055000C91840020905400A1143C2084007114367
:10056000704700200146704770B50446002903D04B
:1005700000202022012310E0002801D00020C043E9
:10058000C046C0460DE02546D5408D4205D30D46F8
:100590009540641B1D46954040191546521E002D7E
:1005A000F1DC214670BD10B5202A04DB0146203A5B
:1005B0009140002010BD914020239C1A0346E34047
:1005C0001943904010BD10B5202A04DB0846203A9C
:1005D000D040002110BD0B46D340D0402024A21AA9
:1005E00091400843194610BD10B5202A06DBCB17F1
:1005F0000846203A1041C1170B4306E00B46134151
:10060000D0402024A21A91400843194610BD002969
:1006100004DA401C490001D140084000704770B422
:100620000024050C05D11024000402D1002921D09A
:100630001124050E01D100020834050F01D100017B
:10064000241D850F01D18000A41C002801DB40007F
:10065000641C002908D020252E1B0D46F540A14022
:1006600000D001212943084301061B1B000ADB1DA2
:1006700002D5002070BC7047DB05181880180029CF
:10068000F8DA401C4900F5D170BC400840007047C2
:1006900010B5002B08DA0024401C614192185B4120
:1006A0001A4301D14008400010BDF0B51FB482B01C
:1006B00005460C0003D0084604F0F2F902E004F00D
:1006C000EFF920300246009021462846FFF76BFFE5
:1006D000049B059A04460F4618431143084314D05F
:1006E000184610431BD0009840210A1A1846059955
:1006F000FFF769FF05460E46009A05990498FFF733
:1007000052FF084305D0012004E02046394607B0D7
:10071000F0BD0020C11705430E432C433743009919
:100720000E986305401A7905E40A00220C43FD0A7D
:100730000A3002D500200146E9E701051019694198
:100740000C9C0D9D00196941FFF7A2FFDFE7000037
:10075000064C0125064E05E0E36807CC2B430C3C14
:1007600098471034B442F7D3FFF7AEFC144C0000A6
:10077000344C00007047704780B598B017AA1070CD
:1007800016A80170B74909911420887703F068FE14
:10079000099880680A90032800D960E10A988100CE
:1007A00001A040588746C046B90700005308000022
:1007B000F7080000AB09000016A8007801210840E6
:1007C000052102F01CFE159017A8007840B2012800
:1007D0001ADBFFE7A3488089642801D3FFE73FE1E4
:1007E000A04880891599401814901498652803D35F
:1007F000FFE76420089003E014A800880890FFE752
:1008000008989849888119E0964880890A2801D873
:10081000FFE725E1934880891599401A13901398B2
:10082000092803D8FFE70A20079003E013A80088EF
:100830000790FFE707988B498881FFE789480068A0
:10084000042805D1FFE78748808902F0ADFDFFE766
:1008500006E116A8007801210840052102F0CFFD2D
:1008600001463C204843129017A8007840B2012866
:100870001FDBFFE77B4800698149884205D3FFE71A
:1008800078494B2080000861EAE0764800691299B7
:100890004018119011987B49884203D3FFE77848AC
:1008A000069002E011980690FFE706986D490861EE
:1008B00020E06C4800694B218900884204D8FFE79A
:1008C00068496F480861CBE0664800696B49401889
:1008D0001299884204D2FFE74B208000059005E082
:1008E000604800691299401A0590FFE705985D4934
:1008F0000861FFE7B4E016A800780121084005214F
:1009000002F07DFDFFF7C3FD5A49FFF750FC109040
:1009100017A8007840B2012823DBFFE7514840695F
:100920005549FFF77FFD002804D1FFE74D495148A5
:10093000486195E04B4840691099FFF7DFFB0F9045
:100940000F984D49FFF760FD002803D1FFE74A48A3
:10095000049002E00F980490FFE704984149486131
:1009600022E0404840694349FFF778FD002804D160
:10097000FFE73C494048486172E03A4840691099B5
:10098000FFF70DFC0E900E983A49FFF759FD00282D
:1009900003D1FFE73748039002E00E980390FFE78A
:1009A000039830494861FFE75AE016A80078012112
:1009B0000840052102F023FDFFF769FD2A49FFF7F2
:1009C000F6FB0D9017A8007840B2012823DBFFE763
:1009D000244880692649FFF725FD002804D1FFE758
:1009E0002049224888613BE01E4880690D99FFF745
:1009F00085FB0C900C981E49FFF706FD002803D1DB
:100A0000FFE71B48029002E00C980290FFE7029873
:100A10001449886122E0134880691449FFF71EFDDC
:100A2000002804D1FFE70F491148886118E00D48FC
:100A300080690D99FFF7B3FB0B900B980B49FFF7FB
:100A4000FFFC002803D1FFE70848019002E00B9863
:100A50000190FFE7019803498861FFE700E0FFE7A5
:100A600018B080BDFC00002000401C4600409C46A1
:100A700000B3714900007A44005CC147D4FEFFFF17
:100A8000341700003517000083B0029001916846CA
:100A900002800198029908600098401E029988809F
:100AA00002990020C8800299088103B0704783B082
:100AB000019000910198C08801990989884204D168
:100AC000FFE702A90020087010E001990868098971
:100AD000405C0099087001980089401C01998A883F
:100AE0001040088102A901200870FFE702A80078E1
:100AF00003B0704784B0029001A801700298C088CA
:100B0000411C029880880140684601800088029953
:100B10000989884204D1FFE703A9002008700BE08F
:100B20000198029A1168D288885400980299C88066
:100B300003A901200870FFE703A8007804B07047FC
:100B400010B584B00C460146069803A8017002A9AE
:100B50000C700192009300780978019A00F092F8E5
:100B60000099087006990020087004B010BD84B088
:100B7000039002A8017001A900200870694608705E
:100B8000FFE76846007802A9097888420EDAFFE795
:100B9000039869460978415C0198484001A90870AA
:100BA000FFE70098401C69460870EAE701A8007852
:100BB00004B0704780B586B00B46014605A80170A9
:100BC00004A90B70039200780978401802A90880E4
:100BD00001A900200870FFE701A8007804A909789E
:100BE000884218DAFFE70398002806D0FFE7039849
:100BF00001A90978405C009002E000200090FFE726
:100C000000990298401802A90880FFE70198401C4B
:100C100001A90870E0E702A800880721FFF7A4FCFB
:100C2000084606B080BD10B588B00C46014607A83E
:100C3000017006A90C70059204AA13701278029232
:100C400000780978059A00F041F8029902460120DF
:100C50009142039011D0FFE704A80078019007A803
:100C6000007806A90978059AFFF7A4FF01460198C4
:100C7000401A414248410390FFE703980121084090
:100C800008B010BD80B584B0034602A8037001AB64
:100C900019700092007808280AD1FFE702A80078AE
:100CA00001A90978009AFFF785FF03A9087009E0F8
:100CB00002A8007801A90978009A00F007F803A9B2
:100CC0000870FFE703A8007804B080BDB0B58AB013
:100CD00009AB187008A80170079203AD00202870B6
:100CE00009992B785A1C2A7004AAD15408992B7898
:100CF0005C1C2C70D15402A90870FFE702A8007890
:100D000008A9097888421ADAFFE70798002806D070
:100D1000FFE7079802A90978405C019002E00020F3
:100D20000190FFE7019803AB1A78511C197004A9D0
:100D30008854FFE70298401C02A90870DEE703A868
:100D4000017804A8FFF713FF0AB0B0BD80B584B0E6
:100D5000FFE75C4803A9FFF7AAFE002800D1AEE038
:100D6000594800680290062800D9A7E0029881003F
:100D700001A040588746C046950D0000A90D00000F
:100D8000B70D0000030E0000270E0000610E0000EA
:100D90008F0E000003A800787F2804D1FFE74A499E
:100DA00001200860FFE789E0039848490870464938
:100DB0000220086082E00399444841704078092885
:100DC0000DD3FFE740490020086003A800787F2882
:100DD00004D1FFE73C4901200860FFE710E03C49EF
:100DE000002008703948417803200422009200292D
:100DF000019001D100980190019833490860FFE704
:100E00005CE0039A32480378591C01702F49CB18D3
:100E10009A7000784978884204DBFFE72A49042069
:100E20000860FFE74AE0294A1078517803AB1B7845
:100E3000921CFFF7F8FE00280DD1FFE722490020A1
:100E4000086003A800787F2804D1FFE71E4901202D
:100E50000860FFE703E01C4905200860FFE72DE07C
:100E600003A8007800280DD0FFE71749002008608C
:100E700003A800787F2804D1FFE713490120086008
:100E8000FFE703E0104906200860FFE716E00E497F
:100E90000020086003A800787E2804D1FFE70B48F3
:100EA00000F018F809E003A800787F2804D1FFE7D4
:100EB000054901200860FFE7FFE7FFE749E704B0C5
:100EC00080BDC046040200209C000020910000204C
:100ED0009000002080B588B007907A4900200880F3
:100EE0007949012008707949087007980078401EF8
:100EF0000490082800D9E2E00498810001A040583D
:100F00008746C046D90F0000BF100000290F00001F
:100F1000570F0000BF100000BD0F0000BF10000001
:100F2000BF1000006110000007984078002811D021
:100F3000FFE70798807800280CD0FFE76748262154
:100F4000405C002806D1FFE7079880786349262295
:100F50008854FFE7B4E00798407800282DD0FFE7D9
:100F600007988078002828D0FFE75C480168891F2F
:100F70004A42514106AA117006210160808C002866
:100F800010D1FFE707988078642803D3FFE7632038
:100F9000039003E0079880780390FFE703984F4998
:100FA0008884FFE706A80078C007002804D1FFE77F
:100FB000012000F005FDFFE7FFE781E047480068FA
:100FC000042805D0FFE745480068052803D1FFE75E
:100FD00001F098FBFFE773E040480068002805D067
:100FE000FFE73E480068062801D1FFE768E0079860
:100FF0004078002801D1FFE762E007984078032895
:1010000004D3FFE707980079029003E007988078FF
:101010000290FFE7029905A801700078019003286B
:1010200018D0FFE70198092804D0FFE701980A28A3
:101030000FD013E029480068042809D0FFE72748AB
:101040000068052804D0FFE7244904200860FFE772
:1010500005E004E021490620086000E0FFE72FE0FA
:1010600007984078002801D1FFE729E01848007868
:10107000C007002801D0FFE722E0002000F0A0FC1C
:1010800007988178134801700078032804D3FFE79C
:10109000104900200870FFE70F49012008700F4831
:1010A0000068002808D1FFE70C49012008600020F3
:1010B00088830B490880FFE703F0D2F900E0FFE7DF
:1010C00008B080BD6A0100206D010020820100206F
:1010D000670100206801002066010020FC0000205C
:1010E0005001002080B58EB00DAB18700CA80170B7
:1010F0000B920078092804D3FFE70CA90820087098
:10110000FFE70DA8049000780CA9059109780B9AC7
:1011100009AB00930AABFFF713FD224806907F212D
:1011200000F034FA04990698097800F02FFA05992E
:101130000698097800F02AFA08A900200870FFE74D
:1011400008A800780CA9097888421ADAFFE70B98FA
:10115000002806D0FFE70B9808A90978405C0390A7
:1011600002E000200390FFE7039907A801700178CF
:101170000C4800F00BFAFFE70898401C08A908701B
:10118000DEE70AA801780748029000F0FFF902980C
:1011900009A9097800F0FAF902987E2100F0F6F921
:1011A0000EB080BD000C004080B58AB000200990D0
:1011B0000890079043490868434A1043086008684C
:1011C000194A1043086018200790202001900890C9
:1011D0000920C006059007A9029100F0B3FE01980E
:1011E00002990222049207920890E548039000F0C9
:1011F000A9FE0299039801220692079211220892F1
:1012000000F0A0FE03980499069A00F04BFF0598A1
:10121000069A082100F046FF0598069A102100F072
:1012200041FF0AB080BDC04620005A5A80B58EB03A
:10123000002001900D900C900B900A90099008905E
:101240000790069005900490039002901D4908684D
:101250001D4A104308601D4908681D4A1043086074
:101260001C4908684022D243104008600920C1068A
:101270000868104008601849086810400860BB49B9
:10128000086807221206904303225206801808605D
:101290002F200C90B92040000D90802006903848F7
:1012A000009006A901F024F8009801990622049202
:1012B000059102A900F05EFF0098019900F008FF77
:1012C0000EB080BD3040004010005A5A38400040F7
:1012D00040005A5A1C0000480400004880B586B0FF
:1012E000024605A8028004AA11700088002805D0D3
:1012F000FFE704A80078002803D1FFE700F032F8E8
:101300002BE004A80078652804DBFFE704A964202B
:101310000870FFE705A801881148FFF725F9039039
:10132000039904A800784843C821FFF71DF90290EB
:1013300003A801881248009000F0C2FF009802A99B
:10134000098800F0A5FF00980121019100F0EAFE54
:101350000098019900F0BCFEFFE706B080BDC046D2
:1013600040420F0080B582B00548009000210191F5
:1013700000F0AEFE0098019900F0D4FE02B080BDEE
:101380000018004080B58AB00020029009900890B3
:101390001F4A11681F4B1943116008A90191488029
:1013A0002F20009008801C488880E948059000F0B4
:1013B00021FA0098019908803B208880E548069032
:1013C00000F018FA142003900121079103F0DAF9D4
:1013D00002991520049003F0D5F9039803F088F9D9
:1013E000049803F085F90598079A114600F0B4F9BE
:1013F0000698079A114600F0AFF90598079900F092
:1014000039F90698079900F035F90AB080BDC04651
:101410003440004004005A5AE7030000F0B599B088
:1014200000200E901890179016901590149013901D
:101430001290119010904B484B498022FFF724FBEB
:101440001020049001240D94214601F0FFFD082096
:101450000690214601F026FE0220109020200590E3
:1014600011900920C006019010A9099100F06AFDB1
:1014700001980999109411220792119200F062FDCF
:10148000049B0E98394A11681943602399431160EF
:101490001168214306239943116013A90A9188809A
:1014A000C880334A15928881C88108820320488207
:1014B0004B20400113902F48029002F0F3FC029859
:1014C00004210C91224602F099FC1B200390214636
:1014D00003F020F9039803F0FBF827482749260278
:1014E0003246FFF7D1FA0598214601F0AFFD049886
:1014F000214601F0D7FD059809990C9A1092119098
:101500001F48089000F01EFD069B079A089809994D
:101510001093119200F016FD0A990E98194B1A6853
:1015200007252F02BA4392191A601A682D03AA439D
:10153000240312191A60E1225202139208821248FF
:101540000B9002F0AFFC0B980C990D9A02F056FC30
:101550000E991C200F9003F0DDF80F9803F0B8F8F7
:1015600019B0F0BD040200208301002018000048DB
:10157000006CDC02000C0040100300201002002070
:1015800000010048180100480010004080B584B0F8
:10159000039002A801700120C0030190FFE70398A7
:1015A000012102F0C9FB002808D1FFE70198401E85
:1015B0000190002801D1FFE706E0F0E7039802A9B7
:1015C000097802F077FEFFE704B080BD80B5C4481B
:1015D000012100F089F8002807D0FFE701F08AFE1A
:1015E000BF48012100F014F8FFE780BD80B5BD4879
:1015F000012100F079F8002807D0FFE701F0BEF8DC
:10160000B848012100F004F8FFE780BD70470000F2
:1016100080B582B00190684601800198B049884247
:101620000AD0FFE70198AF49884205D0FFE701984B
:10163000AD49884201D1FFE704E0AC48922103F0B4
:10164000DDF8FFE768460088012805D0FFE7684617
:101650000088402801D1FFE704E0A448932103F06B
:10166000CDF8FFE768460288019988699043886150
:1016700002B080BD80B582B0019000910198984978
:1016800088420AD0FFE701989649884205D0FFE7D3
:1016900001989549884201D1FFE704E0934863210E
:1016A00003F0ACF8FFE70098002804D0FFE70098AB
:1016B000012801D1FFE704E08C48642103F09EF883
:1016C000FFE70098002806D0FFE70199086801228B
:1016D0001043086005E00199086801229043086002
:1016E000FFE702B080BDC04680B582B00190684679
:1016F000018001987A4988420AD0FFE70198794928
:10170000884205D0FFE701987749884201D1FFE779
:1017100004E07648822103F071F8FFE7684600880C
:10172000012805D0FFE768460088402801D1FFE77F
:1017300004E06E48832103F061F8FFE70198006937
:10174000694609880840411E884102B080BDC046F4
:10175000004800404048004080B584B0039002A893
:101760000180019203985E4988420AD0FFE70398FE
:101770005C49884205D0FFE703985B49884201D164
:10178000FFE704E05948722103F038F8FFE70198B9
:10179000002804D0FFE70198012801D1FFE704E009
:1017A0005248732103F02AF8FFE702A800880128B5
:1017B00005D0FFE702A80088402801D1FFE704E038
:1017C0004A48742103F01AF8FFE70198002807D06F
:1017D000FFE702A802880399C8681043C86006E0C2
:1017E00002A802880399C8689043C860FFE704B064
:1017F00080BDC04680B582B0019000910198384903
:1018000088420AD0FFE701983649884205D0FFE7B1
:1018100001983549884201D1FFE704E03348492166
:1018200002F0ECFFFFE70098408800280FD0FFE7A8
:101830000098408803280AD0FFE7009840880128D4
:1018400005D0FFE700984088022801D1FFE704E0B7
:1018500026484A2102F0D2FFFFE700980088244979
:10186000884206DCFFE700980088012801DBFFE7DB
:1018700004E01E484B2102F0C1FFFFE70098C0883A
:10188000082805D0FFE70098C088002801D1FFE7AD
:1018900004E016484C2102F0B1FFFFE71549086843
:1018A000154A10430860009880880199C862009822
:1018B000008801998862019800680821884300998E
:1018C000C988084301990860019880680721884306
:1018D0000099498808430199886002B080BDC046DC
:1018E000004800404048004080480040934B0000C2
:1018F000FFFF00003440004004005A5A80B582B017
:101900007448007A00281BD1FFE75B480078002864
:1019100014D0FFE76F48C07A002801D0FFE742E00B
:1019200055490878401E0870012000907D20000174
:1019300032213022002300F0A1F800E033E0FFE77D
:101940006448C088012805DBFFE76249C888401E5B
:10195000C88028E05F48807A002810D0FFE7FFF7B2
:1019600001FD5C48002181728188C1808088002847
:1019700004D1FFE7574900200872FFE712E05549FC
:10198000087A401E0872C0B201280ADBFFE75149FD
:10199000012088724888C8800888497AFFF79EFC31
:1019A000FFE7FFE7FFE702B080BDC04680B5FFF765
:1019B0003DFC48490020C8722F49087080BDC046D0
:1019C00080B584B0039003980290032851D8029800
:1019D000810001A040588746E9190000351A00002F
:1019E000491A00005F1A00003A48C07A002801D066
:1019F000FFE73FE03748007A00280FD1FFE71E4895
:101A0000007800280AD1FFE7012000907D20000126
:101A100032213022002300F031F80AE01648007825
:101A2000052805D8FFE714490878401C0870FFE72F
:101A3000FFE71FE00A2000907D200001322164238F
:101A40001A4600F01BF815E0012000907D200001EF
:101A50004B218A003221002300F010F80AE0022016
:101A600000907D20000132215022822300F006F8F0
:101A700000E0FFE704B080BD39010020B0B586B0BA
:101A800004460A9805AD2C8004AC217003A90A8095
:101A900002A90B8001A908700E48C07A002801D065
:101AA000FFE715E005980B490880049848720398F1
:101AB000488002988880019808720398C8800120A5
:101AC000887205A8008804A90978FFF707FCFFE7DA
:101AD00006B0B0BD2801002080B582B01C48007857
:101AE000002801D1FFE730E01A480078172801DB11
:101AF000FFE72AE018480088002805D0FFE71649CC
:101B00000888401E088020E0FFE712480078162869
:101B10000ADCFFE70F4A1078411C11708100104861
:101B2000401800F020F8F0E70C48007800280CD1AD
:101B3000FFE701AA00201070082001210091FFF7A3
:101B4000D1FA009805490870FFE702B080BDC04691
:101B50006401002065010020620100207401002062
:101B60000A4B0000704780B582B001900198407820
:101B7000012807D1FFE7019908788A1C0121FFF7A6
:101B8000B1FA0CE0019880786A4610700198C0782C
:101B90005070019800780221FFF7A4FAFFE702B025
:101BA00080BD000080B582B07E48808B002812D0B6
:101BB000FFE77C48818B491E8183808B142805D0E8
:101BC000FFE77848808B0A2804D1FFE70020FFF761
:101BD000F7FEFFE73AE073480A21818104210160A2
:101BE0000021018481601A4A11604068012804D0F4
:101BF000FFE76C4900200861FFE76A484068022857
:101C000004D0FFE7674900204861FFE76548406866
:101C1000032804D0FFE7634900208861FFE761489B
:101C2000407B002803D0FFE7FF20009003E05D48E1
:101C300080890090FFE7009901A80170007801F009
:101C400094FB5848808901F0AFFBFFE702B080BDEC
:101C50004C01002080B5534900208881086148610B
:101C60008861486001228A608877088402F04EFB10
:101C700080BDC04681B00146684601700078802171
:101C8000084301B07047000082B001466846017009
:101C900000780A2804DBFFE701A90020087006E0AD
:101CA000684601780448405C01A90870FFE701A874
:101CB000007802B07047C046EC4A000080B50A4880
:101CC0000078C007002803D0FFE700F011FF0AE00A
:101CD00034480068002803D1FFE700F0D1FE02E09D
:101CE00000F0EEFFFFE780BD6601002080B584B004
:101CF0002C4840690021FEF7A3FB002803D1FFE731
:101D00000020019003E0274840690190FFE7019817
:101D1000039003980A49FEF787FAFEF7D8FB029072
:101D200002980849884203D3FFE70748009002E081
:101D300002980090FFE7009880B204B080BDC046D2
:101D40000000C842DF030000DE03000080B582B05F
:101D50000020FFF735FE13488189134A11808189DD
:101D6000C320400048436421FEF7FEFB0190019828
:101D7000012803D8FFE70220009003E001A80088B3
:101D80000090FFE7009909480180094A002111806D
:101D90000088044988830520086001F01EFB02B01A
:101DA00080BDC046FC0000207C0100207A0100209C
:101DB0007E010020084900200870704780B5064861
:101DC0000078002806D1FFE701F007FB0249012057
:101DD0000870FFE780BDC0466C010020704700001E
:101DE00084B0014602A801800088812804DBFFE757
:101DF00003A98020087032E0FFE74C4800688006A5
:101E0000002801D5FFE7F8E7494900200860164996
:101E100009686A461180474A136801A90B8009883E
:101E2000124B1943116002A9098849020870FFE7A3
:101E30003E4800688006002801D5FFE7F8E701A8C2
:101E400000883E4940183B4A1060684600884018A8
:101E5000054908603548006803A90870FFE703A832
:101E6000007804B07047C0460420024002005A5A6D
:101E700003493248086070470149024808607047CA
:101E800008200240FFFF5A5A85B00390029101A931
:101E90000A80039809884018401E000C002804D0CE
:101EA000FFE704A9802008703CE0FFE71F480068B6
:101EB0008006C00F002801D0FFE7F7E71C4900208B
:101EC00008601C490A686846028000881A4A104364
:101ED0000860FFE701A80088002818D0FFE70298F3
:101EE000007803990870FFE7104800688006C00F6B
:101EF000002801D0FFE7F7E70398401C0390019802
:101F0000401E01A908800298401C0290E2E7684642
:101F100000880A494018074908600448006804A975
:101F20000870FFE704A8007805B07047242002403D
:101F3000282002400020024001005A5A00005A5A4C
:101F40007047704783B00290019102980090092178
:101F5000C906884205D0FFE700984349884206D069
:101F60000BE042490868434A1043086006E03F49D5
:101F700008683F4A1043086000E0FFE701984068A6
:101F8000002807D1FFE7019802680299C869104349
:101F9000C86167E0019802680299C8699043C86106
:101FA00001980079C006002841D5FFE70198026832
:101FB000029908681043086001980268029908694C
:101FC0009043086101984068112807D1FFE7019804
:101FD00002680299086910430861FFE701980268E6
:101FE0000299486A90434862019802680299886A97
:101FF000904388620198806881210840812807D138
:10200000FFE7019802680299486A10434862FFE7B7
:102010000198806882210840822807D1FFE7019853
:1020200002680299886A10438862FFE719E0019804
:102030000268029908689043086001984068202867
:1020400007D1FFE701980268029948689043486009
:1020500006E0019802680299486810434860FFE76B
:10206000FFE7FFE703B07047000100483040004041
:1020700020005A5A10005A5A84B000910146009824
:10208000029101A908800298006D0988084203D0D6
:10209000FFE70120039002E000200390FFE7039890
:1020A00004B0704783B0029001A8018000920098AC
:1020B000012805D1FFE701A800880299C86504E05E
:1020C00001A8008802998865FFE703B07047704750
:1020D00080B582B0019000910198D849884201D121
:1020E000FFE705E0D648F121490002F087FBFFE752
:1020F0000098002804D0FFE70098012801D1FFE7ED
:1021000005E0CF48FF21E43102F078FBFFE7009AB9
:102110000199086801231A4098438018086002B0AA
:1021200080BDC04680B582B0019000910198C3493E
:10213000884201D1FFE704E0C148BF2102F05EFB05
:10214000FFE70098002804D0FFE70098012801D19C
:10215000FFE704E0BA48C02102F050FBFFE7009A15
:102160000199086A01231A4098438018086202B056
:1021700080BDC04610B582B0019000910198AF4972
:10218000884201D1FFE704E0AD48792102F036FB37
:10219000FFE7009880680F2806D8FFE7009880685E
:1021A0000A2801D0FFE704E0A5487A2102F026FBC7
:1021B000FFE70098C068012805D0FFE70098C068D5
:1021C000002801D1FFE704E09D487B2102F016FBC7
:1021D000FFE700980068002805D0FFE70098006836
:1021E000012801D1FFE704E095487C2102F006FBBD
:1021F000FFE700984068002805D0FFE70098406896
:10220000012801D1FFE704E08D487D2102F0F6FAB4
:10221000FFE70098C2680199086AD207920F02236B
:102220009843801808620199086A0822D34318402D
:1022300008620199886903229043886100980268C6
:1022400001998869D207520F0424A043801888613D
:102250000098426801998869D207120F18408018C7
:10226000886100988268019988695207520E70232C
:1022700098438018886100988268019988695203A0
:1022800001231B041A4098438018886102B010BDD6
:1022900080B582B001906846018001986749884204
:1022A00001D1FFE704E06648044902F0A7FAFFE71E
:1022B000684600880199486302B080BD1E02000094
:1022C00080B582B001906846018001985B498842E0
:1022D00001D1FFE704E05A48044902F08FFAFFE712
:1022E000684600880199C86202B080BD0B020000F8
:1022F00080B582B00190009101985049884201D187
:10230000FFE704E04E483E2102F078FAFFE700982C
:102310000068802805D0FFE700980068002801D1F8
:10232000FFE704E046483F2102F068FAFFE7009823
:10233000406800280FD0FFE70098406820280AD0A6
:10234000FFE700984068402805D0FFE70098406804
:10235000602801D1FFE704E03948402102F04EFA3D
:10236000FFE700988068002805D0FFE700988068A4
:10237000102801D1FFE704E03148412102F03EFA84
:10238000FFE70098C068082805D0FFE70098C068FC
:10239000002801D1FFE704E02948422102F02EFA8B
:1023A000FFE700980069042805D0FFE7009800695E
:1023B000002801D1FFE704E02148432102F01EFA82
:1023C000FFE700984069002805D0FFE700984069C2
:1023D000022801D1FFE704E01948442102F00EFA77
:1023E000FFE70098408B002801D1FFE704E0144884
:1023F000452102F003FAFFE701980068FE218843B7
:10240000009A11685368194393681943D3681943B4
:1024100013691943526911430843019908600098F0
:102420008069019988620098C0690199C862019920
:10243000886807229043886002B080BD0018004081
:10244000BD4B0000FFE7FEE77047000080B586B097
:102450005048007BC00700284DD0FFE772B64D4AB8
:10246000117905A80170116804910021117362B6F9
:10247000007800F059F903900398012804D1FFE790
:10248000049845490880FFE70398002832D0FFE709
:102490004248006800280ED1FFE703993F480160D9
:1024A0003F4A002111803F4A11703F4A1180006865
:1024B00000F07EF81AE0039838490968884214D081
:1024C000FFE7364801900068022100F071F801989A
:1024D00003990160324A00211180324A1170324A58
:1024E0001180006800F064F8FFE7FFE72F49102033
:1024F0000880FFE7FFE700F071FA2848006800282D
:1025000001D1FFE744E029480088012822DBFFE7EA
:1025100026490888401E088021480188491C0180FE
:102520000088962815D3FFE71E49012008701E4A2F
:102530001088411C88B211801E2809D3FFE71A4970
:102540000020088015480068012100F031F8FFE7FD
:10255000FFE71DE0134800780121084002A900911F
:1025600008700E480068022100F022F800980078F8
:10257000C007002804D0FFE70020FFF721FAFFE79B
:102580000649002008600649088006490870FFE7F0
:1025900006B080BD3C010020720100202401002013
:1025A00034010020380100203A01002036010020CB
:1025B00080B584B00390029103A8007802A909783D
:1025C00001F0F6F901A908700298002810D1FFE780
:1025D00001A80078C00700280AD0FFE701F004F83E
:1025E000002804D1FFE70020FFF7EAF9FFE7FFE743
:1025F00004B080BD81B0694600200870FFE76846DE
:1026000000780F280BDCFFE7684602783B49002082
:102610008854FFE70098401C69460870EFE701B056
:102620007047C04680B502F017F9FFF7E3FF40207E
:1026300002F003F900F004F8082000F029F880BD4A
:1026400080B582B0402002F0F8F802F051F9C020C5
:1026500002F022F901A900200870FFE701A8007824
:102660000F280CDCFFE701A801782448405C02F049
:1026700013F9FFE70198401C01A90870EEE702F08A
:102680003FF91448007802F0D8F802B080BDC04687
:1026900080B582B0014601A801700078002804D1FD
:1026A000FFE70C49802008700DE001A80078092898
:1026B00004DBFFE701A908200870FFE701988730D5
:1026C00004490870FFE70348007802F0B6F802B04A
:1026D00080BDC0468B00002082B0024601A8027077
:1026E0006A46117000780F2806DCFFE7009801A900
:1026F0000A7802498854FFE702B07047520100206F
:102700007047704780B582B0064900200880F749BD
:1027100001918883FFF79EFA01990120086002B0B9
:1027200080BDC0467E01002083B0014601A8017033
:10273000007800902E280CD0FFE700983D2811D09B
:10274000FFE700984C2807D0FFE700985B2806D0E9
:102750000BE0012002900BE00220029008E0032031
:10276000029005E00420029002E000200290FFE7C2
:10277000029803B0704770477047000080B582B080
:102780005B480121FFF778FC014601A80170007841
:10279000002805D0FFE758490868401C086004E09D
:1027A00054490868401C0860FFE701A800785349B5
:1027B0000978884200D183E001A8007801286CD113
:1027C000FFE74F480078002815D1FFE74948006827
:1027D0003D280FD3FFE7474800684008E02809D8A4
:1027E000FFE7474901200870474900200870454924
:1027F0000860FFE74DE043490868400008603E4834
:1028000000683C490968884206D9FFE73D490868E5
:10281000012210430860FFE73B4A1078411CC8B210
:10282000117018280ED1FFE736480168090A8AB2EC
:1028300036490A600068087101208860087302F058
:10284000C9F825E030480078202820D1FFE72D493D
:102850000A68100E130CC018120A8218684602701B
:102860000078097888420ED1FFE726484288274938
:102870000A600068000A087102208860012008735D
:1028800002F0A8F8FFE71E4900200870FFE7FFE705
:10289000FFE71949002008600EE017480068FF2193
:1028A000C431884204D3FFE7154900200870FFE7D0
:1028B000104900200860FFE7019810490870FFE701
:1028C0000C480068E1214900884207D8FFE70A4820
:1028D0000068FF21C431884208D3FFE7084900207F
:1028E00008700449086004490860FFE702B080BD31
:1028F00000010048A8000020A400002000000020E3
:10290000B0000020AC000020A00000203C0100200E
:10291000314800887047C04681B07F204002009057
:102920002C49002008702C490880009801784078D4
:1029300000024018084988420BD1FFE725490120D1
:10294000087000988178C0780002401822490880F9
:10295000FFE701B07047C0465AA500001D48007847
:10296000012108407047C04680B584B003A90880A3
:1029700002A9A52048705A20087003988870000AA0
:10298000C87072B6FFF778FA7F20FFF729FA014680
:1029900001A801700078002809D1FFE77F204002DC
:1029A00002A90422FFF770FA01A90870FFE7FFF7F8
:1029B0005FFA62B601A80078002807D1FFE7054951
:1029C00001200870039804490880FFE701A80078F7
:1029D00004B080BD780100207601002080B5204839
:1029E00000882049884205D8FFE71D490888401C17
:1029F0000880FFE71C480078C007002801D0FFE7E7
:102A00002CE0174800881949884201D3FFE725E0E8
:102A10001748006801281DD1FFE716480188491CA6
:102A20000180008880084B2813D3FFE712480088F4
:102A3000FFF79AFF002807D1FFE70320FEF7C0FF4A
:102A400009490120087003E00A4900200880FFE7D7
:102A5000FFE703E0074900200880FFE780BDC0468C
:102A6000B2000020FDFF0000B60000205902000067
:102A700024010020B40000207201002070470000F3
:102A800080B582B018480088002804D1FFE70020F4
:102A9000FEF796FFFFE714480088132819D8FFE7D0
:102AA00001A900200870FFE701A800780B280BDCC3
:102AB000FFE701A80078FF2101F0E4FDFFE701989E
:102AC000401C01A90870EFE707490888401C0880EE
:102AD00007E0064901200860002088830249088039
:102AE000FFE702B080BDC04650010020FC0000207E
:102AF00080B58EB000200B9001F008FD01F006FCBF
:102B00000B980DA90870FFE70DA8007802281ED8C1
:102B1000FFE70DA8007800210A9101F011FD0A9944
:102B20000D98C01CC0B201F00BFD0A990D98801DD4
:102B3000C0B201F005FD0A990D980930C0B201F04C
:102B4000FFFCFFE70D98401C0DA90870DCE70DA9FC
:102B500000200870FFE70DA8007805280CD8FFE7D3
:102B60000DA801780B20002201F07EFCFFE70D98F4
:102B7000401C0DA90870EEE750480078002829D1C4
:102B8000FFE70CA900200870FFE70CA800780228D6
:102B90001FD8FFE70CA80078FF21089101F072FD13
:102BA00008990C98C01CC0B201F06CFD0C98801DF7
:102BB000C0B20021099101F065FD09990C98093016
:102BC000C0B201F05FFDFFE70C98401C0CA9087033
:102BD000DBE771E039480078012835D1FFE70CA91F
:102BE00000200870FFE70CA8007802281FD8FFE734
:102BF0000CA800780021069101F044FD06990C987C
:102C0000C01CC0B201F03EFD0C98801DC0B2FF2177
:102C1000079101F037FD07990C980930C0B201F017
:102C200031FDFFE70C98401C0CA90870DBE70B2076
:102C3000049001220592114601F016FC0498059AB1
:102C4000022101F011FC36E00CA900200870FFE71A
:102C50000CA800780B280BDCFFE70CA80078FF21FC
:102C600001F010FDFFE70C98401C0CA90870EFE77D
:102C70000B200090002101910122039201F0F4FB4E
:102C80000098039A114601F0EFFB0098039A022185
:102C900001F0EAFB0098039A032101F0E5FB01989B
:102CA000039A0721029101F0DFFB01980299039A30
:102CB00001F0DAFBFFE7FFE70EB080BD68010020FE
:102CC00080B594B0DA48006888490968884207D01E
:102CD000FFE701F01BFBD648006884490860FFE766
:102CE0007D20C00001F012FCD148016800200229BB
:102CF000109006D1FFE7CE48807F414248411090B6
:102D0000FFE710980121084013A9087012A90020BC
:102D10000870FFE712A8007802286CD8FFE712A815
:102D200000780E9013A801780020C90700290F90A1
:102D300007D0FFE7BE488068401E414248410F90DF
:102D4000FFE70E980F9901221140C0B201F0F8FB85
:102D500012A80078C01C0C9013A801780020C907A5
:102D600000290D9007D0FFE7B1488068C01E41429E
:102D700048410D90FFE70C980D9901221140C0B217
:102D800001F0DEFB12A80078801D0A9013A80178DC
:102D90000020C90700290B9006D0FFE7A4488068EF
:102DA000414248410B90FFE70A980B9901221140DC
:102DB000C0B201F0C5FB12A800780930089013A832
:102DC00001780020C9070029099007D0FFE798483B
:102DD0008068801E414248410990FFE708980999A0
:102DE00001221140C0B201F0ABFBFFE71298401C7A
:102DF00012A908708EE78E4800680790401E0228CE
:102E000029D3FFE70798032809D0FFE70798001F99
:102E1000022820D3FFE70798062856D062E001F089
:102E200075FA8348808B09300A21FDF79DFB014626
:102E300011A801700078002804D1FFE711A9012032
:102E40000870FFE711A801780122009207200023F3
:102E500001F09CFB47E000F087FB01460023049350
:102E6000009303220392184601F090FB70480290F1
:102E700080691F49FDF7D8F9FDF710FB039A049B01
:102E800001460093104601F081FB0299039A0498D1
:102E90008989009006200223069301F077FBFEF754
:102EA00025FF039A069B014604980090092001F033
:102EB0006DFB0498069A0721059101F0D5FA049854
:102EC0000599069A01F0D0FA0DE00620792101F06B
:102ED000D9FB5748818C002300930720022201F080
:102EE00055FB00E0FFE714B080BDC046B8000020ED
:102EF00000007A4480B588B04C4A1078411CC8B2B2
:102F00001170092801D8FFE78DE04849002004909E
:102F10000870474805908089FDF7B9FA4549FDF7E3
:102F200083F907900799444803900068FDF7E6F895
:102F3000039B0499024605981A6006AA117040681E
:102F4000012814D1FFE73A480069002805D0FFE7BF
:102F500037490869401E0861FFE7354800690028C5
:102F600004D1FFE706A901200870FFE70DE0304813
:102F70000169491C016100693049884204D3FFE7B7
:102F800006A901200870FFE7FFE7294840680228EA
:102F900015D1FFE70799264802904069FDF7FFF831
:102FA00001460298416140690021FDF757FA002867
:102FB00004D1FFE706A901200870FFE704E01E48DE
:102FC00000681B494861FFE719484068032819D188
:102FD000FFE707981B49FDF7EAF8014614480190FE
:102FE0008069FDF78BF801460198816180690021B5
:102FF000FDF734FA002804D1FFE706A90120087084
:10300000FFE707E00C4800680D49FDF7D0F80849D4
:103010008861FFE706A80078C007002803D0FFE713
:10302000FEF794FEFFE708B080BDC046BC0000205C
:10303000FC000020000010424C010020341700006A
:1030400000008C4200008CC27047704780B582B08F
:103050000190009101983621C943084205D1FFE74C
:103060000198002801D0FFE704E088480C4901F0EE
:10307000C5FBFFE70098002808D0FFE70198274923
:103080000A6810431E4A1043086007E02349086895
:10309000019A90431A4A10430860FFE702B080BDCE
:1030A0008702000080B582B0019000910198C009AC
:1030B000002805D1FFE70198002801D0FFE704E0D0
:1030C00072480D4901F09AFBFFE70098002808D0EC
:1030D000FFE7019809490A681043094A104308604C
:1030E00007E006490868019A9043054A10430860C2
:1030F000FFE702B080BDC0469E020000384000409D
:1031000000005A5A80B50120C00200F00BF80349B4
:103110000868034A1043086080BDC0463040004044
:1031200002005A5A80B584B0029001A9564808801E
:1031300002980121C902884258D0FFE70298012174
:103140000903884252D0FFE702980321C90288424E
:103150004CD0FFE7029801214903884246D0FFE79F
:1031600002980521C902884240D0FFE70298032156
:10317000090388423AD0FFE702980721C902884232
:1031800034D0FFE702980121890388422ED0FFE75F
:1031900002980921C902884228D0FFE70298052138
:1031A0000903884222D0FFE702980B21C902884216
:1031B0001CD0FFE7029803214903884216D0FFE79D
:1031C00002980D21C902884210D0FFE7029807211A
:1031D000090388420AD0FFE702980F21C9028842FA
:1031E00004D0FFE70298002801D1FFE705E0274857
:1031F0008D21490001F002FBFFE702980121C9027D
:1032000088420DD1FFE7224800684007002806D118
:10321000FFE720490868204A10430860FFE7FFE7FE
:103220000298BB490988BC4A11400843B949086063
:103230001A4908681A4A10430860FFE7B548016850
:10324000002009040029009006D4FFE701A80088A7
:10325000411E88410090FFE70098C007002805D074
:10326000FFE70198401E01A90880E7E701A8008850
:10327000002803D1FFE70120039002E00020039023
:10328000FFE7039804B080BDFFFF0000664B00001D
:10329000004000400840004010005A5A04400040DE
:1032A00001005A5A7047000080B582B0002001909A
:1032B000FFE7019807281BD8FFE701980101244880
:1032C0004018C06800280ED0FFE70198010120488F
:1032D0000090405880470098019909014118C8683A
:1032E000401EC860FFE7FFE70198401C0190E0E73F
:1032F00002B080BD81B000200090FFE70098072851
:1033000023D8FFE7009801011148401840680028C1
:1033100008D0FFE7009801010D4841184868401E99
:1033200048600DE00098010109484218D168491C25
:10333000D1600099090141188868401E4860FFE784
:10334000FFE70098401C0090D8E701B07047C046E6
:103350000400002080B582B001AA00201070032074
:103360000121FDF7BFFE02B080BD80B584B003A986
:10337000087002A9012008700398487001A9002074
:103380000870FFE701A8007802280BD8FFE70120AA
:10339000022102AAFDF7A6FEFFE70198401C01A941
:1033A0000870EFE704B080BD80B584B0014603A883
:1033B00001804078002803D0FFE7FF20019003E060
:1033C00003A800780190FFE7019802AA107002207C
:1033D0000121FDF787FE04B080BD80B584B003AA4B
:1033E000029200201070012101910846FDF77AFE3B
:1033F0000199029A0846FDF775FE04B080BD85B0BC
:10340000024604A8027003910078C007002803D088
:10341000FFE70398019002E001200190FFE7019887
:1034200002900298002803D1FFE70120009002E0FB
:1034300002980090FFE7009805B0704780B582B011
:103440009148808B00281ED0FFE7E949888B401EF9
:1034500088839248008800280CD0FFE78E480188B6
:10346000E348808B48438D490988FDF77DF880B299
:10347000019002E000200190FFE70198DC4988817B
:1034800000F0EEFF15E0DA490020888100F0E8FF47
:1034900083480188491C01800088502808D3FFE731
:1034A000D3490620086001208884FEF789FAFFE7E7
:1034B000FFE702B080BDC0460348026803490868C0
:1034C000801808607047C0468C0000201C03002054
:1034D00001490248086070478400002000093D004F
:1034E00080B50B4802880B4908680B4B1A400B4B00
:1034F0001840801808600A4802880A4908680A4B80
:103500001A400A4B184080180860FFF7E1FF80BDA1
:10351000C007100018400040FF07000000F8FFFF40
:10352000C207100020400040FF03000000FCFFFF26
:1035300080B500F065F980BD80B500F0DDF880BD94
:1035400080B5FDF703FCFEF781FF80BD80B5FEF777
:10355000D5F980BD80B500F003FF80BD80B500F0D7
:103560008BF980BD7047704780B584B0BF48016952
:103570000391406801281BD1FFE7BC48006804287C
:1035800005D0FFE7B9480068052811D1FFE7039887
:10359000002803D1FFE70020029006E003983B30AB
:1035A0003C21FCF7E1FF0290FFE70298039005E061
:1035B00003983C21FCF7D8FF0390FFE703986428A9
:1035C00003D3FFE76320019003E003A80088019084
:1035D000FFE7019880B204B080BDC0463248007851
:1035E000012108407047C04681B031480078C007CB
:1035F000002807D0FFE72E49002008706946012007
:10360000087003E0694600200870FFE7684600780C
:1036100001B0704780B582B0DF490020019008609A
:1036200022230122CA542622885488848883174979
:103630000880DA490870D7490880D5490870D84908
:103640000870D9490870D7490870D8490870894965
:10365000087087490870684908800D4908700D494D
:1036600008600D4908800D4908800D4908800D4902
:103670000870FEF7EFFA01980B4908700B490870C3
:103680000B49087002B080BDFC00002050010020F2
:103690006C0100204C0100207C0100207A010020F8
:1036A0007E010020740100206601002067010020D7
:1036B0008001002083B0B6480178002000290290E4
:1036C00014D0FFE7B34801880020002902900DD1F3
:1036D000FFE7B248017801200022009216290190EC
:1036E00001DC0098019001980290FFE70298012107
:1036F000084003B07047C04680B582B0A648807FBE
:1037000000280BD0FFE7A449887F401E8877000679
:10371000002803D1FFE700F0A3FEFFE79E48006802
:10372000062810D1FFE735480068062803D0FFE7D8
:10373000FEF740FBFFE7314906200860FEF73EFB3D
:10374000FEF7BCFA51E0944801682A4A116000680B
:1037500000280AD0FFE790480068012805D0FFE75D
:103760008D480068022803D1FFE7FEF7B5F9FFE7AF
:1037700089480068042805D0FFE7874800680528C5
:1037800014D1FFE71C4A1088411C88B211803228EE
:103790000BD3FFE71849002008807F490620086006
:1037A00001208884FEF70CF9FFE703E012490020AE
:1037B0000880FFE7784800680190032808D0FFE7F9
:1037C0000198042807D0FFE70198052806D008E0F3
:1037D000FEF7E8F906E0FFF78DFB03E0FFF72EFEAA
:1037E00000E0FFE7FEF76AFAFFE702B080BDC046DF
:1037F000FC000020C40000206A010020C00000205E
:1038000080B565480068002801D1FFE72DE0184821
:103810000078002806D0FFE71549002008701549F8
:1038200008700BE01348007840087C2805D8FFE7B3
:1038300010490878401C0870FFE7FFE70D48007842
:10384000062812D3FFE7FFF735FF00280DD0FFE76A
:1038500051480068062808D0FFE7FE4906200860A6
:1038600001208884FEF7ACF8FFE780BDFC00002053
:10387000820100208101002080B582B04448007898
:1038800000280DD1FFE742480178491C01700078FB
:10389000012804D1FFE73F4902200880FFE7FFE746
:1038A000EC480068062804D1FFE73D490220087073
:1038B0006CE0E8480068002801D1FFE766E037487F
:1038C0000078162806DCFFE731480078002801D090
:1038D000FFE75BE0324800780190002804D0FFE762
:1038E000019801280BD050E02F49002008702D4985
:1038F0000870FFF72FFD2A490120087046E029498A
:103900000878401C087028480078002808D0FFE795
:10391000254900200870254908702149087033E0C6
:10392000FFF718FD1F48007802282CD3FFE71D4938
:10393000002008701D4A1078411CC8B211700B2875
:103940001CD3FFE7C3480068042805D0FFE7C1483F
:10395000006805280BD1FFE7BE490620086001205A
:103960008884FEF72DF80E490220087005E00F4903
:10397000002008700A490870FFE703E008490020AA
:103980000870FFE7FFE7FFE700E0FFE702B080BD58
:103990006401002062010020FC000020650100207D
:1039A0006F010020700100206D0100206E010020D9
:1039B00080B58AB008AA107007A8017000780228A4
:1039C00004D1FFE709A9002008703EE1FFF706FED9
:1039D000002827D0FFE707A8007800281ED1FFE7BE
:1039E00008A80078032805D0FFE708A80078042875
:1039F00014D1FFE79B490020069008709A490120E6
:103A000005900870FEF726F9059A069891490A6014
:103A10008883FEF753F900F0A3FCFFE709A9012012
:103A2000087012E108A80078042805D0FFE708A86C
:103A30000078032809D1FFE707A80078012804D1FE
:103A4000FFE709A900200870FFE08248006800280D
:103A500004D1FFE709A901200870F6E07D4800685D
:103A6000401E0490042800D9E8E00498810001A0D9
:103A700040588746893A0000EF3A0000AD3B00000D
:103A8000C93B0000353C000008A80078012805D09B
:103A9000FFE708A80078022804D1FFE709A9002061
:103AA0000870D2E008A8007803280FD1FFE7FFF7DD
:103AB00001FE002804D1FFE709A901200870C4E035
:103AC0006449032008601E2088830FE008A800785E
:103AD00004280AD1FFE75F490220086001208860BE
:103AE0004860E120C0000861FFE7FFE7A7E008A801
:103AF0000078042826D1FFE756488068012809D1BC
:103B0000FFE754490020086102208860486054485B
:103B1000486116E04F488068022809D1FFE74D4907
:103B2000002048610320886048604C48886107E0B5
:103B3000FEF790F847490120086000208883FFE7DE
:103B4000FFE732E008A80078012805D0FFE708A8C1
:103B50000078022813D1FFE708A80178029100201D
:103B6000C0430129039001D102980390039807A94B
:103B70000978491E4A425141FCF7FEFD14E008A8AD
:103B8000007803280FD1FFE7FFF794FD002804D148
:103B9000FFE709A90120087057E02E4903200860BB
:103BA0001E208883FFE7FFE7FFE748E008A80078CA
:103BB000032808D1FFE7FEF74DF8264901200860E9
:103BC00000208883FFE73AE008A80078042804D1A1
:103BD000FFE709A90020087037E008A8007803284B
:103BE00006D1FFE7FEF7B2F81B490120087020E07C
:103BF00008A80078012805D0FFE708A80078022867
:103C000016D1FFE7134900208860088408A90978C5
:103C10000091C0430129019001D1009801900198C1
:103C200007A90978491E4A425141FCF7A5FDFFE763
:103C3000FFE704E009A90020087006E0FFE700F0B4
:103C40000FFC09A901200870FFE709A800780AB055
:103C500080BDC046FC000020800100200050C3470A
:103C600000409C45660100206701002080B582B0BD
:103C70008848042100F090F800280DD0FFE785481F
:103C8000019000F0F9FA01460448FCF733FF01986F
:103C9000042100F01FF8FFE702B080BD04020020FD
:103CA00080B582B07C48042100F076F800280DD061
:103CB000FFE77948019000F0DFFA01460448FCF77D
:103CC00019FF0198042100F005F8FFE702B080BD5C
:103CD0001003002080B582B00190684601800198F1
:103CE0006C49884205D0FFE701986B49884201D1B1
:103CF000FFE705E06948BB21490000F07FFDFFE7D1
:103D0000684600880B49084206D1FFE768460088EC
:103D1000002801D0FFE705E06048FF21783100F07E
:103D20006DFDFFE7684602880199086A90430862C2
:103D300002B080BDA1F1000080B582B0019068465C
:103D4000018001985349884205D0FFE70198524904
:103D5000884201D1FFE705E050486521890000F065
:103D60004DFDFFE70020002806D1FFE768460088E8
:103D7000002801D0FFE705E04848FF21963100F018
:103D80003DFDFFE70198C069694609880840411E6A
:103D9000884102B080BDC04680B582B001906846BF
:103DA000018001983B49884205D0FFE701983A49D4
:103DB000884201D1FFE705E03848AD21490000F015
:103DC0001DFDFFE7684600883549084206D1FFE738
:103DD00068460088002801D0FFE705E02F48FF2152
:103DE0005C3100F00BFDFFE70198C0696946098866
:103DF0000840411E884102B080BDC04680B584B0F5
:103E0000039002A80180019203982249884205D0BC
:103E1000FFE703982049884201D1FFE705E01F48EA
:103E2000FF21363100F0EAFCFFE702A800881C49B8
:103E3000084206D1FFE702A80088002801D0FFE76A
:103E400005E016489B21490000F0D8FCFFE70198E7
:103E5000002804D0FFE70198012801D1FFE705E021
:103E60000E48FF21383100F0C9FCFFE70198002817
:103E700007D0FFE702A8028803998868104388608A
:103E800006E0029A03998868904380B28860FFE751
:103E900004B080BD000C004000100040E74B000063
:103EA000A0F1000080B590B00F900E910DA90020F8
:103EB00008800CA908800B900F98FB49884205D018
:103EC000FFE70F98F949884201D1FFE704E0F8487D
:103ED000892100F093FCFFE70E980068002807D0C6
:103EE000FFE70E980068DC49884201D8FFE704E04C
:103EF000EF488A2100F082FCFFE70E9880880028B6
:103F000015D0FFE70E9880880121490288420ED023
:103F1000FFE70E98808801218902884207D0FFE7D9
:103F20000E98808803214902884201D1FFE704E00E
:103F3000F5488B2100F062FCFFE70E98C08800284E
:103F40000ED0FFE70E98C08801214903884207D0B0
:103F5000FFE70E98C08803210903884201D1FFE7DB
:103F600004E0E9488C2100F049FCFFE70E988068E6
:103F7000002807D0FFE70E988068B849884201D82A
:103F8000FFE704E0E0488D2100F038FCFFE70E98E1
:103F90008089002807D0FFE70E9880890121090257
:103FA000884201D1FFE704E0D7488E2100F026FCCB
:103FB000FFE70E98C08900280AD0FFE70E98C08955
:103FC000202805D0FFE70E98C089102801D1FFE70F
:103FD00004E0CD488F2100F011FCFFE70E98008A25
:103FE00000280FD0FFE70E98008A08280AD0FFE7C4
:103FF0000E98008A0C2805D0FFE70E98008A042846
:1040000001D1FFE704E0C048902100F0F7FBFFE793
:104010000E98408A8008002806D1FFE70E98408A53
:10402000002801D0FFE704E0B748912100F0E6FB4B
:10403000FFE70E98808A00280FD0FFE70E98808A4D
:1040400008280AD0FFE70E98808A042805D0FFE7E9
:104050000E98808A0C2801D1FFE704E0AA4892213B
:1040600000F0CCFBFFE70F980A90A549884205D0E5
:10407000FFE70A98A349884208D00FE0784908680A
:104080007A4A1043784A1040086008E0744908688A
:10409000744A1043744A1040086000E0FFE70F982C
:1040A0000068734908400E9AD18893881943938910
:1040B0001943D3891943138A1943528A1143084378
:1040C0000F9908600F9840680C2188430E99898ADF
:1040D00008430F9948600E98008A002806D0FFE731
:1040E0000F99086840221043086005E00F9908689E
:1040F000402290430860FFE70E988088002838D15E
:10410000FFE70E9806908068FCF7C1F90146069813
:10411000079100680001FCF7BAF901460798FCF71F
:1041200083F80B900B98FCF7B9F901460DA809909C
:1041300001800B9908910088FCF79EF901460898C8
:10414000FCF72DF88321C905FCF731F8FCF7F8F9E5
:104150000022484BFCF7A6F8FCF7CEF90999024675
:104160000CA8028009880F9AD16000880F99086115
:104170006FE00E9880880121490288421FD1FFE735
:104180000E9804908068FCF782F901460498059126
:104190000068C000FCF77BF901460598FCF744F87D
:1041A000FCF7CEF90022334BFCF77CF8FCF7A4F9BE
:1041B00001460DA8018000880F99C86048E00E985C
:1041C00080880121890288421FD1FFE70E98029062
:1041D0008068FCF75CF90146029803910068800052
:1041E000FCF755F901460398FCF71EF8FCF7A8F90F
:1041F0000022204BFCF756F8FCF77EF901460DA88B
:10420000018000880F99C86021E00E9800908068B6
:10421000FCF73DF98721C905FBF7C9FF0146009866
:1042200001910068FCF733F901460198FBF7FCFFA8
:10423000FCF786F900220F4BFCF734F8FCF75CF929
:1042400001460DA8018000880F99C860FFE7FFE7CD
:10425000FFE710B080BDC046001BB700006CDC0259
:104260003840004010005A5AFFFF5A5A08005A5A64
:10427000C8C8FFFF0000E03F80B582B00190019800
:104280001F49884205D0FFE701981E49884201D1A5
:10429000FFE704E01C48762100F0B0FAFFE7019840
:1042A000406AC0B202B080BD000C00400010004067
:1042B000E74B000080B582B001906846017001981C
:1042C0000F49884205D0FFE701980E49884201D185
:1042D000FFE704E00C48452100F090FAFFE768464C
:1042E0000078FF2801DCFFE704E00748462100F0E2
:1042F00085FAFFE7684600780199886202B080BDC0
:10430000000C004000100040E74B000081B06946FF
:1043100000200870FFE7684600780B2814DCFFE7F0
:1043200069460B78E64A0020D0540B78964AD05460
:104330000B78494AD0540A7848498854FFE70098D6
:10434000401C69460870E6E7DE490120087001B0AC
:104350007047C04680B5FEF765F9FFF7D7FF80BD0F
:1043600080B586B039490888401C088080B27349FE
:10437000098888420CDBFFE7344900200880344A72
:1043800013780120014699431170CE490870FFE768
:10439000CC480078C007002801D1FFE754E005A908
:1043A00000200870FFE705A800780B2846DCFFE72F
:1043B00005A802782749895C04AA11700178C048D1
:1043C000405C03A9087022480078C007002809D182
:1043D000FFE705A801786C48415C0398884303A96E
:1043E0000870FFE703A80190007800F00DFB019929
:1043F000087005A801781848405C02A908701448A4
:104400000078C007002809D1FFE705A80178134804
:10441000415C0298884302A90870FFE7029903985B
:10442000084303A9087004A800780978FEF754F936
:10443000FFE70598401C05A90870B4E7FEF700F9EE
:10444000A04900200870FFE706B080BDCA00002028
:10445000C8000020F64A0000D8000020E400002038
:10446000984901200870704710B584B0034603A82E
:10447000037002AB1970019200780B2805DCFFE78E
:1044800002A80078082801DBFFE73CE002A80178D9
:104490000120884069460870019801280ED1FFE785
:1044A000009C03A80378864AD15C2143D154009B29
:1044B00002783549885C9843885420E001980028A8
:1044C0000ED1FFE7009C03A803787D4AD15CA1438D
:1044D000D154009B02782C49885C984388540DE0A5
:1044E000009C03A80378764AD15C2143D154009BF9
:1044F00002782549885C18438854FFE7FFE7714933
:1045000001200870FFE704B010BDC04680B582B03E
:10451000014601A801800088632803DCFFE7012031
:10452000009006E001A800886421FCF71DF80090C7
:10453000FFE700980149088002B080BD8800002094
:1045400082B0024601A802706A46117000780C28F9
:1045500001DBFFE715E068460078C007002806D0B9
:10456000FFE701A802780849FF20885405E001A868
:104570000278054900208854FFE75249012008705D
:10458000FFE702B07047C046CC00002010B58CB0E9
:104590000E9C0BAC20700AA8018009A8027008A824
:1045A00003700A9807A9088006A900200870FFE791
:1045B00006A8007809A90978884261DAFFE70B9913
:1045C0000998069A801A4018411E05A801700078C3
:1045D0000C2801DBFFE74EE007A800880A21FBF763
:1045E000C3FF0846FDF750FB04A9087008A800782F
:1045F00006A90978491C884208D1FFE704A803905E
:104600000078FDF737FB03990870FFE70E98012843
:1046100022D1FFE707A8008800281DD1FFE706A8E0
:104620000078012818DBFFE706A80078029008A8A8
:104630000078002804D0FFE708A80078019002E085
:1046400001200190FFE702980199884204DBFFE70F
:1046500004A900200870FFE705A8007804A90978DC
:1046600000F010F807A8009000880A21FBF77CFFF3
:1046700000990880FFE70698401C06A9087097E794
:104680000CB010BD82B0024601A802706A461170DB
:1046900000780B2812DCFFE701A801780848405C8D
:1046A00069460978884209D0FFE7009801A90A788D
:1046B00003498854034901200870FFE702B070479E
:1046C000F00000208A00002070477047704700000B
:1046D00081B000900098002808D4FFE700991F20BF
:1046E0000140012088400A490860FFE701B0704797
:1046F00081B000900098002808D4FFE700991F209F
:1047000001400120884002490860FFE701B070477E
:1047100000E100E070B582B001900091019800289E
:1047200014D4FFE701980321CB431840324A805844
:1047300001998C07E50EFF24AC40A043009CA40126
:10474000E4B2AC4020431940885018E001980F248F
:10475000204008380321CB431840264A805801994D
:104760008D07EE0EFF25B540A843009DAD01EDB2CB
:10477000B54028432140083919408850FFE702B06E
:1047800070BDC04670B582B00190009101980028BC
:1047900014D4FFE701980321CB431840164A8058F0
:1047A00001998C07E50EFF24AC40A043009CA401B6
:1047B000E4B2AC4020431940885018E001980F241F
:1047C000204008380321CB4318400A4A80580199F9
:1047D0008D07EE0EFF25B540A843009DAD01EDB25B
:1047E000B54028432140083919408850FFE702B0FE
:1047F00070BDC0461CED00E000E400E082B0019016
:10480000009102B0704780B582B000200190FEF7A1
:1048100079FCFCF7B7FDFCF701FEFCF7C5FCFDF7E2
:1048200001FFFEF779F8FDF7C1F8FFF793FDFEF7FA
:10483000F1FEFFE7FEF738FDFCE780B582B001A985
:104840000091087000F054F80098007800F024F807
:1048500000F056F802B080BD80B584B0002003900F
:10486000029001900A4908680A4A1043086018201B
:104870000190202002900920C00601A9FDF762FBEB
:104880002449102008600820086004B080BDC0469C
:104890003040004010005A5A82B001A908706946A1
:1048A00000200870FFE76846007807281EDCFFE755
:1048B00017491020086001A80078C007002804D01C
:1048C000FFE714490820086003E011490820086048
:1048D000FFE701A90878400808700E491020086019
:1048E000FFE70098401C69460870DCE702B070479B
:1048F000084A0820106010211160054908607047BF
:10490000034908200860034910220A6008607047C4
:10491000580000485C00004882B0014601A80170C0
:104920006A46002111700078C007002806D0FFE712
:1049300000980121084369460870FFE701A8007844
:104940008007002806D5FFE7009802210843694642
:104950000870FFE701A800784007002806D5FFE7A8
:1049600000980421084369460870FFE701A8007811
:104970000007002806D5FFE700980821084369468C
:104980000870FFE701A80078C006002806D5FFE7F9
:1049900000981021084369460870FFE701A80078D5
:1049A0008006002806D5FFE70098202108436946C5
:1049B0000870FFE701A800784006002806D5FFE749
:1049C00000984021084369460870FFE76846007870
:1049D00002B0704780B582B0FDF7C0FF002801D15A
:1049E000FFE70DE0074800880190FDF791FF0146C1
:1049F0000198884204D0FFE7024900200873FFE7CE
:104A000002B080BD3C01002080B586B0014605A8FB
:104A1000017000787F210840FFF77EFF04A908702D
:104A200003A90020087002A90870FFE702A8007817
:104A3000072822D8FFE702A801781848415C01A89E
:104A400001700078062812D8FFE704A8007801A9B1
:104A50000978C840C007002809D0FFE702A80078FD
:104A6000012181400398084303A90870FFE7FFE78D
:104A70000298401C02A90870D8E705A80078000633
:104A8000002806D5FFE703980221084303A9087010
:104A9000FFE703A8007806B080BDC046024B0000C7
:104AA0002021020C01D010211046020A01D010462C
:104AB0000839020901D01046091F820801D01046AA
:104AC000891E420801D0881E7047081A704702E00C
:104AD00008C8121F08C1002AFAD170477047002089
:104AE00001E001C1121F002AFBD170473F065B4F56
:104AF000666D7D077F6F07080905060A0E0D040F16
:104B00000C0B03080206050400010101000001016D
:104B100000000C0164000D01BB000E0128000F0114
:104B20001E002301F0001C0102001D0114001E01E3
:104B300001001F010300100100001101010012011A
:104B40000200130102001401020015010200160107
:104B500002001701020018010200190102001A01E7
:104B600002001B0102002E2E2F2E2E2F2E2E2F2E56
:104B70002E2F4C69627261726965732F7372632F95
:104B8000637733326C3031305F7379736374726C76
:104B90002E63002E2E2F2E2E2F2E2E2F2E2E2F4C0C
:104BA00069627261726965732F7372632F63773301
:104BB000326C3031305F6274696D2E63002E2E2F9F
:104BC0002E2E2F2E2E2F2E2E2F4C6962726172697F
:104BD00065732F7372632F637733326C3031305FBC
:104BE0006774696D2E63002E2E2F2E2E2F2E2E2FE2
:104BF0002E2E2F4C69627261726965732F73726316
:104C00002F637733326C3031305F756172742E638D
:104C100000000000384C0000000000209000000060
:104C2000CE4A0000C84C0000900000209006000012
:104C3000DE4A000000000000010000004D350000C9
:104C400000000000010000000000000041350000ED
:104C5000030000000A0000000000000055350000BD
:104C600007000000140000000000000039350000BB
:104C70000D00000064000000000000005D35000031
:104C800015000000FA00000000000000653500007B
:104C9000250000002C010000000000006735000026
:104CA0002B000000F401000000000000313500007E
:104CB0003B000000E80300000000000000093D0088
:084CC0000A00018A0100000056
:04000005000000C136
:00000001FF
