:020000040800F2
:10000000501B00205D010008450B00083D0B000857
:10001000410B0008C5060008BD34000800000000C0
:10002000000000000000000000000000490B000874
:100030007508000800000000730100084D0B00085F
:1000400077010008770100087701000877010008B0
:1000500077010008770100087701000877010008A0
:10006000770100087701000877010008C906000839
:1000700077010008770100081107000877010008E0
:10008000770100087701000877010008DD04000807
:100090007701000877010008770100087701000860
:1000A00077010008D90E00087701000877010008E1
:1000B0007701000877010008770100087701000840
:1000C0007701000877010008770100087701000830
:1000D00077010008BD30000877010008A53100084D
:1000E0007908000877010008770100087701000807
:1000F0007701000877010008770100087701000800
:1001000077010008770100087701000877010008EF
:1001100077010008770100087701000877010008DF
:1001200077010008770100087701000877010008CF
:1001300077010008770100087701000877010008BF
:100140007701000877010008DFF80CD000F018F8FC
:1001500000480047C1340008501B00200648804773
:1001600006480047FEE7FEE7FEE7FEE7FEE7FEE79C
:10017000FEE7FEE7FEE7FEE7A10C000849010008E4
:10018000064C074D06E0E06840F0010394E80700E4
:1001900098471034AC42F6D3FFF7DAFF64650008E5
:1001A000846500082DE9FE4F804681EA0300C00FF8
:1001B0000C46009021F0004123F00045B8EB02000E
:1001C000A94105D24046214690461C460B460246B0
:1001D00023F00040104347D0270DC7F30A00C3F3B4
:1001E0000A510290401A019040286BDAC3F31300C1
:1001F00040F4801B0098924620B10023D2EB030A02
:1002000063EB0B0B01985946C0F14002504600F0D9
:100210009FF806460D4650465946019A00F0A7F849
:1002200010EB08006141002487EA115284EAE77369
:100230001A4340D0009A62B3019A012A4FEA07524A
:1002400015DC001B61EB02014FF0004202EA07528D
:10025000CDE90042001C41F5801132462B4600F0EA
:10026000DEF803B0BDE8F08F40462146F9E7001BF9
:1002700061EB0201001C41F5801300185B4120185E
:10028000A2F5001747EB030140EAD570B6196D419E
:1002900011E06D084FEA360645EAC0754FEA07528D
:1002A000001B61EB0201001C41F5801149084FEA77
:1002B00030000019514132462B4603B0BDE8F04FE3
:1002C00000F09EB80098012240000023D0EB02020B
:1002D00063EBE073009821464FEAE074B8EB00004E
:1002E00061EB0401E9E783F000435BE781F0004143
:1002F00058E700F0004230F000400AD0C10D01F58F
:100300006071C0F3160042EA0151C2084007114370
:10031000704700200146704701F0004330B421F0DF
:10032000004150EA010206D00A0DA2F56072C1F345
:100330001301002A02DC30BC00207047440F44EA5D
:10034000C104C100E01830BC00EBC25000F021B87D
:10035000202A04DB203A00FA02F100207047914085
:10036000C2F1200320FA03F3194390407047202A7A
:1003700006DBCB17203A41FA02F043EAE07306E0CD
:1003800041FA02F3D040C2F12002914008431946DD
:1003900070470029A8BF7047401C490008BF20F0E3
:1003A0000100704710B4B0FA80FC00FA0CF050EA7B
:1003B000010404BF10BC704749B1CCF1200421FAFC
:1003C00004F411FA0CF118BF012121430843A3EBF7
:1003D0000C01CB1D4FEA00614FEA102042BF002004
:1003E00010BC704700EBC35010440029A4BF10BCE0
:1003F0007047401C490008BF20F0010010BC704746
:1004000010B5141E73F1000408DA401C41F100011C
:1004100092185B411A4301D120F0010010BD2DE973
:10042000F04D92469B4611B1B1FA81F202E0B0FA6A
:1004300080F220329046FFF78BFF04460F4640EAD9
:100440000A0041EA0B0153465A46084313D01146AD
:1004500053EA010019D0C8F14002504600F02DF8CF
:1004600005460E46504659464246FFF771FF08437F
:1004700005D0012004E020463946BDE8F08D00207B
:10048000054346EAE0762C4337430A986305E40ABD
:10049000A0EB08000022FD0A44EA47540A3002D5C6
:1004A00000200146E9E7010510196941DDE9084529
:1004B00000196941BDE8F04DA2E7202A04DB203A8B
:1004C00021FA02F00021704721FA02F3D040C2F174
:1004D00020029140084319467047000010B581B0D2
:1004E00040F2B242C2F20002D07940F6000C40F273
:1004F000185EC4F2020CC007C2F2000E41D090791F
:1005000001309071907902283BD100209071D1790F
:1005100040F2BA4401F0FE01D1710090CDF800C064
:100520000099C2F200043C31009100990968BEF8BC
:100530000030C91AD37824F813100090CDF800C009
:10054000009940F2C644403100910099C2F2000483
:100550000968BEF80230C91AD37824F81310009045
:10056000CDF800C000984430009000980068BEF8B4
:100570000410401AD17840F2D242C2F2000222F8AE
:10058000110000220092CDF800C000983C3000908D
:1005900000980168AEF806100092CDF800C00098EF
:1005A0004030009000980068AEF808000092CDF846
:1005B00000C0009B44330093009B1B68AEF80A30D8
:1005C0000092CDF800C0009A48320092009A12685A
:1005D000AEF80C2040F26C52C2F20002148844F0D3
:1005E00004041480148804F47074802C64D1BEF860
:1005F000004089B2091B00EE101A40F2EC31C2F241
:10060000000191ED001AB8EEC00A21EE000AB0EE2A
:10061000C01AB7EE080AB4EE401AF1EE10FA25DA65
:10062000BEF8024080B2001B01EE100A91ED012AD3
:10063000B8EEC11A22EE011AB0EEC11AB4EE401A99
:10064000F1EE10FA12DABEF804009BB2181A01EEAD
:10065000100A91ED022AB8EEC11A22EE011AB0EE8C
:10066000C11AB4EE401AF1EE10FA25DB42F6204032
:10067000C4F20100016840F25553994301604FF400
:10068000FA6181830183818240F62800C4F201006F
:100690004FF480510160108820F010001080108805
:1006A00020F47070C030108040F2BC20C2F2000014
:1006B000417841F0020141707B20CCF8000001B08C
:1006C00010BD0000FEE700000820C4F2020050F850
:1006D000081C890758BF704740F2386340F27A5CC3
:1006E000C2F20003C2F2000C19789CF8002041F01D
:1006F000010142F00102197002218CF8002040F83B
:10070000041C01684FF6FE72114001607047000042
:100710004420C4F2020050F8441C890458BF7047BA
:1007200040F28451C2F200010A7842F001020A70DC
:100730004FF4005140F8401C01684FF6FE72114022
:10074000016070472DE9F0475722C4F2020290423F
:100750000BDC2F22C4F20202904212DC0822C4F207
:10076000020290421ED01C2218E07F22C4F2020234
:1007700090420DDC5822C4F20202904212D06C2248
:100780000CE03022C4F2020290420BD0442205E079
:100790008022C4F20202904204D09422C4F20202E7
:1007A000904253D18B6843F01002102A4AD1CA6894
:1007B0004FF6FF76571EB74246D2D1F810C04CF024
:1007C0004007402F44D1D1F814E04EF08004802C33
:1007D00040D18C69002C18BFB4F5807F41D1CD6920
:1007E000002D18BFB5F5806F3FD10E6A46F0200787
:1007F000202F31D1D1F824904FEA3937042F2DD250
:10080000D1F8288048F48047B7F5804F28D1D0F838
:1008100000A047F6F0772AEA07073B43334343EA51
:100820000C0343EA0E0323432B4343EA090343EA41
:10083000080303604260D1E900218260C160BDE825
:10084000F08700BFFEE700BFFEE700BFFEE700BF86
:10085000FEE700BFFEE700BFFEE700BFFEE700BF08
:10086000FEE7B4F5007FBAD0FEE7B5F5006FBCD067
:10087000FEE700007047000040F21440C4F201009F
:1008800050F8141C0268D2043AD511F4805108BF04
:1008900070474FF4805140F26C5CC0F81414C2F2FF
:1008A000000CBCF8002040F2555122F01002ACF8C8
:1008B000002042F62042C4F20102136823EA01013B
:1008C00011604FF4FA61918311839182BCF800109A
:1008D00001F47071802908D140F2BC21C2F20001FC
:1008E0004A7842F002024A7007E040F2BC21C2F2AC
:1008F00000010A7842F010020A704FF48051016042
:10090000704700002DE9F04F84B0A0F18042A2F5BD
:1009100084324FEAB222042A12D28A684FF6FF7359
:10092000C1F210038E469A420BDC122A50D80123E2
:100930000F279340C0F206073B4225D148E000BF95
:10094000FEE74FF6FF73C1F221039A420DDC00234C
:10095000C1F211039A4217D00023C1F212039A4246
:1009600012D00023C1F221030CE00023C1F22203C4
:100970009A4209D00023C1F231039A4204D00023E5
:10098000C1F232039A4223D1BEF800C0BCF1000F7D
:1009900018D09EF80460032E16D29EF80340022C55
:1009A00014D200F11801009100F1280102910027F2
:1009B00004F001014FF000084FF0010B0191039684
:1009C00012E000BFFEE700BFFEE700BFFEE700BF8A
:1009D000FEE700BF3CFA0BF10BF1010B08F1040834
:1009E00007F1020700F0A780ABF10109012101FA2C
:1009F00009FA1AEA0C0FEDD0122A20D8012101FAC7
:100A000002F40D21C0F204010C4218D0DEF80C50A3
:100A10000C2D80F0898071465FEA097E4FF0240634
:100A200008F01C048E4658BF202683590F21A14090
:100A300023EA010105FA04F319438151039E016879
:100A4000032402F00F0304FA07F5A943BB4019433E
:100A50000160C16806F00303A943BB401943032AA0
:100A6000C16018BF12F0030112D09EF80240112C91
:100A700060D80121A14011F0031F5BD0C36AE94394
:100A800004F00306194006FA07F3039E1943C162F6
:100A90008168019B21EA0A0103FA09F31943816085
:100AA000029C022E02D0012E04D1009C216841EA52
:100AB0000A012160122A6FEA0A050CD8012191402F
:100AC00011F0061F1FBF41682940130903FA09F3FB
:100AD0001CBF19434160D1007FF57CAF40F2004458
:100AE000C4F201042168D60341EA0A0358BF01EAAF
:100AF000050323606168960341EA0A0358BF01EACF
:100B000005036360A168D60241EA0A0358BF01EAFF
:100B10000503A360E1689602039E41EA0A0358BFF9
:100B200001EA0503E36055E70F2D3FF474AF00BF02
:100B3000FEE700BFFEE704B0BDE8F08FFEE700006F
:100B4000FEE700007047000070470000B0B540F2BB
:100B5000080C0020C2F2000C4FF0010E002300E050
:100B600030330CEB03014A89012A1BD13CF80320E6
:100B70000C89013295B2A5422CF8032016D3CA88FD
:100B80004C888D8814434C805400A4B20EFA05F5AD
:100B9000AC424FF001042CF80300B8BF5400CC80E5
:100BA00004E000BF4CF80300A1F806E0CA8A012A5D
:100BB00018D18A898C8A013295B2A5428A8115D3CF
:100BC0004A8ACC890D8A1443CC815400A4B20EFA0F
:100BD00005F5AC424FF001048881B8BF54004C8247
:100BE00004E000BF8881C881A1F812E0602B41D0E9
:100BF0004A8C012A18D10A8B0C8C013295B2A5427D
:100C00000A8315D3CA8B4C8B8D8B14434C835400B1
:100C1000A4B20EFA05F5AC424FF001040883B8BF48
:100C20005400CC8304E000BF08834883A1F81EE091
:100C3000CA8D012A18D18A8C8C8D013295B2A542B9
:100C40008A848DD34A8DCC8C0D8D1443CC84540072
:100C5000A4B20EFA05F5AC424FF001048884B8BF87
:100C600054004C857CE700BF8884C884A1F82AE042
:100C7000303376E740F60800C4F20200016840F223
:100C8000185241F48001016040F28000C2F200007D
:100C90000188C2F2000211824088D081B0BD0000FC
:100CA00010B54EF6885CCEF2000CDCF8000041F284
:100CB000040140F47000C4F20201CCF80000086A9C
:100CC0004CF2000240F0040008620868CFF6FF0210
:100CD0001040086051F8040C4FF6FF72CFF6F66230
:100CE000104041F8040C51F8040C4FF6FF7220F448
:100CF000802041F8040C0868C0F2007210400860BF
:100D000000204FF460528862CA620863C86348F2E8
:100D10000000C0F2BF404860886947F2100240F00E
:100D20008050C4F20002886152F8100C400541F670
:100D30002000C4F2000007D5036823F000730360AD
:100D4000036843F00073036042F2000EC4F2020E27
:100D5000DEF8003043F09003CEF80030DEF80030CB
:100D6000DB0505D5DEF8003023F40073CEF8003043
:100D700051F8043C43F0010341F8043C40F2FC43C9
:100D800051F8044CA4075CBF51F8044C5FEA84742A
:100D90000CD451F8044CA4075CBF51F8044C5FEA32
:100DA000847403D4002BA3F10403E9D151F8043C6B
:100DB0009B0740F18B80036823F000730360036896
:100DC00043F00073036052F8100C20F4C06042F846
:100DD000100C52F8100C40F4806042F8100C1068AF
:100DE000800709D51068800744BF10685FEA8070EB
:100DF00002D510688007F2D41068800709D4106803
:100E000080075CBF10685FEA807002D410688007BA
:100E1000F2D5DEF800004FF6FF7220F00300CEF8A6
:100E20000000DEF80000CFF2C07240F00100CEF802
:100E3000000008680860086840F40050086008680E
:100E400040F4A0600860086810400860C86B20F09B
:100E50000300C8630868CA6B40F4C01042F0010286
:100E60000860CA6351F8040C40F0807041F8040C2B
:100E700051F8040C80010CD451F8040C80015CBFC3
:100E800051F8040C5FEA801003D451F8040C80017F
:100E9000EED5086820F003000860086840F0030001
:100EA000086000BF086800F00C000C280ED008682D
:100EB00000F00C000C2809D0086800F00C000C2889
:100EC00004D0086800F00C000C28EBD14FF0006053
:100ED0004CF8800C10BD00002DE9F04F81B02DEDD5
:100EE000108B40F26C5AC2F2000ABAF8000040F2CD
:100EF000185640F2EC37C007C2F20006C2F20007F3
:100F000000F0E58040F22C20C2F200000178BAF82F
:100F1000002052075FD44A1CD3B2092B027058D864
:100F2000BAF80020520756D48A1CD3B2092B02709B
:100F30004FD8BAF8002052074DD4CA1CD3B2092B9F
:100F4000027046D8BAF80020520744D40A1DD3B222
:100F5000092B02703DD8BAF8002052073BD44A1D35
:100F6000D3B2092B027034D8BAF80020520732D419
:100F70008A1DD3B2092B02702BD8BAF80020520771
:100F800029D4CA1DD3B2092B027022D8BAF8002086
:100F9000520720D401F10802D3B2092B027018D8ED
:100FA000BAF80020520716D401F10902D3B2092B76
:100FB00002700ED8BAF8002052070CD401F10A02D0
:100FC000F629027005D3BAF80020520703D40B317A
:100FD000017000210170BAF800009FEDE95A20F07D
:100FE0000400AAF80000F08831889FEDEA6A401AF0
:100FF00040F29C01C2F20001086030897288801AB8
:1010000040F2A002C2F2000210607089B388C01AD8
:1010100040F2A403C2F20003186097ED000A91EDBC
:10102000001A97ED012A92ED003AB8EEC11A20EEAF
:10103000010AB8EEC31A22EE011A97ED022A93EDC7
:10104000003A96ED054A20EE060A24EE054A34EEF3
:10105000400A86ED050A96ED064A21EE061A24EEB0
:10106000054A34EE411A86ED061AB8EEC33A96EDFB
:10107000074A22EE032A24EE053A22EE062A33EE30
:10108000422ABEEE003A21EE034A34EE000A22EE76
:10109000033A9FEDC14A33EE000A40F2940020EE7D
:1010A000040AC2F2000086ED072A80ED000A9FEDD7
:1010B000BB0A9FEDBB3A22EE000A21EE031A40F272
:1010C000980031EE000AC2F2000080ED000AB089FB
:1010D00097ED031A00EE100AB8EE400A21EE000A5E
:1010E00086ED0A0A96ED082A9FEDAA1A9FEDA4CA7A
:1010F00022EE012A20EE0C3A33EE022A86ED082A6F
:1011000096ED092A9FEDA73A9FEDA7DA22EE032A72
:1011100020EE0D3A9FEDA54A33EE022A32EE043A54
:10112000B3EE044A83EE043AB7EE00AA40F2CC20B4
:10113000C2F2000086ED092A9FED9D9A40F2BC2480
:10114000C2F20004B4EE4A3AF1EE10FAA8BFB0EED3
:101150004A3A90ED072AB5EE403AF1EE10FAD8BFC0
:10116000B0EE493A22EE032A40F2443087ED082AD5
:10117000C2F2000097ED082A90ED003AB4EE432A3F
:10118000F1EE10FADCBF00683862F08997ED043A9E
:1011900002EE100AB8EE422A23EE022A86ED0C2A4D
:1011A00096ED0B3A22EE011A23EE0C3A31EE031AB9
:1011B00086ED0B1A96ED051A97ED202AB0EEC11AAE
:1011C000B4EE421A40F2F440F1EE10FAC2F200001E
:1011D00017DA96ED061A97ED202AB0EEC11AB4EE92
:1011E000421AF1EE10FA0CDA97ED202AB4EE421A08
:1011F000F1EE10FA05DA017800291CBF01390170FF
:1012000009E001780131CAB2282A017003D320789D
:1012100040F0200020702088002857D0BAF8001035
:1012200021F47071C031AAF80010BAF8001042F62B
:101230002049C1F383110A29C4F2010901F235865C
:10124000000ADFE811F00B005D009100D800F60005
:101250001A018D01DC01FA01AF027706D9F800000E
:1012600040F255518843C9F800004FF4FA60A9F8DC
:101270001C00A9F81800A9F81400BAF800008007AB
:1012800009D4BAF8000080075CBFBAF800005FEA32
:10129000007041F1B083BAF80000800644BFBAF88C
:1012A00000005FEA807041F1008640F21450C2F203
:1012B0000000418841F001014180BAF8000020F4AB
:1012C00070704030AAF8000001F0EFBD40F2BE217E
:1012D000C2F2000109880029A7D0BAF8001001F471
:1012E0007071B1F5107F99D140F21451C2F2000132
:1012F0004A88920799D44A8842F002024A8094E7C9
:1013000040F29041C2F200010A680023561C0E60B0
:1013100097ED211A40F28E47B4EE410AC2F200075F
:10132000F1EE10FA3A884FF0000CB8BF531C502E63
:101330003B8010D39AB2082AC1F800C031BF802088
:1013400040F002006070C020BAF8001021F4707103
:101350000843AAF80000BAF8000020F4707080304A
:10136000AAF8000001F0A1BD40F28440C2F20000E2
:101370000178072901F28E850FF20802D2E811F0F8
:10138000CDCCCC3D1A00680A780A880A980AA80AC7
:10139000B80AC80A6666663F9FAA2A3FEFC913BF0C
:1013A000EFC9133F77BE7F3F6F12833A00008CC3B3
:1013B0000000000040F28A41C2F200010A88002ABF
:1013C00001F0CC85013293B2502B0A800FD300225A
:1013D0000A80012101708188A9F81C104FF47A61FC
:1013E000A9F81810A9F814108188203981800121EA
:1013F000417001F04FBD40F61800C4F201004FF4F7
:1014000080510161BAF8000040F2555120F01000FF
:10141000AAF80000D9F800008843C9F800004FF48A
:10142000FA60A9F81C00A9F81800A9F8140001F046
:101430003CBD40F29040C2F2000001684FF480527F
:101440000131016040F61801C4F201010A60BAF8E6
:10145000001041F01001AAF8001001685029C1F0F5
:10146000248500210160BAF8000020F4707000F5B6
:10147000A070AAF8000001F018BDBAF80010C90762
:1014800059D1BAF80010090755D440F24022C2F2EF
:101490000002F188136840F24427C2F2000703EB10
:1014A000010C3389396840F2482EC2F2000EC2F8AE
:1014B00000C0CA187189DEF8003040F24C28C2F230
:1014C00000080B44B8F800103A6001318FB2B7F54C
:1014D000806FCEF80030A8F800102CD30021A8F8B7
:1014E00000104FEA9C213180910A7180990AC3F360
:1014F0008F2340F26A77BB42B18013D3C2F38F22AD
:10150000BA420FD3CCF38F2140F26A77B94209D3A4
:1015100040F69607B94205D8BA4203D840F697017B
:101520008B4202D340F010006070BAF8000040F027
:101530000100AAF80000BAF80000C00701F0B58465
:10154000BAF8000020F40050AAF80000BAF8000031
:1015500020F4707000F5C070AAF8000001F0A5BC7E
:10156000BAF80000800425D4D9F8001040F2555094
:101570008143C9F800104FF47A61A9F81C10A9F84A
:101580001810A9F8141040F29001C2F200010A8864
:10159000013293B2032B0A800CD300220A80D9F8BF
:1015A00000100843C9F80000BAF8000040F40050E9
:1015B000AAF8000040F29040C2F200000168013138
:1015C000A0290160C1F07184D9F8001040F2555291
:1015D0009143C9F800104FF4FA61A9F81C10A9F85A
:1015E0001810A9F8141000210160BAF8000020F4C6
:1015F000707000F5E070AAF8000001F056BC40F2EF
:101600001450C2F200004088C00701F04E84BAF8BE
:10161000000020F4707000F50070AAF8000040F29D
:10162000B240C2F20000C17941F00401C1714FF033
:101630007E503865786501F038BC40F2B240C2F2A5
:101640000000C179490700F19D85C079800741F10B
:101650002C8440F2BA40C2F2000097ED001AB0F9B3
:101660000010408802EE101A40F2C641C2F200019A
:10167000B1F90820498903EE102A40F2D242C2F2A1
:101680000002B2F90630B8EEC22A04EE103A21EE9A
:10169000422AB8EEC33AB8EEC44AB1EE410A21EE8E
:1016A000433A21EE444AB0EEC21A9288B4EE4C1A84
:1016B000B0EEC32AF1EE10FAB0EEC43A09DDB4EE92
:1016C0004C2AF1EE10FA04DDB4EE4C3AF1EE10FAC9
:1016D00003DC637843F00403637012B204EE102A53
:1016E000B8EEC44A20EE044AB0EEC44A09B233EE62
:1016F000443A04EE101AB8EEC44A20EE044AB0EEA2
:10170000C44A00B232EE442A04EE100AB8EEC44ACB
:1017100020EE040AB0EEC00A31EE400ABEEE001A16
:1017200022EE014A34EE000A23EE011A1FEDE64ACA
:1017300031EE000A60EE040A1FEDE80A1FEDE81A18
:1017400023EE000A22EE011A31EE000A04F0C0F97D
:1017500040F23420C2F2000080ED000A6078BAF84E
:101760000010400721F470704CBF40F0C00040F4FE
:101770001070AAF8000001F098BB00BFD0B35D3F25
:101780000000C8420000C8C20AD7233CB0AA2A3FC2
:10179000BF7D5D3F6F120339DB0FC940DB0FC9C04E
:1017A0000000FA4340F2BC3840F2E030C2F20008D8
:1017B000C2F2000098ED000A90ED001AB5EE00BAF2
:1017C00030EE410A40F2C43120EE0B0AC2F20001B1
:1017D00031EE001A91ED000A40F2E431C2F200014C
:1017E00091ED002A80ED001A30EE420A40F2F04BF3
:1017F00040F23C2020EE0B0AC2F2000BC2F20000C5
:1018000032EE002A9BED008A90ED000A21EE083AA4
:1018100022EE004A40F2D03034EE033AC2F2000029
:1018200081ED002A80ED003A21EE001A22EE082A0E
:1018300040F2CC3031EE422AC2F200001FED314AB4
:1018400080ED002A40F2D430BEEE001AC2F2000051
:1018500022EE015A23EE043A1FED376A80ED002A8A
:1018600033EE053A40F2D830C2F2000033EE024ABD
:1018700022EE062A80ED003A40F2DC30BDEEC22AAC
:10188000B1EE445AC2F2000012EE101A80ED005A76
:1018900008B281EAE03246F2B83CA2EBE030C0F692
:1018A000000C03B20CF5C67223EE063A84B2642B28
:1018B0001346BDEEC33AB8BF0CEB840313EE104AD7
:1018C00093ED002A23B284EAE335A5EBE3331DB29E
:1018D0009BB21046642DB8BF0CEB8300022390ED41
:1018E000003A03EA9430C0F1010005EE100AB8EEA8
:1018F000C55A23EE053A1FED5D6ABDEEC33A1FEDF2
:101900005E5AB8EEC33A40F2E83024EE064A23EEBF
:10191000053AC2F20000BDEEC44A80ED003A14EE72
:10192000100A05B203EA913180EAE534C1F1010100
:10193000A4EBE53504EE101A03EA90302CB2B8EEB1
:10194000C44AC0F10100ADB2642CB8BF0CEB8502F3
:1019500022EE042A92ED004A06EE100AB8EEC66A9C
:1019600024EE064ABDEEC44ABDEEC22AB8EEC44A11
:10197000B8EEC22A24EE054A22EE052A33EE045AB6
:1019800025EE011A32EE011A33EE442A1FED814A88
:101990001FED813A40F21C2021EE041AC2F2000031
:1019A00022EE032A80ED001A40F2202022EE041AD3
:1019B000C2F2000080ED001ABAF8000040F2840C78
:1019C000C0F3822040F2880E40F28C040028C2F25C
:1019D000000CC2F2000EC2F2000400F0FB830128EA
:1019E00040F0968440F2FC40C2F2000090ED000A04
:1019F00097ED091A40F29804B4EE410AF1EE10FA9C
:101A0000BCBF97ED090A80ED000A97ED081A40F275
:101A1000E045B4EE410AF1EE10FAC4BF396A016044
:101A200040F29400C2F20000C2F20004C2F20005CB
:101A300090ED00CA94ED00EA95ED000A824604F0AC
:101A400045FA95ED001AB0EE408AB0EE410A04F076
:101A500095F92EEE0E1A2CEE0C2A32EE011AB1EE8A
:101A6000C11A40F2E840C2F200001FEDB6FA40F29F
:101A70000C2B40F21028C2F2000BC2F20008B5EEA7
:101A8000401AF1EE10FA08BFB0EE4D1A8EEE012AA0
:101A90008CEE011A1FEDC0CA1FEDC0EA22EE000A4B
:101AA00021EE081A90ED002A30EE410A30EE021ABB
:101AB0001FEDC52A80ED001A20EE020A40F2E44034
:101AC00030EE010AC2F2000095ED001A80ED000A26
:101AD00020EE0F0A31EE000AB5EE400A30EE0C1A85
:101AE000F1EE10FAB8BFB0EE410AB4EE4C0A30EE97
:101AF0000E1AF1EE10FAC8BFB0EE410A85ED000AE9
:101B0000DBED009AD8ED00AADAED00BA40F2745A83
:101B1000D4ED00CA40F2840540F2880440F28C0003
:101B2000C2F2000AC2F20005C2F20004C2F20000D2
:101B30009AED000AD5ED00DAD4ED00EAD0ED008A86
:101B400004F0C4F99AED001AB0EE408AB0EE410AF2
:101B500004F014F940F21420C2F200002DEEAB1A8A
:101B600090ED002A40F2182139EEC11AC2F20001AC
:101B700032EE011A2DEEAC2A91ED003A40F2C42269
:101B80003AEEC22AC2F2000233EE022A92ED003A85
:101B900040F2C82321EE0F1AC2F2000333EE011AFD
:101BA00093ED003A22EE0F2A33EE022A2EEEAB3AE4
:101BB0002EEEAC4A31EE433A32EE444A24EE045A59
:101BC00023EE036A36EE055AB1EEC55A28EE033A03
:101BD00024EE004A34EE433AB4EE004AA646AC4640
:101BE000B5EE405AF1EE10FA08BFB0EE4D5A83EE52
:101BF000053A82ED001A40F2C022C2F2000282EDE4
:101C0000005A40F2AC429FEDC01AC2F2000283EDCE
:101C1000002A92ED002A23EE011A23EE043A33EE55
:101C2000022A82ED002A31EE021A9AED002A40F2D1
:101C3000242221EE0F3AC2F2000233EE022A92ED84
:101C4000003AB6EE044A31EE431A21EE041A33EE9E
:101C5000011A9FEDAE3A38EEC54A24EE033A28EE5B
:101C6000034A20EE033A80ED003A40F2EC40C2F223
:101C7000000080ED008A40F23820C2F2000080EDC2
:101C8000000A40F294008AED002A82ED001A81EDEC
:101C9000004AC2F200009BED003A98ED004A90ED38
:101CA000005A40F29800C2F2000090ED006A40F243
:101CB0009440C2F2000090ED007A40F29841C2F2E6
:101CC000000137EE457AD1ED000A87EE0F7A70EE0B
:101CD000C60AC0EE8F0AD5ED001AD4ED002A80EDB9
:101CE000005A21EE855A33EE453A40F2B020C2F256
:101CF000000081ED006A40F2B421C2F2000122EE40
:101D0000875A33EE053A21EE865A34EE454A22EEE2
:101D1000A05A34EE054A90ED005A9FED7D6A33EEED
:101D2000453A23EE063A35EE033A91ED005A80ED3E
:101D3000003A34EE454A24EE064A35EE044A81ED77
:101D4000004A24EE044A23EE033A40F2B82033EE70
:101D5000043AC2F2000080ED003A9FED6E3A32EE96
:101D60000E4AB4EE432AF1EE10FAC8BFB0EE442A90
:101D700006DC9FED693AB4EE432AF1EE10FA0CDA74
:101D80009FED653A32EE0C4AB4EE432AF1EE10FABA
:101D9000B8BFB0EE442A8AED002A40F22820C2F2F1
:101DA000000090ED002A9FED5D3A9FED5D4A33EE15
:101DB000423A83EE043AB6EE005A40F2F04BC2F2D9
:101DC000000BB4EE4A3AF1EE10FAA8BFB0EE4A3A70
:101DD000B5EE403AF1EE10FAD8BFB0EE493A87EDD1
:101DE000153A87ED143A96ED113A97ED084A24EE2C
:101DF000054AB4EE443AF1EE10FA16DC97ED153AC6
:101E000040F2C031B5EE403AF1EE10FAD8BFB0EE74
:101E1000493AC2F20001B4EE4A3AF1EE10FA81ED0D
:101E2000003AA4BF4FF07E520A609FED3E3A31EE79
:101E3000424A24EE033A32EE032A80ED002A40F2B1
:101E40000850C2F2000097ED0C3A97ED0D2A90ED84
:101E5000004A97ED0A5A34EE411A9FED334A40F298
:101E6000F840B4EE441A97ED0B6AF1EE10FAC8BFD1
:101E7000B0EE441AC2F2000021EE051A90ED004ABD
:101E800026EE015A35EE044AB4EE434A40F23C2AAB
:101E900040F28C0440F2BC38F1EE10FAB0EE435A36
:101EA000C2F2000AC2F20004C2F2000880ED004A49
:101EB00006DCB4EE424AF1EE10FAB0EE425A03DA12
:101EC000B0EE454A80ED005A31EE041AB4EE431AE2
:101ED00040F2C431F1EE10FAC2F2000108DCB4EEB7
:101EE000421AB0EE413AF1EE10FAB8BFB0EE423A03
:101EF00040F2C830C2F2000080ED003A8BED008A5B
:101F00008AED000A12E200BF00409C4500009643A3
:101F10000000803DDB0F4940DB0F49C000009D43BE
:101F200000001D439A99193D39141D43BF9B2E3D56
:101F30009C33A23BD9F8000040F255518843C9F8C0
:101F400000004FF4FA6040F2B241A9F81C00A9F871
:101F50001800A9F81400C2F2000100208871CA79A3
:101F600002F0FE02CA7108808880CA7902F0FD0280
:101F7000CA718870C870CA7902F0FB02CA7140F257
:101F80001451C2F200014A8822F002024A804A88B3
:101F900022F001024A80088040F2E031C2F20001E2
:101FA000086040F2E431C2F20001086040F2BC3146
:101FB000C2F20001086040F2C431C2F200010860C0
:101FC00040F2D031C2F20001086040F2CC31C2F2DE
:101FD0000001086040F2F041C2F20001086040F2E6
:101FE0003C21C2F20001086040F2D431C2F200018B
:101FF000086040F2D831C2F20001086040F2DC31E2
:10200000C2F20001086040F21C21C2F20001086027
:1020100040F22021C2F20001086040F27451C2F285
:102020000001086040F20C21C2F20001086040F299
:102030001021C2F20001086040F29401C2F20001D6
:10204000086040F29801C2F200010860BAF800107E
:1020500021F4E051AAF8001040F23021C2F2000150
:10206000086040F2C031C2F20001086040F2342141
:10207000C2F20001086040F2C421C2F2000108600F
:1020800040F2C831C2F20001086040F2F841C2F2E9
:102090000001086040F22421C2F20001086040F211
:1020A0002821C2F20001086040F2EC41C2F20001B6
:1020B000086040F23821C2F20001086040F2486135
:1020C000C2F20001086040F23461C2F2000108600F
:1020D00040F23061C2F200017063086040F2446176
:1020E000C2F20001086040F2AC41C2F20001086097
:1020F00040F21821C2F20001086040F21421C2F23D
:102100000001086040F2C821C2F20001086040F2FC
:10211000C021C2F20001086040F2FC41C2F200019D
:10212000086040F20051C2F20001086040F208511C
:10213000C2F20001B0630860C6E90F0040F2AC00D3
:10214000C2F200004FF47A61018040F2AE00C2F2A8
:102150000000018040F2B000C2F20000018040F2B5
:10216000BE20C2F200000088BAF80010002821F456
:10217000707014BF40F0C00040F4E070AAF8000096
:1021800000F093BE8178032900F28A84DFE811F021
:1021900004009804A204B8044FF47A61A9F81C1052
:1021A000A9F81810A9F814100021A9F820108288A5
:1021B000013282808288052AFFF447AA8180D9F8FB
:1021C000001040F255521143C9F8001001218170EE
:1021D000FFF73BBAA04640F23424C2F2000494ED6B
:1021E000000A40F23025C2F2000585ED000A03F036
:1021F0006DFE95ED001A8BED000AB0EE410A03F07A
:10220000BDFD40F2C030C2F2000090ED001A40F275
:102210003C2131EE0C1AC2F20001B4EE4A1A81EDF3
:10222000000AF1EE10FAC8BFB0EE4A1A80ED001AAB
:1022300040F2C830C2F2000000210160206840F284
:102240007452C2F20002106040F29400C2F2000028
:102250001FEDCA2A9BED008A90ED003A1FEDCC4A93
:1022600020EE025A23EE043A40F2C42033EE053A3F
:10227000C2F2000080ED003A40F29800C2F2000085
:1022800090ED003A28EE022A23EE043A40F2C820EC
:1022900033EE022AC2F2000080ED002A40F2AC4088
:1022A000B4EE4A1AC2F20000F1EE10FA016012DB3D
:1022B00040F29040C2F2000001680131A0290160A3
:1022C00009D300210160BAF8000020F4E05000F5C5
:1022D0008060AAF8000040F23C2A444640F2840C98
:1022E00040F2880E40F2BC38B0EE493AC2F2000A21
:1022F000C2F2000CC2F2000EC2F2000812E000BFEF
:102300000080BB440000803D46B6133F0000FA4405
:1023100040F2C830C2F2000090ED003A40F23C2A90
:10232000C2F2000A40F2C431C2F2000140F2C030F1
:10233000C2F2000096ED0E5A90ED001A96ED116A69
:102340005FED111AB4EE007A71EE450AB4EE616ADF
:10235000F0EE473A96ED0A2A96ED0D4A5FED172A00
:10236000F1EE10FAB8BFF0EE623A63EEA00A35EE75
:10237000205A0FF64050B4EE616A86ED0E5AF1EE27
:1023800010FAB8BF043090ED005A33EE443A25EE0F
:10239000033A34EE033A1FED244A86ED0D3A22EE5D
:1023A000045A87ED105A97ED106AB5EE406AF1EEC7
:1023B00010FADCBF0020386497ED106AB1EE466A6F
:1023C00087ED116A87ED125A97ED126AB5EE406AF1
:1023D000F1EE10FADCBF0020B86497ED126A40F20B
:1023E0004C60B1EE466AC2F2000087ED136A80EDE0
:1023F000005A40F29400C2F20000D0ED000A40F210
:102400009800C2F20000D0ED001A60EE802A21EEA2
:10241000800A60EE880A70EE600A96ED0F0A21EEDF
:10242000886A32EE866AD6ED101A70EEC02A62EE25
:102430008B2A30EE220A76EE612A22EE877A31EE7E
:10244000877A88ED006AC1ED000A86ED0F0A86EDF5
:10245000107A97ED120A97ED137AD7ED0E1A40F223
:102460004860D7ED0F2A73EE600AC2F2000060EEFA
:10247000A10AD0ED001A62EEA02A72EEA11AF4EEC3
:10248000401AF1EE10FAF0EE402AC0ED001A06DC18
:10249000F4EE471AF1EE10FAF0EE472A03DAF0EE06
:1024A000621AC0ED002A70EEA10AF4EE400AF1EEC5
:1024B00010FA08DCF4EE470AB0EE600AF1EE10FA0A
:1024C000B8BFB0EE470A40F24468C2F2000888ED97
:1024D000000A97ED100A97ED117AD7ED0E0A40F237
:1024E0003461D7ED0F1A31EE466AC2F2000126EED2
:1024F000206AD1ED000A61EE861A71EEA00AF4EEB0
:10250000400AF1EE10FAF0EE401AC1ED000A06DCC6
:10251000F4EE470AF1EE10FAF0EE471A03DAF0EEA5
:10252000610AC1ED001A36EE206AB4EE406AF1EE9F
:1025300010FA08DCB4EE476AB0EE460AF1EE10FA83
:10254000B8BFB0EE470A40F23065C2F2000585ED33
:10255000000A98ED000A98ED006A95ED007AD5ED35
:10256000000A20EE060A27EE207A30EE070AB1EEC6
:10257000C00AB4EE450AF1EE10FA18DB95ED005AE8
:1025800085EE005A25EE045A22EE055A85ED005AD2
:1025900098ED005A85EE000A20EE040A22EE000AA9
:1025A00088ED000A2A68D8F800300A60036040F21B
:1025B0002820C2F200009EED000A90ED002A9CED5A
:1025C000004A20EE025A40F2FC4025EE010A24EEB9
:1025D000036A23EE053A24EE011AC2F2000094EDDC
:1025E000007A31EE431A90ED003A1FEDB88A36EECC
:1025F000000A22EE076AB4EE483A36EE000AF1EE1F
:1026000010FA86ED121A86ED130A29DB9FEDF33AD4
:102610009FEDF34A32EE032A82EE042A9FEDF13A4F
:10262000B5EE402AF1EE10FAD8BFB0EE492AB4EE6A
:102630004A2AF1EE10FAA8BFB0EE4A2A22EE032A87
:1026400095ED003A21EE021A31EE031A85ED001ADB
:1026500098ED001A20EE020A30EE010A88ED000A19
:1026600040F27454C2F2000494ED000A03F02EFC10
:1026700094ED001A8BED000AB0EE410A03F07EFBE8
:102680008AED000A98ED001A95ED002A9BED003ABC
:1026900021EE005A22EE034A40F2102035EE044AA1
:1026A000C2F2000080ED004A22EE000A21EE031A79
:1026B00040F20C2030EE410AC2F2000080ED000A28
:1026C00040F21C20C2F2000090ED001A97ED142A8F
:1026D00040F22020C2F2000021EE021A90ED002A02
:1026E00097ED143A31EE001A22EE032A96ED0A3ADB
:1026F0009FEDBD0A9FEDBD5A80EE033A32EE042AEB
:10270000B6EE004A21EE046A22EE052A32EE465A5F
:1027100036EE022AB1EE422AB4EE415AB0EE456AD4
:10272000F1EE10FAD8BFB0EE416AB4EE426AF1EEB3
:1027300010FAB4EE415AB0EE457AD8BFB0EE426A14
:10274000F1EE10FAA8BFB0EE417AB4EE427AF1EEA3
:1027500010FAA8BFB0EE427A36EE076A26EE044AB7
:1027600031EE441A21EE031A31EE081AB5EE401A82
:10277000F1EE10FAB8BFB0EE491AB4EE401AB0EE5E
:10278000406AF1EE10FAB8BFB0EE416A35EE441A75
:1027900021EE031A31EE081AB5EE401AF1EE10FAE6
:1027A000B8BFB0EE491AB4EE401AB0EE405AF1EE9E
:1027B00010FAB8BFB0EE415A32EE441A21EE031AB5
:1027C00031EE081AB5EE401AF1EE10FAB8BFB0EECD
:1027D000491AB4EE401AB0EE402AF1EE10FAB8BF32
:1027E000B0EE412ABDEEC61AB8EE411A30EE411ADB
:1027F000BDEEC11A11EE100ABDEEC51AB8EE411AAF
:1028000040F2AC0130EE411AC2F20001BDEEC11A35
:10281000088011EE101ABDEEC21AB8EE411A40F24D
:10282000AE0230EE410AC2F20002BDEEC00A40F232
:10283000B003118010EE101AC2F200031980A9F83B
:102840001C001088A9F818001888A9F814002CE3B7
:10285000818840F6D962914280F06F8140F6D8615C
:1028600040F28C428180C2F200020121117069E1C4
:10287000818840F6D962914280F0AF8140F6D861FC
:1028800040F28C428180C2F2000201211170A9E164
:10289000818840F6D962914280F0EF8140F6D8619C
:1028A00040F28C428180C2F2000201211170E9E104
:1028B000818840F6D962914280F0388240F6D86132
:1028C00040F28C428180C2F200020121117032E29A
:1028D000818840F6D962914280F0808240F6D861CA
:1028E00040F28C428180C2F20002012111707AE232
:1028F000818840F6D962914280F0E08240F6D8614A
:1029000040F28C428180C2F2000201211170DAE2B1
:1029100040F2B411C2F200014A886023022A0B80FF
:102920005AD20B8943F00207022F61D1D9F8007007
:1029300027F48057C9F80070D9F800E059F81C4C0A
:1029400039F804CC8F8947F48076B6F5807F51D171
:1029500024F480441A432CF4E64344EA871403F534
:10296000C04349F81C4C29F8043CC9882EF4005790
:1029700047EA0232A9F820106421C9F80020A9F81A
:102980002010D9F8001021F48071C9F80010D9F88E
:10299000001021F48061C9F80010D9F8001021F06E
:1029A0001001C9F80010D9F8001021F04001C9F851
:1029B0000010D9F8001021F00101C9F80010D9F871
:1029C000001021F00401C9F80010002101704170CD
:1029D000012181705EE200BFFEE700BF00E082C41B
:1029E00000E08244CDCC4C3F00007A452DB25D3FE3
:1029F000FEE700BFFEE740F29C41C2F20001F08812
:102A00000A6840F2A043C2F2000302EB000C3289D4
:102A10001F68C1F800C0B91840F2A447C2F200070D
:102A200072893868196040F2A843C2F20003024478
:102A300018883A60013087B2B7F5806F1880FEF4CD
:102A40002AAC002018804FEA9C203080880A7080D1
:102A5000900AC2F38F2240F26A739A42B08013D375
:102A6000C1F38F2199420FD3CCF38F2040F26A73C8
:102A7000984209D340F69603984205D8994203D864
:102A800040F69700824203D3607840F010006070F7
:102A9000BAF8000040F00200AAF80000FEF7FBBB05
:102AA000C17901F0FB01C171C17941F00201C1712D
:102AB00000218170C1706421A9F82010FEF7C5BD06
:102AC00081880131818081885029FEF4BEAD0021CA
:102AD00081802EE0C178052900F29582DFE811F0AF
:102AE00006009E02AA02B602C202CC024FF49B610B
:102AF000018040F69801A9F81C104FF47A6196E223
:102B00004FF47A61A9F81C10A9F81810A9F814104C
:102B1000002101808288013282808288A02AFEF40E
:102B200094AD8180C1780131C170C178052900F26E
:102B3000668202218170FEF788BD40F28C41C2F2AC
:102B4000000109788288A9F81C208288A2F120025D
:102B5000828040F63272A9F82020D9F8002042F491
:102B60008072C9F80020D9F8002022F48062C9F8E8
:102B70000020D9F8002022F01002C9F80020D9F86E
:102B8000002022F04002C9F80020D9F8002022F0ED
:102B90000102C9F80020D9F8002022F00402C9F887
:102BA000002040F28A42C2F20002138841B1013390
:102BB0001380D9F8001040F25557B943C9F80010F6
:102BC00099B25029C0F0668140F28C41C2F20001F6
:102BD00000230B7002211380F6E040F28C41C2F218
:102BE000000109788288A9F818208288A2F12002C1
:102BF000828040F63272A9F82020D9F8002022F411
:102C00008072C9F80020D9F8002022F48062C9F847
:102C10000020D9F8002042F01002C9F80020D9F8AD
:102C2000002022F04002C9F80020D9F8002022F04C
:102C30000102C9F80020D9F8002022F00402C9F8E6
:102C4000002040F28A42C2F20002138841B10133EF
:102C50001380D9F8001040F25557B943C9F8001055
:102C600099B25029C0F0168140F28C41C2F20001A5
:102C700000230B7003211380FEE040F28C41C2F26E
:102C8000000109788288A9F814208288A2F1200224
:102C9000828040F63272A9F82020D9F8002022F470
:102CA0008072C9F80020D9F8002022F48062C9F8A7
:102CB0000020D9F8002022F01002C9F80020D9F82D
:102CC000002022F04002C9F80020D9F8002042F08C
:102CD0000102C9F80020D9F8002022F00402C9F846
:102CE000002040F28A42C2F20002138841B101334F
:102CF0001380D9F8001040F25557B943C9F80010B5
:102D000099B25029C0F0C68040F28C41C2F2000155
:102D100000230B700421138001704FF47A618180CD
:102D20008288A9F81C20A9F81810AEE040F28C4166
:102D3000C2F2000109788288A9F81C208288A2F1D9
:102D40002002828040F63272A9F82020D9F80020B3
:102D500022F48072C9F80020D9F8002042F4806281
:102D6000C9F80020D9F8002022F01002C9F800208C
:102D7000D9F8002022F04002C9F80020D9F800203C
:102D800022F00102C9F80020D9F8002022F0040244
:102D9000C9F8002040F28A42C2F20002138841B111
:102DA00001331380D9F8001040F25557B943C9F8E0
:102DB000001099B250296DD340F28C41C2F200014B
:102DC00000230B701380052101704FF47A6181801C
:102DD000A9F81C108288A9F8182056E040F28C410E
:102DE000C2F2000109788288A9F818208288A2F12D
:102DF0002002828040F63272A9F82020D9F8002003
:102E000022F48072C9F80020D9F8002022F48062F0
:102E1000C9F80020D9F8002022F01002C9F80020DB
:102E2000D9F8002042F04002C9F80020D9F800206B
:102E300022F00102C9F80020D9F8002022F0040293
:102E4000C9F8002040F28A42C2F20002138841B160
:102E500001331380D9F8001040F25557B943C9F82F
:102E6000001099B2502915D340F28C41C2F20001F2
:102E700000230B701380062101704FF47A6181806A
:102E8000A9F81C10A9F818108188A9F814108188D5
:102E9000203981808078012807D1BAF8000020F419
:102EA000707000F58070AAF800006FF0010049F81A
:102EB000100CBDEC108B01B0BDE8F08F40F28C41DE
:102EC000C2F2000109788288A9F814208288A2F150
:102ED0002002828040F63272A9F82020D9F8002022
:102EE00022F48072C9F80020D9F8002022F4806210
:102EF000C9F80020D9F8002022F01002C9F80020FB
:102F0000D9F8002022F04002C9F80020D9F80020AA
:102F100022F00102C9F80020D9F8002042F0040292
:102F2000C9F8002040F28A42C2F20002138841B17F
:102F300001331380D9F8001040F25557B943C9F84E
:102F4000001099B25029A5D340F28C41C2F2000181
:102F500000230B700721138001709BE70022A9F862
:102F60002020D9F8002040F255539A43C9F8002098
:102F70004FF47A62A9F81C20A9F81820A9F81420A7
:102F8000828040F2B412C2F2000253887027022BF2
:102F900017802FD2178947F00206022E2CD1D9F8BC
:102FA000006026F48056C9F80060D9F800E059F8AE
:102FB0001C8C39F804CC948944F48076B6F5807F73
:102FC0001CD128F480463B432CF4E64746EA84149F
:102FD00007F5E04749F81C4C29F8047C2EF400560C
:102FE000D28846EA0333A9F82020C9F800300A88BD
:102FF000FEF7E8B9FEE700BFFEE700BFFEE70421E9
:103000008170FEF722BB4FF47A61A9F81C10A9F871
:103010001810A9F81410002101803AE04FF49B61C8
:1030200001804FF47A61A9F81C1040F69801A9F8C4
:1030300018102CE04FF49B61018040F69801A9F82C
:103040001C10A9F818104FF47A6120E04FF49B612E
:1030500001804FF47A61A9F81C10A9F8181040F605
:10306000980114E04FF49B6101804FF47A6140F6BF
:103070009802A9F81C1008E04FF49B61018040F60B
:103080009801A9F81C104FF47A62A9F81820A9F841
:1030900014100188A9F8201003218170C17941F032
:1030A0000101C171C178002914BF0021FF21817184
:1030B000FEF7CBBACDCC4C3CCDCCCC3BF0B543F6F7
:1030C0000000C4F2010082890188D20667D511F0A0
:1030D000100164D05821C4F20201028882880A6873
:1030E0004FF6FE731A400A604A686FF05506D3B275
:1030F000B21A40F28056C2F20006AA2B327040D0BB
:10310000D3B24FF0FF32012B98BF012352FA83F65E
:1031100040F20A1C40F2855E03F00302032EC2F265
:10312000000CC2F2000E02D20023C2B929E0DDB2C7
:1031300005F0FC05ACF10303AEF103046E4200257B
:10314000DF78043DE77013F8047FAE4204F8047F93
:103150005F7867709F78A770F2D16B428AB11CF8D4
:103160000340012A0EF803400BD05C1C1CF80450ED
:10317000022A0EF8045004D09A1C1CF802300EF8F3
:103180000230AA224A600A6842F001020A6040F254
:103190008451C2F200010A7842F002020A700188EA
:1031A0008088F0BDF0B544F60000C4F200008289CA
:1031B0000188D20667D511F0100164D01C21C4F239
:1031C0000201028882880A684FF6FE731A400A607C
:1031D0004A6840F27856D3B2C2F15802C2F20006F1
:1031E000582B327041D0D3B24FF0FF32012B98BF31
:1031F000012352FA83F640F2B20C40F24E2E03F055
:103200000302032EC2F2000CC2F2000E02D200230F
:10321000CAB92AE0DDB205F0FC05ACF10303AEF15A
:1032200003046E42002500BFDF78043DE77013F809
:10323000047FAE4204F8047F5F7867709F78A770C0
:10324000F2D16B428AB11CF80340012A0EF8034008
:103250000BD05C1C1CF80450022A0EF8045004D059
:103260009A1C1CF802300EF8023058224A600A6894
:1032700042F001020A6040F27A51C2F200010A787B
:1032800042F002020A7001888088F0BD2DE9F04109
:1032900043F2FF72C4F20102904212DD43F60002D3
:1032A000C4F20102904218D045F20002C4F20102B9
:1032B000904212D045F20042C4F2010290420CD07A
:1032C0007AE044F20042C4F20002904205D044F693
:1032D0000002C4F2000290426ED1D1F800E047F63D
:1032E0009873AEF10102C0F233039A4262D28B8826
:1032F00043F48052B2F5805F60D1CA88170147EA73
:103300001237BFB2042F5BD20C89002C18BFB4F562
:10331000806F5CD14D89002D54D025F00C07002F13
:1033200050D18E8971BA04294ED28EB144F2004137
:10333000C4F2000188420BD044F60001C4F200013F
:10334000884205D043F60001C4F2010188423DD114
:10335000078A41F2040127F440573A4302828289E6
:103360004EF6F3173A401A4322432A438281838A56
:10337000C4F2020123F44073334383820D680E6864
:103380002C0142F2004C41F200280B6A40F20F2758
:103390006FF4F774C0F2F40CC0F27A0858BF02243C
:1033A000F60307EA954516D4CE6BF607464608BFE6
:1033B000664618E0FEE700BFFEE700BFFEE700BF7D
:1033C000FEE700BFFEE700BFFEE700BFFEE7B4F583
:1033D000C06F9FD0FEE70E68B60340F60016C0F23D
:1033E0003D0658BF4646CF6B0A682C44C2F38105A0
:1033F000C3F30213DFE805F0020E060828A252F814
:1034000023C007E0C44605E004FB06F2C7F340030F
:1034100022FA03FC0A680D680B6846F248548E6A6B
:10342000896AC2F30312C0F60004C3F3C22343F651
:103430000001A25CE35CC4F2010188420ED045F2B7
:103440000001C4F20101884208D045F20041C4F2F3
:10345000010188421CBFC5F30221635C2CFA02F112
:10346000D940192251434FEA8E02B1FBF2F148F2E2
:103470001F52C5F2EB12A1FB02377B094FF69C7776
:10348000C0F6FF7703FB0711322707EB0111A1FB01
:103490000212C2F3431141EA03110181BDE8F08138
:1034A000A0860100400D0300801A060000350C00C4
:1034B00040420F0080841E0000093D00FEE700002E
:1034C00090B041F22C03C4F2020353F8140C44F6FA
:1034D0003D01084343F8140C53F8180C41F2050160
:1034E000084343F8180C53F8100CC321C2F22421EE
:1034F000084343F8100C18680F2720F4F870186080
:1035000018684EF2001220F00F00186018684EF68E
:103510000C5167F31130CEF20002186043F67F6061
:10352000CEF2000142F8EC0CF020C8754FF0000A12
:10353000072042F8E8AC42F8F00C40F24432002098
:1035400040F2000C48F20001C2F20002C4F22F4027
:10355000C4F27A4CC4F2BB411060C2F804C091605E
:1035600048F20001C4F2ED41D1600021C4F21651CD
:10357000116144F20001C4F23551516148F2000179
:1035800044F20003C4F25451C4F283539161D361F5
:10359000C2F820A0C2F824A0C2F828A0C2F82CA02B
:1035A000C2F830A0C2F834A0C2F838A0C2F83CA0DB
:1035B000C2F840A0C2F844A0C2F848A0C2F84CA08B
:1035C00040F2CC2540F2000E0022C2F200054FF07E
:1035D0007E57C4F2201EC4F2A0222F60C5F808E076
:1035E0006A60EB610023C4F21013EF602B610023CB
:1035F000C4F2C0036F61AB6140F2EC3344F2963623
:103600004DF24E14C2F20003C3F60B46C3F611444A
:103610001E605C609E604EF25436C3F62566DE6026
:1036200047F2BC46C3F693361E610026C4F28C26D0
:103630004FF080414FF082445E619961DC61ED6939
:103640004DF663641D620025C4F248255D6245F6AF
:103650002945C3F60F559D624BF21775C3F6D10588
:10366000DD620025C4F2B0051D6344F6B9050020F3
:10367000C4F21515C3F64E54C4F22F30C3F834A06B
:103680009D63DC6318640020CCF22F305864002066
:10369000CCF280001F655F65C3F858A0C3F864A032
:1036A00098660020C4F24000DD651C66D8660020E4
:1036B000C4F2BE3018670020C4F291305867002071
:1036C000C4F2701098670020C4F21810D8674FF049
:1036D0007F50C3F88000C3F884E0C3F888C0C3F803
:1036E0008C2093ED080A9FEDFE1A002030EE010AAF
:1036F000CCF2C82083ED240AC3F8940040F2840081
:10370000C2F20000016040F2880043F29C31C2F234
:103710000000C3F6A231016040F28C0049F6BF31CF
:1037200040F60046C2F20000C3F62E51C4F2010674
:1037300001608F2005900320A6F5806905AD40F655
:10374000080742F6204B4FF00F08079048462946DD
:10375000C4F20207C4F2010BCDF818A0CDF8208006
:103760000324FDF7CFF80220059030462946CDF816
:1037700020808DF818A00794FDF7C4F840F200707F
:10378000C0F2100005900220CDE907004846294606
:103790008DF818A00224FDF7B5F84FF46040ADF89D
:1037A000140030462946FDF7ADF84FF480600590CF
:1037B000304629468DF818A007944FF00208CDF83E
:1037C00020A0FDF79FF84FF40060ADF8140005202D
:1037D0000124089030462946CDF81CA08DF81840E9
:1037E000FDF790F840200590304629468DF818A046
:1037F000CDE9078AFDF786F88020ADF81400304641
:103800002946CDF81CA08DF81840CDF820A0FDF772
:1038100079F841F20000C0F210004FF00F08059057
:1038200048462946CDF8208007948DF818A0FDF76A
:1038300069F84FF48110059006F580602946CDF8AF
:1038400020804FF00F0807948DF818A0FDF75AF864
:1038500041F22800C4F201004FF4005101604FF41E
:103860008050059030462946CDF82080CDF81CA028
:103870008DF818A0FDF746F840F2B411C2F200012D
:10388000C1E900AAC1E902AA5BF8200C4FF47A6CE6
:1038900020F45C70203001224BF8200CABF80CC0F7
:1038A000ABF808A0ABF810202BF80C2C5BF8202C00
:1038B000042322F408424BF8202C5BF81C2CC0F2A5
:1038C000D0734BF81C2C7022C0F2010281E80C046A
:1038D000C1F80CA0DBF80020052022F00102CBF893
:1038E0000020DBF800305BF81C2C3BF8086C22F45D
:1038F000407246F0700660F3030326F003064BF8AF
:103900001C2C4FF4FA622BF8086CABF81420CBF89F
:103910000030DBF800304FF0010923F01003CBF842
:103920000030DBF800305BF81C6C3BF8085C26F4D8
:10393000406625F4E64560F3071305F5E0454BF8CE
:103940001C6C2BF8085CABF81820CBF80030DBF8C7
:103950000030052023F48073CBF80030DBF8003012
:103960005BF81C6C3BF8045C26F4405645F070058F
:1039700060F30B2325F003054BF81C6C2BF8045C5B
:10398000ABF81C20CBF8003064226023CA800B8087
:10399000DBF80010022421F48051CBF80010DBF892
:1039A00000105BF81C3C3BF8046C23F4804326F4C5
:1039B000E64669F30D3106F5C0464BF81C3C2BF882
:1039C000046CABF82020CBF800103BF8081C042650
:1039D00041F008012BF8081C3BF8081CC4F2020651
:1039E00041F400612BF8081C3BF8041C354641F0FB
:1039F00008012BF8041C4FF43151ABF824105BF88C
:103A0000201C21F4413101F580614BF8201C6FF03E
:103A100080014BF8101C3BF8141C41F001012BF8FD
:103A2000141C5BF81C1C21F070014BF81C1C5BF88B
:103A30001C1C41F070014BF81C1CDBF8001021F439
:103A40008071CBF80010DBF8001021F48061CBF816
:103A50000010DBF8001021F01001CBF80010DBF8AB
:103A6000001021F04001CBF80010DBF8001021F02D
:103A70000101CBF80010DBF8001021F00401CBF8B5
:103A80000010ABF81CC0ABF818C0ABF814C0BBF802
:103A900024004FF6FE7140F40040ABF824005BF8C0
:103AA000200C40F001004BF8200C55F82C0F08407A
:103AB0002860C5F800A0C6F830A0C6F834A0C6F843
:103AC00038A0306805A940F47060306007F1440008
:103AD000059040F28000C2F2000000F003B800BF81
:103AE0000000FA43CDE9060A80200A904FF4807066
:103AF0000B904FF480600C9020200D904FF44050BC
:103B0000CDE90E0A2846CDE9084AFCF71BFEC6F8A7
:103B10003CA0286841F22C0140F001002860C4F26A
:103B2000020151F8040C032240F4805041F8040CC7
:103B300051F8040CB44620F4805041F8040CB86DE0
:103B40004FF6FF6140F02800B86557F8040CCFF637
:103B5000F071084000F5807047F8040C38684FF2A7
:103B6000FD71CFF6F171084000F560203860786A89
:103B70000A2169F3175078627868032662F302001D
:103B80007860D5F8040861F30400C5F80408B86843
:103B9000082162F31A60B860D5F8040861F349108F
:103BA000C5F80408386B40F440103863B86869F30E
:103BB000C500B860396B26EA115040EA80021F2028
:103BC00000FA02F3994309FA02F211433963B96822
:103BD00069F38811B960396BC1F30152C2F1040273
:103BE00002EB820200FA02F3994304FA02F2114353
:103BF0003963B96869F34B21B960396BC1F301527C
:103C0000C2F1050202EB820200FA02F3994306FABE
:103C100002F211433963B96869F30E31B960396B47
:103C2000C1F30152C2F1060202EB8202904021EA86
:103C300000000421914008433863386869F30E306E
:103C4000386057F8040C20F4806047F8040C38689A
:103C500040F40040386057F8040C40F0800047F80A
:103C6000040C57F8040C20F0200047F8040C3868C6
:103C700040F480703860386840F001003860386D7A
:103C8000800609D4386D80065CBF386D5FEA8060BD
:103C900002D4386D8006F2D5F86C18B9386840F057
:103CA000040038603868F96CA1B910F0040011D034
:103CB0003868F96C71B910F004000BD03868F96CF1
:103CC00041B910F0040005D03868F96C11B910F052
:103CD0000400E7D138684FF0000940F4A0003860D4
:103CE0003868654640F4021038607D2047F8080CBB
:103CF0007B2047F8080CCDF8109055F8040F4FF6CC
:103D0000FE7108402860C5F80090CCF80890CCF807
:103D10000C90CCF81090DCF800000DF1140A40F083
:103D20000F00CCF8000044F60C00C4F20000A0F133
:103D3000080640F2C410C2F200000690102007905E
:103D40003420CDE9080980204FF6FE77CDE90A0935
:103D50002846514664464FF6FE78C0F201070596A4
:103D6000CDE90C99CDE90E99FCF7ECFC2868514699
:103D700040F00200286005206061254655F8180FC4
:103D800000EA08002860C5F80090C4F81C90C4F848
:103D90002090C4F8249020684FF6FE7840F0F000A0
:103DA000206040F2B200C2F20000CDE906095820BE
:103DB000CDE908098020CDE90A0928460596CDE914
:103DC0000C99CDE90E99FCF7BDFC0620A06228688D
:103DD000264640F00100286056F8400F05A900EA89
:103DE00008003060C6F80090C4F84490C4F84890C9
:103DF000C4F84C90206843F60C0840F470402060F2
:103E000040F2F810C2F20000069010200790112036
:103E1000C4F20108CDE908098020A8F10805CDE920
:103E20000A0930460595CDE90C99CDE90E99FCF7C4
:103E300089FC30684FF0010A40F002003060C4F89D
:103E400050A0264656F8540F4FF6FE7108403060D9
:103E5000C6F80090C4F85890C4F85C90C4F860901C
:103E6000206805A940F47020206040F20A10C2F2D8
:103E70000000CDE90609AA20CDE908098020CDE996
:103E80000A0930460595CDE90C99CDE90E99FCF764
:103E900059FC02206066306801AD40F001003060DE
:103EA0004CF6002044F60C06C0F20800C4F20006EE
:103EB000CDE901094FF44024A6F10C0029460394F2
:103EC000ADF81090FFF7E2F9308940F2386240F027
:103ED000C00030813068C2F2000240F01000306053
:103EE000308840F40050308040F27A50C2F2000036
:103EF0000178137841F00101017043F00100107066
:103F000040F24430C2F20000006840F2AC21C2F23C
:103F1000000108604FF49650CDE901090BF53E60B1
:103F200029460394ADF81090FFF7B0F9B8F80800EF
:103F300040F2080440F0C000A8F80800D8F80000DB
:103F4000C2F2000440F01000C8F80000B8F8000009
:103F500040F6004340F40050A8F8000040F28450BE
:103F6000C2F200000178C4F2010341F001010170C6
:103F700040F2F811C2F20001AA200870BB2048707C
:103F8000EE20C873FF2008744FF21040A4F80AA076
:103F9000A4F816A0A4F822A0A4F82EA0A4F83AA091
:103FA000A4F846A0A4F852A0A4F85EA0A4F86AA0C1
:103FB000A4F876A0CFF6FF7019584FF00F0C21F03F
:103FC0000301195019584EF2001E41F00101195019
:103FD0004FF60000CFF6FF701958CEF2000E21F414
:103FE000805119504FF60401CFF6FF715A58E02660
:103FF00022F480525A5019584EF60C5241F4805116
:1040000019504FF60800CFF6FF701958CEF2000293
:1040100021F4805119504FF60C00CFF6FF7019585B
:10402000B02521F480511950195846F2282841F43E
:104030008051195040F20070C0F2FA5010601068C0
:10404000072121EA10202CFA00F003014EF20B4068
:10405000CEF2000080F8F4304FF00043CEF81C3070
:104060001368C0F6000821EA13232CFA03F306EACA
:10407000031303778023CEF804301368D02621EA97
:1040800013232CFA03F306EA031303704FF40063BF
:10409000CEF800301368C02621EA13232CFA03F36C
:1040A00006EA031383762023CEF80430166821EA4B
:1040B00016262CFA06F605EA0616C6704FF4804658
:1040C000CEF800601668102521EA16262CFA06F6AE
:1040D00005EA061606724FF40026CEF80060166850
:1040E00021EA16212CFA01F103EA011181734FF044
:1040F0000071CEF80010116880F81D904FF48070A8
:10410000CEF80400608898B1A18889B10126002505
:1041100005E000BF01358D4207EA460608D2064297
:10412000F8D058F8250080476088A188F2E700BFE2
:10413000E08998B1218A89B10126002505E000BFF8
:1041400001358D4207EA460608D20642F8D008EB50
:104150008500806A8047E089218AF1E7608B98B109
:10416000A18B89B10126002505E000BF01358D42F4
:1041700007EA460608D20642F8D008EB8500006D33
:104180008047608BA18BF1E7E08C98B1218D89B1DC
:104190000126002505E000BF01358D4207EA4606ED
:1041A00008D20642F8D008EB8500806F8047E08C8B
:1041B000218DF1E7608EA8B1A18E99B1012600256D
:1041C00005E000BF01358D4207EA46060AD20642E5
:1041D000F8D008EB8500D0F8A0008047608EA18E53
:1041E000F0E700BFE08FA8B1B4F8401091B101260C
:1041F000002504E001358D4207EA46060AD2064250
:10420000F8D008EB8500D0F8C8008047E08FB4F8FC
:104210004010EFE7B4F84A00C0B1B4F84C10A9B1AF
:104220000126002505E000BF01358D4207EA46065C
:104230000CD20642F8D008EB8500D0F8F000804799
:10424000B4F84A00B4F84C10EEE700BFB4F85600DA
:10425000C0B1B4F85810A9B10126002505E000BF8F
:1042600001358D4207EA46060CD20642F8D008EB2B
:104270008500D0F818018047B4F85600B4F85810FB
:10428000EEE700BFB4F86200C0B1B4F86410A9B1A1
:104290000126002505E000BF01358D4207EA4606EC
:1042A0000CD20642F8D008EB8500D0F840018047D8
:1042B000B4F86200B4F86410EEE700BFB4F86E0022
:1042C00000283FF41FAFB4F8701000293FF41AAF74
:1042D0000126002506E000BF01358D4207EA4606AB
:1042E000BFF410AF0642F7D008EB8500D0F86801A4
:1042F0008047B4F86E00B4F87010EDE740F20800A3
:10430000C2F20000B0F86E1021F00101A0F86E10AA
:1043100040F26C50C2F20000018889061BD440F2C2
:10432000B041C2F200010A7801320A7040F2EC3169
:10433000D3B2C2F2000100EE103A91ED1B1AB8EEB2
:10434000400AB4EE401AF1EE10FAC8BF7047018877
:1043500041F020010180704740F20800C2F20000E5
:10436000B0F86E1021F00201A0F86E107047000046
:1043700040F20800C2F20000B0F8561021F001012E
:10438000A0F856107047000040F20800C2F200008A
:10439000B0F8561021F00201A0F856107047000046
:1043A00070B540F22820C2F2000090ED000A9FEDA7
:1043B000AA1A40F20856C2F2000680EE010A96EDF3
:1043C000002A40F2080082EE011A9FEDA42AC2F2F0
:1043D0000000418E40F26C5221F00101418640F212
:1043E0001850C2F20000C2F2000240F2145120EE56
:1043F000023AB1EE040A83EE003A21EE021A81EE8F
:10440000001AC2F2000180ED113A40F20450C2F2EB
:10441000000080ED001A108800F47070B0F5107F75
:1044200040F0F680488840F2005C40F2EC338007B0
:10443000C2F2000CC2F2000347D540F2AA00C2F259
:10444000000004880134A5B2048040F2CC24C2F2FA
:10445000000401EE105A94ED032AB8EE411AB4EEAE
:10446000412AF1EE10FA16DC0025058094ED041ABD
:1044700040F2FC44C2F2000494ED002A32EE411AEC
:1044800084ED001A93ED092AB4EE421AF1EE10FA07
:10449000DCBF5D6A25609CED001A93ED092AB4EE3D
:1044A000421AF1EE10FA10DC00250580488820F051
:1044B00002004880108800F47070C02805D0108871
:1044C00020F4707000F520701080108800F4E05027
:1044D000B0F5806F47D14888C00744D040F2A80E9D
:1044E000C2F2000EBEF80000013084B201EE104AA4
:1044F00040F2CC24AEF80000C2F2000494ED052A8C
:10450000B8EE411AB4EE412A40F24430F1EE10FA0E
:10451000C2F2000017DC0025AEF8005094ED061A38
:1045200040F2FC44C2F2000494ED002A31EE021A7B
:1045300084ED001A90ED002AB4EE421AF1EE10FA62
:10454000A4BF056825609CED001A90ED002AB4EE2A
:10455000421AF1EE10FA06DB0020AEF8000048889F
:1045600020F00100488040F2FC40C2F2000090EDD3
:10457000001A9CED002A93ED054A31EE423AB0EE66
:10458000C33A83EE043A93ED064AB4EE443AF1EEB0
:1045900010FA02DA03F1180008E093ED074AB4EECE
:1045A000443AF1EE10FA03DD03F11C0090ED003AFD
:1045B00093ED084A32EE035AB4EE441A32EE432A1F
:1045C000F1EE10FAC8BFB0EE441AB4EE412AF1EE93
:1045D00010FAB4EE415AC8BFB0EE421A9FED202A3D
:1045E000F1EE10FAB8BFB0EE451AB4EE441AF1EE8F
:1045F00010FAC8BFB0EE441A21EE022A22EE000AD9
:10460000B3EE0E2A80EE020A8CED001A86ED000A47
:10461000108800F4E050B0F5806F04BF48885FEA6E
:10462000C07000D070BD40F2FC40C2F2000090EDBE
:10463000000A9FED0C1A9FED0C2A30EE010AB4EE31
:10464000420AF1EE10FA80ED000AA2BF48F2000122
:10465000C4F2BB41016070BDD00FC9400000704280
:10466000DB0F49400000C8420080BB4440F2080014
:10467000C2F20000418E21F0020141867047000025
:1046800010B540F20800C2F20000C18921F001011A
:10469000C18140F26C50C2F200000188890640F1ED
:1046A0009083008840F2185E00F4707040F2EC3C99
:1046B000B0F5807FC2F2000EC2F2000C40F284809E
:1046C0009EED080A9CED1C1A40F23C62C2F2000208
:1046D0001188B4EE410AF1EE10FA04DA00291CBF89
:1046E000481E10800EE001318BB20A2B118009D3D5
:1046F00040F2BC23C2F2000318780A2140F0010006
:10470000118018709CED1D1A40F23A62C2F200024C
:104710001188B4EE410AF1EE10FA04DD00291CBF45
:10472000481E10800EE0481C81B20A29108009D36F
:1047300040F2BC21C2F200010B780A20108043F045
:10474000020008709EED0B0A9CED1F1A40F23E62BB
:10475000C2F200021188B4EE410AF1EE10FA04DD53
:1047600000291CBF481E10800EE0481C81B205299C
:10477000108009D340F2BC21C2F200010B78052061
:10478000108043F0080008709CED1E1A40F2406251
:10479000C2F200021188B4EE410AF1EE10FA04DA16
:1047A00000291CBF481E10800EE0481C81B205295C
:1047B000108009D340F2BC21C2F200010B78052021
:1047C000108043F00400087040F20450C2F2000070
:1047D0009EED111A90ED002A40F2105331EE420A7C
:1047E000B0EEC03A9FEDEC0AC2F200031988B4EEB5
:1047F000403A40F24432F1EE10FAC2F2000204DA1A
:1048000000291CBF481E18802AE0481C81B240F6CF
:10481000B834A142188023D392ED003A40F2BC2371
:10482000B4EE431AF1EE10FAC2F2000304DA18787B
:1048300040F04000187013E040F2CC20C2F20000BB
:1048400090ED073AB4EE431AF1EE10FA04DD187851
:1048500040F08000187003E0587840F0080058706D
:1048600040F2E440C2F2000090ED003A40F21253F0
:10487000C2F20003BAEE044A1988B4EE443AF1EEEB
:1048800010FA04DD00291CBF481E18800EE0481CE9
:1048900081B26429188009D340F2BC21C2F2000120
:1048A0004C780020188044F00100487092ED003AE6
:1048B000B4EE432AF1EE10FA4BDB40F2B820C2F21C
:1048C000000090ED002A9FEDB53AB4EE432AF1EED8
:1048D00010FA12DD40F20E51C2F200010A88002ADD
:1048E0001CBF501E088040F20C51C2F200010A8821
:1048F000002A1CBF501E08802BE092ED002A9FED7D
:10490000A83A32EE032AB4EE421AF1EE10FA0ADDAA
:1049100040F20C52C2F200021088013081B26429C8
:1049200010800CD215E040F20E52C2F20002108844
:1049300040F6B833013081B29942108009D340F279
:10494000BC21C2F200010B780020108043F040002F
:104950000870BEF81020512AC0F0CD80782AC0F02F
:10496000CD809F2AC0F0D180C42AC0F0D580E92A2A
:10497000C0F0D980B2F5867F40F2DC80B2F5987F36
:10498000C0F0DF80B2F5A97F40F2E280B2F5BA7FD5
:1049900040F2E580B2F5DC7FC0F0E880B2F5FC7F44
:1049A000C0F0EB8040F236208242C0F0ED8040F251
:1049B0008F208242C0F0F68040F2FF208242C0F099
:1049C000F880B2F55A7FC0F0FB8040F2E2308242BC
:1049D000C0F0FD8040F27E408242C0F0FF8040F295
:1049E0001E508242C0F00181B2F5BA6FC0F004815E
:1049F000B2F5D16F40F2078140F24E708242C0F0B2
:104A0000098140F615008242C0F00B8140F6E400B7
:104A10008242C0F00D8140F6AD108242C0F00F819D
:104A200040F677208242C0F0118140F63230824257
:104A3000C0F0138140F6DE308242C0F0158140F6AE
:104A40007A408242C0F0178140F604508242C0F0A2
:104A5000198140F67D508242C0F01B8140F6E6503D
:104A60008242C0F01D8140F63F608242C0F01F814B
:104A700040F68C608242C0F01F8140F6CC608242DA
:104A8000C0F02181B2F5736F40F2248140F6577077
:104A90008242C0F0268140F677708242C0F02881C1
:104AA00040F692708242C0F02A8140F6A97082429C
:104AB000C0F02C8140F6BB708242C0F02E8140F6DF
:104AC000C9708242C0F0308140F6D6708242C0F098
:104AD000328140F6DF708242C0F0348140F6E770E8
:104AE0008242C0F0368140F6EC70824240F238815A
:104AF0009FEDBD0A4FE19FEDBE0A4CE19FEDBD1A4F
:104B00009FEDBD0A9FEDBD2A30E19FEDBD1A9FEDDF
:104B1000BD0A9FEDB82A29E19FEDBB1A9FEDBB0AA4
:104B20009FEDB72A22E19FEDBA1A9FEDBA0A9FEDD9
:104B3000B62A1BE19FEDB81A9FEDB80A9FEDB42A83
:104B400014E19FEDB71A9FEDB70A9FEDB32A0DE16F
:104B50009FEDB51A9FEDB50A9FEDB12A06E19FEDD5
:104B6000B41A9FEDB40A9FEDB02AFFE09FEDB21A90
:104B70009FEDB20A9FEDAE2AF8E09FEDB11A9FEDCE
:104B8000B10A9FEDAD2AF1E09FEDAF1A9FEDAF0A9C
:104B90009FEDAB2AEAE000BF0000964300000C4204
:104BA000000048C39FEDAA1A9FEDAA0A9FEDA62A0E
:104BB000DCE09FEDA91A9FEDA90A9FEDA52AD5E09B
:104BC0009FEDA71A9FEDA70A9FEDA32ACEE09FEDC8
:104BD000A61A9FEDA60A9FEDA22AC7E09FEDA41A90
:104BE0009FEDA40A9FEDA02AC0E09FEDA31A9FEDC0
:104BF000A30A9FED9F2AB9E09FEDA11A9FEDA10A9C
:104C00009FED9D2AB2E09FEDA01A9FEDA00A9FEDB7
:104C10009C2AABE09FED9E1A9FED9E0A9FED9A2A7B
:104C2000A4E09FED9D1A9FED9D0A9FED992A9DE0BE
:104C30009FED9B1A9FED9B0A9FED972A96E09FEDB3
:104C40009A1A9FED9A0A9FED962A8FE09FED981A87
:104C50009FED980A9FED942A88E09FED971A9FEDAB
:104C6000970A9FED932A81E09FED951A9FED950A93
:104C70009FED912A7AE09FED941A9FED940A9FEDA3
:104C8000902A73E09FED921A9FED920A9FED8E2A73
:104C90006CE09FED911A9FED910A9FED8D2A65E0E2
:104CA0009FED8F1A9FED8F0A9FED8B2A5EE09FED9F
:104CB0008E1A9FED8B2A59E09FED8C1A9FED8C0A7E
:104CC0009FED892A52E09FED8B1A9FED8B0A9FED95
:104CD000872A4BE09FED891A9FED890A9FED852A6F
:104CE00044E09FED881A9FED880A9FED842A3DE0FD
:104CF0009FED861A9FED860A9FED822A36E09FED92
:104D0000851A9FED850A9FED812A2FE09FED831A7A
:104D10009FED830A9FED7F2A28E09FED821A9FED89
:104D2000820A9FED7E2A21E09FED801A9FED800A86
:104D30009FED7C2A1AE09FED7F1A9FED2C0A9FEDD4
:104D40007B2A13E09FED7C1A9FED7C0A9FED792A68
:104D50000CE09FED7B1A9FED7B0A9FED772A05E023
:104D60009FED791A9FED790A9FED752A03EE102ABF
:104D7000B8EE433AB4EE431AF1EE10FA0BDD9FEDB4
:104D8000644A33EE413A32EE411A23EE042A82EEAF
:104D9000011A31EE000AB2EE041A80EE010A40F266
:104DA0007250C2F200008EED140A9CED231A0188A5
:104DB000B4EE410AF1EE10FA04DA00291CBF013901
:104DC000018010BD01318AB2642A018038BF10BD54
:104DD00040F2BE22C2F2000213880021018043F09B
:104DE0000200108010BD00BF0000C8C3000048C30F
:104DF000004003450000EE420080ED440000A04268
:104E000000001E430000E144000043430080D444FE
:104E1000000068430040CE44000086430000C844C0
:104E20000080974300C0C1440000A9430080BB44F8
:104E30000000BA430040B5440080DB430000AF44AB
:104E40000080FB4300C0A84400400D440080A24401
:104E50000080234400409C4400803F44000096446E
:104E600000C0594400C08F44004078440080894409
:104E700000A08F440040834400A0A34400007A4473
:104E800000E0B94400806D440000D144000061445A
:104E900000A0E9440080544400400145000048441B
:104EA00000300E4500803B4400C01A4500002F44EE
:104EB000006027450080224400103345000016445E
:104EC00000D03D4500800944009047450000FA436A
:104ED000003050450000E14300C057450000C84382
:104EE00000505E450000AF4300E0634500B06845F8
:104EF00000007A4300B06C45000048430000734551
:104F000000001643006075450000C8420060774508
:104F100000004842001079450000000000807A45FA
:104F2000000048C200A07B450000C8C200807C454C
:104F3000000016C300507D4500E07D4500007AC3A7
:104F400000607E45000096C300C07E450000AFC3F0
:104F500040F20800C2F20000C18921F00201C181C3
:104F600040F26C50C2F20000008800F4E050B0F54E
:104F7000806F72D140F27050C2F2000001780229B5
:104F80002AD0012910D0C1BB40F21851C2F2000151
:104F900091ED111A9FED372A9FED320AB4EE421AB5
:104FA000F1EE10FA43DC4AE040F21851C2F200017F
:104FB00091ED111A9FED2D0AB4EE401AF1EE10FAA0
:104FC00028DC9FED2B2A9FED270AB4EE421AF1EE62
:104FD00010FA34DA00212BE040F21851C2F200013D
:104FE00091ED110A9FED1E1AB4EE410AF1EE10FA8E
:104FF00014DD9FED1A0A03211AE040F21852C2F2A2
:10500000000292ED110A9FED1C1AB4EE410AF1EE76
:1050100010FA0FDA9FED110A022109E09FED121A32
:10502000B4EE410AF1EE10FA07DA9FED0E0A012103
:10503000017004E0032918BF70479FED080A40F291
:10504000EC3044F2AE71C2F20000C3F661518162ED
:105050004FF0804180ED0B0A0163704717B7D138DC
:10506000004035456F12033A0080BB4400400345C1
:1050700000002F440080A24400C00F4540F2080009
:10508000C2F20000C18F21F00101C187704700000A
:1050900040F20800C2F20000C18F21F00201C18776
:1050A0007047000040F20800C2F20000418B21F07E
:1050B000010141837047000040F20800C2F2000085
:1050C000418B21F0020141837047000040F208004B
:1050D000C2F20000418B21F00401418370470000BF
:1050E00040F20800C2F20000418B21F00801418328
:1050F0007047000040F20800C2F20000418B21F02E
:10510000100141837047000040F20800C2F2000025
:10511000418B21F0200141837047000040F20800DC
:10512000C2F20000418B21F0400141837047000032
:1051300040F20800C2F20000418B21F0800141835F
:105140007047000040F20800C2F20000B0F86210A0
:1051500021F00101A0F862107047000040F2080041
:10516000C2F20000B0F8621021F00201A0F8621053
:105170007047000040F20800C2F20000418821F0B0
:10518000010141807047000040F20800C2F20000B7
:10519000418821F002014180704700002DE9F04F65
:1051A00081B040F20800C2F20000B0F84A1021F0CD
:1051B0000101A0F84A1040F27E5040F28451C2F240
:1051C0000000C2F2000103780A780133D7070370A8
:1051D00016D1DBB2142B10D30023037042F0010070
:1051E00008704420C4F202004FF4005140F8401C03
:1051F00001684FF6FE721140016001B0BDE8F08F0A
:1052000002F0FE020A7040F28251C2F200010A78F6
:1052100000230370501C022A0090087037D0012A26
:105220004DD0002A4FF000084FF0000A4FF000095F
:105230004FF000064FF0000B4FF0000E4FF000044F
:1052400053D140F21450C2F20000B0F800E040F236
:105250006C50C2F20000048840F2CC20C2F2000080
:1052600090ED010A90ED021ABDEEC00A10EE10AAF0
:10527000BDEEC10A10EE103A4FEA13284FEA1A2980
:10528000C4F383164FEA1E244FF0000B2DE040F2CA
:105290001850C2F2000090ED140A002330EE000A0C
:1052A000BDEEC00A10EE10AA4FEA1A294FF000080E
:1052B00000264FF0000B4FF0000E002415E040F2E6
:1052C000BC2040F2BE21C2F20000C2F200010E88F2
:1052D000B0F800E04FEA162B4FEA1E2400234FF0EF
:1052E00000084FF0000A4FF0000946F2585002EB58
:1052F0004205C0F60000471940F2F812405DC2F2C4
:1053000000024FF0AA0CBB2182F800C051709070CF
:105310007878B978D0701171547182F806E082F80B
:1053200007B0167282F8099082F80AA082F80B8002
:1053300013739078D178137908445179184493798C
:105340000844D1791844137A0844517A1844937A5E
:105350000844D17A1844137B08441844000A507357
:105360009078D17813790844517918449379084496
:10537000D1791844137A0844517A1844937A08442E
:10538000D17A1844137B084418449073EE20D073EC
:10539000FF2010744420C4F2020011214160016812
:1053A000009A41F00101D2B2032A0160FFF425AF57
:1053B00040F282510020C2F20001087001B0BDE845
:1053C000F08F000040F20800C2F20000B0F84A106E
:1053D00021F00201A0F84A10704700000000000010
:1053E000F0B581B040F20802C2F20002D08C40F267
:1053F000EC3420F0010340F27A50C2F20000017850
:10540000D3848A07C2F2000440F1108201F0FD014A
:1054100040F24E270170C2F200073878CC2840F0E5
:10542000D8817878DD2840F0D481F87BEE2840F0F0
:10543000D081387CFF2840F0CC81B878F9780844D6
:1054400039797A790844B9791044FA790844F979B4
:105450001044FA790844B97A1044BA7A08441044DE
:10546000397B7A7BBB7B084443EA0221884240F0C7
:10547000B0817879BA79F979F979F979B97AB97A1B
:10548000397BB978FB783E791B0243EA014140F24F
:1054900001433144C0F20A03994242EA002033DD5D
:1054A0004FF6FE32CFF6F57211440F2900F29181CA
:1054B000DFE811F010005D00720087009000F60038
:1054C000B100D200DF008F018F018F018F018F01AA
:1054D000EF00FF004FF0FF3111FA80F0072800F2D3
:1054E0007881DFE810F0080095029E02A702B00262
:1054F000B502BA02BF0240F28800C2F2000090ED8D
:10550000000A9FEDA61AAFE040F20022C0F20A02A4
:10551000914200F0028140F20122C0F20A0291425F
:1055200000F00A8140F20032C0F20A02914240F0DB
:10553000508140F21451C2F200010880088800EE48
:10554000100A40F2CC20C2F2000090ED011AB8EE31
:10555000400AB4EE401AF1EE10FA00F33A8190EDF1
:10556000010ABDEEC00A10EE100A088031E140F2D7
:10557000AC20C2F2000090ED000A94ED081A9FEDF5
:10558000882A31EE021AB4EE410AF1EE10FA40F325
:10559000E08094ED080AE3E040F2AC20C2F20000A3
:1055A00090ED000A94ED091A9FED7E2A31EE021A61
:1055B000B4EE410AF1EE10FA80F2CE8094ED090AC1
:1055C000CEE094ED0A0A9FED781A30EE010A84EDE0
:1055D0000A0AFEE094ED0A1A9FED730AB4EE401A2F
:1055E000F1EE10FAB0EE401A05DD94ED0A1A9FEDC7
:1055F0006F2A31EE021A84ED0A1A94ED0A1AB4EEFB
:10560000401AF1EE10FA00F3E48041F26F20C3F685
:105610008320A062DDE094ED0B1A9FED600AB4EEEA
:10562000401AF1EE10FAB0EE401A05DD94ED0B1AB7
:105630009FED5F2A31EE021A84ED0B1A94ED0B1ADE
:10564000B4EE401AF1EE10FA00F3C3804BF217707B
:10565000C3F6D100E062BCE040F2A820C2F2000034
:1056600090ED000A9FED531A30EE010A80ED000A1A
:10567000AFE040F2A826C2F2000696ED000A9FEDC8
:105680004D1AB4EE410AF1EE10FA80F29580002036
:105690009EE040F21450C2F200000188013111E096
:1056A00094ED0B0A9FED3D1A30EE010A84ED0B0AD2
:1056B0008FE040F21450C2F2000001880B2902D39F
:1056C000018801390180018800EE101A40F2CC21D6
:1056D000C2F2000191ED011AB8EE400AB4EE401A90
:1056E000F1EE10FA06DC91ED010ABDEEC00A10EEF3
:1056F000102A0280028891ED021A00EE102AB8EEFC
:10570000400AB4EE401AF1EE10FA62DB91ED020AA3
:10571000BDEEC00A10EE101A0CE040F21450C2F2B6
:105720000000418841F001014180418821F00201DF
:1057300041800A2101804CE040F21450C2F2000086
:10574000418821F001014180418841F002014180FE
:105750003FE09FEDCC1A01E09FEDCB1A30EE010A3D
:1057600080ED000A40F2FC40C2F2000080ED000A29
:1057700094ED091AB4EE410AF1EE10FABCBF94EDB3
:10578000090A80ED000A94ED081AB4EE410AF1EE20
:1057900010FA1EDD216A01601BE000BF17B7D13887
:1057A0000000C8C20000C8426F12833A6F1283BA69
:1057B00017B7D1B8CDCCCC3D10EE100AFAF799FD51
:1057C0009FEDAD0B53EC102BFAF7ECFCFAF7A4FDB0
:1057D000306040F27850C2F200000378190623D0FE
:1057E0004FF0FF3151FA83F203F00301032A4FF027
:1057F00000020ED3DEB206F0FC06FB1E7642002548
:10580000043DDA7003F8042FAE425A709A70F7D153
:105810006A4249B100230129BB5405D03A44022908
:1058200053701CBF002191700021017040F27C5127
:10583000C2F200010888013082B2088000EE102A0E
:1058400094ED221AB8EE400AB4EE401AF1EE10FAC6
:1058500006DC94ED220ABDEEC00A10EE100A0880A4
:1058600040F28450C2F200000278930740F1CE80EB
:1058700002F0FD02027040F28550C2F20000027890
:10588000AA2A40F096804278BB2A40F09280C27BE0
:10589000EE2A40F08E80027CFF2A40F08A800022AF
:1058A0000A808178C278114402794379114482795F
:1058B0001944C3791144027A1944437A1144827A13
:1058C0001944C37A11441944027B437B877B1144FA
:1058D00047EA03228A426CD141798279C379037AFB
:1058E000437A837AC37A037B8378C77806793F0249
:1058F00047EA034340F200373344C0F20A07BB4291
:1059000019D040F20121C0F20A018B4245D040F289
:105910000021C0F20A018B424BD140F21451C2F275
:1059200000014A8842F001024A804A8822F00202BD
:105930004A800A222FE042EA012240F21451C2F2C8
:1059400000010A800A8800EE102A40F2CC22C2F23E
:10595000000292ED011AB8EE400AB4EE401AF1EEE0
:1059600010FA06DC92ED010ABDEEC00A10EE103A04
:105970000B800B8892ED021A00EE103AB8EE400A46
:10598000B4EE401AF1EE10FA13DB92ED020ABDEE0E
:10599000C00A10EE102A0A800BE040F21451C2F245
:1059A00000014A8822F001024A804A8842F002023D
:1059B0004A8040F28051C2F200010F783A0623D0AB
:1059C0004FF0FF3252FA87F307F00302032B4FF038
:1059D00000030ED3FFB207F0FC07C61E7D4200276E
:1059E000043FF37006F8043FBD427370B370F7D103
:1059F0007B424AB10027012AC75405D01844022A25
:105A000047701CBF002282700020087001B0F0BDFA
:105A100040F28800C2F2000090ED000A9FED181AD3
:105A200022E640F20400C2F2000090ED000A9FED71
:105A3000191A19E640F20400C2F2000090ED000AC3
:105A40009FED131A10E640F28400C2F2000007E650
:105A500040F28400C2F2000008E040F28800C2F286
:105A60000000FDE540F28800C2F2000090ED000A5F
:105A70009FED061AF8E500BF9A9999999999B9BFCF
:105A800017B7D1B80000C8420000C8C2CDCCCCBD09
:105A90000AD723BC0AD7233C40F20800C2F2000018
:105AA000C18C21F00201C18470474100080218BF77
:105AB00004200A0E18BF40F001004FF07F4232EA86
:105AC000010108BF40F00200012808BF052070470F
:105AD00070B54FF068422DED048BF0EE408A18EE61
