:020000040000FA
:1000000028070020D5000000E5270000D9220000C5
:1000100000000000000000000000000000000000E0
:100020000000000000000000000000007F2F000022
:100030000000000000000000E72700000D35000070
:1000400055460000BB25000077290000D11D0000A7
:10005000E5310000D31D0000D51D000000000000A8
:100060000000000000000000000000000000000090
:100070007507000077070000514600005346000056
:10008000631F00000000000000000000B925000010
:10009000B5140000D5140000F5140000DD220000A6
:1000A000000000007D2F000000000000F53B000074
:1000B000293C00000000000000000000211A0000A0
:1000C0000348854600F044FB004800478F47000086
:1000D00028070020064908688546064880470648E4
:1000E0000047FEE7FEE7FEE7FEE7FEE7FEE700006B
:1000F0000000000035350000C1000000F8B50246E0
:100100004A40D40F42004B0052085B089A4202D288
:100110000246084611464A0023D0C30D4A00DDB20C
:10012000120EAD1A202D35DA49020126490AF605CC
:100130008A19002C00D0524220214F1B1146B94091
:100140002A411018C20D9A4221D0002C17D0012D3F
:1001500008DCDA05801AD20F8019D207DBB200F072
:100160005EFAF8BDDA05801A012340001B06C018AC
:1001700080185A428018CA0F1043490007E0490806
:10018000C2071143DA05801A80194008801800F070
:100190003EFAF8BD61000122511A001BF7E7012267
:1001A000D2075140AAE70122D2075040A6E70246F3
:1001B00070B54A40D30FDB0740002DD04A002AD04B
:1001C000010E140E000212020919400A520A841884
:1001D000E50104465443000A120A2E045043A419B0
:1001E0004219200CC543AA18120C0125AD03521C5C
:1001F000521912047F39240400D0521C104301D438
:100200004000491EC2B20C06C0092018401C40081C
:10021000802A02D003E0002070BD40084000002981
:1002200000DA0020184370BD70B502464A40D50F71
:1002300040004A00ED0740085208002814D0002A68
:1002400012D0C40DD30D41020120C0055202490A4B
:10025000520AE41A091812187D34914201D3641C21
:1002600000E04900002C01DA002070BD002391421B
:1002700001D3891A0343400849000028F7D1002917
:100280000AD0914202D10121C90705E0914201D271
:10029000012101E00121C943E005C018401900F027
:1002A000B6F970BDF0B507460846584087B0C00F94
:1002B000049048000E46590040084908BC1A88417D
:1002C00005D2384631461E4617460B4602465800B0
:1002D000400810434CD0300D039040055900400DAC
:1002E000490D0590401A0290402872DA1803012146
:1002F000000B09050843019004980092002805D0DE
:1003000001995242002088410092019002984021B8
:100310000A1A0199009800F046F905460C466B460A
:1003200007CB00F061F9C0197141039A0E0D00234B
:10033000D71756401A467A40164344D0049A002AEA
:100340002DD0029A012A039A15DC1205C01A914198
:1003500001263605001C7141D20F059ED20700937D
:10036000019202962A46234600F09FF907B0F0BD9D
:1003700038463146FAE71605224A0F46B218C01A27
:10038000B74101210905001C4F4100187F4111466A
:1003900018187941E20F10436D19644113E0E20728
:1003A0006D0815436408C2071443039A0126120519
:1003B000C01A91413605001C7141CE0740083043F8
:1003C0004908C01851412A46234600F061F9CDE79B
:1003D000FFE7049801224000C117121A00238B4145
:1003E00004983146C417381AA141EEE730B401240D
:1003F000E407634030BC55E730B40124E4076140B2
:1004000030BC4FE70000E0FF0122D207002800DBEC
:10041000101A002900DB511A814201D801207047CF
:10042000002070470122D207002800DB101A0029A3
:1004300000DB511A814201D2012070470020704731
:100440000122D207002800DB101A002900DB511A14
:10045000814201D301207047002070470122D2075A
:10046000002800DB101A002900DB511A814201D953
:100470000120704700207047C217C10F504010B5CF
:100480004018CA079623002100F0C9F810BD10B526
:1004900000229623114600F0C2F810BDC20F4100A1
:1004A00040020123400ADB05D207090EC0187F294C
:1004B00001DA00207047962903DC9623591AC840B8
:1004C00001E096398840002AF4D04042704741004C
:1004D00040020122400AD205090E80187F2901DA64
:1004E00000207047962903DC9622511AC8407047B5
:1004F000963988407047000070B5CD0F4A00090357
:100500000123090B1B0519430B4BED070024520D6A
:100510009A4201DA002070BD074B34339A4203DC63
:100520009A1A00F050F802E00449511888402C4310
:10053000F1D0404270BD0000FF030000CDFBFFFF83
:10054000C20FD207400040080BD0C10D0723DB01CA
:10055000C91840020905400A1143C2084007114367
:10056000704700200146704770B50446002903D04B
:1005700000202022012310E0002801D00020C043E9
:10058000C046C0460DE02546D5408D4205D30D46F8
:100590009540641B1D46954040191546521E002D7E
:1005A000F1DC214670BD10B5202A04DB0146203A5B
:1005B0009140002010BD914020239C1A0346E34047
:1005C0001943904010BD10B5202A04DB0846203A9C
:1005D000D040002110BD0B46D340D0402024A21AA9
:1005E00091400843194610BD10B5202A06DBCB17F1
:1005F0000846203A1041C1170B4306E00B46134151
:10060000D0402024A21A91400843194610BD002969
:1006100004DA401C490001D140084000704770B422
:100620000024050C05D11024000402D1002921D09A
:100630001124050E01D100020834050F01D100017B
:10064000241D850F01D18000A41C002801DB40007F
:10065000641C002908D020252E1B0D46F540A14022
:1006600000D001212943084301061B1B000ADB1DA2
:1006700002D5002070BC7047DB05181880180029CF
:10068000F8DA401C4900F5D170BC400840007047C2
:1006900010B5002B08DA0024401C614192185B4120
:1006A0001A4301D14008400010BDF0B51FB482B01C
:1006B00005460C0003D0084604F0B8F902E004F047
:1006C000B5F920300246009021462846FFF76BFF1F
:1006D000049B059A04460F4618431143084314D05F
:1006E000184610431BD0009840210A1A1846059955
:1006F000FFF769FF05460E46009A05990498FFF733
:1007000052FF084305D0012004E02046394607B0D7
:10071000F0BD0020C11705430E432C433743009919
:100720000E986305401A7905E40A00220C43FD0A7D
:100730000A3002D500200146E9E701051019694198
:100740000C9C0D9D00196941FFF7A2FFDFE7000037
:10075000064C0125064E05E0E36807CC2B430C3C14
:1007600098471034B442F7D3FFF7AEFC4C4B00006F
:100770006C4B00007047704780B598B017AA107096
:1007800016A80170D04909911420887703F02CFE37
:10079000099880680A90032800D992E10A9881009C
:1007A00001A040588746C046B9070000B7080000BE
:1007B0005B0900000F0A000016A80078012108401C
:1007C000052102F0C8FD159017A8007840B2012855
:1007D00033DBFFE7BC488089C6490988884201DBD2
:1007E000FFE76FE1B8488089159940181490149874
:1007F000C0490988884204D9FFE7BE4800880890AC
:1008000003E014A800880890FFE70898AE498881A3
:1008100016A80078C007002807D0FFE7AA488089FB
:10082000B4490988884207D1FFE7002001F03CF86D
:10083000AF4901200870FFE732E0A3488089AB4947
:100840000988884201DCFFE73CE19F4880891599CF
:10085000401A13901398A5490988884204DAFFE7E3
:10086000A2480088079003E013A800880790FFE7DC
:1008700007989549888116A80078C007002807D0F6
:10088000FFE79148808999490988884207D1FFE7A5
:10089000002001F009F8964901200870FFE7FFE702
:1008A00089480068042805D1FFE78748808902F05D
:1008B00037FDFFE706E116A8007801210840052171
:1008C00002F049FD01463C204843129017A80078E9
:1008D00040B201281FDBFFE77B480069814988425D
:1008E00005D3FFE778494B2080000861EAE07648AD
:1008F000006912994018119011987B49884203D3DE
:10090000FFE77848069002E011980690FFE7069806
:100910006D49086120E06C4800694B2189008842DC
:1009200004D8FFE768496F480861CBE06648006972
:100930006B4940181299884204D2FFE74B2080008F
:10094000059005E0604800691299401A0590FFE79C
:1009500005985D490861FFE7B4E016A80078012119
:100960000840052102F0F7FCFFF791FD5A49FFF717
:100970001EFC109017A8007840B2012823DBFFE787
:10098000514840695549FFF74DFD002804D1FFE764
:100990004D495148486195E04B4840691099FFF72F
:1009A000ADFB0F900F984D49FFF72EFD002803D1A6
:1009B000FFE74A48049002E00F980490FFE704988C
:1009C0004149486122E0404840694349FFF746FDFC
:1009D000002804D1FFE73C494048486172E03A48AA
:1009E00040691099FFF7DBFB0E900E983A49FFF72C
:1009F00027FD002803D1FFE73748039002E00E9857
:100A00000390FFE7039830494861FFE75AE016A8D2
:100A1000007801210840052102F09DFCFFF737FD19
:100A20002A49FFF7C4FB0D9017A8007840B20128AF
:100A300023DBFFE7244880692649FFF7F3FC002801
:100A400004D1FFE72049224888613BE01E488069C5
:100A50000D99FFF753FB0C900C981E49FFF7D4FC3F
:100A6000002803D1FFE71B48029002E00C98029097
:100A7000FFE702981449886122E01348806914490D
:100A8000FFF7ECFC002804D1FFE70F49114888610B
:100A900018E00D4880690D99FFF781FB0B900B98CA
:100AA0000B49FFF7CDFC002803D1FFE70848019070
:100AB00002E00B980190FFE7019803498861FFE786
:100AC00000E0FFE718B080BDFC00002000401C469D
:100AD00000409C4600B3714900007A44005CC14765
:100AE000D4FEFFFF3417000035170000740100200A
:100AF000880100207201002083B0029001916846B5
:100B000002800198029908600098401E029988802E
:100B100002990020C8800299088103B0704783B011
:100B2000019000910198C08801990989884204D1F7
:100B3000FFE702A90020087010E001990868098900
:100B4000405C0099087001980089401C01998A88CE
:100B50001040088102A901200870FFE702A8007870
:100B600003B0704784B0029001A801700298C08859
:100B7000411C0298808801406846018000880299E3
:100B80000989884204D1FFE703A9002008700BE01F
:100B90000198029A1168D288885400980299C880F6
:100BA00003A901200870FFE703A8007804B070478C
:100BB00080B584B0FFE75B4803A9FFF7B0FF0028CA
:100BC00000D1ADE0584800680290092800D9A6E09D
:100BD0000298810001A040588746C046050C0000DD
:100BE000150C0000270C0000510C00006B0C0000DD
:100BF0008B0C0000B90C0000C90C0000E90C0000CF
:100C0000050D000003A80078AA3841424841464932
:100C1000086084E003A80078BB38414248414000A6
:100C2000414908607BE003A8007809280BD1FFE761
:100C300003983E49087003A800783E4908803A4965
:100C40000320086003E0384900200860FFE766E001
:100C500003983649487003A80278364908888018F6
:100C6000088031490420086059E003982F498870B2
:100C700003A802782F490888801808802E49002090
:100C8000087029490520086049E003992A4803783B
:100C90005A1C0270254AD218D17003A90B78254A34
:100CA0001188C91811800078082804D3FFE71E496D
:100CB00006200860FFE732E0039800021C49088024
:100CC0001949072008602AE003A80278184801881B
:100CD00011430180008817490988401A4142484160
:100CE000C000114908601AE003A801780920002219
:100CF0000092EE29019001D00098019001980A49D4
:100D000008600CE003A80078FF2804D1FFE707483B
:100D100000F014F8FFE7044900200860FFE74AE705
:100D200004B080BD0C020020A0000020950000202F
:100D300092000020900000209400002080B590B028
:100D40000F908F49012008700F984078012855D1E5
:100D5000FFE70F988078012850D1FFE70F99C878F6
:100D60000002097940180EA9039108800F98807934
:100D70000DA9049108700F99C8790002097A4118E9
:100D80000CA801800F9A517A0902927A8A180BA94D
:100D90000A800088098801F05FFC039804990088A4
:100DA000097801F0B1FC01460AA80170007800281A
:100DB00023D0FFE773480068062801D1FFE7DCE095
:100DC00070480168C91F4A42514109AA11700721A0
:100DD0000160808C002805D1FFE70AA800786949E6
:100DE0008884FFE709A80078C007002804D1FFE73E
:100DF000012000F059FDFFE7FFE7BEE00F984078C3
:100E0000012800D095E00F988078002800D090E06D
:100E10000F99C87800020979401808A908800F982E
:100E2000407907A908700F99C8790002097A41181A
:100E300006A801800F9A517A0902927A8A1805A9A8
:100E40000A80089A524B1A80079A524B1A700088EF
:100E5000098801F001FC4B480068002805D0FFE735
:100E600048480068072801D1FFE786E04548006848
:100E7000062801D1FFE780E007A800780290032848
:100E80004BD0FFE70298092804D0FFE702980A2810
:100E90001BD04CE03B480068042815D0FFE73948D8
:100EA0000068052810D0FFE73648006803280BD0FB
:100EB000FFE73449042008603749002008703749AB
:100EC000087037490870FFE732E031480088002891
:100ED00001D0FFE72CE02B480068042805D0FFE78D
:100EE00028480068052803D1FFE702F053FA13E011
:100EF0002448006803280ED1FFE722490191002011
:100F000088832349088000F063FE0199012008606E
:100F100003F06AFAFFE7FFE70AE01A4800680628CC
:100F200004D0FFE7174907200860FFE700E0FFE76C
:100F300023E00F9803F05EFD00281ED0FFE7114864
:100F40000068002806D1FFE70E49002088830E497B
:100F50000880FFE70B48006806280BD0FFE7002059
:100F6000009000F0A1FC0098064A06211160074994
:100F70000870FFE703F038FAFFE710B080BDC04605
:100F80008A010020FC0000205001002066010020A2
:100F90006E01002070010020760100207801002001
:100FA0007701002080B58EB00DAB18700CA80170D1
:100FB0000B9200200A9009900B98002816D0FFE7AA
:100FC00007A900200870FFE707A8007807280CD8B9
:100FD000FFE70B9807A90A78805C09A98854FFE706
:100FE0000798401C07A90870EEE7FFE70DA80390DB
:100FF00001780CA8049002780A20029009AB00F056
:1010000010FD08A9088021480590AA2100F032FAB5
:101010000598BB2100F02EFA0299059800F02AFAF3
:1010200003990598097800F025FA0499059809783C
:1010300000F020FA06A900200870FFE706A8007853
:1010400007280DD8FFE706A8017809A8415C0F48DA
:1010500000F010FAFFE70698401C06A90870EDE7BB
:1010600008A8009041780948019000F003FA00991F
:101070000198097800F0FEF90198EE2100F0FAF9E4
:101080000198FF2100F0F6F90EB080BD000C004081
:1010900080B58AB0002009900890079043490868FD
:1010A000434A104308600868194A10430860182032
:1010B00007902020019008900920C006059007A9FC
:1010C000029100F089FE019802990222049207928F
:1010D0000890E548039000F07FFE029903980122F2
:1010E000069207921122089200F076FE0398049966
:1010F000069A00F021FF0598069A082100F01CFFCF
:101100000598069A102100F017FF0AB080BDC0466E
:1011100020005A5A80B58EB0002001900D900C909E
:101120000B900A9009900890079006900590049003
:10113000039002901D4908681D4A104308601D492C
:1011400008681D4A104308601C4908684022D243C1
:10115000104008600920C10608681040086018495E
:10116000086810400860BB490868072212069043CF
:1011700003225206801808602F200C90B9204000EE
:101180000D90802006903848009006A900F0FAFFE4
:101190000098019906220492059102A900F034FFFB
:1011A0000098019900F0DEFE0EB080BD3040004096
:1011B00010005A5A3840004040005A5A1C0000485B
:1011C0000400004880B586B0024605A8028004AA43
:1011D00011700088002805D0FFE704A800780028D7
:1011E00003D1FFE700F032F82BE004A8007865286F
:1011F00004DBFFE704A964200870FFE705A8018865
:101200001148FFF7B1F90390039904A80078484307
:10121000C821FFF7A9F9029003A80188124800909D
:1012200000F098FF009802A9098800F07BFF009861
:101230000121019100F0C0FE0098019900F092FE9A
:10124000FFE706B080BDC04640420F0080B582B0C7
:10125000054800900021019100F084FE009801995A
:1012600000F0AAFE02B080BD0018004080B58AB030
:1012700000200290099008901F4A11681F4B1943E3
:10128000116008A9019148802F20009008801C4817
:101290008880E948059000F021FA009801990880BB
:1012A0003B208880E548069000F018FA142003904F
:1012B0000121079103F02AFA02991520049003F006
:1012C00025FA039803F0D8F9049803F0D5F90598A6
:1012D000079A114600F0B4F90698079A114600F0F3
:1012E000AFF90598079900F039F90698079900F0C9
:1012F00035F90AB080BDC0463440004004005A5A57
:10130000E7030000F0B599B000200E9018901790F8
:1013100016901590149013901290119010904B48C5
:101320004B498022FFF7E8FB1020049001240D9424
:10133000214601F025FE08200690214601F04CFED2
:10134000022010902020059011900920C0060190E5
:1013500010A9099100F040FD0198099910941122FB
:101360000792119200F038FD049B0E98394A1168DB
:10137000194360239943116011682143062399435F
:10138000116013A90A918880C880334A1592888118
:10139000C8810882032048824B20800113902F4887
:1013A000029002F043FD029804210C91224602F0C3
:1013B000E9FC1B200390214603F070F9039803F029
:1013C0004BF92748274926023246FFF795FB059837
:1013D000214601F0D5FD0498214601F0FDFD059858
:1013E00009990C9A109211901F48089000F0F4FC93
:1013F000069B079A089809991093119200F0ECFC4B
:101400000A990E98194B1A6807252F02BA439219A8
:101410001A601A682D03AA43240312191A60E122E4
:1014200052021392088212480B9002F0FFFC0B98B4
:101430000C990D9A02F0A6FC0E991C200F9003F057
:101440002DF90F9803F008F919B0F0BD0C02002037
:101450008B01002018000048006CDC02000C0040EA
:10146000180300201802002000010048180100485D
:101470000010004080B584B0039002A801700120E4
:10148000C0030190FFE70398012102F019FC002836
:1014900008D1FFE70198401E0190002801D1FFE725
:1014A00006E0F0E7039802A9097802F0C7FEFFE71B
:1014B00004B080BD80B5C448012100F089F800283F
:1014C00007D0FFE701F0B6FEBF48012100F014F895
:1014D000FFE780BD80B5BD48012100F079F8002804
:1014E00007D0FFE701F080F9B848012100F004F8C7
:1014F000FFE780BD7047000080B582B0019068466C
:1015000001800198B04988420AD0FFE70198AF49AD
:10151000884205D0FFE70198AD49884201D1FFE735
:1015200004E0AC48922103F02DF9FFE768460088FB
:10153000012805D0FFE768460088402801D1FFE771
:1015400004E0A448932103F01DF9FFE768460288F0
:10155000019988699043886102B080BD80B582B0EE
:10156000019000910198984988420AD0FFE70198BC
:101570009649884205D0FFE701989549884201D1F4
:10158000FFE704E09348632103F0FCF8FFE70098CD
:10159000002804D0FFE70098012801D1FFE704E00C
:1015A0008C48642103F0EEF8FFE70098002806D08D
:1015B000FFE70199086801221043086005E00199DE
:1015C0000868012290430860FFE702B080BDC04672
:1015D00080B582B001906846018001987A498842BE
:1015E0000AD0FFE701987949884205D0FFE70198C2
:1015F0007749884201D1FFE704E07648822103F071
:10160000C1F8FFE768460088012805D0FFE7684673
:101610000088402801D1FFE704E06E48832103F0F1
:10162000B1F8FFE701980069694609880840411E42
:10163000884102B080BDC04600480040404800409C
:1016400080B584B0039002A80180019203985E499E
:1016500088420AD0FFE703985C49884205D0FFE73B
:1016600003985B49884201D1FFE704E059487221A1
:1016700003F088F8FFE70198002804D0FFE70198FD
:10168000012801D1FFE704E05248732103F07AF802
:10169000FFE702A80088012805D0FFE702A800881C
:1016A000402801D1FFE704E04A48742103F06AF8BA
:1016B000FFE70198002807D0FFE702A802880399F6
:1016C000C8681043C86006E002A802880399C86889
:1016D0009043C860FFE704B080BDC04680B582B0CB
:1016E000019000910198384988420AD0FFE701989B
:1016F0003649884205D0FFE701983549884201D133
:10170000FFE704E03348492103F03CF8FFE7009885
:10171000408800280FD0FFE70098408803280AD0AF
:10172000FFE700984088012805D0FFE7009840882F
:10173000022801D1FFE704E026484A2103F022F8FD
:10174000FFE7009800882449884206DCFFE70098FC
:101750000088012801DBFFE704E01E484B2103F06D
:1017600011F8FFE70098C088082805D0FFE7009827
:10177000C088002801D1FFE704E016484C2103F09F
:1017800001F8FFE715490868154A104308600098FA
:1017900080880199C8620098008801998862019840
:1017A0000068082188430099C988084301990860A6
:1017B0000198806807218843009949880843019966
:1017C000886002B080BDC0460048004040480040EC
:1017D00080480040CB4A0000FFFF0000344000403A
:1017E00004005A5A80B582B07448007A00281BD190
:1017F000FFE75B480078002814D0FFE76F48C07A05
:10180000002801D0FFE742E055490878401E0870E3
:10181000012000907D20000132213022002300F0C1
:10182000A1F800E033E0FFE76448C088012805DB49
:10183000FFE76249C888401EC88028E05F48807A78
:10184000002810D0FFE7FFF701FD5C4800218172FE
:101850008188C1808088002804D1FFE75749002093
:101860000872FFE712E05549087A401E0872C0B2BC
:1018700001280ADBFFE75149012088724888C880A7
:101880000888497AFFF79EFCFFE7FFE7FFE702B011
:1018900080BDC04680B5FFF73DFC48490020C872B6
:1018A0002F49087080BDC04680B584B0039003986E
:1018B0000290032851D80298810001A04058874621
:1018C000D11800001D19000031190000471900004F
:1018D0003A48C07A002801D0FFE73FE03748007A55
:1018E00000280FD1FFE71E48007800280AD1FFE743
:1018F000012000907D20000132213022002300F0E1
:1019000031F80AE016480078052805D8FFE71449A1
:101910000878401C0870FFE7FFE71FE00A200090EE
:101920007D200001322164231A4600F01BF815E0E7
:10193000012000907D2000014B218A0032210023EC
:1019400000F010F80AE0022000907D200001322112
:101950005022822300F006F800E0FFE704B080BDCB
:1019600039010020B0B586B004460A9805AD2C8038
:1019700004AC217003A90A8002A90B8001A9087098
:101980000E48C07A002801D0FFE715E005980B4902
:1019900008800498487203984880029888800198CB
:1019A00008720398C8800120887205A8008804A9DD
:1019B0000978FFF707FCFFE706B0B0BD280100205B
:1019C00080B513480078002801D1FFE71FE01148D7
:1019D0000078022801DBFFE719E00F4800880028A3
:1019E00005D0FFE70C490888401E08800FE0FFE79C
:1019F0000848007801280ADCFFE7064A1078411CF5
:101A0000117081000548401800F038F8F0E780BDFB
:101A1000640100206501002062010020964A000058
:101A2000704710B586B01446024605A8027004AA95
:101A3000117003A90C70029300781278801809784D
:101A4000401801A90880694600200870FFE7684631
:101A5000007807280ED8FFE7029869460978415CAC
:101A60000198401801A90880FFE70098401C6946CA
:101A70000870ECE701A8008806B010BD80B582B000
:101A80000190022001210022FFF78CFA02B080BDF4
:101A900080B582B0BA480068052801D1FFE736E07A
:101AA000B74880891B490988884212DDFFE7194839
:101AB0000088B3490191888102F096FC0198006882
:101AC000042805D1FFE7AE48808901F029FCFFE733
:101AD0001DE0AB488089002819D0FFE7A84880891D
:101AE00036490988884212DAFFE734480088A44959
:101AF0000091888102F078FC00980068042805D1E4
:101B0000FFE79F48808901F00BFCFFE7FFE702B089
:101B100080BDC0467201002080B582B09848808B9D
:101B2000002812D0FFE79648818B491E8183808B65
:101B3000142805D0FFE79248808B0A2804D1FFE7DC
:101B40000020FFF7B1FEFFE735E01C4801888C4814
:101B5000818104210160002101848160184A1160A3
:101B6000184B01221A70184A1170184A11704068F7
:101B7000012804D0FFE7824900200861FFE7804880
:101B80004068022804D0FFE77D4900204861FFE754
:101B90007B484068032804D0FFE77949002088612A
:101BA000FFE777480190808901F08DFB01988089DB
:101BB00001F0B6FBFFE702B080BDC0467401002013
:101BC0004C010020760100207801002077010020E0
:101BD00080B56B4900208881086148618861486050
:101BE00001228A608877088402F054FB80BDC046D9
:101BF00081B001466846017000788021084301B039
:101C00007047000082B001466846017000780A28DB
:101C100004DBFFE701A90020087006E068460178B0
:101C20000448405C01A90870FFE701A8007802B0F1
:101C30007047C046784A000080B5514800680628C1
:101C400003D1FFE700F0D0FE0AE04D48006800280D
:101C500003D1FFE700F090FE02E000F0C9FFFFE7CC
:101C600080BDC04680B584B0454840690021FEF77C
:101C7000E7FB002803D1FFE70020019003E0404884
:101C800040690190FFE70198039003980A49FEF725
:101C9000CBFAFEF71CFC029002980849884203D355
:101CA000FFE70748009002E002980090FFE70098E5
:101CB00080B204B080BDC0460000C842DF0300000F
:101CC000DE03000080B582B02D480068062801D1EF
:101CD000FFE753E00020FFF7E7FD29488189294A03
:101CE00011808189C320400048436421FEF73CFCF9
:101CF00001900198012803D8FFE70220009003E03B
:101D000001A800880090FFE700981F4908801D483F
:101D10000088002817D0FFE71B480088002812D051
:101D2000FFE71848008818490988FEF71DFC01469E
:101D3000164801800088002804D1FFE713490120DC
:101D40000880FFE703E0114901200880FFE7104900
:101D5000002008800F4908700F4A012111700F49B7
:101D600008700F4908700F49087007480088044937
:101D700088830520086001F0DDFAFFE702B080BD2E
:101D8000FC00002084010020800100207C01002054
:101D9000860100207E0100207901002082010020C0
:101DA0007A01002083010020084900200870704754
:101DB00080B506480078002806D1FFE701F0BAFA9E
:101DC000024901200870FFE780BDC0466C01002079
:101DD000704770477047000083B0029001910298ED
:101DE00000900921C906884205D0FFE700984349C1
:101DF000884206D00BE042490868434A1043086015
:101E000006E03F4908683F4A1043086000E0FFE7EA
:101E100001984068002807D1FFE7019802680299FD
:101E2000C8691043C86167E0019802680299C869EF
:101E30009043C86101980079C006002841D5FFE7AA
:101E400001980268029908681043086001980268C6
:101E5000029908699043086101984068112807D1E8
:101E6000FFE7019802680299086910430861FFE7DB
:101E7000019802680299486A904348620198026892
:101E80000299886A9043886201988068812108409D
:101E9000812807D1FFE7019802680299486A104338
:101EA0004862FFE70198806882210840822807D1B4
:101EB000FFE7019802680299886A10438862FFE789
:101EC00019E0019802680299086890430860019837
:101ED0004068202807D1FFE7019802680299486806
:101EE0009043486006E001980268029948681043F0
:101EF0004860FFE7FFE7FFE703B0704700010048D5
:101F00003040004020005A5A10005A5A84B00091C4
:101F100001460098029101A908800298006D098885
:101F2000084203D0FFE70120039002E00020039065
:101F3000FFE7039804B0704783B0029001A80180C6
:101F400000920098012805D1FFE701A800880299B6
:101F5000C86504E001A8008802998865FFE703B01E
:101F60007047704780B582B0019000910198D849C0
:101F7000884201D1FFE705E0D648F121490002F08F
:101F800001FCFFE70098002804D0FFE70098012833
:101F900001D1FFE705E0CF48FF21E43102F0F2FB79
:101FA000FFE7009A0199086801231A4098438018B6
:101FB000086002B080BDC04680B582B0019000913B
:101FC0000198C349884201D1FFE704E0C148BF211D
:101FD00002F0D8FBFFE70098002804D0FFE7009844
:101FE000012801D1FFE704E0BA48C02102F0CAFB92
:101FF000FFE7009A0199086A01231A409843801864
:10200000086202B080BDC04610B582B00190009158
:102010000198AF49884201D1FFE704E0AD4879213A
:1020200002F0B0FBFFE7009880680F2806D8FFE7B2
:10203000009880680A2801D0FFE704E0A5487A21CB
:1020400002F0A0FBFFE70098C068012805D0FFE779
:102050000098C068002801D1FFE704E09D487B217B
:1020600002F090FBFFE700980068002805D0FFE72A
:1020700000980068012801D1FFE704E095487C2121
:1020800002F080FBFFE700984068002805D0FFE7DA
:1020900000984068012801D1FFE704E08D487D21C8
:1020A00002F070FBFFE70098C2680199086AD20746
:1020B000920F02239843801808620199086A082247
:1020C000D3431840086201998869032290438861CC
:1020D0000098026801998869D207520F0424A0432E
:1020E000801888610098426801998869D207120FA8
:1020F00018408018886100988268019988695207A1
:10210000520E702398438018886100988268019964
:102110008869520301231B041A4098438018886180
:1021200002B010BD80B582B0019068460180019870
:102130006749884201D1FFE704E06648044902F09C
:1021400021FBFFE7684600880199486302B080BD23
:102150001E02000080B582B001906846018001989F
:102160005B49884201D1FFE704E05A48044902F084
:1021700009FBFFE7684600880199C86202B080BD8C
:102180000B02000080B582B0019000910198504987
:10219000884201D1FFE704E04E483E2102F0F2FA06
:1021A000FFE700980068802805D0FFE700980068E6
:1021B000002801D1FFE704E046483F2102F0E2FA9F
:1021C000FFE70098406800280FD0FFE700984068BC
:1021D00020280AD0FFE700984068402805D0FFE794
:1021E00000984068602801D1FFE704E039484021A9
:1021F00002F0C8FAFFE700988068002805D0FFE7E2
:1022000000988068102801D1FFE704E0314841219F
:1022100002F0B8FAFFE70098C068082805D0FFE789
:102220000098C068002801D1FFE704E02948422156
:1022300002F0A8FAFFE700980069042805D0FFE73C
:1022400000980069002801D1FFE704E021484321FC
:1022500002F098FAFFE700984069002805D0FFE7F0
:1022600000984069022801D1FFE704E019484421A1
:1022700002F088FAFFE70098408B002801D1FFE7C1
:1022800004E01448452102F07DFAFFE70198006858
:10229000FE218843009A11685368194393681943D3
:1022A000D3681943136919435269114308430199CB
:1022B000086000988069019988620098C069019956
:1022C000C8620199886807229043886002B080BD87
:1022D00000180040F54A0000FFE7FEE770470000E5
:1022E00080B586B05848007BC007002869D0FFE75A
:1022F00072B6554A117905A8017011680491002140
:10230000117362B6007800F046FA03900398002833
:1023100050D0FFE703984E49096888420BD1FFE788
:102320004A480078002805D1FFE748490878401C52
:102330000870FFE706E0039845490860434901201B
:102340000870FFE74148007800282FD0FFE7414898
:10235000006800280ED1FFE703993E4801603E4A1D
:10236000002111803D4A11703D4A1180006800F043
:102370007BF81AE0039837490968884214D0FFE7D0
:10238000344802900068022100F06EF80298039928
:102390000160314A00211180304A1170304A1180A9
:1023A000006800F061F8FFE7FFE7FFE72D49142020
:1023B000088005E025490020087025490860FFE7EE
:1023C000FFE72448006800283CD0FFE72548008844
:1023D000012822DBFFE723490888401E08801E48A9
:1023E0000188491C01800088642815D3FFE71B4938
:1023F000012008701A4A1088411C88B211801E28DA
:1024000009D3FFE71649002008801248006801211F
:1024100000F02AF8FFE7FFE713E00C4900200190E5
:1024200008700B4908600B4800900068022100F01A
:102430001BF800990198086007490880074908704F
:10244000FFE7FFE706B080BD3C01002067010020E8
:102450006801002024010020340100203801002000
:102460003A0100203601002080B584B0039002912B
:1024700003A8007802A9097801F05EFA01A90870A2
:102480000298002810D1FFE701A80078C0070028B3
:102490000AD0FFE701F0CCF8002804D1FFE70020C4
:1024A000FFF702FAFFE7FFE704B080BD81B069469D
:1024B00000200870FFE7684600780F280BDCFFE774
:1024C000684602783B4900208854FFE70098401C8A
:1024D00069460870EFE701B07047C04680B502F06A
:1024E0007FF9FFF7E3FF402002F06BF900F004F8FA
:1024F000082000F029F880BD80B582B0402002F0AD
:1025000060F902F0B9F9C02002F08AF901A90020AF
:102510000870FFE701A800780F280CDCFFE701A88E
:1025200001782448405C02F07BF9FFE70198401CE9
:1025300001A90870EEE702F0A7F91448007802F04C
:1025400040F902B080BDC04680B582B0014601A806
:1025500001700078002804D1FFE70C498020087042
:102560000DE001A80078092804DBFFE701A9082095
:102570000870FFE70198873004490870FFE70348B7
:10258000007802F01EF902B080BDC0468B0000202A
:1025900082B0024601A802706A46117000780F28C6
:1025A00006DCFFE7009801A90A7802498854FFE792
:1025B00002B07047520100207047704780B582B06A
:1025C0001F480068042805D1FFE71E48007800284E
:1025D00001D1FFE732E01C480078092807D0FFE767
:1025E0001A48008847490988884208DBFFE71549EF
:1025F0000020087016490870164908701EE014483B
:102600000078002801D0FFE718E0124A1078411C3A
:10261000C8B21170092801D8FFE70FE00D4900206A
:102620000870F0480190808900F04DFE0198808983
:1026300000F076FE064901200870FFE702B080BD79
:10264000FC00002076010020700100206E010020B7
:10265000780100207701002080B586B0024605A8E9
:10266000028004AA11800088002806D1FFE704A890
:102670000088002801D1FFE740E005A80088002875
:1026800004D0FFE705A80088019002E064200190D3
:10269000FFE7019803A9088004A80088002804D057
:1026A000FFE704A80088009002E00A200090FFE7FE
:1026B000009802A9088003A80088652804D3FFE7D2
:1026C00003A964200880FFE702A80088092804D82D
:1026D000FFE702A90A200880FFE702A8008803A9F3
:1026E0000988884201DDFFE708E003980449088073
:1026F000029804490880FFF7CBF9FFE706B080BDD8
:10270000720100207401002083B001AA1080684685
:1027100001700078C007002804D0FFE702A901205B
:10272000087034E001A800880007002804D0FFE703
:1027300002A9052008702AE001A800884006400F81
:10274000002804D0FFE702A9032008701FE001A8B9
:1027500000880521C901084204D0FFE702A908202A
:10276000087014E001A8008805210902084206D17A
:10277000FFE7684600788007002804D5FFE702A934
:102780000220087003E002A900200870FFE702A8F9
:10279000007803B0704783B0014601A8017000784B
:1027A00000902E280CD0FFE700983D2811D0FFE7BD
:1027B00000984C2807D0FFE700985B2806D00BE074
:1027C000012002900BE00220029008E0032002901A
:1027D00005E00420029002E000200290FFE702984A
:1027E00003B070477047704780B582B059480121E7
:1027F000FFF78CFB014601A801700078002805D086
:10280000FFE756490868401C086004E05249086820
:10281000401C0860FFE701A8007851490978884208
:1028200000D17FE001A80078012868D1FFE74D487A
:102830000078002815D1FFE7474800683D280FD3EE
:10284000FFE7454800684008E02809D8FFE7454908
:102850000120087045490020087043490860FFE7DF
:1028600049E041490868400008603C4800683A492E
:102870000968884206D9FFE73B49086801221043EE
:102880000860FFE7394A1078411CC8B21170182857
:102890000CD1FFE734480168090A8AB234490A605A
:1028A0000068087101208860087323E02F480078D1
:1028B00020281ED1FFE72C490A68100E130CC018FF
:1028C000120A8218684602700078097888420CD192
:1028D000FFE72548428826490A600068000A087117
:1028E0000220886001200873FFE71E49002008705D
:1028F000FFE7FFE7FFE71949002008600EE01748EF
:102900000068FF21C431884204D3FFE71549002045
:102910000870FFE7104900200860FFE701981049A0
:102920000870FFE70C480068E1214900884207D899
:10293000FFE70A480068FF21C431884208D3FFE757
:102940000849002008700449086004490860FFE74E
:1029500002B080BD00010048AC000020A8000020AB
:1029600000000020B4000020B0000020A4000020DF
:102970003C0100207047704780B582B0184800883D
:10298000002804D1FFE70020FEF78EFFFFE7144880
:102990000088132819D8FFE701A900200870FFE775
:1029A00001A800780B280BDCFFE701A80078FF21C5
:1029B00001F02CFEFFE70198401C01A90870EFE729
:1029C00007490888401C088007E006490120086084
:1029D0000020888302490880FFE702B080BDC0461E
:1029E00050010020FC00002080B58EB000200B902C
:1029F00001F050FD01F04EFC0B980DA90870FFE7A7
:102A00000DA8007802281ED8FFE70DA80078002145
:102A10000A9101F059FD0A990D98C01CC0B201F04D
:102A200053FD0A990D98801DC0B201F04DFD0A9921
:102A30000D980930C0B201F047FDFFE70D98401C2A
:102A40000DA90870DCE70DA900200870FFE70DA8AC
:102A5000007805280CD8FFE70DA801780B2000228C
:102A600001F0C6FCFFE70D98401C0DA90870EEE7C9
:102A70005E480078002815D1FFE70CA900200870F7
:102A8000FFE70CA800780B280BDCFFE70CA8007808
:102A9000FF2101F0BBFDFFE70C98401C0CA908705A
:102AA000EFE7A0E051480078032837D1FFE70CA9F1
:102AB00000200870FFE70CA800780B280BDCFFE76C
:102AC0000CA80078FF2101F0A1FDFFE70C98401C45
:102AD0000CA90870EFE70B20069000210791012256
:102AE000099201F085FC0698099A114601F080FCD4
:102AF0000698099A022101F07BFC0698099A0321A5
:102B000001F076FC0798099A0721089101F070FC02
:102B100007980899099A01F06BFC63E03348007844
:102B2000012829D1FFE70CA900200870FFE70CA8B5
:102B3000007802281FD8FFE70CA80078FF21049135
:102B400001F064FD04990C98C01CC0B201F05EFD58
:102B50000C98801DC0B20021059101F057FD059928
:102B60000C980930C0B201F051FDFFE70C98401CF1
:102B70000CA90870DBE734E00CA900200870FFE71F
:102B80000CA8007802281FD8FFE70CA800780021C5
:102B9000029101F03BFD02990C98C01CC0B201F0FB
:102BA00035FD0C98801DC0B2FF21039101F02EFD70
:102BB00003990C980930C0B201F028FDFFE70C988A
:102BC000401C0CA90870DBE70B2000900122019249
:102BD000114601F00DFC0098019A022101F008FC59
:102BE000FFE7FFE7FFE70EB080BDC04666010020AB
:102BF00080B594B0DB48006888490968884207D0EE
:102C0000FFE701F047FBD748006884490860FFE709
:102C10007D20C00001F03EFCD2480168002002295E
:102C2000109006D1FFE7CF48807F41424841109085
:102C3000FFE710980121084013A9087012A900208D
:102C40000870FFE712A8007802286CD8FFE712A8E6
:102C500000780E9013A801780020C90700290F9072
:102C600007D0FFE7BF488068401E414248410F90AF
:102C7000FFE70E980F9901221140C0B201F024FC29
:102C800012A80078C01C0C9013A801780020C90776
:102C900000290D9007D0FFE7B2488068C01E41426E
:102CA00048410D90FFE70C980D9901221140C0B2E8
:102CB00001F00AFC12A80078801D0A9013A8017880
:102CC0000020C90700290B9006D0FFE7A5488068BF
:102CD000414248410B90FFE70A980B9901221140AD
:102CE000C0B201F0F1FB12A800780930089013A8D7
:102CF00001780020C9070029099007D0FFE799480B
:102D00008068801E414248410990FFE70898099970
:102D100001221140C0B201F0D7FBFFE71298401C1E
:102D200012A908708EE78F4800680790401E02289D
:102D300029D3FFE70798032809D0FFE70798001F6A
:102D4000022820D3FFE70798072856D062E001F059
:102D5000A1FA8448808B09300A21FDF705FC014661
:102D600011A801700078002804D1FFE711A9012003
:102D70000870FFE711A801780122009207200023C4
:102D800001F0C8FB47E000F019FC01460023049362
:102D9000009303220392184601F0BCFB7148029095
:102DA00080691F49FDF740FAFDF778FB039A049B01
:102DB00001460093104601F0ADFB0299039A049876
:102DC0008989009006200223069301F0A3FBFEF7F9
:102DD00049FF039A069B014604980090092001F0E0
:102DE00099FB0498069A0721059101F001FB0498CC
:102DF0000599069A01F0FCFA0DE00620792101F010
:102E000005FC5848818C002300930720022201F022
:102E100081FB00E0FFE714B080BDC046B800002091
:102E200000007A4480B588B0FFF7C8FB4C4A1078A0
:102E3000411CC8B21170092801D8FFE78DE048494C
:102E4000002004900870474805908089FDF71FFB1B
:102E50004549FDF7E9F90790079944480390006850
:102E6000FDF74CF9039B0499024605981A6006AADF
:102E700011704068012814D1FFE73A480069002822
:102E800005D0FFE737490869401E0861FFE735486C
:102E90000069002804D1FFE706A901200870FFE7B8
:102EA0000DE030480169491C0161006930498842E0
:102EB00004D3FFE706A901200870FFE7FFE72948D0
:102EC0004068022815D1FFE707992648029040691B
:102ED000FDF765F901460298416140690021FDF75F
:102EE000BDFA002804D1FFE706A901200870FFE71A
:102EF00004E01E4800681B494861FFE71948406824
:102F0000032819D1FFE707981B49FDF750F901463F
:102F1000144801908069FDF7F1F80146019881613C
:102F200080690021FDF79AFA002804D1FFE706A97D
:102F300001200870FFE707E00C4800680D49FDF725
:102F400036F908498861FFE706A80078C00700281D
:102F500003D0FFE7FEF7B6FEFFE708B080BDC0462E
:102F6000BC000020FC000020000010424C010020AA
:102F70003417000000008C4200008CC2704770477C
:102F800080B582B00190009101983621C943084272
:102F900005D1FFE70198002801D0FFE704E0884849
:102FA0000C4901F0EFFBFFE70098002808D0FFE78D
:102FB000019827490A6810431E4A1043086007E039
:102FC00023490868019A90431A4A10430860FFE7B2
:102FD00002B080BD8702000080B582B001900091F0
:102FE0000198C009002805D1FFE70198002801D009
:102FF000FFE704E072480D4901F0C4FBFFE70098C9
:10300000002808D0FFE7019809490A681043094AD7
:103010001043086007E006490868019A9043054A92
:1030200010430860FFE702B080BDC0469E0200006A
:103030003840004000005A5A80B50120C00200F01C
:103040000BF803490868034A1043086080BDC04676
:103050003040004002005A5A80B584B0029001A965
:103060005648088002980121C902884258D0FFE7DB
:10307000029801210903884252D0FFE702980321F8
:10308000C90288424CD0FFE70298012149038842D7
:1030900046D0FFE702980521C902884240D0FFE7E9
:1030A00002980321090388423AD0FFE702980721DA
:1030B000C902884234D0FFE702980121890388427F
:1030C0002ED0FFE702980921C902884228D0FFE7E5
:1030D000029805210903884222D0FFE702980B21BC
:1030E000C90288421CD0FFE70298032149038842A5
:1030F00016D0FFE702980D21C902884210D0FFE7E1
:1031000002980721090388420AD0FFE702980F219D
:10311000C902884204D0FFE70298002801D1FFE7E6
:1031200005E027488D21490001F02CFBFFE70298BC
:103130000121C90288420DD1FFE7224800684007FB
:10314000002806D1FFE720490868204A104308609C
:10315000FFE7FFE702981E4909881E4A114008430D
:103160001D4908601D4908681D4A10430860FFE7B3
:1031700019480168002009040029009006D4FFE7DF
:1031800001A80088411E88410090FFE70098C00711
:10319000002805D0FFE70198401E01A90880E7E755
:1031A00001A80088002803D1FFE70120039002E076
:1031B00000200390FFE7039804B080BDFFFF0000EC
:1031C0009E4A0000004000400840004010005A5A4B
:1031D000C0071000FF0700001840004004400040F6
:1031E00001005A5A7047000080B582B0002001905B
:1031F000FFE7019807281BD8FFE701980101244841
:103200004018C06800280ED0FFE70198010120484F
:103210000090405880470098019909014118C868FA
:10322000401EC860FFE7FFE70198401C0190E0E7FF
:1032300002B080BD81B000200090FFE70098072811
:1032400023D8FFE700980101114840184068002882
:1032500008D0FFE7009801010D4841184868401E5A
:1032600048600DE00098010109484218D168491CE6
:10327000D1600099090141188868401E4860FFE745
:10328000FFE70098401C0090D8E701B07047C046A7
:103290000400002080B5012000221146FDF782FEC7
:1032A00080BD80B584B0014603A801800021029151
:1032B0000191407801AA1070039850700320FDF727
:1032C00071FE04B080BD80B582B001A90880694656
:1032D00000200870FFE76846007802280BD8FFE757
:1032E000022000221146FDF75DFEFFE70098401C1A
:1032F00069460870EFE7694600200870FFE76846F6
:10330000007802280AD8FFE701A80088FFF7C9FF64
:10331000FFE70098401C69460870F0E702B080BDE6
:1033200080B582B0014601A801800088FFF7B9FF8F
:1033300002B080BD80B584B00220019001210291CD
:1033400000220392FDF72EFE01980299039AFDF7E1
:1033500029FE04B080BD85B0024604A80270039126
:103360000078C007002803D0FFE70398019002E02F
:1033700001200190FFE7019802900298002803D1F4
:10338000FFE70120009002E002980090FFE700981C
:1033900005B0704780B582B0D4480068062801D1D6
:1033A000FFE717E0E44900200870E2490880D849A7
:1033B0000870D8490870D8490870D8490870CB49B6
:1033C00001918883FEF704FC01990120086001F057
:1033D0000BF8FFE702B080BD80B584B0C548008817
:1033E000002869D0FFE7CD4900200870C848007860
:1033F000002817D0FFE7C7480078002812D1FFE760
:10340000C54A1078411CC8B211700A2809D3FFE7D9
:10341000C14900200870FFF78DFFBE4901200870E8
:10342000FFE7FFE7B3480088BF490988884204DA0C
:10343000FFE7B0480088009003E0BB480088009098
:10344000FFE7009803A90880B948018802A8018015
:103450000088002804D1FFE702A901200880FFE7C7
:10346000A248808902A90988884207DDFFE79F48B2
:1034700080890299401A01A9088003E001A900206F
:103480000880FFE703A8008801A90988884204DAB8
:10349000FFE7039801A90880FFE70199934881811C
:1034A000808B002805D0FFE7E849888B401E888381
:1034B000FFE700F099FF26E0954900200870954944
:1034C0000870954908708C4800780A2803D1FFE7F6
:1034D000FFF760FF17E0974A1088411C88B21180FF
:1034E0001E2803D3FFE7FFF755FF0CE08B48007859
:1034F0000E2805D8FFE789490878401C087002E0CB
:10350000FFF748FFFFE704B080BDC04603480268EC
:1035100003490868801808607047C0468C00002086
:1035200024030020014902480860704784000020FD
:1035300000093D0080B50B4802880B4908680B4B19
:103540001A400B4B1840801808600A4802880A4944
:1035500008680A4B1A400A4B184080180860FFF7A9
:10356000E1FF80BDC007100018400040FF070000C9
:1035700000F8FFFFC207100020400040FF030000DA
:1035800000FCFFFF80B500F067F980BD80B500F05A
:10359000FBF880BD80B5FDF70BFBFEF7A1FE80BDFB
:1035A00080B5FEF71FF980BD80B500F09DFE80BD9F
:1035B00080B500F08BF980BD7047704780B584B04E
:1035C000DB4801690391406801281BD1FFE7D84817
:1035D0000068042805D0FFE7D5480068052811D108
:1035E000FFE70398002803D1FFE70020029006E0E0
:1035F00003983B303C21FCF7B7FF0290FFE70298AD
:10360000039005E003983C21FCF7AEFF0390FFE731
:103610000398642803D3FFE76320019003E003A825
:1036200000880190FFE7019880B204B080BDC046D9
:1036300081B043480078C007002807D0FFE7404921
:103640000020087069460120087003E069460020E8
:103650000870FFE76846007801B0704780B582B017
:10366000B34A00200190106022230121D154262367
:10367000D054908490831E4A10801E4A10801E4AA7
:1036800010701E4B64221A801D4B0A221A801D4A9C
:1036900010701D4A10701D4A10701D4A10701D4A8E
:1036A00010701D4A10701D4A1070A24A10709F4A77
:1036B00010809D4A1070844A1070824A1070184A17
:1036C0001070184A1060184A1080184A1080184A62
:1036D00011801849088018490870FEF779FA019896
:1036E000164908701649087002B080BDFC00002021
:1036F000500100206E0100207001002072010020A6
:10370000740100207601002078010020770100205C
:1037100079010020820100207A010020830100202D
:103720006C0100204C010020840100208001002059
:103730007C010020860100207E010020660100201F
:103740008801002083B07848017800200029029089
:1037500014D0FFE7754801880020002902900DD1A0
:10376000FFE77448017801200022009201290190AE
:1037700001DC0098019001980290FFE70298012176
:10378000084003B07047C04680B582B06848807F6B
:1037900000280BD0FFE76649887F401E8877000627
:1037A000002803D1FFE700F01FFEFFE76048006834
:1037B000072810D1FFE727480068072803D0FFE754
:1037C000FEF7F2FAFFE7234907200860FEF7F0FA58
:1037D000FEF732FA37E0564801681D4A116000686A
:1037E00000280AD0FFE7FE480068012805D0FFE75F
:1037F000FB480068022803D1FFE7FEF7E1F8FFE786
:10380000F7480068062803D1FFE7FEF715FA1AE02B
:10381000F34800680190032808D0FFE701980428C6
:1038200007D0FFE70198052806D008E0FEF774F9F5
:1038300006E0FFF7F7FA03E0FFF7CEFD00E0FFE751
:10384000FEF7FAF9FFE702B080BDC046FC00002099
:10385000C4000020C000002080B5E14800680028B6
:1038600001D1FFE72DE017480078002806D0FFE7D8
:10387000144900200870144908700BE012480078C1
:1038800040087C2805D8FFE70F490878401C0870DD
:10389000FFE7FFE70C480078052812D3FFE7FFF7A2
:1038A00051FF00280DD0FFE7CD480068072808D059
:1038B000FFE7CB490720086001208884FDF7F4FF6B
:1038C000FFE780BD8A0100208901002080B51648ED
:1038D000007800280DD1FFE713480178491C0170DA
:1038E0000078012804D1FFE7104902200880FFE793
:1038F000FFE7BB480068072801D1FFE713E0B8489D
:103900000068002801D1FFE70DE00A48007801288F
:1039100006DCFFE704480078002801D0FFE702E05A
:10392000FFF7B8FCFFE780BD6401002062010020C2
:10393000FC0000206501002080B588B006AA107048
:1039400005A80170A6480068062828D1FFE705A849
:10395000007800281FD1FFE7A5480078002804D18F
:10396000FFE7A349012008700EE0A1480078032872
:1039700004D3FFE79E490120087004E09C490878C1
:10398000401C0870FFE7FFE700F02EFDFEF754F93A
:1039900000F0AAFCFFE707A9012008701BE105A8B9
:1039A0000078022804D1FFE707A90020087012E17F
:1039B00006A80078042805D0FFE706A800780328A9
:1039C00009D1FFE705A80078012804D1FFE707A97E
:1039D00000200870FFE082480068002804D1FFE75B
:1039E00007A901200870F6E07D480068401E049099
:1039F000042800D9E8E00498810001A040588746D7
:103A0000153A00007B3A0000393B0000553B0000AE
:103A1000C13B000006A80078012805D0FFE706A8F2
:103A20000078022804D1FFE707A900200870D2E03F
:103A300006A8007803280FD1FFE7FFF783FE0028D0
:103A400004D1FFE707A901200870C4E064490320FE
:103A500008601E2088830FE006A8007804280AD199
:103A6000FFE75F4902200860012088604860E1208C
:103A7000C0000861FFE7FFE7A7E006A80078042878
:103A800026D1FFE756488068012809D1FFE754494D
:103A9000002008610220886048605448486116E0B0
:103AA0004F488068022809D1FFE74D49002048614E
:103AB0000320886048604C48886107E0FEF788F87A
:103AC00047490120086000208883FFE7FFE732E0D4
:103AD00006A80078012805D0FFE706A8007802288C
:103AE00013D1FFE706A8017802910020C043012905
:103AF000039001D102980390039805A90978491E03
:103B00004A425141FCF738FE14E006A80078032829
:103B10000FD1FFE7FFF716FE002804D1FFE707A942
:103B20000120087057E02E49032008601E2088837A
:103B3000FFE7FFE7FFE748E006A80078032808D181
:103B4000FFE7FEF745F8264901200860002088833A
:103B5000FFE73AE006A80078042804D1FFE707A9A8
:103B60000020087037E006A80078032806D1FFE798
:103B7000FEF7A8F81B490120087020E006A800788D
:103B8000012805D0FFE706A80078022816D1FFE734
:103B9000134900208860088406A909780091C04371
:103BA0000129019001D100980190019805A9097897
:103BB000491E4A425141FCF7DFFDFFE7FFE704E001
:103BC00007A90020087006E0FFE700F00DFC07A938
:103BD00001200870FFE707A8007808B080BDC04644
:103BE000FC000020880100200050C34700409C4595
:103BF0006601002080B582B08848042100F090F86A
:103C000000280DD0FFE78548019000F0F9FA014641
:103C10000448FCF7A7FF0198042100F01FF8FFE714
:103C200002B080BD0C02002080B582B07C48042127
:103C300000F076F800280DD0FFE77948019000F0F9
:103C4000DFFA01460448FCF78DFF0198042100F0DB
:103C500005F8FFE702B080BD1803002080B582B0F0
:103C600001906846018001986C49884205D0FFE7C1
:103C700001986B49884201D1FFE705E06948BB2103
:103C8000490000F07FFDFFE7684600880B490842C5
:103C900006D1FFE768460088002801D0FFE705E06D
:103CA0006048FF21783100F06DFDFFE7684602882B
:103CB0000199086A9043086202B080BDA1F100003A
:103CC00080B582B0019068460180019853498842CE
:103CD00005D0FFE701985249884201D1FFE705E08E
:103CE00050486521890000F04DFDFFE700200028C5
:103CF00006D1FFE768460088002801D0FFE705E00D
:103D00004848FF21963100F03DFDFFE70198C0696A
:103D1000694609880840411E884102B080BDC046FE
:103D200080B582B001906846018001983B49884285
:103D300005D0FFE701983A49884201D1FFE705E045
:103D40003848AD21490000F01DFDFFE768460088B6
:103D50003549084206D1FFE768460088002801D0AF
:103D6000FFE705E02F48FF215C3100F00BFDFFE786
:103D70000198C069694609880840411E884102B01F
:103D800080BDC04680B584B0039002A80180019236
:103D900003982249884205D0FFE7039820498842CA
:103DA00001D1FFE705E01F48FF21363100F0EAFCB2
:103DB000FFE702A800881C49084206D1FFE702A8D5
:103DC0000088002801D0FFE705E016489B21490044
:103DD00000F0D8FCFFE70198002804D0FFE7019825
:103DE000012801D1FFE705E00E48FF21383100F03E
:103DF000C9FCFFE70198002807D0FFE702A8028866
:103E0000039988681043886006E0029A03998868DD
:103E1000904380B28860FFE704B080BD000C004092
:103E2000001000401F4B0000A0F1000080B590B0D2
:103E30000F900E910DA9002008800CA908800B900E
:103E40000F98FB49884205D0FFE70F98F94988424F
:103E500001D1FFE704E0F848892100F093FCFFE777
:103E60000E980068002807D0FFE70E980068DC492C
:103E7000884201D8FFE704E0EF488A2100F082FC85
:103E8000FFE70E988088002815D0FFE70E988088FD
:103E90000121490288420ED0FFE70E988088012157
:103EA0008902884207D0FFE70E98808803214902E3
:103EB000884201D1FFE704E0F5488B2100F062FC65
:103EC000FFE70E98C08800280ED0FFE70E98C08844
:103ED00001214903884207D0FFE70E98C0880321DB
:103EE0000903884201D1FFE704E0E9488C2100F092
:103EF00049FCFFE70E988068002807D0FFE70E987E
:103F00008068B849884201D8FFE704E0E0488D2185
:103F100000F038FCFFE70E988089002807D0FFE703
:103F20000E98808901210902884201D1FFE704E04F
:103F3000D7488E2100F026FCFFE70E98C0890028A4
:103F40000AD0FFE70E98C089202805D0FFE70E9819
:103F5000C089102801D1FFE704E0CD488F2100F08F
:103F600011FCFFE70E98008A00280FD0FFE70E989B
:103F7000008A08280AD0FFE70E98008A0C2805D08E
:103F8000FFE70E98008A042801D1FFE704E0C0484B
:103F9000902100F0F7FBFFE70E98408A8008002888
:103FA00006D1FFE70E98408A002801D0FFE704E021
:103FB000B748912100F0E6FBFFE70E98808A0028C1
:103FC0000FD0FFE70E98808A08280AD0FFE70E98E6
:103FD000808A042805D0FFE70E98808A0C2801D13A
:103FE000FFE704E0AA48922100F0CCFBFFE70F981E
:103FF0000A90A549884205D0FFE70A98A34988425C
:1040000008D00FE0784908687A4A1043784A10408F
:10401000086008E074490868744A1043744A104004
:10402000086000E0FFE70F980068734908400E9AA7
:10403000D1889388194393891943D3891943138AE3
:104040001943528A114308430F9908600F9840683A
:104050000C2188430E99898A08430F9948600E986D
:10406000008A002806D0FFE70F9908684022104315
:10407000086005E00F990868402290430860FFE758
:104080000E988088002838D1FFE70E980690806847
:10409000FCF7FDF901460698079100680001FCF75E
:1040A000F6F901460798FCF7BFF80B900B98FCF760
:1040B000F5F901460DA8099001800B990891008837
:1040C000FCF7DAF901460898FCF769F88321C9057D
:1040D000FCF76DF8FCF734FA0022484BFCF7E2F8E5
:1040E000FCF70AFA099902460CA8028009880F9A7F
:1040F000D16000880F9908616FE00E9880880121D7
:10410000490288421FD1FFE70E9804908068FCF7AF
:10411000BEF90146049805910068C000FCF7B7F9A4
:1041200001460598FCF780F8FCF70AFA0022334BA9
:10413000FCF7B8F8FCF7E0F901460DA8018000880B
:104140000F99C86048E00E98808801218902884252
:104150001FD1FFE70E9802908068FCF798F901469E
:104160000298039100688000FCF791F901460398DA
:10417000FCF75AF8FCF7E4F90022204BFCF792F820
:10418000FCF7BAF901460DA8018000880F99C860B4
:1041900021E00E9800908068FCF779F98721C90525
:1041A000FCF705F80146009801910068FCF76FF9EB
:1041B00001460198FCF738F8FCF7C2F900220F4BD2
:1041C000FCF770F8FCF798F901460DA8018000880B
:1041D0000F99C860FFE7FFE7FFE710B080BDC0465A
:1041E000001BB700006CDC023840004010005A5A37
:1041F000FFFF5A5A08005A5AC8C8FFFF0000E03FA4
:1042000080B582B0019001981F49884205D0FFE730
:1042100001981E49884201D1FFE704E01C4876213D
:1042200000F0B0FAFFE70198406AC0B202B080BD6A
:10423000000C0040001000401F4B000080B582B011
:1042400001906846017001980F49884205D0FFE748
:1042500001980E49884201D1FFE704E00C4845214E
:1042600000F090FAFFE768460078FF2801DCFFE7DE
:1042700004E00748462100F085FAFFE76846007829
:104280000199886202B080BD000C0040001000401F
:104290001F4B000081B0694600200870FFE76846A8
:1042A00000780B2814DCFFE769460B78E64A00200B
:1042B000D0540B78964AD0540B78494AD0540A7897
:1042C00048498854FFE70098401C69460870E6E7B3
:1042D000DE490120087001B07047C04680B5FEF786
:1042E000FDF8FFF7D7FF80BD80B586B03949088853
:1042F000401C088080B27349098888420CDBFFE7C4
:10430000344900200880344A13780120014699433B
:104310001170CE490870FFE7CC480078C00700282C
:1043200001D1FFE754E005A900200870FFE705A8C8
:1043300000780B2846DCFFE705A802782749895C4E
:1043400004AA11700178C048405C03A90870224893
:104350000078C007002809D1FFE705A801786C485C
:10436000415C0398884303A90870FFE703A8019004
:10437000007800F0F3FA0199087005A80178184850
:10438000405C02A9087014480078C007002809D1D1
:10439000FFE705A801781348415C0298884302A909
:1043A0000870FFE702990398084303A9087004A85E
:1043B00000780978FEF7ECF8FFE70598401C05A99E
:1043C0000870B4E7FEF798F8A04900200870FFE7EE
:1043D00006B080BDCA000020C8000020824A00004C
:1043E000D8000020E40000209849012008707047A0
:1043F00010B584B0034603A8037002AB1970019294
:1044000000780B2805DCFFE702A80078082801DB0C
:10441000FFE73CE002A80178012088406946087067
:10442000019801280ED1FFE7009C03A80378864A73
:10443000D15C2143D154009B02783549885C984374
:10444000885420E0019800280ED1FFE7009C03A8C3
:1044500003787D4AD15CA143D154009B02782C495A
:10446000885C984388540DE0009C03A80378764A42
:10447000D15C2143D154009B02782549885C1843C4
:104480008854FFE7FFE7714901200870FFE704B097
:1044900010BDC04680B582B0014601A801800088E9
:1044A000632803DCFFE70120009006E001A80088F4
:1044B0006421FCF759F80090FFE700980149088053
:1044C00002B080BD8800002082B0024601A80270C0
:1044D0006A46117000780C2801DBFFE715E068469A
:1044E0000078C007002806D0FFE701A80278084935
:1044F000FF20885405E001A802780549002088546F
:10450000FFE7524901200870FFE702B07047C0463C
:10451000CC00002010B58CB00E9C0BAC20700AA80B
:10452000018009A8027008A803700A9807A90880EA
:1045300006A900200870FFE706A8007809A90978F5
:10454000884261DAFFE70B990998069A801A4018A9
:10455000411E05A8017000780C2801DBFFE74EE042
:1045600007A800880A21FBF7FFFF0846FDF74AFB72
:1045700004A9087008A8007806A90978491C88428F
:1045800008D1FFE704A803900078FDF731FB0399F9
:104590000870FFE70E98012822D1FFE707A80088DE
:1045A00000281DD1FFE706A80078012818DBFFE7E7
:1045B00006A80078029008A80078002804D0FFE739
:1045C00008A80078019002E001200190FFE702981E
:1045D0000199884204DBFFE704A900200870FFE787
:1045E00005A8007804A9097800F010F807A8009041
:1045F00000880A21FBF7B8FF00990880FFE70698BA
:10460000401C06A9087097E70CB010BD82B00246A6
:1046100001A802706A46117000780B2812DCFFE7CF
:1046200001A801780848405C69460978884209D0A9
:10463000FFE7009801A90A7803498854034901203B
:104640000870FFE702B07047F00000208A000020E9
:10465000704770477047000081B0009000980028B4
:1046600008D4FFE700991F200140012088400A4933
:104670000860FFE701B0704781B000900098002803
:1046800008D4FFE700991F2001400120884002491B
:104690000860FFE701B0704700E100E070B582B04C
:1046A000019000910198002814D4FFE7019803219C
:1046B000CB431840324A805801998C07E50EFF24FD
:1046C000AC40A043009CA401E4B2AC40204319409C
:1046D000885018E001980F24204008380321CB436C
:1046E0001840264A805801998D07EE0EFF25B540E7
:1046F000A843009DAD01EDB2B540284321400839E3
:1047000019408850FFE702B070BDC04670B582B056
:10471000019000910198002814D4FFE7019803212B
:10472000CB431840164A805801998C07E50EFF24A8
:10473000AC40A043009CA401E4B2AC40204319402B
:10474000885018E001980F24204008380321CB43FB
:1047500018400A4A805801998D07EE0EFF25B54092
:10476000A843009DAD01EDB2B54028432140083972
:1047700019408850FFE702B070BDC0461CED00E054
:1047800000E400E082B00190009102B0704780B573
:1047900082B000200190FEF74FFCFEF7EBF8FCF72B
:1047A00065FDFCF7AFFDFCF773FCFDF797FEFDF729
:1047B00071F8FFF793FDFEF751FFFFE7FEF714FDD9
:1047C000FCE780B582B001A90091087000F054F8B0
:1047D0000098007800F024F800F056F802B080BD90
:1047E00080B584B000200390029001900A490868C7
:1047F0000A4A1043086018200190202002900920E6
:10480000C00601A9FDF7E8FA244910200860082035
:10481000086004B080BDC0463040004010005A5AC5
:1048200082B001A90870694600200870FFE7684659
:10483000007807281EDCFFE717491020086001A850
:104840000078C007002804D0FFE71449082008605A
:1048500003E0114908200860FFE701A90878400833
:1048600008700E4910200860FFE70098401C694658
:104870000870DCE702B07047084A08201060102179
:104880001160054908607047034908200860034922
:1048900010220A6008607047580000485C00004819
:1048A00082B0014601A801706A46002111700078AB
:1048B000C007002806D0FFE7009801210843694699
:1048C0000870FFE701A800788007002806D5FFE7F9
:1048D00000980221084369460870FFE701A80078A4
:1048E0004007002806D5FFE70098042108436946E1
:1048F0000870FFE701A800780007002806D5FFE749
:1049000000980821084369460870FFE701A800786D
:10491000C006002806D5FFE7009810210843694625
:104920000870FFE701A800788006002806D5FFE799
:1049300000982021084369460870FFE701A8007825
:104940004006002806D5FFE7009840210843694645
:104950000870FFE76846007802B0704780B586B0FF
:10496000014605A8017000787F210840FFF798FFF5
:1049700004A9087003A90020087002A90870FFE7C5
:1049800002A80078072822D8FFE702A80178184873
:10499000415C01A801700078062812D8FFE704A83E
:1049A000007801A90978C840C007002809D0FFE7AE
:1049B00002A80078012181400398084303A90870E8
:1049C000FFE7FFE70298401C02A90870D8E705A896
:1049D00000780006002806D5FFE703980221084367
:1049E00003A90870FFE703A8007806B080BDC046A1
:1049F0008E4A000082B001900198017800200929B8
:104A000000900ED1FFE7019841780020FF29009027
:104A100007D1FFE701988078FF3841424841009074
:104A2000FFE700980121084002B070472021020CE6
:104A300001D010211046020A01D01046083902099F
:104A400001D01046091F820801D01046891E420875
:104A500001D0881E7047081A704702E008C8121F6C
:104A600008C1002AFAD170477047002001E001C157
:104A7000121F002AFBD170473F065B4F666D7D0712
:104A80007F6F07080905060A0E0D040F0C0B0308BB
:104A900002060504000101010000010100002E2EA4
:104AA0002F2E2E2F2E2E2F2E2E2F4C6962726172DA
:104AB0006965732F7372632F637733326C303130D3
:104AC0005F7379736374726C2E63002E2E2F2E2EFB
:104AD0002F2E2E2F2E2E2F4C6962726172696573F4
:104AE0002F7372632F637733326C3031305F6274AF
:104AF000696D2E63002E2E2F2E2E2F2E2E2F2E2E52
:104B00002F4C69627261726965732F7372632F63D0
:104B10007733326C3031305F6774696D2E63002EED
:104B20002E2F2E2E2F2E2E2F2E2E2F4C696272619D
:104B3000726965732F7372632F637733326C303110
:104B4000305F756172742E6300000000704B0000CE
:104B500000000020900000005A4A0000004C0000B5
:104B600090000020980600006A4A00000000000043
:104B700001000000A135000000000000010000005D
:104B80000000000095350000030000000A0000004E
:104B900000000000A935000007000000140000001C
:104BA000000000008D3500000D00000064000000D2
:104BB00000000000B135000015000000FA00000000
:104BC00000000000B9350000250000002C010000A5
:104BD00000000000BB3500002B000000F4010000C5
:104BE00000000000853500003B000000E8030000E5
:104BF0000000000000093D000A00018A01000000D9
:04000005000000C136
:00000001FF
