:0300000002274A8A
:10274A0075C7AA75C75575FD5A75C7AA75C7557550
:10275A00FDA5787FE4F6D8FD9000007FFF7E03E4B4
:0C276A00F0A3DFFCDEFA7581200227B12D
:1021EB005101543F0C765E4D5B7B0E7F5F6F7F33EF
:0421FB003F73633D8E
:1036A200E4FEEEC3940874809480500FC292EF132C
:0D36B2009291EFC313FFD2920E80E7C292F7
:0136BF0022E8
:10378100C293EF44C0FF1236A2AF051236A2D29304
:013791002215
:10367300C293EF44C0FF1236A29001A2E0D394009C
:1036830074809480401612054AFF1236A2740129F1
:0F369300F9E43AFA9001A2E014F080DDD293221C
:0C37F600C293EF4488FF1236A2D2932247
:10372B00C2937F011236A2D293C2937F401236A26C
:08373B00D2937F051237F6223C
:0421FF004101980002
:102EC20012372B900198E0606DE4F09000CFE07033
:102ED20033900199E0FDE4FF12378190019AE0FD01
:102EE2007F0212378190019BE0FD7F0412378190AF
:102EF200019CE0FD7F0612378190019DE0FD7F0875
:102F020012378122E4FDFF1237817D737F0212376F
:102F120081900154E0FD7F041237819000CFE024BC
:102F220054F582E43401F583E0FD7F06123781E433
:072F3200FD7F081237812228
:0C2203004101740041018100410178009C
:10375B009001757401F0A37401F0A37499F07F01CB
:04376B00123792225D
:1036DD00900175E0FBA3E0FAA3E0F98F82758300FA
:0B36ED00ED1205A29001987401F0227C
:08250600900109EEF0A3EFF0D3
:10250E007C037DE81205C4EF7001FF74542FF58231
:10251E00E43401F583E0FF900175E0FBA3E0FAA33C
:10252E00E0F9EF120590900109E0FEA3E0FF7C03B5
:10253E007DE81205C47E007F64CFCDCFCECCCE1207
:10254E0005C474542FF58274013EF583E0FF9001AB
:10255E0075E0FBA3E0FAA3E0F9900001EF1205A2EB
:10256E00900109E0FEA3E0FF7C007D641205C47EAD
:10257E00007F0ACFCDCFCECCCE1205C474542FF52A
:10258E008274013EF583E0FF900175E0FBA3E0FA53
:10259E00A3E0F9900002EF1205A2900109E0FEA35C
:1025AE00E0FF7C007D0A1205C474542DF58274017F
:1025BE003CF583E0FF900175E0FBA3E0FAA3E0F9A0
:0D25CE00900003EF1205A29001987401F037
:0125DB0022DD
:052ACE00900124EFF06F
:102AD30075F00A84FF7001FF74542FF582E434010A
:102AE300F583E0FF900175E0FBA3E0FAA3E0F9EFC3
:102AF300120590900124E075F00A84745425F0F5D2
:102B030082E43401F583E0FF900175E0FBA3E0FA72
:102B1300A3E0F9900001EF1205A2ED75F00A8424F9
:102B230054F582E43401F583E09000021205A2ED2E
:102B330075F00A84745425F0F582E43401F583E0DA
:0C2B43009000031205A29001987401F0AC
:012B4F002263
:052B5000900124EDF0EE
:102B5500EF75F00A84FE7001FE74542EF582E4349C
:102B650001F583E0FE900175E0FBA3E0FAA3E0F92F
:102B7500EE120590EF75F00A842454F582E43401D1
:102B8500F583E0FE900175E0FBA3E0FAA3E0F99080
:102B95000001EE1205A2EF75F00A84745425F0F5D4
:102BA50082E43401F583E09000021205A29001242D
:102BB500E075F00A842454F582E43401F583E0904D
:0B2BC50000031205A29001987401F0BB
:012BD00022E2
:10379200900174EFF0E4900181F090019804F0221E
:0D37DC00EF14900178F09001987401F02234
:101A7700900174E024FD7003021B5B046003021CE9
:101A87004B900181E0FF7E007033900175E0FBA36E
:101A9700E0FAA3E0F912054A900179F090000112EB
:101AA700056390017AF090000212056390017BF0C4
:101AB70090000312056390017CF0021B54EF64034E
:101AC7004E7037900175E0FBA3E0FAA3E0F9E4124A
:101AD7000590900175E0FBA3E0FAA3E0F9900001FF
:101AE700E41205A2900002E41205A2900003E4129A
:101AF70005A29001987401F08053900181E064067B
:101B0700704B900179E0FF900175E0FBA3E0FAA329
:101B1700E0F9EF12059090017AE0FF900175E0FB84
:101B2700A3E0FAA3E0F9900001EF1205A290017B70
:101B3700E09000021205A290017CE09000031205DC
:101B4700A290018174FFF09001987401F0900181D7
:101B5700E004F022900181E0FF7E0070429001795D
:101B6700E0FD900175E0FBA3E0FAA3E0F9ED1205B3
:101B77009090017AE0FD900175E0FBA3E0FAA3E005
:101B8700F9900001ED1205A290017BE0900002128E
:101B970005A290017CE09000031205A2021C45EF0C
:101BA70064034E704790017DE0FF900175E0FBA351
:101BB700E0FAA3E0F9EF12059090017EE0FF9001B3
:101BC70075E0FBA3E0FAA3E0F9900001EF1205A28C
:101BD70090017FE09000021205A2900180E0900042
:101BE700031205A29001987401F08052900181E0E0
:101BF7006406704A900179E0FF900175E0FBA3E06D
:101C0700FAA3E0F9EF12059090017AE0FF900175D1
:101C1700E0FBA3E0FAA3E0F9900001EF1205A29020
:101C2700017BE09000021205A290017CE090000386
:101C37001205A29001987401F0E4900181F09001DF
:051C470081E004F02221
:10220F00410149004101480041014B004101440097
:10221F00410152004101450041014E0041014C0076
:10222F00410150004101530041014F004101430062
:0D223F0041015100410142004201460000F2
:101C4C00E490014DF0A3E0FF900137E0FE6F60528D
:101C5C00900145E004F0E0D3940F74809480400A26
:101C6C0090014EEEF0E4900145F0900150E0704E82
:101C7C00900142E0FD7C00C3940774809480400F77
:101C8C00900137E090014EF0E4900142F0802FD3A8
:101C9C00ED9407EC648094805024900142E004F0B1
:101CAC00801C900137E0B50715E4900145F09001D8
:101CBC0042E0D39407748094805003E004F09001C8
:101CCC004EE0FD7C006404700790014DE04401F08F
:101CDC00ED641A4C700790014DE04402F090014EF7
:101CEC00E06401700790014DE04404F090014EE077
:101CFC006405700790014DE04408F0900146E070D7
:101D0C0002A3E0600F900147E024FFF0900146E051
:101D1C0034FFF02290014DE0605D9000D1E0640A48
:101D2C00701704F0FB7A007D0A7C00FF12300690DD
:101D3C000146E4F0A37414F022E49001A6F0A3F0A1
:101D4C00900152E0D3945A74809480402290014DBB
:101D5C00E090014CF0900143E004F0E0640F702B34
:101D6C0090015004F0E4900143F01234E1801C9097
:101D7C000152E004F08014900152E06401700CF008
:101D8C007B01FA7D0AFC7F0112300690014AE0FFCC
:101D9C0090014DE0FE6F602DE49001A6F0A3F09051
:101DAC00014CEEF0121DD290014DE090014AF090E2
:101DBC000152E0D3945A7480948040047401F02250
:061DCC00E4900152F02238
:0D224C004101900046018A00C8019002582F
:10289D00EF64014E600302292F9000D1E0640460C3
:1028AD000302292F9000E5E0FEA3E0FFC39000D5C1
:1028BD00E09F9000D4E09E503B7B017A007D0A7C26
:1028CD00007F011230069000E4E0FF9000D5E02F6C
:1028DD00F09000D4E03400F09000E5E0FEA3E0FFBE
:1028ED00D39000D5E09F9000D4E09E4016EEF0A36B
:1028FD00EFF0800F9000E5E0FFA3E09000D4CFF063
:10290D00A3EFF09000D4E0FEA3E0FF7C007D0A125F
:10291D0005C4AD077F02123641E4900102F0A374A5
:03292D0010F02285
:102D5000EF64014E70769000D1E06404706ED39001
:102D600000D5E094649000D4E0940040377B017A71
:102D7000007D0A7C007F011230069000E4E0FFC372
:102D80009000D5E09FFF9000D4E09400FEF0A3EF08
:102D9000F0C39464EE940050149000D4E4F0A37453
:102DA00064F080099000D4E4F0A37464F09000D43F
:102DB000E0FEA3E0FF7C007D0A1205C4AD077F02A0
:0D2DC000123641E4900102F0A37410F022DD
:101DD20090014CE0900108F030E00E90014FE030AD
:101DE200E0077F017E0012289D900108E030E16C3F
:101DF20090014FE030E1657B017A007D0A7C007F33
:101E0200011230069000D1E0640270187403F09061
:101E1200014F74FFF07B017A007D0A7C007F011282
:101E2200300680389000D1E0640370157407F0E446
:101E320090014FF07B01FA7D0AFC7F01123006808F
:101E42001B9000D1E0640470137405F0E490014F1C
:101E5200F07B01FA7D0AFC7F01123006900108E056
:101E620020E203021F4190014FE020E203021F41E2
:0B1E72009000D1E064046003021F41F7
:101E7D00900109F0A3F09000D4E0FFA3E090010BD6
:101E8D00CFF0A3EFF07B017A007D0A7C007F011279
:101E9D00300690010BE0FEA3E0FFC394C8EE648012
:101EAD0094805009E4900109F0A3F0804CC3EF94A5
:101EBD00C8EE648094804014EF9490EE6480948119
:101ECD00500A900109E4F0A304F0802DC3EF949023
:101EDD00EE648094814015EF9458EE6480948250A6
:101EED000B900109E4F0A37402F0800DBE020ABF4D
:101EFD005807E4900109F0A3F090010AE025E0FFF6
:101F0D00900109E033FE748A2FF58274013EF5834A
:101F1D00E0FEA3E0FF9000D4EEF0A3EFF07C007D97
:101F2D000A1205C4AD077F02123641E4900102F09A
:041F3D00A37410F089
:101F4100900108E030E30E90014FE030E3077F019C
:051F51007E00122D507E
:011F56002268
:08380C0090014CE09001E5F091
:013814002291
:1034E10090014CE0900108F030E01890014FE0307D
:1034F100E0119001827401F0FF7E0012289DE4909A
:103501000182F0900108E030E31890014FE030E3D0
:10351100119001827401F0FF7E00122D50E49001A0
:0235210082F036
:013523002285
:1022590041018700420188000042018500004201D6
:072269008300004101820027
:0D37E9009001877401F0E4FFFE1237C0224A
:1030060090010DEFF0A3ECF0A3EDF0A3EAF0A3EB33
:10301600F0900182E0704B90010DE0700A900187FC
:10302600F0FFFE1237C022900187E0703590010E46
:10303600E0FFA3E0900188CFF0A3EFF0900110E04D
:10304600FFA3E0900185CFF0A3EFF07FC87E0012CA
:1030560037C090010DE004900187F0E4900183F001
:03306600A3F022B2
:1029BD00900187E06401700BFFFE1237C0E49001B7
:1029CD0087F022900187E0D3940174809480406B4E
:1029DD00A3E0FEA3E0FF900183E0B50613A3E0B5ED
:1029ED00070EE4FFFE1237C0900187E014F0803D22
:1029FD00900188E0FEA3E0FF900186E02FFF90019B
:102A0D0085E03EFED3900184E09F900183E09E40DF
:102A1D001C900187E0D394017480948040077FC897
:102A2D007E001237C074FF900183F0A3F0900184F3
:0C2A3D00E004F07006900183E004F02239
:102270004101A5004201A60000C106C1854101A39C
:05228000004101A40073
:1027F600E58720E40302289CE4F595A2AF9207C280
:10280600AF75C7AA75C755439F01A20792AF75A6B4
:1028160030F5A775AF04A2AF9207C2AF75C7AA7508
:10282600C75543A401A20792AF85AE0875A631F538
:10283600A7A2AF9207C2AF75C7AA75C75543A40131
:10284600A20792AF85AE09A2AF9207C2AF75C7AA1B
:1028560075C755539FFEA20792AFE50825E0FFE432
:1028660033FEE50954017C002FFFEC3EFE74F12F88
:10287600FF74FF3EFEEF5401F509EEC313EF13F5A7
:102886000875C7AA75C75585088475C7AA75C7553B
:062896008509855387EF60
:01289C002219
:10240900E4900108F09000E4740AF0A37402F0A3C8
:102419007458F0A37467F0A3741AF0A37496F0A328
:10242900E4F0A3741BF0A3E4F0A37418F0A3E4F0A0
:10243900A37414F0A3E4F0A3740FF0A3E4F0A3745D
:102449000FF0A3E4F0A3740FF0A3E4F0A3740FF06A
:10245900A3E4F0A3740FF0A3E4F0A3740FF0A3E4D2
:10246900F0A3740FF0A3E4F0A3740FF0A3E4F0A3B6
:10247900740FF0E4900108F0900108E0C3946474CB
:10248900809480501400000000000000000000004B
:1024990000000000E004F080DF9000E5E0FEA3E02A
:1024A900FF7C007D0A1205C4AD077F0C12364190EE
:1024B90000E7E0FD7F0D1236419000E8E0FD7F0E58
:1024C9001236419000E9E0FD7F0F12364190010874
:1024D9007410F0900108E0C3941C74809480501C1F
:1024E900E0FF25E024CAF582E43400F583E0A3E0A7
:0C24F900FD123641900108E004F080D78D
:0125050022B3
:10189500E4900107F00000000000000000000000D7
:1018A500000000001227F6E4F5B1F5B2F5B3F5B482
:1018B500F5ACF5AD75B11B75B22075B38175B41076
:1018C50075AC01F5AD90014FF012381512375B126A
:1018D500372B1235621237B112371212360C123508
:1018E50024123802120003D206D2AF7B017A007DA2
:1018F5000A7C007F01123006121F57900170E060CC
:101905000BE4F0121C4C1229BD122FA2900171E0BC
:10191500600BE4F0121A77122A491211F69001733E
:10192500E06022E4F0122CD130061A9001A3E00405
:10193500F0E0C3940374809480400A122409E49073
:1019450001A3F0C206900172E07003021A46E4F0AA
:10195500200503021A0990014FF09001A4E004F05C
:10196500E0640170287D3DFF1236DD7D0C7F01129C
:1019750036DD7D767F021236DDE4FD7F031236DD2E
:1019850090019AE04480F09001987401F09001A4D0
:10199500E06403704C7D33FF1236DD9001A5E075E0
:1019A500F00A842454F582E43401F583E0FD7F01D7
:1019B5001236DD9001A5E075F00A84745425F0F522
:1019C50082E43401F583E0FD7F021236DDE4FD7F1C
:1019D500031236DD90019AE04480F090019874017D
:1019E500F09001A4E0FF7E00640570069000D174BC
:1019F5000BF0EF64074E700C9000D104F0C205E4C3
:101A05009001A4F020050690014F74FFF09000D1DD
:101A1500E06404602C9001A7E004F070069001A634
:101A2500E004F09001A6E0B40417A3E0B4B0127F7F
:101A3500011237929000D1740AF0E49001A6F0A348
:101A4500F090016FE06024E4F01215D59001E1E01B
:101A550004F0E0D3940574809480400F20050C9029
:101A650000CF7406F09000D1740CF0122EC202184B
:011A7500FD73
:011A7600224D
:10318200900108EBF0A3EAF0A3E9F0A3E0FBA3E0CF
:10319200FAA3E0F9C003C002C001900108E0FBA35A
:1031A200E0FAA3E0F9120834900108E0FBA3E0FA88
:1031B200A3E0F99000031207F0000000009000075E
:1031C2001207F00000000090010EE0FCA3E0FDA356
:0C31D200E0FEA3E0FF90000B12075F225C
:10339E00900129EBF0A3EAF0A3E9F0900129E0FBFC
:1033AE00A3E0FAA3E0F990000712072FEF2401FF24
:1033BE00E43EFEE43DFDE43CFC90000B120783125C
:1033CE00066BAC00AD01AE02AF03900129E0FBA38A
:1033DE00E0FAA3E0F9900003120783C312070B7003
:0733EE00037F01227F002292
:1033F5009001DBEBF0A3EAF0A3E9F09001DBE0FB41
:10340500A3E0FAA3E0F990000712072FEF2401FFCC
:10341500E43EFEE43DFDE43CFC90000B1207831204
:10342500066BAC00AD01AE02AF039001DBE0FBA380
:10343500E0FAA3E0F9900003120783C312070B70AB
:07344500037F01227F00223A
:1037430090000712072F900003120783C312070B81
:0837530070037F01227F0022B8
:102BD100900128EDF0900125EBF0A3EAF0A3E9F0D4
:102BE10012339EEF60037F0022900128E0FFC007AF
:102BF100900125E0FBA3E0FAA3E0F990000712079A
:102C01002F1208148F828E83D0E01205A290012525
:102C1100E0FBA3E0FAA3E0F990000712072FEF24ED
:102C210001FFE43EFEE43DFDE43CFC90000B120795
:102C31008312066BAC00AD01AE02AF03900125E03B
:102C4100FBA3E0FAA3E0F990000712075F7F0122DE
:102C51009001BAEDF09001B7EBF0A3EAF0A3E9F02F
:102C61001233F5EF60037F00229001BAE0FFC00745
:102C71009001B7E0FBA3E0FAA3E0F9900007120787
:102C81002F1208148F828E83D0E01205A29001B713
:102C9100E0FBA3E0FAA3E0F990000712072FEF246D
:102CA10001FFE43EFEE43DFDE43CFC90000B120715
:102CB1008312066BAC00AD01AE02AF039001B7E029
:102CC100FBA3E0FAA3E0F990000712075F7F01225E
:10293000900109EBF0A3EAF0A3E9F0900109E0FBB4
:10294000A3E0FAA3E0F9123743EF60037F0022907F
:102950000109E0FBA3E0FAA3E0F990000312072FBE
:102960001208148F828E83120563FF90010CE0FB26
:10297000A3E0FAA3E0F9EF120590900109E0FBA3B0
:10298000E0FAA3E0F990000312072FEF2401FFE41F
:102990003EFEE43DFDE43CFC90000B120783120672
:1029A0006BAC00AD01AE02AF03900109E0FBA3E008
:0D29B000FAA3E0F990000312075F7F0122F7
:082285004100000041000100CE
:10360C0090010B7401F0A37400F0A3741DF0A312CD
:10361C0007BF000000967B017A00790E1231829070
:10362C000005747FF090000C14F09000B304F0903F
:05363C0000BA14F022A9
:10364100E4FE9000B4EFF0FEA37401F06EFEA3ED72
:10365100F06EFEA3F0E4A3F0A3747EF07B017A0088
:1036610079B39000B5E02406900111F07F011200BA
:013671000E4A
:013672002235
:1035D500E4FE9000B4EFF0FEA37402F06EFEA3EDDE
:1035E500F06EFEA3EBF06EFEA3F0E4A3F0A3747EF1
:1035F500F07B017A0079B39000B5E02406900111C3
:06360500F07F0112000E2F
:01360B00229C
:101F570090010C7401F0A37401F0A37408F07B01E5
:101F67007A00790E122930EF70030220B590000530
:101F7700E0FF900108E0FEB5070B9000007401F048
:101F87009000CDF022900000E024FE601C14604613
:101F9700147003022023240360030220B590000677
:101FA700EEF09000007402F022900007EEF0D39458
:101FB70002748094804006E4900000F022E49000D0
:101FC70001F07B01A304F0A37400F0A37408F09060
:101FD70000007403F022900108E0FF900002E0FB8C
:101FE700A3E0FAA3E0F9900001E0F582758300EF22
:101FF7001205A2900001E004F0900007E02402FF20
:10200700E433FE900001E0C39FEE6480F87480988B
:1020170050030220B59000007404F02290000CE0F9
:10202700FF900108E06F60030220B07B019000027F
:1020370004F0A37400F0A37406F0E4900108F09094
:102047000001F0900007E02402FFE433FE90000156
:10205700E0C39FEE6480F8748098502B900108E0ED
:10206700FF900002E0FBA3E0FAA3E0F9900001E093
:10207700F582758300120563FEEF6E900108F090FC
:102087000001E004F080BC900002E0FBA3E0FAA3AB
:10209700E0F9900001E0F582758300120563FF9077
:0E20A7000108E0B507031220B6E4900000F037
:0120B5002208
:1020B600900006E024FD601714603524FE602114AC
:1020C600604E1460721470030221560221EA22B295
:1020D600859000CD7401F0900008E09001A5F022F3
:1020E6009000CCE060030221EA9000D17407F02250
:1020F6009000CD7401F09000CFE0700D900008E0E4
:102106009000CFF0E49000CCF09000D1740CF02257
:102116009000B47407F0A37402F09001BDE0900043
:10212600B6F0F4A3F07B017A0079B390011174093B
:10213600F07F0112000E22900009E0FF900008E0F7
:10214600FE5F70069001BDEEF022E49001BDF02224
:102156007B017A007D0A7C007F0112300690000820
:10216600E0702690019DE04410F04408F04420F011
:102176004440F04401F04402F04404F07FD27E046F
:102186001225067F0112379222900008E064017042
:102196002690019DE04410F04408F04420F04440AD
:1021A600F04401F04402F04404F07F2E7E1612251E
:1021B600067F0112379222900008E0640270259093
:1021C600019DE04410F04408F04420F04440F044FF
:1021D60001F04402F04404F07FB87E221225067F07
:0521E6000112379222F6
:0F37A2000001020304000A141E28323C46505A4C
:10228D004100CC004301043F3F3F4300C75E760C45
:10229D004100CB004100CA004400BC0000000041D9
:1022AD0000C0004100C1004100C2004100C3004117
:0B22BD0000C4004100C5004100C60045
:10352400E49000CDF09000D61207BF00000000E444
:103534009000D4F0A3F09000DA1207BF000000005E
:103544009000DE1207BF00000000E49000E2F0A348
:0E355400F09000D0F09000CFF09000D3F02265
:102FA2009000CBE070059000CAF0229000CAE004C5
:102FB200F0E0D39419748094804048E4F09000D5F6
:102FC200E0940A9000D4E09400400EA3E024F6F0CE
:102FD2009000D4E034FFF08007E49000D4F0A3F036
:102FE200E4900102F0E0FF7E00120DF99000D4E0BF
:102FF2007002A3E0700D9000D17407F0E49000CA53
:04300200F0A3F02225
:1015D5009000D1E06404600B9000BC1207BF0000CE
:1015E5000000229001BCE06403704D9000D6E0FC41
:1015F500A3E0FDA3E0FEA3E0FFEC4D4E4F6021907C
:1016050000D6E0A3E0A3E0A3E024FFFFEE34FFFE55
:10161500ED34FFFDEC34FFFC9000D61207B3806873
:101625009000D17405F0E490014FF07B96FA7D327D
:10163500FC7F0512300680509000D6E0FCA3E0FD4B
:10164500A3E0FEA3E02401FFE43EFEE43DFDE43C0F
:10165500FC9000D61207B3E47F707E17FDFC900066
:10166500D6E0F8A3E0F9A3E0FAA3E0FBC312070B69
:1016750040169000D17405F0E490014FF07B96FA86
:101685007D32FC7F051230069001BCE064016003E9
:1016950002174C9000BCE0F8A3E0F9A3E0FAA3E040
:1016A500FBC000C001C002C0039000D4E0FCA3E071
:1016B500FDE412039AE4FBFA79B4784312027FD071
:1016C50003D002D001D0001200859000BC1207B3F0
:1016D5009000DAE0FCA3E0FDA3E0FEA3E0FFC00478
:1016E500C005C006C0079000D4E0FCA3E0FDE412ED
:1016F500039AE4FBFA79B4784312027FA804A9059A
:10170500AA06AB07D007D006D005D00412008190F9
:1017150000DA1207B3E4FFFE7D207C419000DAE099
:10172500F8A3E0F9A3E0FAA3E0FB12031C506990CB
:1017350000D17405F0E490014FF07B96FA7D32FC00
:101745007F0512300680519000DAE0F8A3E0F9A396
:10175500E0FAA3E0FBC000C001C002C0039000D4C2
:10176500E0FCA3E0FDE412039AE4FBFA79B47843C4
:1017750012027FD003D002D001D000120085900064
:10178500DA1207B39000DAE0FCA3E0FDA3E0FEA3C4
:10179500E0FF9000BC1207B39001BCE06402600357
:1017A5000218699000D4E0FCA3E0FDE412039AE47A
:1017B500FBFA79B4784312027FE4FBFA798C78421C
:1017C500120176C004C005C006C0079000DEE0FC2B
:1017D500A3E0FDA3E0FEA3E0FFE4120395A804A99E
:1017E50005AA06AB07D007D006D005D00412031C06
:1017F50040509000D4E0FCA3E0FDE412039AE4FB22
:10180500FA79B4784312027FE4FBFA798C784212B4
:101815000176C004C005C006C0079000DEE0FCA349
:10182500E0FDA3E0FEA3E0FFE4120395D003D002A0
:10183500D001D0001200811203D39000DE1207B34D
:1018450080439000DE1207BF000000009000D174B5
:1018550005F0E490014FF07B96FA7D32FC7F05128E
:1018650030068021E4FFFE7D8C7C429000BCE0F8D0
:10187500A3E0F9A3E0FAA3E0FB1201761203D390EB
:0F18850000DE1207B3900102E0FF7E00120DF9A2
:011894002231
:1011F6009000D1E014B40C0040030215CB901211FC
:1012060075F003A4C58325F0C58373021235021554
:10121600D40212A70215D40213AC0213F702141358
:101226000215D40215CB02147A0214D902152B909A
:1012360000C0E004F0E0D39401748094805003026F
:1012460015D4E4F090019DE054F7F054FDF054FB02
:10125600F054EFF054FEF054DFF0E4FDFF1236DDFB
:101266007D3F7F011236DD7D637F021236DD7D63B1
:101276007F031236DD9000D17402F09000B474083A
:10128600F0A37401F0E4A3F07B017A0079B3900136
:10129600117409F07F0112000E90014F74FFF022C5
:1012A600229000C0E070457B01FA7D0AFC7F0112A6
:1012B6003006E4FDFF1236DDE4FD7F011236DD90D7
:1012C60000C2E024C7F582E43400F583E0FD7F0325
:1012D6001236DDE4FD7F021236DD7F011237929071
:1012E60000C07401F09000C2F00213A19000C0E0AB
:1012F60004F0E0D3940A7480948050030213A1741E
:1013060001F0FB7A007D0A7C00FF1230069000C2D5
:10131600E0D39402748094805030E4FDFF1236DDF1
:10132600E4FD7F011236DD9000C2E024C7F582E4B9
:101336003400F583E0FD7F031236DDE4FD7F021203
:1013460036DD9000C2E004F08051E49000C2F090D7
:1013560000D4F0A37464F07C007D0AFF7E001205C1
:10136600C4AB077D017F011235D59000D4E0FEA302
:10137600E0FF7C007D0A1205C4AB077D017F0112E8
:1013860035D59000D17404F0E4900102F0A3740EF8
:10139600F0900102E0FF7E00120DF990019DE054ED
:1013A600DFF054BFF022E4900103F09000D612075C
:1013B600BF000000009000DA1207BF000000009096
:1013C60000DE1207BF00000000E4FD7F0112364177
:1013D600E4FD7F01123641E49001BCF09000CAF0B2
:1013E600A304F0E49000C0F0A3F09000D17406F0DE
:1013F600229000C1E004F0E0D394FA748094805007
:10140600030215D4E4F09000D17407F0229000C0D6
:10141600E004F0E0D394017480948050030215D464
:10142600E4900103F09000D61207BF000000009080
:1014360000DA1207BF000000009000DE1207BF00AE
:10144600000000E4900102F0E0FF7E00120DF9902A
:1014560000D17401F0FF12379290014F74FFF0E44F
:101466009000CBF09001BCF09000C0F09000C2F06C
:101476001237E922E4900103F09000D61207BF006C
:101486000000009000DA1207BF000000009000DEA6
:101496001207BF00000000E49000E2F0A3F0900104
:1014A6009DE054F7F054FDF054FBF054FEF054DF89
:1014B600F0E4FDFF1236DDE4FD7F011236DDE4FDCA
:1014C6007F021236DDE4FD7F031236DD90014F7494
:1014D600FFF02290019DE04408F04402F04404F03D
:1014E6004401F04420F04440F0900199E04480F03B
:1014F6009001987401F090019AE04480F090019870
:101506007401F090019BE04480F09001987401F022
:1015160090019CE04480F09001987401F07FB87EC1
:101526002212250622E490014FF0FDFF1236DD7DE2
:10153600737F011236DD900154E0FD7F021236DD25
:101546009000CFE02454F582E43401F583E0FD7F7A
:10155600031236DD90019DE054F7F054FDF054FB84
:10156600F054EFF054FEF054DFF054BFF090019ABF
:10157600E0547FF09001987401F0E49000D1F0906F
:101586000103F09000CCE0700DFD7F01123641E4BE
:10159600FD7F011236419000CCE004F0E0D3943C8C
:1015A60074809480400BE49000D1F09000CC743CA1
:1015B600F0900151E0701704F07B327A007D2CFC2C
:0E15C600FF12300622E49000C0F09000C2F048
:0115D40022F4
:080DF900900108EEF0A3EFF0F9
:100E0100780A7C017D017BFF7A3779A27E007F051C
:100E1100120524780F7C017D017BFF7A3779A77E4B
:100E2100007F0A120524E4900119F0900108E07096
:100E310002A3E0706390019DE04408F054FDF0547A
:100E4100FBF054EFF054FEF054DFF054BFF090008B
:100E5100D4E0FAA3E0FB7C007D64FFAE021205C47E
:100E610090011AEFF07C007D64AF03AE021205C45D
:100E7100AF05A3EFF090011AE0FF122B50E4FDFF44
:100E81001236DDE4FD7F011236DD90019BE04480E6
:100E9100F09001987401F022900108E07004A3E041
:100EA10064016003020F9590019DE054F7F0440244
:100EB100F054FBF054EFF054FEF054DFF04440F0F6
:100EC1009000DAE0FCA3E0FDA3E0FEA3E0FF9001C7
:100ED1001C1207B37F007E4B7DC37C4790011CE051
:100EE100F8A3E0F9A3E0FAA3E0FB12031C400A9087
:100EF100011C1207BF0000000090011CE0FCA3E0F0
:100F0100FDA3E0FEA3E0FF1203D3E47BE87A03F93B
:100F1100F812066B90011AEFF090011CE0FCA3E0BF
:100F2100FDA3E0FEA3E0FF1203D3E47B0AFAF9F884
:100F310012066BE47B64FAF9F812066B90011BEB65
:100F4100F07F007E3C7D1C7C46A3E0F8A3E0F9A382
:100F5100E0FAA3E0FB12031C6002501F90011AE0AB
:100F6100FFA3E0FD122ACEE4FDFF1236DD90019AC7
:100F7100E04480F09001987401F02290011AE0FFA2
:100F8100A3E0FD122ACE90019AE04480F0900198EE
:100F91007401F022900108E07004A3E06402600390
:100FA10002113790019DE054F7F054FDF04404F034
:100FB10054EFF054FEF054DFF054BFF07F587E3E02
:100FC1007D0F7C009000DEE0F8A3E0F9A3E0FAA336
:100FD100E0FBC312070B400A9000DE1207BF0000BE
:100FE10000007F9F7E867D017C009000DEE0F8A3FB
:100FF100E0F9A3E0FAA3E0FBD312070B5057E47B1F
:10100100E87A03F9F89000DEE0FCA3E0FDA3E0FE3E
:10101100A3E0FF12066B90011AEFF0E47BE87A037C
:10102100F9F89000DEE0FCA3E0FDA3E0FEA3E0FF01
:1010310012066BAC00AD01AE02AF03E47B0AFAF914
:10104100F812066B90011BEFF0FD90011AE0FF1200
:101051002B500210E17FA07E867D017C009000DE96
:10106100E0F8A3E0F9A3E0FAA3E0FBC312070B4009
:101071006F7F587E3E7D0F7C009000DEE0F8A3E09C
:10108100A3E0A3E0D312070B5056E47BE87A03F9FF
:10109100F89000DEE0FCA3E0FDA3E0FEA3E0FF1278
:1010A100066BE47B0AFAF9F812066B90011AEFF06D
:1010B100E47B64FAF9F89000DEE0FCA3E0FDA3E034
:1010C100FEA3E0FF12066BE47B64FAF9F812066BEB
:1010D100AF0390011BEFF0FD90011AE0FF122ACE41
:1010E10090019BE04480F09001987401F07F9F7E15
:1010F10086FD7C009000DEE0F8A3E0F9A3E0FAA30E
:10110100E0FBD312070B40030211F5E47F0F7E27AA
:10111100FDFC9000DEE0F8A3E0A3E0A3E012070BE2
:10112100500DE4FDFF1236DDE4FD7F011236DDE4F2
:10113100FDFF1236DD22900108E07004A3E0640394
:1011410060030211F590019DE054F7F054FDF05455
:10115100FBF054EFF04401F04420F04440F09000E3
:10116100D6E0FCA3E0FDA3E0FEA3E0FFE4120395BB
:101171009001201207B3900120E0FCA3E0FDA3E061
:10118100FEA3E0FF1203D3E47B3CFAF9F812066BED
:10119100E47B64FAF9F812066B90011AEBF0900106
:1011A10020E0FCA3E0FDA3E0FEA3E0FF1203D3E4F3
:1011B1007B3CFAF9F812066B90011BEBF0E4FFFEA1
:1011C1007D167C44900120E0F8A3E0F9A3E0FAA3A6
:1011D100E0FB12031C501290011AE0FFA3E0FD1284
:1011E1002ACEE4FDFF1236DD2290011AE0FFA3E0D2
:0411F100FD122ACEF3
:0111F50022D7
:102A4900900103E024F1601E14606724027075E4AC
:102A59009000C3F0900102F0E0FF7E00120DF990A2
:102A69000103740FF0229000C3E004F0E0D3943224
:102A790074809480404EE4F09000D1E0FF640160DE
:102A890014EF6402600FEF6404600AEF64056005E7
:102A9900EF6406702F900102E004F0E0C39404741F
:102AA9008094804002E4F0900102E0FF7E00120D64
:102AB900F922E4900102F0E0FF7E00120DF9900185
:042AC90003740FF093
:012ACD0022E6
:102CD1009000C5E0146017047074E49000CDF0FD1D
:102CE1007F03123641E49000C4F0A304F022900067
:102CF100C4E004F09000CDE0FD704A7F031236413C
:102D01009000C4E0D39401748094804041E4F09039
:102D110000C6E004F0E0D3940A74809480402090CF
:102D210000CF7406F09000D1740CF09000C57402CD
:102D3100F07B327A007D2C7C017F0112300622E487
:0E2D41009000C5F022E49000C6F09000C5F0AE
:012D4F002261
:0A380200E49001BBF0A3F0A3F02254
:10376F00E49001A8F0A3F0A37407F0A304F0E4A37E
:02377F00F02236
:1022C8004101370041013600410138004101350024
:0938150043B10153B2FEC20022CE
:1009790020801390012DE004F0700690012CE00412
:10098900F0C203020CE1300303020CD1900139E0FB
:10099900FEA3E0FFC39402EE94004034D3EF940A1F
:1009A900EE9400502B90012CE0FEA3E0FFC3948746
:1009B900EE9400401BD3EF94FAEE94005012E4A396
:1009C900F0D20190013EF0A3F0A3F0A3F0020CC411
:1009D900200103020A9D900139E0FEA3E0FFC394C0
:1009E90002EE94005003020A9DD3EF940AEE94009C
:1009F9004003020A9D90012EE004F0E0C3941874AC
:100A09008094805003020CC42002659001B0E0FF7D
:100A19007016A3E0701290013EE090013BF0900146
:100A29003FE090013CF0802C90013BEFF09001B148
:100A3900E090013CF090013EE0FEB5070AA3E0FF1B
:100A490090013CE06F600D900136EEF090013FE0BF
:100A5900900138F0900140E090013DF0D202E4901D
:100A6900012EF0C201A37404F0A374B0F0020CC407
:100A790090013EE0900132F090013FE0900133F0A7
:100A8900900140E0900134F0D204E490012EF0C2CC
:100A990001020CC4200103020CA1900139E0FEA35C
:100AA900E0FFC3940EEE94005003020CA1D3EF941F
:100AB90018EE94004003020CA190012EE004F0E02E
:100AC90014B418004003020CC4900AE075F003A4A2
:100AD900C58325F0C58373020B28020B32020B3C38
:100AE900020B46020B50020B5A020B64020B6E02F8
:100AF9000B78020B82020B8C020B96020BA0020BE5
:100B0900AA020BB4020BBE020BC8020BD2020BDC09
:100B1900020BE6020BF0020BFA020C04020C0E9017
:100B2900013EE04480F0020CC490013EE04440F0F4
:100B3900020CC490013EE04420F0020CC490013E36
:100B4900E04410F0020CC490013EE04408F0020CAD
:100B5900C490013EE04404F0020CC490013EE0441C
:100B690002F0020CC490013EE04401F0020CC49072
:100B7900013FE04480F0020CC490013FE04440F0A2
:100B8900020CC490013FE04420F0020CC490013FE4
:100B9900E04410F0020CC490013FE04408F0020C5C
:100BA900C490013FE04404F0020CC490013FE044CA
:100BB90002F0020CC490013FE04401F0020CC49021
:100BC9000140E04480F0020CC4900140E04440F050
:100BD900020CC4900140E04420F0020CC490014092
:100BE900E04410F0020CC4900140E04408F0020C0B
:100BF900C4900140E04404F0020CC4900140E04478
:100C090002F0020CC4900140E04401F0200264901B
:100C190001B0E0FF7016A3E0701290013EE0900170
:100C29003BF090013FE090013CF0802C90013BEFBC
:100C3900F09001B1E090013CF090013EE0FEB50773
:100C49000AA3E0FF90013CE06F600D900136EEF0E1
:100C590090013FE0900138F0900140E090013DF0B3
:100C6900D202C201E490012EF0A37403F0A37484AC
:100C7900F0804890013EE0900132F090013FE09011
:100C89000133F0900140E0900134F0D204C201E454
:100C990090012EF080258023E4900131F090012EFF
:100CA900F0C20190013EF0A3F0A3F0900139F0A346
:100CB900F090012CF0A3F0900137F0E490012CF0B2
:100CC900A3F0900139F0A3F090013AE004F0700626
:100CD900900139E004F0D203200203020D7490015F
:100CE90030E024FFF090012FE034FFF0E07002A320
:100CF900E07002C20290013BE0FF90013EE0B507BF
:100D09001490013CE0FE90013FE0B5060890013DDA
:100D1900E0900137F0300453900132E0FEB5071E30
:100D2900A3E0FF90013CE0B50714900134E0FF9087
:100D3900013DE0B50708D200C202C204802D90012E
:100D490036E0B50620900133E0FF900138E0B507A1
:100D590014900134E0FF90013DE0B50708D200C2CC
:100D690002C2048006C200C202C204200003020DAE
:100D7900F8C2AFC200900132E0FF90013BE06F7012
:100D890040900133E0FE90013CE0FD6E703390012C
:100D990034E0FE90013DE06E70279001B0E0700FE5
:100DA900A3E0700B90013BE09001B0F0A3EDF0904F
:100DB9000131E0C39403748094805028E004F080EA
:100DC90023900136E0B5071C900133E0FF9001380C
:100DD900E0B50710900134E0FF90013DE0B507044C
:100DE900900135F0E4900140F090013DF0D2AF223E
:1022D8004101700041017100410173004101720028
:1022E80041016F00420165000042016700004201A0
:0D22F80069000042016B000042016D000012
:03000B0002230AC3
:10230A00C0E0C0F0C083C082C0D075D000C000C099
:0D231A0001C002C003C004C005C006C0071A
:10232700758CFF758AB412097990016CE004F0701E
:102337000690016BE004F0D390016CE094A7900144
:102347006BE094004009E4F0A3F090017004F09072
:102357000166E004F07006900165E004F0D3900197
:1023670066E09483900165E094064009E4F0A3F0E9
:1023770090017104F0900168E004F0700690016725
:10238700E004F0D3900168E09454900167E0941062
:102397004009E4F0A3F090017304F090016EE004AB
:1023A700F0700690016DE004F0D390016EE0949414
:1023B70090016DE094204009E4F0A3F090017204CD
:1023C700F090016AE004F07006900169E004F0D330
:1023D70090016AE094D8900169E094404009E4F0E4
:0723E700A3F090016F04F068
:1023EE00D007D006D005D004D003D002D001D00043
:0B23FE00D0D0D082D083D0F0D0E032ED
:10356200A2AF9207C2AF75C7AA75C755439101436F
:10357200C60275C7AA75C7555391FEA20792AF53EB
:10358200DF3F43DF0353DFFB75D10275D9E4E4F576
:0B359200D3F5DB53D6FDD2DED2DF22E2
:0E37C000AD07AC06ECF5D3AF058FDBD2DE22F1
:0E37CE00AD07AC06ECF5D4AF058FDCD2DE22E1
:103712005389F0438901538EF7758CFF758AB44340
:09372200B702C2B9D2A9D28C226F
:042305004101E200B0
:0F37B1007F607E097D007C00122E4A439C01221E
:042F3900AB05AA0733
:102F3D009001121207BF0000FFFFEA14600D04702C
:102F4D0053C2998B9920994C80FB229001E2740118
:102F5D00F0AF038F9A9001E2E06401703790011297
:102F6D00E0FCA3E0FDA3E0FEA3E0FFEC4D4E4F60BF
:102F7D0023900112E0A3E0A3E0A3E024FFFFEE34D1
:102F8D00FFFEED34FFFDEC34FFFC9001121207B390
:042F9D0080C380C1AC
:012FA100220D
:102696009001DEEFF0A3ECF0FEA3EDF0FF7C277DCA
:1026A600101205C4EF2430FD9001DEE0FF122F3931
:1026B6009001DFE0FEA3E0FF7C277D101205C47EBB
:1026C600037FE8CFCDCFCECCCE1205C4EF2430FDAC
:1026D6009001DEE0FF122F399001DFE0FEA3E0FF5C
:1026E6007C037DE81205C47E007F64CFCDCFCECCBF
:1026F600CE1205C4EF2430FD9001DEE0FF122F3923
:102706009001DFE0FEA3E0FF7C007D641205C47E3D
:10271600007F0ACFCDCFCECCCE1205C4EF2430FD3C
:102726009001DEE0FF122F399001DFE0FEA3E0FF0B
:102736007C007D0A1205C4ED2430FD9001DEE0FF29
:04274600122F3922F3
:0B000E0090010EEBF0A3EAF0A3E9F074
:10001900EF146027047057E4FF900111E0FEEFC36D
:100029009E504B90010EE0FBA3E0FAA3E0F98F820A
:10003900758300120563F5990F80DE900111E0D3F5
:10004900940074809480402690010EE0FBA3E0FAAE
:10005900A3E0F912054AFD7F01122F3990010FE43F
:0E00690075F001120619900111E014F080CD1F
:010077002266
:03007B0002323A14
:10323A00C0E0C0F0C083C082C0D075D000C000C05A
:0D324A0001C002C003C004C005C006C007DB
:1032570030F814C2F8AF9A9001E1E4F07B017A00EC
:10326700790EAD07122BD130F9079001E2E4F0C2D5
:01327700F95D
:10327800D007D006D005D004D003D002D001D000AA
:0B328800D0D0D082D083D0F0D0E03254
:070003009001AD74A5F0228D
:10349D00E4FFEFC3940274809480500F74E32FF512
:1034AD0082E43401F583E4F00F80E77B017A017942
:1034BD00E39001B67402F0E4FF12344C7B017A0103
:1034CD0079E312054A64A5700A9000011205639014
:0334DD0001AEF04D
:0134E00022C9
:1036C000E4FF1231259001AD74A5F07B017A0179F8
:0D36D000AD9001957402F0E4FF1225DC229C
:103125007E007480A807088005C333CE33CED8F956
:103135002400FFEE3445FEEFF5A6EEF5A775AEFFCC
:10314500A2AF9207C2AF75C7AA75C755439F01A223
:103155000792AFA2AF9207C2AF75C7AA75C755430D
:10316500A501A20792AF75AF22A2AF9207C2AF75B4
:0C317500C7AA75C75543A401A20792AF7A
:01318100222B
:0B25DC00900192EBF0A3EAF0A3E9F0FD
:1025E7007E007480A807088005C333CE33CED8F9A0
:1025F7002400FFEE3445900196F0A3EFF0A2AF92CE
:1026070007C2AF75C7AA75C755439F01A20792AF07
:10261700A2AF9207C2AF75C7AA75C75543A501A256
:102627000792AF75AF21E4FD900195E0FFEDC39FE1
:102637005036A3E0FEA3E02DF5A6EEF5A790019294
:10264700E0FBA3E0FAA3E0F98D827583001205632E
:10265700F5AEA2AF9207C2AF75C7AA75C75543A417
:1026670001A20792AF0D80C0A2AF9207C2AF75C794
:10267700AA75C75553A5FEA20792AFA2AF9207C28C
:0E268700AF75C7AA75C755539FFEA20792AF45
:012695002222
:0B344C009001B3EBF0A3EAF0A3E9F05D
:103457007E007480A807088005C333CE33CED8F921
:103467002400FFEE3445FEE4FD9001B6E0FCEDC319
:103477009C5022EF2DF582E43EF583E493FC900106
:10348700B3E0FBA3E0FAA3E0F98D82758300EC12A9
:0534970005A20D80D428
:01349C00220D
:030078007F0022E4
:103293009001BF1207B3538EF7438901D28CE4FF29
:1032A300FEFDFC9001BFE0F8A3E0F9A3E0FAA3E080
:1032B300FBC312070B602F758A7E758CFF308DFD63
:1032C300C28D9001BFE0FCA3E0FDA3E0FEA3E024D8
:1032D300FFFFEE34FFFEED34FFFDEC34FFFC900105
:0932E300BF1207B380B8C28C22AF
:1032EC009001C31207B3538EF7438901D28CE4FFCC
:1032FC00FEFDFC9001C3E0F8A3E0F9A3E0FAA3E023
:10330C00FBC312070B602F758ACA758CFA308DFDC2
:10331C00C28D9001C3E0FCA3E0FDA3E0FEA3E0247A
:10332C00FFFFEE34FFFEED34FFFDEC34FFFC9001AB
:09333C00C31207B380B8C28C2251
:103345009001C71207B3538EEF438910D28EE4FF65
:10335500FEFDFC9001C7E0F8A3E0F9A3E0FAA3E0C5
:10336500FBC312070B602F758BEA758DCB308FFD74
:10337500C28F9001C7E0FCA3E0FDA3E0FEA3E0241B
:10338500FFFFEE34FFFEED34FFFDEC34FFFC900152
:09339500C71207B380B8C28E22F2
:1031DE009001CB1207B353C9BF53C9DF43C910D2F5
:1031EE00CAE4FFFEFDFC9001CBE0F8A3E0F9A3E0FA
:1031FE00FAA3E0FBC312070B602F75CC3075CDF828
:10320E0030CFFDC2CF9001CBE0FCA3E0FDA3E0FEEA
:10321E00A3E024FFFFEE34FFFEED34FFFDEC34FFA0
:0C322E00FC9001CB1207B380B8C2CA228A
:103069009001CF1207B375C40743C408E4FFFEFDFE
:10307900FC9001CFE0F8A3E0F9A3E0FAA3E0FBC3D9
:1030890012070B603575C52C75C6CFE5C45410649D
:103099001070F853C4EF9001CFE0FCA3E0FDA3E06A
:1030A900FEA3E024FFFFEE34FFFEED34FFFDEC3418
:0E30B900FFFC9001CF1207B380B253C4F72280
:1030C7009001D31207B375C40743C408E4FFFEFD9C
:1030D700FC9001D3E0F8A3E0F9A3E0FAA3E0FBC377
:1030E70012070B603575C5D875C6FFE5C454106463
:1030F7001070F853C4EF9001D3E0FCA3E0FDA3E008
:10310700FEA3E024FFFFEE34FFFEED34FFFDEC34B9
:0E311700FFFC9001D31207B380B253C4F7221D
:10359D0053B1BF53B2BF53B17F53B27F75985043F0
:1035AD008920438780438E1053C4DFAB07AA06A939
:1035BD0005A8047FBC7ED47D0F7C0012066BEFF452
:0835CD0004F58DD28ED2992283
:102DCD009001D71207B353B1BF53B2BF53B17F5365
:102DDD00B27F75985043878053C4F843C420900147
:102DED00D7E0F8A3E0F9A3E0FAA3E0FB7FBC7ED423
:102DFD007D0F7C0012066BC3E49FFFE49EFE740101
:102E0D009DFDE49CFC780812071C8FC69001D7E04D
:102E1D00F8A3E0F9A3E0FAA3E0FB7FBC7ED47D0F1D
:102E2D007C0012066BC3E49FFFE49EFE74019DFDC2
:0D2E3D00E49CFCEFE48FC543C408D2992249
:102E4A009001081207B353B1FB53B2FB53B3BF53FC
:102E5A00B4BF75F85075C40853C4DF900108E0F890
:102E6A00A3E0F9A3E0FAA3E0FB7FBC7ED47D0F7C4C
:102E7A000012066BC3E49FFFE49EFE74019DFDE40D
:102E8A009CFC780812071C8FC6900108E0F8A3E0A2
:102E9A00F9A3E0FAA3E0FB7FBC7ED47D0F7C00128D
:102EAA00066BC3E49FFFE49EFE74019DFDE49CFC57
:082EBA00EFE48FC543C40822B8
:1036F80075C7AA75C755A2AF9207C2AF75C7AA7595
:0A370800C755439F80A20792AF222D
:10007E0002043FE86480F8E933E83360110460F06D
:10008E00ED33EC337009E8FCE9FDEAFEEBFF2204E8
:10009E0060DED3EB9FEA9EE99DE8C2E78CF0C2F7E3
:1000AE0095F0400CE8CCF8E9CDF9EACEFAEBCFFBAF
:1000BE0012040A85D0F05804700320D5B3E80470FA
:1000CE00075002B2D502044992D5EC0460F7E4CC95
:1000DE00C0E0C398F8603B94186008400DD0E0FB78
:1000EE00020421E4FBFAC9FC8028E830E406E4C9E6
:1000FE00FBE4CAFCE830E305E4C9CACBFCE85407CC
:10010E006010F8C3E913F9EA13FAEB13FBEC13FCD6
:10011E00D8F130F52FC3E49CFCEF9BFFEE9AFEED79
:10012E0099FDD0E0FBEF4E4D4C701222DB03020422
:10013E0046EC2CFCEF33FFEE33FEED33FDED30E7F6
:10014E00EB020421EF2BFFEE3AFEED39FDD0E0FB82
:10015E0050130BBB0003020449ED13FDEE13FEEF2B
:08016E0013FFEC13FC02042155
:10017600EC4D6011E8497017ED33EC3304600DE483
:10018600FCFFFEFD22E933E8330470F802043F1257
:10019600040A58046009E4CC248150062850090258
:1001A6000449284003020446C0E0EB4A7044B98083
:1001B60006D0E0FB020435EF4E701CBD8008EBFF55
:1001C600EAFEE9FD80EBE98DF0A4FEE5F002025FB0
:1001D600E9CDF9EAFEEBFFEF89F0A4FCE5F0CE8964
:1001E600F0A42EFFE435F0CD89F0A42DFEE435F021
:1001F6008067EF4E7005BD80D780C3EF8BF0A4AC4F
:10020600F0EE8BF0A42CFCE435F0F8EF8AF0A42C89
:10021600E5F038FCE433CB8DF0A42CFCE5F03BF89C
:10022600EE8AF0A42CFCE5F038F8E433CF89F0A48C
:100236002CFCE5F038CF3400CE89F0A42FFFE5F092
:100246003EFEE433C98DF0A42EFEE5F039CD8AF0EA
:10025600A42FFFE5F03EFEE43DFD33D0E0FB500762
:100266000BBB000F020449EC2CFCEF33FFEE33FE10
:06027600ED33FD0204213E
:10027C00020449EC5D046005E85904700302043F74
:10028C0012040A580460F6EC4860F2EC7004FDFEAF
:10029C00FF22C860DB2481C85009C3986002500655
:1002AC000204469850CAF582E9294B4A7005AB8284
:1002BC0002043575F0007C1A7880C3EF9BEE9AED42
:1002CC0099400DC3EF9BFFEE9AFEED99FDE842F0CD
:1002DC00DC23ACF0D0E0FFD0E0FED0E0FDAB822020
:1002EC00E7101BEB60BAEC2CFCEF33FFEE33FEEDAA
:1002FC0033FD020421E803F830E705C0F075F00087
:10030C00EF2FFFEE33FEED33FD40B830E7C280AA8D
:10031C0074F8CC6480CCC86480C8F58204604FC388
:10032C00EB9FF5F0EA9E42F0E99D42F0E89C45F027
:10033C00603C501DE5825FFFE582D313CB5BCBF4B1
:10034C002B5582FB50280ABA002409B900200880DA
:10035C001DE5825BFBE582D313CF5FCFF4C3132F74
:10036C005582FF50090EBE00050DBD00010CC3EBFC
:10037C009FF5F0EA9E42F0E99D42F0E89C45F06062
:09038C0007CC4820E701B3EC2284
:1003950075F020800E75F010800575F0087D007EE3
:1003A500007F003392D530D5031206FDEC334010A3
:1003B500EF33FFEE33FEED33FDEC33FCD5F0ED22EC
:0E03C500E5F0247EA2D513CC92E7CDCEFF2228
:1003D300EDD2E7CD33EC3392D524814006E4FFFE22
:1003E300FDFC22FCE4CFCECDCC24E0501174FF8081
:1003F300EDC3CC13CCCD13CDCE13CECF13CF04701E
:07040300F030D5DE0206FD1A
:10040A00E9D2E7C933E833F892D5EDD2E7CD33EC38
:07041A0033FC5002B2D522B1
:10042100EC30E7100FBF000C0EBE00080DBD00043C
:100431000BEB6014A2D5EB13FCED92E7FD2274FFE8
:10044100FCFDFEFF22E480F8A2D574FF13FC7D8041
:03045100E480EF55
:10277600021895E493A3F8E493A34003F68001F2CC
:1027860008DFF48029E493A3F85407240CC8C33364
:10279600C4540F4420C8834004F456800146F6DF33
:1027A600E4800B01020408102040809021EBE47EB7
:1027B600019360BCA3FF543F30E509541FFEE49328
:1027C600A360010ECF54C025E060A840B8E493A3EF
:1027D600FAE493A3F8E493A3C8C582C8CAC583CA1A
:1027E600F0A3C8C582C8CAC583CADFE9DEE780BED2
:0123090000D3
:10045400E709F608DFFA8046E709F208DFFA803E8A
:1004640088828C83E709F0A3DFFA8032E309F60877
:10047400DFFA8078E309F208DFFA807088828C83DF
:10048400E309F0A3DFFA806489828A83E0A3F60893
:10049400DFFA805889828A83E0A3F208DFFA804C6D
:1004A40080D280FA80C680D4806980F28033801044
:1004B40080A680EA809A80A880DA80E280CA8033AD
:1004C40089828A83ECFAE493A3C8C582C8CCC58325
:1004D400CCF0A3C8C582C8CCC583CCDFE9DEE780F5
:1004E4000D89828A83E493A3F608DFF9ECFAA9F074
:1004F400EDFB2289828A83ECFAE0A3C8C582C8CCCA
:10050400C583CCF0A3C8C582C8CCC583CCDFEADEE2
:10051400E880DB89828A83E493A3F208DFF980CC44
:1005240088F0EF60010E4E60C388F0ED2402B4043D
:100534000050B9F582EB2402B4040050AF232345E4
:0605440082239004A47361
:10054A00BB010689828A83E0225002E722BBFE02AF
:09055A00E32289828A83E49322E2
:10056300BB010CE58229F582E5833AF583E022504D
:1005730006E92582F8E622BBFE06E92582F8E22297
:0D058300E58229F582E5833AF583E49322B1
:10059000BB010689828A83F0225002F722BBFE014A
:0205A000F32244
:1005A200F8BB010DE58229F582E5833AF583E8F08F
:1005B200225006E92582C8F622BBFE05E92582C83B
:0205C200F22223
:1005C400BC000BBE0029EF8DF084FFADF022E4CC1B
:1005D400F875F008EF2FFFEE33FEEC33FCEE9DECE4
:1005E400984005FCEE9DFE0FD5F0E9E4CEFD22ED2A
:1005F400F8F5F0EE8420D21CFEADF075F008EF2F74
:10060400FFED33FD4007985006D5F0F222C398FD64
:050614000FD5F0EA2201
:10061900C5F0F8A3E028F0C5F0F8E582158270026C
:060629001583E038F02209
:10062F0075F008758200EF2FFFEE33FECD33CDCC82
:10063F0033CCC58233C5829BED9AEC99E582984005
:10064F000CF582EE9BFEED9AFDEC99FC0FD5F0D6E2
:10065F00E4CEFBE4CDFAE4CCF9A88222B800C1B90C
:10066F000059BA002DEC8BF084CFCECDFCE5F0CB4A
:10067F00F97818EF2FFFEE33FEED33FDEC33FCEB83
:10068F0033FB10D703994004EB99FB0FD8E5E4F93E
:10069F00FA227818EF2FFFEE33FEED33FDEC33FC2B
:1006AF00C933C910D7059BE99A4007EC9BFCE99A1F
:1006BF00F90FD8E0E4C9FAE4CCFB2275F010EF2F64
:1006CF00FFEE33FEED33FDCC33CCC833C810D70764
:1006DF009BEC9AE899400AED9BFDEC9AFCE899F89F
:0E06EF000FD5F0DAE4CDFBE4CCFAE4C8F92232
:0E06FD00C3E49FFFE49EFEE49DFDE49CFC220E
:10070B00EB9FF5F0EA9E42F0E99D42F0E89C45F044
:01071B0022BB
:10071C00E8600FECC313FCED13FDEE13FEEF13FFBB
:03072C00D8F122DF
:10072F00BB010DE58229F582E5833AF58302088F37
:10073F005007E92582F8020883BBFE07E92582F8F6
:10074F0002089BE58229F582E5833AF5830208A723
:10075F00BB010DE58229F582E5833AF5830207B3E4
:10076F005007E92582F80208EDBBFE07E92582F85C
:04077F000208F92251
:10078300BB010DE58229F582E5833AF5830208C4AE
:100793005007E92582F80208B7BBFE07E92582F86E
:1007A3000208D0E58229F582E5833AF5830208DD64
:0C07B300ECF0A3EDF0A3EEF0A3EFF022B9
:1007BF00A8828583F0D083D0821207D61207D61273
:1007CF0007D61207D6E473E493A3C583C5F0C58398
:1007DF00C8C582C8F0A3C583C5F0C583C8C582C884
:0107EF0022E7
:1007F000BB010DE58229F582E5833AF5830207BF47
:100800005007E92582F8020905BBFE07E92582F8B1
:0408100002091E2299
:10081400BB010789828A830209495005E9F8020964
:1008240037BBFE05E9F802095B89828A8302096DF8
:10083400BB011A89828A83D0F0D0E0F8D0E0F9D0E5
:10084400E0FAD0E0FBE8C0E0C0F00209525016E93B
:10085400F8D083D082D0E0F9D0E0FAD0E0FBC082B7
:10086400C083020940BBFE16E9F8D083D082D0E0F1
:0F087400F9D0E0FAD0E0FBC082C0830209642211
:0C088300E6FC08E6FD08E6FE08E6FF22A1
:0C088F00E0FCA3E0FDA3E0FEA3E0FF22DC
:0C089B00E2FC08E2FD08E2FE08E2FF2299
:1008A700E493FC740193FD740293FE740393FF2297
:0D08B700E6FB08E6F908E6FA08E6CBF822B1
:0C08C400E0F8A3E0F9A3E0FAA3E0FB22B7
:0D08D000E2FB08E2F908E2FA08E2CBF822A8
:1008DD00E493F8740193F9740293FA740393FB2271
:0C08ED00ECF608EDF608EEF608EFF62237
:0C08F900ECF208EDF208EEF208EFF2223B
:10090500D083D082E493F608740193F608740293B9
:09091500F608740393F6740473F0
:10091E00D083D082E493F208740193F208740293A8
:09092E00F208740393F2740473DF
:09093700E6FB08E6FA08E6F922E5
:09094000EBF608EAF608E9F622DC
:09094900E0FBA3E0FAA3E0F922AF
:09095200EBF0A3EAF0A3E9F022A6
:09095B00E2FB08E2FA08E2F922CD
:09096400EBF208EAF208E9F222C4
:0C096D00E493FB740193FA740293F922E6
:00000001FF
