:03000000022C6768
:102C670075C7AA75C75575FD5A75C7AA75C755752E
:102C7700FDA5787FE4F6D8FD9000007FFF7E03E492
:0C2C8700F0A3DFFCDEFA758121022CCEE8
:1022710051026A3F0C765E4D5B7B0E7F5F6F7F3351
:042281003F73633D07
:103D0600E4FEEEC3940874809480500FC292EF13C1
:0D3D16009291EFC313FFD2920E80E7C2928C
:013D2300227D
:103E0B00C293EF44C0FF123D06AF05123D06D2939D
:013E1B002284
:103CD700C293EF44C0FF123D069002C6E0D39400A2
:103CE70074809480401612054AFF123D067401291C
:0F3CF700F9E43AFA9002C6E014F080DDD293228D
:0C3E7100C293EF4488FF123D06D293225A
:103DC900C2937F01123D06D293C2937F40123D06F2
:083DD900D2937F05123E712216
:042285004102BC0056
:1033DF00123DC99002BCE0606DE4F0900220E070F5
:1033EF00339002BDE0FDE4FF123E0B9002BEE0FD04
:1033FF007F02123E0B9002BFE0FD7F04123E0B9046
:10340F0002C0E0FD7F06123E0B9002C1E0FD7F0877
:10341F00123E0B22E4FDFF123E0B7D737F02123E24
:10342F000B90026AE0FD7F04123E0B900220E02415
:10343F006AF582E43402F583E0FD7F06123E0BE469
:07344F00FD7F08123E0B2275
:0C22890041028A004102970041028E00D1
:10000E0090028B7401F0A37402F0A374BDF07F0113
:04001E00123E1C2250
:103D7B0090028BE0FBA3E0FAA3E0F98F827583003E
:0B3D8B00ED1205A29002BC7401F022B2
:082A1A0090019DEEF0A3EFF026
:102A22007C037DE81205C4EF7001FF746A2FF58202
:102A3200E43402F583E0FF90028BE0FBA3E0FAA30B
:102A4200E0F9EF12059090019DE0FEA3E0FF7C0308
:102A52007DE81205C47E007F64CFCDCFCECCCE12EE
:102A620005C4746A2FF58274023EF583E0FF90027A
:102A72008BE0FBA3E0FAA3E0F9900001EF1205A2BC
:102A820090019DE0FEA3E0FF7C007D641205C47E00
:102A9200007F0ACFCDCFCECCCE1205C4746A2FF5FB
:102AA2008274023EF583E0FF90028BE0FBA3E0FA22
:102AB200A3E0F9900002EF1205A290019DE0FEA3AF
:102AC200E0FF7C007D0A1205C4746A2DF58274024F
:102AD2003CF583E0FF90028BE0FBA3E0FAA3E0F970
:0D2AE200900003EF1205A29002BC7401F0F9
:012AEF0022C4
:052FEB009001B8EFF0B9
:102FF00075F00A84FF7001FF746A2FF582E43402D1
:10300000F583E0FF90028BE0FBA3E0FAA3E0F9EF89
:103010001205909001B8E075F00A84746A25F0F505
:1030200082E43402F583E0FF90028BE0FBA3E0FA38
:10303000A3E0F9900001EF1205A2ED75F00A8424D7
:103040006AF582E43402F583E09000021205A2EDF5
:1030500075F00A84746A25F0F582E43402F583E0A1
:0C3060009000031205A29002BC7401F065
:01306C002241
:05306D009001B8EDF038
:10307200EF75F00A84FE7001FE746A2EF582E43464
:1030820002F583E0FE90028BE0FBA3E0FAA3E0F9F5
:10309200EE120590EF75F00A84246AF582E4340298
:1030A200F583E0FE90028BE0FBA3E0FAA3E0F99047
:1030B2000001EE1205A2EF75F00A84746A25F0F59C
:1030C20082E43402F583E09000021205A29001B876
:1030D200E075F00A84246AF582E43402F583E09014
:0B30E20000031205A29002BC7401F074
:0130ED0022C0
:103E1C0090028AEFF0E4900297F09002BC04F0223A
:0D3E5700EF1490028EF09002BC7401F02276
:101DC20090028AE024FD7003021EA6046003021F33
:101DD20096900297E0FF7E00703390028BE0FBA3A7
:101DE200E0FAA3E0F912054A90028FF09000011286
:101DF2000563900290F0900002120563900291F048
:101E0200900003120563900292F0021E9FEF64039A
:101E12004E703790028BE0FBA3E0FAA3E0F9E412E4
:101E2200059090028BE0FBA3E0FAA3E0F990000199
:101E3200E41205A2900002E41205A2900003E4124B
:101E420005A29002BC7401F08053900297E06406F0
:101E5200704B90028FE0FF90028BE0FBA3E0FAA3AD
:101E6200E0F9EF120590900290E0FF90028BE0FB08
:101E7200A3E0FAA3E0F9900001EF1205A29002910B
:101E8200E09000021205A2900292E0900003120577
:101E9200A290029774FFF09002BC7401F090029736
:101EA200E004F022900297E0FF7E00704290028FE1
:101EB200E0FD90028BE0FBA3E0FAA3E0F9ED12054E
:101EC20090900290E0FD90028BE0FBA3E0FAA3E089
:101ED200F9900001ED1205A2900291E09000021229
:101EE20005A2900292E09000031205A2021F90EF59
:101EF20064034E7047900293E0FF90028BE0FBA3D5
:101F0200E0FAA3E0F9EF120590900294E0FF90024C
:101F12008BE0FBA3E0FAA3E0F9900001EF1205A227
:101F2200900295E09000021205A2900296E09000C5
:101F3200031205A29002BC7401F08052900297E055
:101F42006406704A90028FE0FF90028BE0FBA3E0F0
:101F5200FAA3E0F9EF120590900290E0FF90028B55
:101F6200E0FBA3E0FAA3E0F9900001EF1205A290D2
:101F72000291E09000021205A2900292E09000030A
:101F82001205A29002BC7401F0E4900297F0900254
:051F920097E004F022BD
:1022950041029D0041029C0041029F0041029900BC
:1022A5004102A4004102A0004102A5004102A20092
:0D22B500410298004102A30042029A00007D
:10273900E49002A1F0900260E0FD7C00640470075F
:102749009002A1E04401F0ED641A4C70079002A1D7
:10275900E04402F0900260E0640170079002A1E099
:102769004404F0900260E0640570079002A1E0441F
:1027790008F090029AE07002A3E0600F90029BE0DB
:1027890024FFF090029AE034FFF0229002A1E06069
:1027990054900222E0640A701704F0FB7A007D0A63
:1027A9007C00FF12359290029AE4F0A37414F0228F
:1027B900E49002CAF0A3F09002A4E0D3945A748082
:1027C900948040199002A1E09002A0F0900298E054
:1027D90004F0E0640F7022F0123B0B801C9002A4FD
:1027E900E004F080149002A4E06401700CF07B0115
:1027F900FA7D0AFC7F0112359290029EE0FF900259
:10280900A1E0FE6F602DE49002CAF0A3F09002A04F
:10281900EEF0121BE09002A1E090029EF09002A45B
:10282900E0D3945A7480948040047401F022E490B7
:0428390002A4F022E3
:0F22C2004102B400C1094602AE00C801900258A3
:102DBA00EF64014E6003022E4C900222E06404602C
:102DCA0003022E4C900236E0FEA3E0FFC3900226D7
:102DDA00E09F900225E09E503B7B017A007D0A7CB1
:102DEA00007F01123592900235E0FF900226E02F13
:102DFA00F0900225E03400F0900236E0FEA3E0FFF6
:102E0A00D3900226E09F900225E09E4016EEF0A3A2
:102E1A00EFF0800F900236E0FFA3E0900225CFF09A
:102E2A00A3EFF0900225E0FEA3E0FF7C007D0A12EA
:102E3A0005C4AD077F02123CA5E4900253F0A374C7
:032E4A0010F02263
:10326D00EF64014E7076900222E06404706ED3908C
:10327D000226E09464900225E0940040377B017AA9
:10328D00007D0A7C007F01123592900235E0FFC36C
:10329D00900226E09FFF900225E09400FEF0A3EF40
:1032AD00F0C39464EE94005014900225E4F0A374DE
:1032BD0064F08009900225E4F0A37464F090022577
:1032CD00E0FEA3E0FF7C007D0A1205C4AD077F027E
:0D32DD00123CA5E4900253F0A37410F022FF
:101BE0009002A0E090019CF030E00E9002A2E03064
:101BF000E0077F017E00122DBA90019CE020E103F6
:101C0000021CC99002A2E020E103021CC97B017AF8
:101C1000007D0A7C007F01123592900222E064026E
:101C200070267403F09002A274FFF07B007A0079B2
:101C300000E4FD7F04123C727B017A007D0A7C0087
:101C40007F01123592021CC9900222E064037022C7
:101C50007407F0E49002A2F0FBFA79017D017F04A1
:101C6000123C727B017A007D0A7C007F0112359262
:101C70008057900222E0640470227405F0E4900220
:101C8000A2F0FBFA79017D017F04123C727B017A9C
:101C9000007D0A7C007F01123592802D900222E0A7
:101CA00064097025C2097403F09002A274FFF07BEE
:101CB000007A007900E4FD7F04123C727B017A0017
:101CC0007D0A7C007F0112359290019CE020E203A6
:101CD000021DAC9002A2E020E203021DAC900222A1
:081CE000E064046003021DAC86
:101CE80090019DF0A3F0900225E0FFA3E090019FF2
:101CF800CFF0A3EFF07B017A007D0A7C007F011210
:101D0800359290019FE0FEA3E0FFC394C8EE648083
:101D180094805009E490019DF0A3F0804CC3EF94A7
:101D2800C8EE648094804014EF9490EE64809481AF
:101D3800500A90019DE4F0A304F0802DC3EF949025
:101D4800EE648094814015EF9458EE64809482503C
:101D58000B90019DE4F0A37402F0800DBE020ABF4F
:101D68005807E490019DF0A3F090019EE025E0FF64
:101D780090019DE033FE74AE2FF58274023EF58328
:101D8800E0FEA3E0FF900225EEF0A3EFF07C007DDB
:101D98000A1205C4AD077F02123CA5E4900253F075
:041DA800A37410F020
:101DAC0090019CE030E30E9002A2E030E3077F014B
:051DBC007E0012326DF3
:011DC10022FF
:083E87009002A0E0900301F09D
:013E8F002210
:103B0B009002A0E090019CF030E0189002A2E0300F
:103B1B00E0119002A67401F0FF7E00122DBAE49022
:103B2B0002A6F090019CE030E3189002A2E030E393
:103B3B00119002A67401F0FF7E0012326DE4900228
:023B4B00A6F0E2
:013B4D002255
:1022D1004102AB004202AC00004202A900004202EE
:0722E100A700004102A60066
:0D3E64009002AB7401F0E4FFFE123E3B2221
:103592009001A1EFF0A3ECF0A3EDF0A3EAF0A3EB0E
:1035A200F09002A6E0704B9001A1E0700A9002AB8D
:1035B200F0FFFE123E3B229002ABE070359001A27A
:1035C200E0FFA3E09002ACCFF0A3EFF09001A4E003
:1035D200FFA3E09002A9CFF0A3EFF07F647E001278
:1035E2003E3B9001A1E0049002ABF0E49002A7F010
:0335F200A3F02221
:102EDA009002ABE06401700BFFFE123E3BE49002ED
:102EEA00ABF0229002ABE0D3940174809480406BE3
:102EFA00A3E0FEA3E0FF9002A7E0B50613A3E0B5A6
:102F0A00070EE4FFFE123E3B9002ABE014F0803D58
:102F1A009002ACE0FEA3E0FF9002AAE02FFF90022D
:102F2A00A9E03EFED39002A8E09F9002A7E09E404F
:102F3A001C9002ABE0D394017480948040077F64B4
:102F4A007E00123E3B74FF9002A7F0A3F09002A805
:0C2F5A00E004F070069002A7E004F022F2
:1022E8004102C9004202CA0000C106C1854102C7B5
:0522F800004102C800D6
:102D1300E58720E403022DB9E4F595A2AF920BC237
:102D2300AF75C7AA75C755439F01A20B92AF75A68E
:102D330030F5A775AF04A2AF920BC2AF75C7AA75E2
:102D4300C75543A401A20B92AF85AE0875A631F512
:102D5300A7A2AF920BC2AF75C7AA75C75543A4010B
:102D6300A20B92AF85AE09A2AF920BC2AF75C7AAF1
:102D730075C755539FFEA20B92AFE50825E0FFE40C
:102D830033FEE50954017C002FFFEC3EFE74F12F66
:102D9300FF74FF3EFEEF5401F509EEC313EF13F585
:102DA3000875C7AA75C75585088475C7AA75C75519
:062DB3008509855387EF3E
:012DB90022F7
:1024EC00E490019CF0900235740AF0A37403F0A3FD
:1024FC0074E8F0A374ACF0A37428F0A3741EF0A3DA
:10250C00E4F0A37406F0A3E4F0A37405F0A3E4F0E4
:10251C00A37404F0A3E4F0A37403F0A3E4F0A37495
:10252C0003F0A3E4F0A37403F0A3E4F0A37403F0AA
:10253C00A3E4F0A37403F0A3E4F0A37403F0A3E406
:10254C00F0A37403F0A3E4F0A37403F0A3E4F0A3EA
:10255C007403F0E490019CF090019CE0C3946474CB
:10256C008094805014000000000000000000000067
:10257C0000000000E004F080DFE4FD7F01123CA5C8
:10258C00E4FD7F01123CA5900236E0FEA3E0FF7C47
:10259C00007D0A1205C4AD077F0C123CA5900238D1
:1025AC00E0FD7F0D123CA5900239E0FD7F0E123C40
:1025BC00A590023AE0FD7F0F123CA57DF07F23121F
:1025CC003CA57D057F1C123CA57D197F1D123CA5E9
:1025DC007D057F1E123CA57D057F1F123CA5900139
:1025EC009C7410F090019CE0C3941C7480948050F7
:1025FC001CE0FF25E0241BF582E43402F583E0A304
:0D260C00E0FD123CA590019CE004F080D799
:01261900229E
:1019F400E490019BF00000000000000000000000E3
:101A040000000000122D13E4F5B1F5B2F5B3F5B4FE
:101A1400F5ACF5AD75B19B75B22075B38175B41095
:101A240075AC01F5AD9002A2F0123E9012000E12B8
:101A34003DC9123BC8123D24123DB0120026123B90
:101A44004E123E7D120003D206D2AF7B017A007D96
:101A54000A7C007F01123592121F97122112900204
:101A640086E0600BE4F0122739122EDA12352E903C
:101A74000287E0600EE4F0121DC2122F66120DB34D
:101A840012293C900289E06022E4F01231EE300623
:101A94001A9002C7E004F0E0C39403748094804079
:101AA4000A1224ECE49002C7F0C206900288E070A7
:101AB40003021BAFE4F0123A7A200503021B72E41E
:101AC4009002A2F09002C8E004F0E0640170287D66
:101AD4003DFF123D7B7D0C7F01123D7B7D3F7F02EC
:101AE400123D7BE4FD7F03123D7B9002BEE0448007
:101AF400F09002BC7401F09002C8E06403704C7D65
:101B040033FF123D7B9002C9E075F00A84246AF524
:101B140082E43402F583E0FD7F01123D7B9002C92B
:101B2400E075F00A84746A25F0F582E43402F583E2
:101B3400E0FD7F02123D7BE4FD7F03123D7B9002BA
:101B4400BEE04480F09002BC7401F09002C8E0FF53
:101B54007E0064057006900222740BF0EF64074E59
:101B6400700C90022204F0C205E49002C8F0200533
:101B7400069002A274FFF0900222E06404602C90AC
:101B840002CBE004F070069002CAE004F09002CAAE
:101B9400E0B40417A3E0B4B0127F01123E1C90021B
:101BA40022740AF0E49002CAF0A3F0900285E06087
:101BB40024E4F01214F69002FDE004F0E0D394055E
:101BC40074809480400F20050C9002207406F090DD
:0B1BD4000222740CF01233DF021A5CD6
:011BDF0022E3
:10370E0090019CEBF0A3EAF0A3E9F0A3E0FBA3E0A9
:10371E00FAA3E0F9C003C002C00190019CE0FBA334
:10372E00E0FAA3E0F912083490019CE0FBA3E0FA62
:10373E00A3E0F99000031207F000000000900007CC
:10374E001207F0000000009001A2E0FCA3E0FDA330
:0C375E00E0FEA3E0FF90000B12075F22CA
:10392A00900209EBF0A3EAF0A3E9F0900209E0FBA8
:10393A00A3E0FAA3E0F990000712072FEF2401FF92
:10394A00E43EFEE43DFDE43CFC90000B12078312CA
:10395A00066BAC00AD01AE02AF03900209E0FBA317
:10396A00E0FAA3E0F9900003120783C312070B7071
:07397A00037F01227F002200
:10398100900202EBF0A3EAF0A3E9F0900202E0FB5F
:10399100A3E0FAA3E0F990000712072FEF2401FF3B
:1039A100E43EFEE43DFDE43CFC90000B1207831273
:1039B100066BAC00AD01AE02AF03900202E0FBA3C7
:1039C100E0FAA3E0F9900003120783C312070B701A
:0739D100037F01227F0022A9
:103DE10090000712072F900003120783C312070BDD
:083DF10070037F01227F002214
:1030EE00900208EDF0900205EBF0A3EAF0A3E9F0F0
:1030FE0012392AEF60037F0022900208E0FFC0071A
:10310E00900205E0FBA3E0FAA3E0F9900007120796
:10311E002F1208148F828E83D0E01205A290020522
:10312E00E0FBA3E0FAA3E0F990000712072FEF24CB
:10313E0001FFE43EFEE43DFDE43CFC90000B120773
:10314E008312066BAC00AD01AE02AF03900205E038
:10315E00FBA3E0FAA3E0F990000712075F7F0122BC
:10316E00900201EDF09001FEEBF0A3EAF0A3E9F07E
:10317E00123981EF60037F0022900201E0FFC00749
:10318E009001FEE0FBA3E0FAA3E0F990000712071E
:10319E002F1208148F828E83D0E01205A29001FEAA
:1031AE00E0FBA3E0FAA3E0F990000712072FEF244B
:1031BE0001FFE43EFEE43DFDE43CFC90000B1207F3
:1031CE008312066BAC00AD01AE02AF039001FEE0C0
:1031DE00FBA3E0FAA3E0F990000712075F7F01223C
:102E4D0090019DEBF0A3EAF0A3E9F090019DE0FB6A
:102E5D00A3E0FAA3E0F9123DE1EF60037F002290B9
:102E6D00019DE0FBA3E0FAA3E0F990000312072F08
:102E7D001208148F828E83120563FF9001A0E0FB70
:102E8D00A3E0FAA3E0F9EF12059090019DE0FBA3FA
:102E9D00E0FAA3E0F990000312072FEF2401FFE4FD
:102EAD003EFEE43DFDE43CFC90000B120783120650
:102EBD006BAC00AD01AE02AF0390019DE0FBA3E052
:0D2ECD00FAA3E0F990000312075F7F0122D5
:1022FD004100000041000100420199000041018FA1
:10230D0000C107C108410005004100060044002F2F
:10231D005350415848005B04120000010000004179
:10232D00005A0146000B6400E8030A0044002B012B
:07233D0000020141000A004B
:1000260090019F7401F0A37400F0A374F9F0A31279
:1000360007BF000000967B017A00794B12370E90BD
:10004600019F7401F0A37400F0A37463F0A3120778
:10005600BF000000967B017A00793C12370E9000B3
:1000660033747FF090003A14F090019004F0900100
:040076009714F022C9
:103CA500E4FE900191EFF0FEA37401F06EFEA3ED2A
:103CB500F06EFEA3F0E4A3F0A3747EF07B017A011D
:103CC5007990900192E024069001F9F07F01123479
:013CD5005698
:013CD60022CB
:103C3B00E4FE900191EFF0FEA37402F06EFEA3ED93
:103C4B00F06EFEA3EBF06EFEA3F0E4A3F0A3747E84
:103C5B00F07B017A017990900192E024069001F9B2
:063C6B00F07F0112345647
:013C71002230
:102112009001A07401F0A37401F0A3749CF07B0100
:102122007A00794B122E4DEF700302227090003329
:10213200E0FF90019CE0FEB5070B9000007401F0F7
:1021420090021EF022900000E024FE601C14604603
:102152001470030221DE2403600302227090003413
:10216200EEF09000007402F022900035EEF0D3946D
:1021720002748094804006E4900000F022E4900013
:1021820001F07B01A304F0A37400F0A37436F09075
:1021920000007403F02290019CE0FF900002E0FB3B
:1021A200A3E0FAA3E0F9900001E0F582758300EF65
:1021B2001205A2900001E004F0900035E02402FF35
:1021C200E433FE900001E0C39FEE6480F8748098CF
:1021D20050030222709000007404F02290003AE052
:1021E200FF90019CE06F600302226B7B0190000272
:1021F20004F0A37400F0A37434F0E490019CF09016
:102202000001F0900035E02402FFE433FE9000016B
:10221200E0C39FEE6480F8748098502B90019CE09C
:10222200FF900002E0FBA3E0FAA3E0F9900001E0D6
:10223200F582758300120563FEEF6E90019CF090AB
:102242000001E004F080BC900002E0FBA3E0FAA3EE
:10225200E0F9900001E0F582758300120563FF90BA
:0E226200019CE0B507031223B7E4900000F0E2
:01227000224B
:1023B700900034E024FD601714603524FE6021147A
:1023C700604E1460721470030224570224EB22B289
:1023D7008590021E7401F0900036E09002C9F02249
:1023E70090021DE060030224EB9002227407F022A2
:1023F70090021E7401F0900220E0700D900036E00C
:10240700900220F0E490021DF0900222740CF0225A
:102417009001917407F0A37402F09002DDE090013F
:1024270093F0F4A3F07B017A0179909001F9740994
:10243700F07F0112345622900037E0FF900036E01B
:10244700FE5F70069002DDEEF022E49002DDF022DE
:102457007B017A007D0A7C007F011235929000365D
:10246700E070269002C1E04410F04408F04420F0E8
:102477004440F04401F04402F04404F07FD27E046B
:10248700122A1A7F01123E1C22900036E064017066
:10249700269002C1E04410F04408F04420F0444084
:1024A700F04401F04402F04404F07F2E7E16122A15
:1024B7001A7F01123E1C22900036E06402702590BC
:1024C70002C1E04410F04408F04420F04440F044D6
:1024D70001F04402F04404F07FB87E22122A1A7FEA
:0524E70001123E1C2261
:103B8C009001F8EDF09001F5EBF0A3EAF0A3E9F069
:103B9C00E4FF12054AFE0F9001F8E0FDEFC39D50C3
:103BAC00189001F5E0FBA3E0FAA3E0F98F8275838E
:0B3BBC00001205636EFE0F80DEAF06F6
:013BC70022DB
:102AF0009001C4EFF0A3EDF0A3EBF09001BFE0FF75
:102B00009001C7F09001DEEDF0A3EBF0A3EFF090A1
:102B100001BFD3940074809480404EA3E0FBA3E0F7
:102B2000FAA3E04A4B6042E4FF9001BFE0FEEFC32E
:102B30009E5036A3E0FBA3E0FAA3E0F98F827583F1
:102B400000120563FE74C82FF582E43401F583EEAC
:102B5000F08F82758300120563FE74E12FF582E425
:102B60003401F583EEF00F80C07B017A0179DE90AD
:102B700001BFE02403FD123B8C9001BFE0FE24C89E
:102B8000F582E43401F583EFF09001C3E0FF74C9EE
:102B90002EF582E43401F583EFF07B017A0179C4EC
:0C2BA000EE24069001F9F0E4FF12345618
:012BAC002206
:101F97009001A07401F0A37401F0A3749CF07B017D
:101FA7007A00793C122E4DEF700302211190000543
:101FB700E014603714604414605114700302204623
:101FC70014700302208B2405600302210690019CF4
:101FD700E0FF64536005EF645770B590019CE09093
:101FE7000011F09000057401F080A590019CE0902D
:101FF7000012F09000057402F0809590019CE0902B
:102007000013F09000057403F0808590019CE09028
:102017000014F0D39414748094804008E490000571
:10202700F0021F97E4900006F07B01A304F0A3746D
:1020370000F0A37415F09000057404F0021F979048
:10204700019CE0FF900007E0FBA3E0FAA3E0F99012
:102057000006E0FE04F08E82758300EF1205A29061
:102067000014E02401FFE433FE900006E0C39FEE76
:102077006480F87480985003021F979000057405D8
:10208700F0021F9790019CE0FF7E00645470089057
:102097000011E06453600EEF64584E705A900011BF
:1020A700E06457705290019CE090002AF090001174
:1020B700E064537037A3E064037031A3E0702DA38D
:1020C700E070299001BFF0F9A3C9F0A3F0A3E9F0EC
:1020D700A37454F0E4FB7D037F53122AF0E49001CC
:1020E70099F0A3F0D20790018FF0800B900011E0D8
:1020F700645770031217B6E4900005F0021F97E4C7
:0A210700900005F0021F97021F97D9
:0121110022AB
:1017B60090019D7401F0900012E064036003021929
:1017C600D2A3E014604614700302185D147003027D
:1017D60018CF24FC70030218F21470030219632454
:1017E6000860030219F3900014E060030219F390F5
:1017F60001BF04F0A3F0A37401F0A3749DF0A374D9
:1018060058F0E4FB7D037F57122AF022900014E083
:1018160060030219F39002227405F090022B12075E
:10182600BF0000000090022F1207BF0000000090CA
:1018360002271207BF000000009001BF7401F0A349
:10184600F0A37401F0A3749DF0A37458F07B017D9E
:10185600037F57122AF022900014E064026003020C
:1018660019F3900222E06404703B900016E0FE90AB
:101876000015E0FDEEEDFF900225EEF0A3EFF07C03
:10188600007D0A1205C4AD077F02123CA5E4900252
:1018960053F0A37410F07B017A007D0A7C007F016F
:1018A600123592800690019D7405F09001BF740177
:1018B600F0A3F0A37401F0A3749DF0A37458F07B19
:1018C600027D037F57122AF02290019D7402F09048
:1018D60001BF14F0A3F0A37401F0A3749DF0A374E8
:1018E60058F07B037D037F57122AF022900222E0F4
:1018F600FF7E00640A700304F022EF64024E601853
:10190600EF64074E6012EF64094E600CEF64054EFB
:101916006006EF64094E7021900220E0701B900271
:10192600227403F09002A274FFF07B017A007D0A14
:101936007C007F01123592800690019D7405F0901F
:1019460001BF7401F0A3F0A37401F0A3749DF0A38A
:101956007458F07B077D037F57122AF022900014FB
:10196600E06401701DA3E064017017C209900222B1
:101976007405F07B017A007D0A7C007F01123592A6
:10198600802B900014E06401701DA3E064027017C0
:10199600D2099002227405F07B017A007D0A7C0050
:1019A6007F01123592800690019D7405F09001BF6B
:1019B6007401F0A3F0A37401F0A3749DF0A374580E
:1019C600F07B087D037F57122AF02222900012E056
:1019D60064047019A3E024FE70139002227405F0CB
:0D19E6007B017A007D0A7C007F01123592A2
:0119F30022D1
:10293C00200703022A1990000AE004F0E0C3940176
:10294C00748094805003022A19E4F090018FE0FF08
:10295C0004F0EF14603314605014606B14700302B5
:10296C0029F324046003022A199001BF7404F0A314
:10297C007401F0A37400F0A3742FF0A37454F07BD3
:10298C00017D037F53122AF0229001BF7408F0A33B
:10299C007401F0A37400F0A3745BF0A37454F07B87
:1029AC00017D047F53122AF0229001BF7401F0A321
:1029BC00F0A37400F0A3745AF0A37454F07B027D5E
:1029CC00047F53122AF0229001BF7406F0A3740105
:1029DC00F0A37400F0A3740BF0A37454F07B037D8C
:1029EC00047F53122AF0229001BF7404F0A37401E7
:1029FC00F0A37400F0A3742BF0A37454F07B0A7D45
:0D2A0C00047F53122AF0C207E490018FF0FE
:012A1900229A
:103C72009001A1EBF0A3EAF0A3E9F0AB079001BF3A
:103C8200EDF09001A1E0F9A3E0FAA3E09001C0C930
:103C9200F0A3EAF0A3E9F0A37458F07D027F571273
:033CA2002AF022E3
:103D5F00900225E0FCA3E09002FBF0ECA3F07B01C6
:0B3D6F007A0279FB7D027F05123C7296
:013D7A002226
:05261A0090019DEFF0AE
:10261F00900225E0FFA3E09001B0CFF0A3EFF09080
:10262F00022BE0FCA3E0FDA3E0FEA3E0FF1203D327
:10263F009001B21207B3E47BE87A03F9F890022F06
:10264F00E0FCA3E0FDA3E0FEA3E0FF12066B900108
:10265F00B6EEF0A3EFF0E4A3F0A3F0F9900227E0B9
:10266F00A3E0A3E0FFA3E09001BACFF0A3EFF0E463
:10267F00FBFA7D847C0490019DE0A3F07484A3F0A9
:10268F007404A3F09001B0E0FCA3E09001A1F0EC82
:10269F00A3F09001B2E0FCA3E0FDA3E0FEA3E0FFF6
:1026AF00E49001A3EFF09001B2E0A3E0A3E0A3E078
:1026BF00780812071CEFE49001A4EFF09001B2E04C
:1026CF00FCA3E0FDA3E0FEA3E0FF781012071CEFD0
:1026DF00E49001A5EFF09001B6E0FCA3E09001A615
:1026EF00F0ECA3F09001B8E0FCA3E09001A8F0ECAF
:1026FF00A3F0A3E4F09001BAE0FCA3E09001ABF0EB
:10270F00ECA3F0E4A3F0A3F0A3F09001BF7412F0D8
:10271F000BA3EBF0A37401F0A3749EF0A37458F015
:09272F00E41B7D017F57122AF022
:01273800227E
:103A7A00900222E01208833AA0013AA0023AA8036F
:103A8A003AB0043AB8053AA0073AA0093ABE0C3A45
:103A9A00BE0D00003AC690019C7401F08016900198
:103AAA009C740EF0800E90019C740DF080069001BB
:0C3ABA009C740FF090019CE0FF12261A93
:013AC60022DD
:0F3E2C000001020304000A141E28323C46505ABB
:1023440041021D004302553F3F3F4302175E760C96
:1023540041021B0041021A0044020C00000000412B
:102364000210004102110041021200410213004117
:0B237400021400410215004102160097
:103B4E00E490021EF09002271207BF00000000E46E
:103B5E00900225F0A3F090022B1207BF0000000088
:103B6E0090022F1207BF00000000E4900233F0A372
:0E3B7E00F0900221F0900220F0900224F0223C
:10352E0090021BE0700590021AF02290021AE0043D
:10353E00F0E0D39414748094804048E4F090022616
:10354E00E0940A900225E09400400EA3E024F6F0E9
:10355E00900225E034FFF08007E4900225F0A3F0FE
:10356E00E4900253F0E0FF7E0012099F900225E0E6
:10357E007002A3E0700D9002227407F0E490021A1C
:04358E00F0A3F02294
:1014F600900222E06404600B90020C1207BF000009
:101506000000229002DCE06403704D900227E0FCAC
:10151600A3E0FDA3E0FEA3E0FFEC4D4E4F6021905B
:101526000227E0A3E0A3E0A3E024FFFFEE34FFFEE2
:10153600ED34FFFDEC34FFFC9002271207B3806800
:101546009002227405F0E49002A2F07B96FA7D32B6
:10155600FC7F051235928050900227E0FCA3E0FD47
:10156600A3E0FEA3E02401FFE43EFEE43DFDE43CEF
:10157600FC9002271207B3E47F707E17FDFC9002F1
:1015860027E0F8A3E0F9A3E0FAA3E0FBC312070BF8
:1015960040169002227405F0E49002A2F07B96FABF
:1015A6007D32FC7F051235929002DCE06401600317
:1015B60002166D90020CE0F8A3E0F9A3E0FAA3E0AE
:1015C600FBC000C001C002C003900225E0FCA3E0FE
:1015D600FDE412039AE4FBFA79B4784312027FD051
:1015E60003D002D001D00012008590020C1207B37E
:1015F60090022BE0FCA3E0FDA3E0FEA3E0FFC00405
:10160600C005C006C007900225E0FCA3E0FDE41279
:10161600039AE4FBFA79B4784312027FA804A90579
:10162600AA06AB07D007D006D005D00412008190D9
:10163600022B1207B3E4FFFE7D207C4190022BE0D3
:10164600F8A3E0F9A3E0FAA3E0FB12031C506990AB
:1016560002227405F0E49002A2F07B96FA7D32FC39
:101666007F05123592805190022BE0F8A3E0F9A392
:10167600E0FAA3E0FBC000C001C002C0039002254F
:10168600E0FCA3E0FDE412039AE4FBFA79B47843A4
:1016960012027FD003D002D001D000120085900242
:1016A6002B1207B390022BE0FCA3E0FDA3E0FEA300
:1016B600E0FF90020C1207B39002DCE064026003C4
:1016C60002178A900225E0FCA3E0FDE412039AE4E7
:1016D600FBFA79B4784312027FE4FBFA798C7842FC
:1016E600120176C004C005C006C00790022FE0FCB8
:1016F600A3E0FDA3E0FEA3E0FFE4120395A804A97E
:1017060005AA06AB07D007D006D005D00412031CE5
:101716004050900225E0FCA3E0FDE412039AE4FBAE
:10172600FA79B4784312027FE4FBFA798C78421294
:101736000176C004C005C006C00790022FE0FCA3D6
:10174600E0FDA3E0FEA3E0FFE4120395D003D00280
:10175600D001D0001200811203D390022F1207B3DA
:10176600804390022F1207BF0000000090022274EF
:1017760005F0E49002A2F07B96FA7D32FC7F05121A
:1017860035928021E4FFFE7D8C7C4290020CE0F8CD
:10179600A3E0F9A3E0FAA3E0FB1201761203D390CB
:0F17A600022F1207B3900253E0FF7E0012099F3B
:0117B5002211
:100DB300900222E014B40C004003021199900DCE6E
:100DC30075F003A4C58325F0C58373020DF20211E8
:100DD300A2020E690211A2020F6E020F9F020FBB45
:100DE3000211A20210310210480210A70210F9905A
:100DF3000210E004F0E0D394017480948050030265
:100E030011A2E4F09002C1E054F7F054FDF054FB5A
:100E1300F054EFF054FEF054DFF0E4FDFF123D7B9D
:100E23007D3F7F01123D7B7D637F02123D7B7D63AE
:100E33007F03123D7B7F01123E1C9002227402F05D
:100E43009001917408F0A37401F0E4A3F07B017A9C
:100E53000179909001F97409F07F011234569002E0
:100E6300A274FFF02222900210E070457B01FA7D0C
:100E73000AFC7F01123592E4FDFF123D7BE4FD7F06
:100E830001123D7B900212E02417F582E43402F54F
:100E930083E0FD7F03123D7BE4FD7F02123D7B7FF8
:100EA30001123E1C9002107401F0900212F0020F26
:100EB30063900210E004F0E0D3940A7480948050AD
:100EC30003020F637401F0FB7A007D0A7C00FF12BA
:100ED3003592900212E0D39402748094805030E4EF
:100EE300FDFF123D7BE4FD7F01123D7B900212E08A
:100EF3002417F582E43402F583E0FD7F03123D7B82
:100F0300E4FD7F02123D7B900212E004F08051E485
:100F1300900212F0900225F0A37464F07C007D0A25
:100F2300FF7E001205C4AB077D017F01123C3B909D
:100F33000225E0FEA3E0FF7C007D0A1205C4AB0797
:100F43007D017F01123C3B9002227404F0E4900285
:100F530053F0A3740EF0900253E0FF7E0012099F3A
:100F63009002C1E054DFF054BFF022E4900254F049
:100F7300FD7F01123CA5E4FD7F01123CA57F011218
:100F83003E1CE49002DCF090021AF0A304F0E4901B
:100F93000210F0A3F09002227406F022900211E0F6
:100FA30004F0E0D394FA7480948050030211A2E415
:100FB300F09002227407F022E4900254F07F707ED6
:100FC30017FDFC900227E0F8A3E0F9A3E0FAA3E001
:100FD300FBC312070B500320092FE4900225F0A353
:100FE300F0A31207BF0000000090022B1207BF00FE
:100FF30000000090022F1207BF00000000900222A1
:101003007401F0FF123E1C801030090DE49002259C
:10101300F0A3F09002227409F0E490021BF0900216
:10102300DCF0900210F0900212F0123E6422900263
:10103300227401F0E490021BF0900210F09002126F
:10104300F0123E6422E4900254F09002271207BF8C
:101053000000000090022B1207BF00000000900266
:101063002F1207BF00000000E4900233F0A3F090BA
:1010730002C1E054F7F054FDF054FBF054FEF05479
:10108300DFF0E4FDFF123D7BE4FD7F01123D7BE4D5
:10109300FD7F02123D7BE4FD7F03123D7B9002A2A4
:1010A30074FFF0229002C1E04408F04402F04404CB
:1010B300F04401F04420F04440F09002BDE044804D
:1010C300F09002BC7401F09002BEE04480F0900204
:1010D300BC7401F09002BFE04480F09002BC740144
:1010E300F09002C0E04480F09002BC7401F07FB83D
:1010F3007E22122A1A22E49002A2F0FDFF123D7B07
:101103007D737F01123D7B90026AE0FD7F02123DF9
:101113007B900220E0246AF582E43402F583E0FD4B
:101123007F03123D7B9002C1E054F7F054FDF0546D
:10113300FBF054EFF054FEF054DFF054BFF0900294
:10114300BEE0547FF09002BC7401F0E4900222F000
:10115300900254F090021DE0700DFD7F01123CA53A
:10116300E4FD7F01123CA590021DE004F0E0D3945E
:101173003C74809480400BE4900222F090021D7432
:101183003CF09002A3E0701704F07B327A007D2CD0
:0F119300FCFF12359222E4900210F0900212F04D
:0111A200222A
:08099F0090019CEEF0A3EFF0C3
:1009A700789E7C017D017BFF7A3E792C7E007F0556
:1009B70012052478A37C017D017BFF7A3E79317E85
:1009C700007F0A120524E49001ADF090019CE070CD
:1009D70002A3E0707A9002C1E04408F054FDF0549D
:1009E700FBF054EFF054FEF054DFF054BFF09002E8
:1009F70025E0FAA3E0FB7C007D64FFAE021205C48C
:100A07009001AEEFF07C007D64AF03AE021205C427
:100A1700AF05A3EFF09001AEE0FF12306DC3900277
:100A270026E094E8900225E09403500FE4FDFF12BE
:100A37003D7BE4FD7F01123D7B8006E4FDFF123D17
:100A47007B9002BFE04480F09002BC7401F02290DA
:100A5700019CE07004A3E064016003020B52900262
:100A6700C1E054F7F04402F054FBF054EFF054FEA9
:100A7700F054DFF04440F090022BE0FCA3E0FDA32C
:100A8700E0FEA3E0FF9001B01207B37F007E4B7D2D
:100A9700C37C479001B0E0F8A3E0F9A3E0FAA3E034
:100AA700FB12031C400A9001B01207BF00000000B0
:100AB7009001B0E0FCA3E0FDA3E0FEA3E0FF12037A
:100AC700D3E47BE87A03F9F812066B9001AEEFF0F6
:100AD7009001B0E0FCA3E0FDA3E0FEA3E0FF12035A
:100AE700D3E47B0AFAF9F812066BE47B64FAF9F8A7
:100AF70012066B9001AFEBF07F007E3C7D1C7C46BD
:100B0700A3E0F8A3E0F9A3E0FAA3E0FB12031C605B
:100B170002501F9001AEE0FFA3E0FD122FEBE4FDB2
:100B2700FF123D7B9002BEE04480F09002BC74014E
:100B3700F0229001AEE0FFA3E0FD122FEB9002BE82
:100B4700E04480F09002BC7401F02290019CE070B8
:100B570004A3E064026003020CF49002C1E054F7BE
:100B6700F054FDF04404F054EFF054FEF054DFF07D
:100B770054BFF07F587E3E7D0F7C0090022FE0F837
:100B8700A3E0F9A3E0FAA3E0FBC312070B400A9026
:100B9700022F1207BF000000007F9F7E867D017C29
:100BA7000090022FE0F8A3E0F9A3E0FAA3E0FBD35B
:100BB70012070B5057E47BE87A03F9F890022FE00D
:100BC700FCA3E0FDA3E0FEA3E0FF12066B9001AEDD
:100BD700EFF0E47BE87A03F9F890022FE0FCA3E05A
:100BE700FDA3E0FEA3E0FF12066BAC00AD01AE0271
:100BF700AF03E47B0AFAF9F812066B9001AFEFF046
:100C0700FD9001AEE0FF12306D020C9E7FA07E8644
:100C17007D017C0090022FE0F8A3E0F9A3E0FAA39E
:100C2700E0FBC312070B406F7F587E3E7D0F7C00B1
:100C370090022FE0F8A3E0A3E0A3E0D312070B5044
:100C470056E47BE87A03F9F890022FE0FCA3E0FD75
:100C5700A3E0FEA3E0FF12066BE47B0AFAF9F812A1
:100C6700066B9001AEEFF0E47B64FAF9F890022F7F
:100C7700E0FCA3E0FDA3E0FEA3E0FF12066BE47B2C
:100C870064FAF9F812066BAF039001AFEFF0FD902D
:100C970001AEE0FF122FEB9002BFE04480F090021C
:100CA700BC7401F07F9F7E86FD7C0090022FE0F8E8
:100CB700A3E0F9A3E0FAA3E0FBD312070B4003027A
:100CC7000DB2E47F0F7E27FDFC90022FE0F8A3E032
:100CD700A3E0A3E012070B500DE4FDFF123D7BE4F8
:100CE700FD7F01123D7BE4FDFF123D7B2290019CBD
:100CF700E07004A3E064036003020DB29002C1E058
:100D070054F7F054FDF054FBF054EFF04401F04475
:100D170020F04440F0900227E0FCA3E0FDA3E0FEB2
:100D2700A3E0FFE41203959001B41207B39001B456
:100D3700E0FCA3E0FDA3E0FEA3E0FF1203D3E47B06
:100D47003CFAF9F812066BE47B64FAF9F812066BC1
:100D57009001AEEBF09001B4E0FCA3E0FDA3E0FE50
:100D6700A3E0FF1203D3E47B3CFAF9F812066B9079
:100D770001AFEBF0E4FFFE7D167C449001B4E0F890
:100D8700A3E0F9A3E0FAA3E0FB12031C50129001C1
:100D9700AEE0FFA3E0FD122FEBE4FDFF123D7B2247
:0B0DA7009001AEE0FFA3E0FD122FEB77
:010DB200221E
:102F6600900254E024F1601E14606724027075E438
:102F7600900213F0900253F0E0FF7E0012099F903A
:102F86000254740FF022900213E004F0E0D394325E
:102F960074809480404EE4F0900222E0FF64016069
:102FA60014EF6402600FEF6404600AEF64056005C5
:102FB600EF6406702F900253E004F0E0C3940474AB
:102FC6008094804002E4F0900253E0FF7E001209F4
:102FD6009F22E4900253F0E0FF7E0012099F9002C8
:042FE60054740FF020
:012FEA0022C4
:1031EE00900215E0146017047074E490021EF0FD56
:1031FE007F03123CA5E4900214F0A304F022900287
:10320E0014E004F090021EE0FD704A7F03123CA50C
:10321E00900214E0D39401748094804041E4F090C5
:10322E000216E004F0E0D3940A748094804020905B
:10323E0002207406F0900222740CF09002157402B3
:10324E00F07B327A007D2C7C017F0112359222E4D4
:0E325E00900215F022E4900216F0900215F096
:01326C00223F
:0A3E7D00E49002DBF0A3F0A3F022B2
:103DF900E49002CCF0A3F0A37407F0A304F0E4A3C9
:023E0900F022A5
:04237F0041026000B7
:093E900043B10153B2FEC200224D
:1011A300208013900259E004F07006900258E00486
:1011B300F0C20302148C30030302147C900261E03A
:1011C300FEA3E0FFC39402EE94004032D3EF940AEF
:1011D300EE94005029900258E0FEA3E0FFC39487E9
:1011E300EE94004019D3EF94FAEE94005010E4A368
:1011F300F0D201900266F0A3F0A3F002146F200175
:1012030003021286900261E0FEA3E0FFC39402EEA4
:101213009400406FD3EF940AEE9400506690025A04
:10122300E004F0E0C3941874809480500302146FB8
:1012330020022C900266E0900263F0900267E09037
:101243000264F0900268E0900265F0D202E490023A
:101253005AF0C201A37403F0A37484F002146F90D4
:101263000266E090025DF0900267E090025EF0900B
:101273000268E090025FF0D204E490025AF0C201E7
:1012830002146F200103021450900261E0FEA3E0F8
:10129300FFC3940EEE94005003021450D3EF94183E
:1012A300EE9400400302145090025AE004F0E0145C
:1012B300B41800400302146F9012C975F003A4C55B
:1012C3008325F0C5837302131102131B0213250236
:1012D300132F02133902134302134D021357021340
:1012E3006102136B02137502137F021389021393B6
:1012F30002139D0213A70213B10213BB0213C5020B
:1013030013CF0213D90213E30213ED0213F6900273
:1013130066E04480F002146F900266E04440F002FD
:10132300146F900266E04420F002146F900266E0AE
:101333004410F002146F900266E04408F002146F48
:10134300900266E04404F002146F900266E04402E7
:10135300F002146F900266E04401F002146F9002F1
:1013630067E04480F002146F900267E04440F002AB
:10137300146F900267E04420F002146F900267E05C
:101383004410F002146F900267E04408F002146FF7
:10139300900267E04404F002146F900267E0440295
:1013A300F002146F900267E04401F002146F9002A0
:1013B30068E04480F002146F900268E04440F00259
:1013C300146F900268E04420F002146F900268E00A
:1013D3004410F002146F900268E04408F002146FA6
:1013E300900268E04404F002146F900268E0440243
:1013F300F08079900268E04401F020022B900266AD
:10140300E0900263F0900267E0900264F09002685B
:10141300E0900265F0D202C201E490025AF0A37494
:1014230003F0A37484F08044900266E090025DF0C0
:10143300900267E090025EF0900268E090025FF035
:10144300D204C201E490025AF08021801FE490028A
:101453005AF0C201900266F0A3F0A3F0900261F08B
:10146300A3F0900258F0A3F0900260F0E4900258C9
:10147300F0A3F0900261F0A3F0900262E004F07038
:1014830006900261E004F0D20330024C90025CE06B
:1014930024FFF090025BE034FFF0E07002A3E07001
:1014A30002C20230043290025DE0FF900263E0B5B5
:1014B300072090025EE0FF900264E0B507149002FB
:1014C3005FE0FF900265E0B50708D200C202C204E4
:1014D3008006C200C202C204300017C2AFC200902D
:1014E3000265E0900260F0E4900268F0900265F01B
:0314F300D2AF2253
:102383004102860041028700410289004102880020
:102393004102850042027B000042027D00004202AE
:0D23A3007F00004202810000420283000022
:03000B0002283D8B
:10283D00C0E0C0F0C083C082C0D075D000C000C061
:0D284D0001C002C003C004C005C006C007E2
:10285A00758CFF758AB41211A3900282E004F0709D
:10286A0006900281E004F0D3900282E094A79002DD
:10287A0081E094004009E4F0A3F090028604F0900D
:10288A00027CE004F0700690027BE004F0D3900230
:10289A007CE0948390027BE094064009E4F0A3F084
:1028AA0090028704F090027EE004F0700690027DA8
:1028BA00E004F0D390027EE0945490027DE09410FC
:1028CA004009E4F0A3F090028904F0900284E00445
:1028DA00F07006900283E004F0D3900284E09494AE
:1028EA00900283E094204009E4F0A3F09002880467
:1028FA00F0900280E004F0700690027FE004F0D3CA
:10290A00900280E094D890027FE094404009E4F07D
:07291A00A3F090028504F018
:10292100D007D006D005D004D003D002D001D0000A
:0B293100D0D0D082D083D0F0D0E032B4
:103BC800A2AF920BC2AF75C7AA75C75543910143FF
:103BD800C60275C7AA75C7555391FEA20B92AF537B
:103BE800DF3F43DF0353DFFB75D10275D9E4E4F50A
:0B3BF800D3F5DB53D6FDD2DED2DF2276
:0E3E3B00AD07AC06ECF5D3AF058FDBD2DE226F
:0E3E4900AD07AC06ECF5D4AF058FDCD2DE225F
:103DB0005389F0438901538EF7758CFF758AB4439C
:093DC000B702C2B9D2A9D28C22CB
:0623B000C10A4102FE001B
:103D24007F807E257D007C00123C037F607E097DC0
:0E3D3400007C00123367C20A439C01D2AC220D
:0434C500AB05AA07A2
:1034C9009001FA1207BF0000FFFFEA14600D0470B3
:1034D90053C2998B9920994C80FB229002FE74016A
:1034E900F0AF038F9A9002FEE0640170379001FA01
:1034F900E0FCA3E0FDA3E0FEA3E0FFEC4D4E4F602E
:10350900239001FAE0A3E0A3E0A3E024FFFFEE3457
:10351900FFFEED34FFFDEC34FFFC9001FA1207B316
:0435290080C380C11A
:01352D00227B
:0B3456009001F6EBF0A3EAF0A3E9F010
:10346100EF14602C04705CE4FF9001F9E0FEEFC3FF
:103471009E5050D20A9001F6E0FBA3E0FAA3E0F9D6
:103481008F82758300120563F599200AFD0F80D99B
:103491009001F9E0D394007480948040269001F665
:1034A100E0FBA3E0FAA3E0F912054AFD7F01123423
:1034B100C59001F7E475F0011206199001F9E014C5
:0334C100F080CDCB
:0134C40022E5
:030023000239D8C7
:1039D800C0E0C0F0C083C082C0D075D000C000C0B5
:0D39E80001C002C003C004C005C006C00736
:1039F50030980FC298AF997B017A00793CAD0712D8
:093A0500316E309904C299C20A25
:103A0E00D007D006D005D004D003D002D001D0000C
:0B3A1E00D0D0D082D083D0F0D0E032B6
:03007B000237C683
:1037C600C0E0C0F0C083C082C0D075D000C000C0C9
:0D37D60001C002C003C004C005C006C0074A
:1037E30030F814C2F8AF9A9002FDE4F07B017A003E
:1037F300794BAD071230EE30F9079002FEE4F0C2C8
:01380300F9CB
:10380400D007D006D005D004D003D002D001D00018
:0B381400D0D0D082D083D0F0D0E032C2
:070003009002D174A5F02268
:103AC700E4FFEFC3940274809480500F74FF2FF5C6
:103AD70082E43402F583E4F00F80E77B017A027910
:103AE700FF9002DA7402F0E4FF123A297B017A02AE
:103AF70079FF12054A64A5700A90000112056390C8
:033B070002D2F0F7
:013B0A002298
:103D4200E4FF1236B19002D174A5F07B017A0279B8
:0D3D5200D19002B97402F0E4FF122BAD22F3
:1036B1007E007480A807088005C333CE33CED8F9C5
:1036C1002400FFEE3445FEEFF5A6EEF5A775AEFF3B
:1036D100A2AF920BC2AF75C7AA75C755439F01A28E
:1036E1000B92AFA2AF920BC2AF75C7AA75C7554374
:1036F100A501A20B92AF75AF22A2AF920BC2AF751B
:0C370100C7AA75C75543A401A20B92AFE4
:01370D002299
:0B2BAD009002B6EBF0A3EAF0A3E9F001
:102BB8007E007480A807088005C333CE33CED8F9C9
:102BC8002400FFEE34459002BAF0A3EFF0A2AF92D2
:102BD8000BC2AF75C7AA75C755439F01A20B92AF29
:102BE800A2AF920BC2AF75C7AA75C75543A501A27C
:102BF8000B92AF75AF21E4FD9002B9E0FFEDC39FE2
:102C08005036A3E0FEA3E02DF5A6EEF5A79002B698
:102C1800E0FBA3E0FAA3E0F98D8275830012056357
:102C2800F5AEA2AF920BC2AF75C7AA75C75543A43C
:102C380001A20B92AF0D80C0A2AF920BC2AF75C7B5
:102C4800AA75C75553A5FEA20B92AFA2AF920BC2AD
:0E2C5800AF75C7AA75C755539FFEA20B92AF6A
:012C6600224B
:0B3A29009002D7EBF0A3EAF0A3E9F055
:103A34007E007480A807088005C333CE33CED8F93E
:103A44002400FFEE3445FEE4FD9002DAE0FCEDC311
:103A54009C5022EF2DF582E43EF583E493FC900222
:103A6400D7E0FBA3E0FAA3E0F98D82758300EC12A2
:053A740005A20D80D445
:013A7900222A
:033E99007F002285
:10381F009002DF1207B3538EF7438901D28CE4FF76
:10382F00FEFDFC9002DFE0F8A3E0F9A3E0FAA3E0CD
:10383F00FBC312070B602F758A7E758CFF308DFDD1
:10384F00C28D9002DFE0FCA3E0FDA3E0FEA3E02425
:10385F00FFFFEE34FFFEED34FFFDEC34FFFC900272
:09386F00DF1207B380B8C28C22FD
:103878009002E31207B3538EF7438901D28CE4FF19
:10388800FEFDFC9002E3E0F8A3E0F9A3E0FAA3E070
:10389800FBC312070B602F758ACA758CFA308DFD31
:1038A800C28D9002E3E0FCA3E0FDA3E0FEA3E024C8
:1038B800FFFFEE34FFFEED34FFFDEC34FFFC900219
:0938C800E31207B380B8C28C22A0
:1038D1009002E71207B3538EEF438910D28EE4FFB3
:1038E100FEFDFC9002E7E0F8A3E0F9A3E0FAA3E013
:1038F100FBC312070B602F758BEA758DCB308FFDE3
:10390100C28F9002E7E0FCA3E0FDA3E0FEA3E02468
:10391100FFFFEE34FFFEED34FFFDEC34FFFC9002BF
:09392100E71207B380B8C28E2240
:10376A009002EB1207B353C9BF53C9DF43C910D242
:10377A00CAE4FFFEFDFC9002EBE0F8A3E0F9A3E047
:10378A00FAA3E0FBC312070B602F75CC3075CDF896
:10379A0030CFFDC2CF9002EBE0FCA3E0FDA3E0FE38
:1037AA00A3E024FFFFEE34FFFEED34FFFDEC34FF0F
:0C37BA00FC9002EB1207B380B8C2CA22D8
:1035F5009002EF1207B375C40743C408E4FFFEFD4C
:10360500FC9002EFE0F8A3E0F9A3E0FAA3E0FBC326
:1036150012070B603575C52C75C6CFE5C45410640B
:103625001070F853C4EF9002EFE0FCA3E0FDA3E0B7
:10363500FEA3E024FFFFEE34FFFEED34FFFDEC3486
:0E364500FFFC9002EF1207B380B253C4F722CD
:103653009002F31207B375C40743C408E4FFFEFDE9
:10366300FC9002F3E0F8A3E0F9A3E0FAA3E0FBC3C4
:1036730012070B603575C5D875C6FFE5C4541064D1
:103683001070F853C4EF9002F3E0FCA3E0FDA3E055
:10369300FEA3E024FFFFEE34FFFEED34FFFDEC3428
:0E36A300FFFC9002F31207B380B253C4F7226B
:103C030053B1BF53B2BF53B17F53B27F7598504383
:103C13008920438780438E1053C4DFAB07AA06A9CC
:103C230005A8047FBC7ED47D0F7C0012066BEFF4E5
:083C330004F58DD28ED2992216
:1032EA009002F71207B353B1BF53B2BF53B17F5322
:1032FA00B27F75985043878053C4F843C420900224
:10330A00F7E0F8A3E0F9A3E0FAA3E0FB7FBC7ED4E0
:10331A007D0F7C0012066BC3E49FFFE49EFE7401DE
:10332A009DFDE49CFC780812071C8FC69002F7E00A
:10333A00F8A3E0F9A3E0FAA3E0FB7FBC7ED47D0FFB
:10334A007C0012066BC3E49FFFE49EFE74019DFDA0
:0D335A00E49CFCEFE48FC543C408D2992227
:1033670090019C1207B353B1FB53B2FB53B3BF5346
:10337700B4BF75F85075C40853C4DF90019CE0F8DA
:10338700A3E0F9A3E0FAA3E0FB7FBC7ED47D0F7C2A
:103397000012066BC3E49FFFE49EFE74019DFDE4EB
:1033A7009CFC780812071C8FC690019CE0F8A3E0EC
:1033B700F9A3E0FAA3E0FB7FBC7ED47D0F7C00126B
:1033C700066BC3E49FFFE49EFE74019DFDE49CFC35
:0833D700EFE48FC543C4082296
:103D960075C7AA75C755A2AF920BC2AF75C7AA75EC
:0A3DA600C755439F80A20B92AF2285
:10007E0002043FE86480F8E933E83360110460F06D
:10008E00ED33EC337009E8FCE9FDEAFEEBFF2204E8
:10009E0060DED3EB9FEA9EE99DE8C2E78CF0C2F7E3
:1000AE0095F0400CE8CCF8E9CDF9EACEFAEBCFFBAF
:1000BE0012040A85D0F05804700320D5B3E80470FA
:1000CE00075002B2D502044992D5EC0460F7E4CC95
:1000DE00C0E0C398F8603B94186008400DD0E0FB78
:1000EE00020421E4FBFAC9FC8028E830E406E4C9E6
:1000FE00FBE4CAFCE830E305E4C9CACBFCE85407CC
:10010E006010F8C3E913F9EA13FAEB13FBEC13FCD6
:10011E00D8F130F52FC3E49CFCEF9BFFEE9AFEED79
:10012E0099FDD0E0FBEF4E4D4C701222DB03020422
:10013E0046EC2CFCEF33FFEE33FEED33FDED30E7F6
:10014E00EB020421EF2BFFEE3AFEED39FDD0E0FB82
:10015E0050130BBB0003020449ED13FDEE13FEEF2B
:08016E0013FFEC13FC02042155
:10017600EC4D6011E8497017ED33EC3304600DE483
:10018600FCFFFEFD22E933E8330470F802043F1257
:10019600040A58046009E4CC248150062850090258
:1001A6000449284003020446C0E0EB4A7044B98083
:1001B60006D0E0FB020435EF4E701CBD8008EBFF55
:1001C600EAFEE9FD80EBE98DF0A4FEE5F002025FB0
:1001D600E9CDF9EAFEEBFFEF89F0A4FCE5F0CE8964
:1001E600F0A42EFFE435F0CD89F0A42DFEE435F021
:1001F6008067EF4E7005BD80D780C3EF8BF0A4AC4F
:10020600F0EE8BF0A42CFCE435F0F8EF8AF0A42C89
:10021600E5F038FCE433CB8DF0A42CFCE5F03BF89C
:10022600EE8AF0A42CFCE5F038F8E433CF89F0A48C
:100236002CFCE5F038CF3400CE89F0A42FFFE5F092
:100246003EFEE433C98DF0A42EFEE5F039CD8AF0EA
:10025600A42FFFE5F03EFEE43DFD33D0E0FB500762
:100266000BBB000F020449EC2CFCEF33FFEE33FE10
:06027600ED33FD0204213E
:10027C00020449EC5D046005E85904700302043F74
:10028C0012040A580460F6EC4860F2EC7004FDFEAF
:10029C00FF22C860DB2481C85009C3986002500655
:1002AC000204469850CAF582E9294B4A7005AB8284
:1002BC0002043575F0007C1A7880C3EF9BEE9AED42
:1002CC0099400DC3EF9BFFEE9AFEED99FDE842F0CD
:1002DC00DC23ACF0D0E0FFD0E0FED0E0FDAB822020
:1002EC00E7101BEB60BAEC2CFCEF33FFEE33FEEDAA
:1002FC0033FD020421E803F830E705C0F075F00087
:10030C00EF2FFFEE33FEED33FD40B830E7C280AA8D
:10031C0074F8CC6480CCC86480C8F58204604FC388
:10032C00EB9FF5F0EA9E42F0E99D42F0E89C45F027
:10033C00603C501DE5825FFFE582D313CB5BCBF4B1
:10034C002B5582FB50280ABA002409B900200880DA
:10035C001DE5825BFBE582D313CF5FCFF4C3132F74
:10036C005582FF50090EBE00050DBD00010CC3EBFC
:10037C009FF5F0EA9E42F0E99D42F0E89C45F06062
:09038C0007CC4820E701B3EC2284
:1003950075F020800E75F010800575F0087D007EE3
:1003A500007F003392D530D5031206FDEC334010A3
:1003B500EF33FFEE33FEED33FDEC33FCD5F0ED22EC
:0E03C500E5F0247EA2D513CC92E7CDCEFF2228
:1003D300EDD2E7CD33EC3392D524814006E4FFFE22
:1003E300FDFC22FCE4CFCECDCC24E0501174FF8081
:1003F300EDC3CC13CCCD13CDCE13CECF13CF04701E
:07040300F030D5DE0206FD1A
:10040A00E9D2E7C933E833F892D5EDD2E7CD33EC38
:07041A0033FC5002B2D522B1
:10042100EC30E7100FBF000C0EBE00080DBD00043C
:100431000BEB6014A2D5EB13FCED92E7FD2274FFE8
:10044100FCFDFEFF22E480F8A2D574FF13FC7D8041
:03045100E480EF55
:102C93000219F4E493A3F8E493A34003F68001F24A
:102CA30008DFF48029E493A3F85407240CC8C33342
:102CB300C4540F4420C8834004F456800146F6DF11
:102CC300E4800B0102040810204080902271E47E0E
:102CD300019360BCA3FF543F30E509541FFEE49306
:102CE300A360010ECF54C025E060A840B8E493A3CD
:102CF300FAE493A3F8E493A3C8C582C8CAC583CAF8
:102D0300F0A3C8C582C8CAC583CADFE9DEE780BEAF
:0123B6000026
:10045400E709F608DFFA8046E709F208DFFA803E8A
:1004640088828C83E709F0A3DFFA8032E309F60877
:10047400DFFA8078E309F208DFFA807088828C83DF
:10048400E309F0A3DFFA806489828A83E0A3F60893
:10049400DFFA805889828A83E0A3F208DFFA804C6D
:1004A40080D280FA80C680D4806980F28033801044
:1004B40080A680EA809A80A880DA80E280CA8033AD
:1004C40089828A83ECFAE493A3C8C582C8CCC58325
:1004D400CCF0A3C8C582C8CCC583CCDFE9DEE780F5
:1004E4000D89828A83E493A3F608DFF9ECFAA9F074
:1004F400EDFB2289828A83ECFAE0A3C8C582C8CCCA
:10050400C583CCF0A3C8C582C8CCC583CCDFEADEE2
:10051400E880DB89828A83E493A3F208DFF980CC44
:1005240088F0EF60010E4E60C388F0ED2402B4043D
:100534000050B9F582EB2402B4040050AF232345E4
:0605440082239004A47361
:10054A00BB010689828A83E0225002E722BBFE02AF
:09055A00E32289828A83E49322E2
:10056300BB010CE58229F582E5833AF583E022504D
:1005730006E92582F8E622BBFE06E92582F8E22297
:0D058300E58229F582E5833AF583E49322B1
:10059000BB010689828A83F0225002F722BBFE014A
:0205A000F32244
:1005A200F8BB010DE58229F582E5833AF583E8F08F
:1005B200225006E92582C8F622BBFE05E92582C83B
:0205C200F22223
:1005C400BC000BBE0029EF8DF084FFADF022E4CC1B
:1005D400F875F008EF2FFFEE33FEEC33FCEE9DECE4
:1005E400984005FCEE9DFE0FD5F0E9E4CEFD22ED2A
:1005F400F8F5F0EE8420D21CFEADF075F008EF2F74
:10060400FFED33FD4007985006D5F0F222C398FD64
:050614000FD5F0EA2201
:10061900C5F0F8A3E028F0C5F0F8E582158270026C
:060629001583E038F02209
:10062F0075F008758200EF2FFFEE33FECD33CDCC82
:10063F0033CCC58233C5829BED9AEC99E582984005
:10064F000CF582EE9BFEED9AFDEC99FC0FD5F0D6E2
:10065F00E4CEFBE4CDFAE4CCF9A88222B800C1B90C
:10066F000059BA002DEC8BF084CFCECDFCE5F0CB4A
:10067F00F97818EF2FFFEE33FEED33FDEC33FCEB83
:10068F0033FB10D703994004EB99FB0FD8E5E4F93E
:10069F00FA227818EF2FFFEE33FEED33FDEC33FC2B
:1006AF00C933C910D7059BE99A4007EC9BFCE99A1F
:1006BF00F90FD8E0E4C9FAE4CCFB2275F010EF2F64
:1006CF00FFEE33FEED33FDCC33CCC833C810D70764
:1006DF009BEC9AE899400AED9BFDEC9AFCE899F89F
:0E06EF000FD5F0DAE4CDFBE4CCFAE4C8F92232
:0E06FD00C3E49FFFE49EFEE49DFDE49CFC220E
:10070B00EB9FF5F0EA9E42F0E99D42F0E89C45F044
:01071B0022BB
:10071C00E8600FECC313FCED13FDEE13FEEF13FFBB
:03072C00D8F122DF
:10072F00BB010DE58229F582E5833AF5830208B511
:10073F005007E92582F80208A9BBFE07E92582F8D0
:10074F000208C1E58229F582E5833AF5830208CDD7
:10075F00BB010DE58229F582E5833AF5830207B3E4
:10076F005007E92582F8020913BBFE07E92582F835
:04077F0002091F222A
:10078300BB010DE58229F582E5833AF5830208EA88
:100793005007E92582F80208DDBBFE07E92582F848
:1007A3000208F6E58229F582E5833AF58302090317
:0C07B300ECF0A3EDF0A3EEF0A3EFF022B9
:1007BF00A8828583F0D083D0821207D61207D61273
:1007CF0007D61207D6E473E493A3C583C5F0C58398
:1007DF00C8C582C8F0A3C583C5F0C583C8C582C884
:0107EF0022E7
:1007F000BB010DE58229F582E5833AF5830207BF47
:100800005007E92582F802092BBBFE07E92582F88B
:040810000209442273
:10081400BB010789828A8302096F5005E9F802093E
:100824005DBBFE05E9F802098189828A8302099386
:10083400BB011A89828A83D0F0D0E0F8D0E0F9D0E5
:10084400E0FAD0E0FBE8C0E0C0F00209785016E915
:10085400F8D083D082D0E0F9D0E0FAD0E0FBC082B7
:10086400C083020966BBFE16E9F8D083D082D0E0CB
:0F087400F9D0E0FAD0E0FBC082C08302098A22EB
:10088300D083D082F8E4937012740193700DA3A304
:1008930093F8740193F5828883E473740293686018
:0608A300EFA3A3A380DF18
:0C08A900E6FC08E6FD08E6FE08E6FF227B
:0C08B500E0FCA3E0FDA3E0FEA3E0FF22B6
:0C08C100E2FC08E2FD08E2FE08E2FF2273
:1008CD00E493FC740193FD740293FE740393FF2271
:0D08DD00E6FB08E6F908E6FA08E6CBF8228B
:0C08EA00E0F8A3E0F9A3E0FAA3E0FB2291
:0D08F600E2FB08E2F908E2FA08E2CBF82282
:10090300E493F8740193F9740293FA740393FB224A
:0C091300ECF608EDF608EEF608EFF62210
:0C091F00ECF208EDF208EEF208EFF22214
:10092B00D083D082E493F608740193F60874029393
:09093B00F608740393F6740473CA
:10094400D083D082E493F208740193F20874029382
:09095400F208740393F2740473B9
:09095D00E6FB08E6FA08E6F922BF
:09096600EBF608EAF608E9F622B6
:09096F00E0FBA3E0FAA3E0F92289
:09097800EBF0A3EAF0A3E9F02280
:09098100E2FB08E2FA08E2F922A7
:09098A00EBF208EAF208E9F2229E
:0C099300E493FB740193FA740293F922C0
:00000001FF
