:020000040000FA
:1000000078060020D9000000F3000000391B000032
:1000100000000000000000000000000000000000E0
:10002000000000000000000000000000F7000000D9
:100030000000000000000000F9000000471C000064
:10004000B51B0000BD1B0000C51B0000CD1B000040
:10005000FD000000FD00000091200000992000003C
:10006000FD000000FD000000111C0000FD0000006C
:10007000491B0000FD000000C91F0000D11F000047
:10008000D91F0000FD000000E91F0000F11F000063
:10009000F91F0000A51B00000F220000FD0000005A
:1000A000210A0000FD000000FF21000007220000DF
:1000B0007F1B0000FD0000002F190000FD1700004D
:1000C0000448854600F09AFC00480047B53100001E
:1000D000C046C0467806002009480A4A002100A10F
:1000E000814200D902440848026008488047084815
:1000F0000047FEE7FEE7FEE7FEE7FEE7FEE700005B
:10010000000000200000000008ED00E0C11F00001A
:10011000C100000030B50B4601460020202201241A
:1001200009E00D46D5409D4205D31D469540491B2B
:100130002546954040191546521E002DF1DC30BD74
:1001400070B500242546002801DA01244042002928
:1001500001DA01254942FFF7DDFFAC4200D0404201
:10016000002C00D0494270BD03460B439B0703D0CF
:1001700009E008C9121F08C0042AFAD203E00B786C
:100180000370401C491C521EF9D27047F8B5024654
:100190004A40D40F42004B0052085B089A4202D2F8
:1001A0000246084611464A0023D0C30D4A00DDB27C
:1001B000120EAD1A202D35DA49020126490AF6053C
:1001C0008A19002C00D0524220214F1B1146B94001
:1001D0002A411018C20D9A4221D0002C17D0012DAF
:1001E00008DCDA05801AD20F8019D207DBB200F0E2
:1001F0006DFBF8BDDA05801A012340001B06C0180C
:1002000080185A428018CA0F1043490007E0490875
:10021000C2071143DA05801A80194008801800F0DF
:100220004DFBF8BD61000122511A001BF7E70122C6
:10023000D2075140AAE70122D2075040A6E7024662
:1002400070B54A40D30FDB0740002DD04A002AD0BA
:10025000010E140E000212020919400A520A8418F3
:10026000E50104465443000A120A2E045043A4191F
:100270004219200CC543AA18120C0125AD03521CCB
:10028000521912047F39240400D0521C104301D4A7
:100290004000491EC2B20C06C0092018401C40088C
:1002A000802A02D003E0002070BD400840000029F1
:1002B00000DA0020184370BD70B502464A40D50FE1
:1002C00040004A00ED0740085208002814D0002AD8
:1002D00012D0C40DD30D41020120C0055202490ABB
:1002E000520AE41A091812187D34914201D3641C91
:1002F00000E04900002C01DA002070BD002391428B
:1003000001D3891A0343400849000028F7D1002986
:100310000AD0914202D10121C90705E0914201D2E0
:10032000012101E00121C943E005C018401900F096
:10033000C5FA70BDF0B507460846584087B0C00FF3
:10034000049048000E46590040084908BC1A8841EC
:1003500005D2384631461E4617460B46024658001F
:10036000400810434DD0300D039040055900400D1A
:10037000490D0590401A0290402873DA18030121B4
:10038000000B09050843019004980092002806D04C
:100390001146019A49420020904100910190029833
:1003A00040210A1A0199009800F054FA05460C46BB
:1003B0006B4607CB00F06FFAC0197141039A0E0D1E
:1003C0000023D71756401A467A40164344D0049A61
:1003D000002A2DD0029A012A039A15DC1205C01AB0
:1003E000914101263605001C7141D20F059ED207AE
:1003F0000093019202962A46234600F0ADFA07B018
:10040000F0BD38463146FAE71605234A0F46B218C2
:10041000C01AB74101210905001C4F4100187F4156
:10042000114618187941E20F10436D19644113E029
:10043000E2076D0815436408C2071443039A0126B6
:100440001205C01A91413605001C7141CE074008C3
:1004500030434908C01851412A46234600F06FFA3C
:10046000CDE7FFE7049801224000C117121A0023CC
:100470008B4104983146C417381AA141EEE730B4D5
:100480000124E407634030BC54E730B40124E4079E
:10049000614030BC4EE700000000E0FFF0B51FB443
:1004A00088B00B990998002448400999C00F490069
:1004B00049080991C0070B990090490049080B9120
:1004C00009990898A64608431CD00B990A98084336
:1004D00018D0099801244000420D4800410D0998A8
:1004E00024050003000B204309900B980003000B28
:1004F00020430B9050181C494018002201901446CC
:10050000104605E0002001460DB0F0BD032801DAD9
:10051000034600E003239C46C11A0AAE0AE05F00CE
:1005200008ADED5B4F00F75B7D430027AA187C41C7
:10053000491C5B1E6145F2DD410004AB5A522104A7
:10054000120C0A43240C401C0828DFDB019802909F
:100550000099704601910090059B049A07990698AE
:1005600000F0FAF9D0E700000DFCFFFFF0B50C46F3
:100570005C4085B0E40FE40703944C000026640857
:1005800059009446490802460296224321D0624609
:100590000A431ED06200570D4A000E032303550D77
:1005A000012402462C492405781B1B0B360B4018EE
:1005B00023432643614600901C46501AB44103D39E
:1005C0000098401C009002E0921800985B410028BF
:1005D00003DA0020014605B0F0BD00200121090525
:1005E0000746864611E064461D46141BB54106D3F6
:1005F0006546521BB341744607430C43A646CD07DC
:1006000040084908284392185B4105460D43EAD14A
:100610001046184313D060461946504071400843B5
:1006200006D06046101AB34106D20122002306E02C
:1006300000220123DB0702E00122D243531000987D
:1006400074460105381C6141029C039D00196941F3
:1006500000F075F9BFE70000FD030000C217C10FED
:10066000504010B54018CA079623002100F02EF91B
:1006700010BD10B500229623114600F027F910BDD9
:100680000EB5C217C10F5040CA0740180021054BD4
:100690000293019200910A460B4600F05DF903B007
:1006A00000BD0000330400000EB505490291002191
:1006B00000910A460B46019100F04EF903B000BDCF
:1006C00033040000C20F410040020123400ADB0551
:1006D000D207090EC0187F2901DA00207047962939
:1006E00003DC9623591AC84001E096398840002A55
:1006F000F4D040427047410040020122400AD20536
:10070000090E80187F2901DA00207047962903DC42
:100710009622511AC84070479639884070470000A9
:1007200070B5CD0F4A0009030123090B1B051943BE
:100730000B4BED070024520D9A4201DA002070BDE8
:10074000074B34339A4203DC9A1A00F093F802E024
:100750000449511888402C43F1D0404270BD00003C
:10076000FF030000CDFBFFFF4A0009030123090B33
:100770001B051943094B10B5520D9A4201DA0020AE
:1007800010BD064B34339A4203DC9A1A00F072F81B
:1007900010BD03495118884010BD0000FF03000040
:1007A000CDFBFFFFC20FD207400040080BD0C10DA8
:1007B0000723DB01C91840020905400A1143C2089A
:1007C00040071143704700200146704710B50029CB
:1007D00004DB0124E40740428C412146002B04DB6A
:1007E0001C460123DB075242A341994200D19042AB
:1007F00010BD0000CB0FDB07490010B549080246C9
:100800000A4307D00A0D07240903E401090B121B50
:10081000002A01DC002010BDC900440F0C43C100B8
:10082000E018D205801800F049F810BD0122D20767
:10083000002800DB101A002900DB511A81427047A2
:100840000122D207002800DB101A002900DB511A10
:100850008842704710B5202A04DB0146203A9140B7
:10086000002010BD914020239C1A0346E340194309
:10087000904010BD10B5202A04DB0846203AD04035
:10088000002110BD0B46D340D0402024A21A914035
:100890000843194610BD10B5202A06DBCB170846C1
:1008A000203A1041C1170B4306E00B461341D040DC
:1008B0002024A21A91400843194610BD002904DAE9
:1008C000401C490001D140084000704770B400242A
:1008D000050C05D11024000402D1002921D01124D7
:1008E000050E01D100020834050F01D10001241DBD
:1008F000850F01D18000A41C002801DB4000641C8E
:10090000002908D020252E1B0D46F540A14000D01F
:1009100001212943084301061B1B000ADB1D02D5E8
:10092000002070BC7047DB05181880180029F8DA21
:10093000401C4900F5D170BC40084000704710B51C
:10094000002B08DA0024401C614192185B411A43D5
:1009500001D14008400010BDF0B51FB482B005467B
:100960000C0003D0084601F0F7FC02E001F0F4FCB3
:1009700020300246009021462846FFF76BFF049B7B
:10098000059A04460F4618431143084314D01846ED
:1009900010431BD0009840210A1A18460599FFF70A
:1009A00069FF05460E46009A05990498FFF752FF25
:1009B000084305D0012004E02046394607B0F0BDC9
:1009C0000020C11705430E432C43374300990E986E
:1009D0006305401A7905E40A00220C43FD0A0A3037
:1009E00002D500200146E9E70105101969410C9C78
:1009F0000D9D00196941FFF7A2FFDFE7064C0125B5
:100A0000064E05E0E36807CC2B430C3C98471034B6
:100A1000B442F7D3FFF758FBF03D0000103E000052
:100A200010B500F009F910BDFEB503460C460020D4
:100A3000029001900022002106E04800185A4E0062
:100A40006F46B853481CC1B2A142F6DB6846008825
:100A5000029068460088019000201AE046006F4628
:100A6000BF5B029EB74203DD46006F46BE5B029647
:100A700046006F46BF5B019EB74203DA46006F46F1
:100A8000BE5B019646006F46BE5BB618B2B2461C0E
:100A9000F0B20228E2DB1046D60F3618F603350C0A
:100AA0002846FEBD0820C043014948627047000047
:100AB000402400404178012908D11B49896801225E
:100AC000920391438918184A916006E01649896893
:100AD000012292039143144A91608178012908D13F
:100AE0001149896801225203914389180E4A916085
:100AF00006E00D4989680122520391430A4A916038
:100B0000C178012908D1084989680122120391435B
:100B10008918054A916006E0034989680122120399
:100B20009143014A916070470024004010B502468D
:100B3000002901D0002A01D1042010BD022010702C
:100B40000C48806801239B029843C018094B9860A9
:100B50000878D8601846C068FF231B0298434B787A
:100B60001B02FF24240223401843024BD8600020BC
:100B7000E3E70000002400400348406840084000CC
:100B8000401C014948607047002400400448406808
:100B900001218903884340180149486070470000DB
:100BA0000024004000B50246002901D1042000BD08
:100BB000130001F0E8FB08050B11171D242B323937
:100BC0001C48006B0005000D08802FE01948406BA1
:100BD0000005000D088029E01648806B0005000D17
:100BE000088023E01348C06B0005000D08801DE05D
:100BF0001048403000680005000D088016E00D48E0
:100C0000403040680005000D08800FE00948403082
:100C100080680005000D088008E006484030C06884
:100C20000005000D088001E00420C0E700BF00209F
:100C3000BDE700000024004010B51948006A000715
:100C4000C00F00282AD017480078022802D00328B5
:100C50001AD108E0134840784000134A8118002058
:100C6000FFF7A0FF10E00F48407840000F4A8118BE
:100C70000120FFF797FF0B48407840000C4A81188D
:100C80000220FFF78FFF00BF00BF06484078401CDE
:100C90000449487002F048FAFFF704FF10BD000055
:100CA00040240040180000202000002024000020E4
:100CB000280000200146002901D1042070473A484D
:100CC00040680C2290434A7892000C231A4010434B
:100CD000354A5060104640685A0290438A78D202E2
:100CE0005B021A401043304A506010464068DA10E8
:100CF0009043CA781202DB101A4010432A4A50600F
:100D000010464068121590430A79920201239B0213
:100D10001A401043244A5060234840308069000B39
:100D200000030A891205120D10431F4A40329061D8
:100D30001046C069000B00038A891205120D10438A
:100D4000194A4032D06118488068400940010A7C45
:100D5000D206D20E1043144A9060104680681F22BB
:100D6000520190434A7C52011F235B011A401043F9
:100D70000D4A906010464068121490430A4A506031
:100D80001046806812149043074A906010468068AD
:100D900052149043044A9060104680689214904325
:100DA000014A9060002089E7002400400B48406A17
:100DB0000821884309494862084840384068C913F7
:100DC0008843401805494039486008464068022178
:100DD0008843801C014940394860704740240040E6
:100DE00030B50346002A01D1042030BD002902D0CD
:100DF00001297DD165E0986D400840001478E40732
:100E0000E40F20439865986D0224A0435479640050
:100E100002252C4020439865986D0424A0439479C2
:100E2000A40004252C4020439865986D0824A04315
:100E30001479E40008252C4020439865986D3024EF
:100E4000A043D478240130252C4020439865986D28
:100E5000C024A0439478A401C0252C402043986569
:100E6000986DFF240134A04354782402FF250135F6
:100E70002C4020439865986D03246402A043147AA3
:100E8000640203256D022C4020439865986DAC00E8
:100E9000A043D479E402AD002C4020439865986EBD
:100EA00040084000547AE407E40F20439866986EA7
:100EB0000624A043947A640006252C4020439866BB
:100EC0006FE0986D01242404A043147824040125C4
:100ED0002D042C4020439865986D6C00A0435479F4
:100EE00064046D002C4020439865986D6C0000E010
:100EF00055E0A0439479A4046D002C4020439865EC
:100F0000986D6C00A0431479E4046D002C402043DC
:100F10009865986D03242405A043D47824050325FF
:100F20002D052C4020439865986DAC00A043947823
:100F3000A405AD002C4020439865986D012424063B
:100F4000A0435478240601252D062C4020439865A3
:100F5000986D03246406A043147A640603256D0685
:100F60002C4020439865986DAC00A043D479E406EA
:100F7000AD002C4020439865986E1024A043547A0D
:100F8000240110252C4020439866986E6024A043CD
:100F9000947A640160252C402043986601E0042087
:100FA00023E700BF002020E730B5034614465A6D02
:100FB000002C03D001208840024304E00120884037
:100FC000154685432A465A65002030BD0146002259
:100FD000FF20053042500020704701460868000C91
:100FE0000004086000207047024601208840C34387
:100FF000FF20053083500020704730B5034600299C
:1010000007D1D86D40084000D407E40F2043D865CD
:101010000CE0012908D1D86D0424A04394000425D4
:101020002C402043D86501E0042030BD0020FCE7BF
:1010300010B50246FF240134A3581C46CC40E007FB
:10104000C00F10BD10B50246002901D1042010BD0B
:101050000878052801DD0420F9E7106D0E23984378
:101060000B785B000E24234018431065106DFF239E
:10107000013398434B781B02FF240134234018436B
:101080001065106D702398438B781B0170242340EA
:10109000184310650020DAE70346002901D11A61E0
:1010A0000DE0012901D15A6109E0022901D19A61BB
:1010B00005E0032901D1DA6101E004207047002036
:1010C000FCE702465160002070470146086D400869
:1010D0004000401C0865002070470146086D40082C
:1010E00040000865002070471CB514211E4801F01F
:1010F00085FF022101A801F081FF0421684601F06B
:101100007DFF0121102000F0EDFEFFF735FD00F01E
:1011100061F902201449087000204870022088708C
:101120000320C87000200871087448740846FFF74F
:10113000C1FD012168460170002141708170C170BC
:10114000FFF7B8FC0621684601710121417101A930
:101150000548FFF7EBFCFFF719FD012202211820DB
:1011600000F098FB1CBD00001C010020F0B585B00C
:1011700004460D461746032103A801F03FFF0B214B
:10118000684601F03BFF01210A2000F0ABFE04217C
:1011900068460173012141730021817303A91D4831
:1011A000FFF750FF21461B48FFF78BFF00262A461A
:1011B00031461848FFF770FF02262A463146154887
:1011C000FFF76AFF012200211248FFF716FF0021F6
:1011D0006846017001214170022181700321C170B4
:1011E000002101710121417181716A460021094884
:1011F000FFF7F6FD0748FFF7E9FE01220721054842
:10120000FFF7D2FE01221146142000F043FB05B087
:10121000F0BD0000003800401CB50621684601F012
:10122000EDFE01211C2000F05DFE002069464870A3
:101230006A46022100F01AFC05220221002000F07B
:1012400055FC1CBD1CB501240121082000F04AFEFC
:101250000021684601704170032181700021C17036
:101260000171012141716946022000F08FF90028C7
:1012700000D000BF022000F0E9F8022000F03AF9A7
:1012800001220021102000F005FB20461CBD0000BB
:101290007CB50024104D2E460121082000F022FECE
:1012A000002168460170417081700121C1700021E8
:1012B0000171012141716946002000F067F90028A1
:1012C00000D001242946002000F092F83146002089
:1012D00000F0E2F820467CBDA0F6000008B5012130
:1012E0001F2000F0FFFD002000F028FB002000F090
:1012F00005FE0021684601704170817000F0A7FC76
:1013000008BD1CB50621684601F078FE01211C20AD
:1013100000F0E8FD0020694648706A46012100F0AF
:10132000A5FB04220121002000F0E0FB1CBD1CB540
:101330000621684601F062FE01211C2000F0D2FD6A
:101340000021684641706A460521C02000F08EFBEE
:1013500001220521C02000F0C9FB0121684641702F
:101360006A460621C02000F081FB01220621C02030
:1013700000F0BCFB1CBD000008B500F0B1FF01206F
:1013800000906946084800F0E0FE0021064800F0A1
:10139000C6FE0021044800F0ADFE01220321072013
:1013A00000F078FA08BD0000000100401CB50121E2
:1013B0001C2000F097FD01216846417081700021DA
:1013C000C170017141716A460321C02000F04EFBDB
:1013D0001CBD000010B50548006801210843034901
:1013E0000860022001F036FE10BD0000002400401D
:1013F00010B502460020002A04D0012A0BD0022A90
:101400001DD111E0104B1B681B0C1B048CB2234335
:101410000D4C236015E00C4B1B6A1B0C1B048CB29B
:101420002343094C23620CE0074B40331B681B0C21
:101430001B048CB22343044C4034236001E00120A0
:1014400000BF00BF10BD0000000C0040014600209E
:10145000002904D0012909D0022917D10DE00D4A35
:101460005269520852000B4B5A6111E0094A526B03
:1014700052085200074B5A630AE0064A403252694A
:1014800052085200034B40335A6101E0012000BF73
:1014900000BF7047000C004010B502460020002A33
:1014A00004D0012A0BD0022A1DD111E0104B5B6839
:1014B0001B0C1B048CB223430D4C636015E00C4BDA
:1014C0005B6A1B0C1B048CB22343094C63620CE067
:1014D000074B40335B681B0C1B048CB22343044C4A
:1014E0004034636001E0012000BF00BF10BD000078
:1014F000000C004001460020002904D001290BD037
:1015000002291DD111E0104AD26801239B029A439F
:10151000D2180D4BDA6015E00B4AD26A01239B0208
:101520009A43D218084BDA620CE0074A4032D2687C
:1015300001239B029A43D218034B4033DA6001E047
:10154000012000BF00BF7047000C00400146002092
:10155000002904D0012907D0022910D109E00A4A44
:101560001269D007C00F0CE0074A126BD007C00FFA
:1015700007E0054A40321269D007C00F01E00020A1
:1015800000BF00BF70470000000C004030B50246AD
:101590000020002A04D0012A47D0022A7ED18BE005
:1015A0006D4BDB6801246402A3430C7864020125BF
:1015B0006D022C402343684CE3602346DB68A4158E
:1015C000A3434C7824026D102C402343624CE3600B
:1015D0002346DB687024A3438C78240170252C40BB
:1015E00023435D4CE3602346DB680824A343CC78A7
:1015F000E40008252C402343574CE3602346DB6876
:101600000424A3430C79A40004252C402343524C0A
:10161000E3602346DB680224A3434C79640002257F
:101620002C4023434C4CE36094E04B4BDB6A012499
:101630006402A3430C78640201256D022C4023430D
:10164000454CE3622346DB6AA415A3434C7824028D
:101650006D102C402343404CE3622346DB6A702428
:10166000A3438C78240170252C4023433A4CE36239
:101670002346DB6A0824A343CC78E40008252C40E9
:101680002343354CE3622346DB6A0424A3430C79ED
:10169000A40004252C4023432F4C00E058E0E362D3
:1016A0002346DB6A0224A3434C79640002252C40C4
:1016B0002343294CE3624DE0274B4033DB68012490
:1016C0006402A3430C78640201256D022C4023437D
:1016D000214C4034E3602346DB68A415A3434C78D7
:1016E00024026D102C4023431B4C4034E3602346FE
:1016F000DB687024A3438C78240170252C4023439D
:10170000154C4034E3602346DB680824A343CC78BF
:10171000E40008252C4023430F4C4034E36023466B
:10172000DB680424A3430C79A40004252C40234344
:10173000094C4034E3602346DB680224A3434C7920
:10174000640002252C402343034C4034E36001E055
:10175000012000BF00BF30BD000C0040014600204A
:10176000002904D001290AD002291AD10FE00F4A1A
:10177000D26852085200521C0C4BDA6013E00B4A3C
:10178000D26A52085200521C084BDA620BE0074A38
:101790004032D26852085200521C044B4033DA6087
:1017A00001E0012000BF00BF70470000000C0040B6
:1017B00001460020002904D0012909D0022917D1AF
:1017C0000DE00D4AD268520852000B4BDA6011E06E
:1017D000094AD26A52085200074BDA620AE0064A06
:1017E0004032D26852085200034B4033DA6001E0C5
:1017F000012000BF00BF7047000C004010B5C0467C
:10180000C04610BD01460A2901D90A207047084682
:10181000FCE70160002343608360C2607047000002
:1018200010B50C48808F0C49098888420EDD0B48A2
:101830000078401C0949087008460078C82808DD6F
:1018400000200870032001F0FFFC02E000200349A3
:10185000087010BDFC0100200A01002016010020C4
:1018600010B5C046C04610BD70B504460D462046B2
:1018700000F06EF9002801D0002070BD616820687A
:10188000405C28706268501CE168FEF743FC6160B0
:101890000120F2E770B504460E46154620460028A2
:1018A00005DBC206D20E01219140144A116000BF2F
:1018B0003146204600F076FD012D0ED1204600284D
:1018C00009DB00BF00BFC206D20E012191400C4AC5
:1018D000116000BF00BF00BF0FE0204600280ADBF8
:1018E000C206D20E01219140054A80321160BFF339
:1018F0004F8FBFF36F8F00BF00BF70BD80E200E06D
:1019000000E100E070B504460D46204600F029F9DC
:10191000002801D0002070BDA16820684554A2684D
:10192000501CE168FEF7F6FBA1600120F3E710B55B
:10193000C046C046C046C04610BD000010B50146B6
:101940000020084A084BDA62084ADA621A46126A2C
:1019500004239A438B00042423401A43024B1A6247
:1019600010BD00005A5A000000000240A5A500006A
:1019700002461068C840C007C00F704708B5144839
:101980000078002806D0012811D002280ED00328A4
:101990001BD119E0012168460170417069460D486C
:1019A000FFF7C4F802200A4908700FE00EE0062194
:1019B000684601700121417069460648FFF7B6F894
:1019C00003200349087001E000E000BF00BF08BD2C
:1019D000180000201C0100201CB501211C2000F073
:1019E00081FA0421802000F08BF80621802000F08D
:1019F00087F80221C02000F083F80021684641707A
:101A0000C170012101716A460421C02000F02EF846
:101A10001CBD000070B504460D4604496018002244
:101A2000294600F001F9002070BD0000100E0240B0
:101A3000F8B504460E4615460548A9004018071992
:101A400001223146384600F0EFF80020F8BD0000D2
:101A5000300D024070B504460D4603496018294612
:101A6000FFF786FF70BD0000000E024070B504460F
:101A70000E4615461B4960180022314600F0D4F886
:101A8000002019496118B20088502A781549091FA9
:101A90006018314600F0C8F86A7812490C396018AD
:101AA000314600F0C1F8AA780E491031601831466D
:101AB00000F0BAF8EA780B4914316018314600F0AA
:101AC000B3F82A79074918316018314600F0ACF8AC
:101AD0006A79044920316018314600F0A5F80020E9
:101AE00070BD00000C0D0240000C024010B5034612
:101AF000024818188C000251002010BD000C024052
:101B000070B504460D46044960180122294600F0CC
:101B10008BF8002070BD00000C0D024070B504462B
:101B20000D461646034960183246294600F07CF8F7
:101B3000002070BD080D024008B50020009000BFD5
:101B400000980028FCD008BD10B5C046C04610BDA6
:101B500001468A684868904201D101207047002000
:101B6000FCE710B50446A268501CE168FEF7D2FA03
:101B70006068814201D1012010BD0020FCE710B552
:101B8000C046C04610BD000070B5054600F044F8E0
:101B900003480169642001F087FF0446204670BDB8
:101BA0003001002010B5C046C04610BD10B5C0467B
:101BB000C04610BD10B5C046C04610BD10B5C046E9
:101BC000C04610BD10B5C046C04610BD10B500F0EF
:101BD00001F810BD10B50321C020FFF73BFF01281D
:101BE00011D10321C020FFF715FF07480078022814
:101BF00007D10648006A0007C00F002801D101F094
:101C000071FFFFF7BBFE10BD18000020402400400C
:101C100010B5C046C04610BD014802490861704772
:101C2000F13800003001002010B5012A05D1036809
:101C300001248C402343036004E0036801248C40AA
:101C4000A343036010BD10B5C046C04610BD70B5BB
:101C5000044600252078002804D0012803D002285B
:101C60000CD107E00CE0032000F094F9032000F011
:101C70006BF905E0032000F055F901E0042500BFF1
:101C800000BF2078012100F00BF8207800F06CF9FB
:101C9000607800F0FFF8A07800F010F9284670BDD9
:101CA000F8B505460C46002700F00EFB002C01D0CD
:101CB000012000E0002004462C48066A002D04D0D4
:101CC000012D15D0022D49D134E028480068400884
:101CD0004000E107C90F08432449086000BF002CF9
:101CE00005D02248C0680005C00F0028F7D037E0B3
:101CF0001E48006A01210907884340181B490862F1
:101D00001B48C068062108431949C8601748006885
:101D100002218843610002221140084313490860F0
:101D200000BF002C05D0114800694006C00F0028F4
:101D3000F7D015E00D48006804218843A100042273
:101D4000114008430949086000BF002C05D007482E
:101D50004069C004C00F0028F7D001E0042700BF8D
:101D600000BF024806623846F8BD0000002000406F
:101D7000000D024030B589B000241422394904A86E
:101D8000FEF7F2F937481430006803900020009005
:101D900001900290344801886846018132484188A8
:101DA0006846C18030488188684681802E48C18855
:101DB000684641802C4820300188684601802B48C5
:101DC00000688006850F002D04D0012D2CD0022D37
:101DD0003AD12BE02548C0684005400D6946098985
:101DE000884201D1089C1EE02048C0684005400D93
:101DF0006946C988884201D1079C14E01B48C06825
:101E00004005400D69468988884201D1069C0AE058
:101E10001648C0684005400D69464988884201D18E
:101E2000059C00E0049C11E0114C0FE0684600881E
:101E30000E4949698905890D884202D16846C489DD
:101E400001E06846848901E0002400BF00BF074824
:101E50000068C005410F2046C8400446204609B02E
:101E600030BD0000D83D0000000C100000200040F4
:101E70000048E80110B50024FFF77CFF0446044841
:101E800000684005810F2046C8400446204610BD2A
:101E90000020004010B5044600F016FA064800681D
:101EA000FF21C1318843A101FF22C1321140084303
:101EB00001490860002010BD0020004010B5044614
:101EC00000F002FA064800680321490288436102D3
:101ED000032252021140084301490860002010BD4E
:101EE0000020004070B504460D462A4621460248AF
:101EF000FFF79AFE002070BD2020004001464A00F6
:101F0000064BD21812885005400D054AD268D20AF5
:101F1000D2020243024BDA6000207047000C10002E
:101F20000020004010B501460020064A52690323F4
:101F30009B029A438B020324A40223401A43014BC1
:101F40005A6110BD0020004010B501460020054A2E
:101F5000126930239A430B01302423401A43014B6A
:101F60001A6110BD0020004070B5044600252646C9
:101F700000F0AAF906480068302188433101302278
:101F8000114008430249086000F012F8284670BD6D
:101F90000020004001460020044A12699208920085
:101FA0008B079B0F1A43014B1A61704700200040BA
:101FB00010B5FFF7DFFE0149086010BD00000020EA
:101FC00010B5FFF7F5FF10BD10B5C046C04610BDF7
:101FD00010B5C046C04610BD10B500F011F810BDD8
:101FE00010B5C046C04610BD10B5C046C04610BDB5
:101FF00010B5C046C04610BD10B500F017F810BDB2
:1020000010B50220FFF7A2FA01280CD1064840695A
:1020100040084000044948610846C0684008400044
:10202000C860FEF7C3FE10BD400C004010B507218C
:102030001148FEF7FDFF01281DD107210E48FEF7CC
:10204000D3FF0E4800880E49081A82B202210A48BE
:10205000FFF722F80B484088401C0A4948800A488C
:102060000078032807D10948006A0007C00F00283C
:1020700001D1FEF79BFE10BD003800400E0000208D
:102080002102000010000020180000204024004021
:1020900010B5C046C04610BD10B500F013F810BD15
:1020A000F8B507460D461646002405E0295D0448AC
:1020B00000F061F8601CC4B2B442F7DBF8BD000068
:1020C0000001004010B50021084800F032F8012856
:1020D0000BD10021054800F00DF8044800F047F846
:1020E000044621460248FFF70DFC10BD00010040E8
:1020F0006401002070B504460D46002229462046A2
:102100001430FFF791FD002070BD70B504460D46F8
:1021100001222946201DFFF787FD002070BD70B504
:1021200004460D4601222946201DFFF77DFD0020B3
:1021300070BD70B504460D46002629462046103075
:10214000FFF716FC0646304670BD70B504460D46D6
:102150006068C021884329788901C0221140084362
:10216000606004212046FFF7D0FF002070BD0146CB
:102170000868C0B2704770B504460D462068000A72
:102180000002E9B20843206000BF01212046FFF7AA
:10219000D0FF0028F9D001212046FFF7ABFF002037
:1021A00070BD70B505460C460026686801214902DD
:1021B0008843617849020122520211400843686055
:1021C0002078002806D0012806D0022803D0032852
:1021D00011D102E000BF0FE000BF63785B1C6268B2
:1021E0005A431046A2685101FDF794FF01210904EA
:1021F000081A86B200E000BF00BF304670BD10B5BF
:10220000C046C04610BD10B5C046C04610BD10B592
:10221000C046C04610BD000010B526480068401CEE
:102220002449086008460078C007C00F002805D17F
:1022300001220421C020FFF771FC04E000220421E8
:10224000C020FFF76BFC1B4800681B49884210D375
:102250001A480078002803D018480078072808D1C9
:1022600000201449086016480078401C1449087082
:1022700014E010480068134988420FD30F480078D3
:1022800000280BD00D480078072807D00020094906
:1022900008600B480078401C09490870084800781D
:1022A000052805DD062006490870012000F0F2FF30
:1022B00010BD00000800002060EA0000FC010020C2
:1022C0000C000020204E00000248034988600348AB
:1022D000886070475A5A000000200040A5A5000001
:1022E00010B586B000240C2103A800F087FE06215B
:1022F00001A800F083FE01210820FFF7F3FD012172
:102300000846FFF7EFFD0021684641734B2040016E
:102310000590012168460173FFF7ACFD049003A905
:102320000C48FFF73EFF0446012168464172002138
:10233000017201A90120FFF729F921460120FFF7C9
:1023400057F821460120FFF7A7F80120FFF706FA0A
:1023500006B010BD000100402021020C01D0102168
:102360001046020A01D010460839020901D0104671
:10237000091F820801D01046891E420801D0881E1C
:102380007047081A704730B47446641E2578641C80
:10239000AB4204D3635D5B00E31830BC18471D46B5
:1023A000F8E7000010B5002819DB1A4A03231B02C6
:1023B000D21883089B00D2588307DC0EFF23A3406A
:1023C0009A438B071B0E8407E40EA3401A43114B5C
:1023D000032424021B198408A4001A5118E00E4A91
:1023E00003071B0F083B9B089B00D2588307DC0E9A
:1023F000FF23A3409A438B071B0E8407E40EA340E0
:102400001A43054B0407240F083CA408A4001A51E2
:1024100010BD000000E100E01CED00E002E008C893
:10242000121F08C1002AFAD170477047002001E04E
:1024300001C1121F002AFBD17047000010B50E48E1
:102440008089C82816DC0C48808FC52805DD0B481C
:102450000078401C0949087002E000200749087014
:1024600006480078142805DD002004490870032080
:1024700000F0EAFE10BD0000FC0100201501002064
:10248000F0B585B01B48C18F40300088814204DD23
:102490001848C18F403000880F1AB9007818FEF72D
:1024A000EFF80546144A154BFDF7F8FF0022144BD0
:1024B00001910090FEF75AF803910290FEF730F96F
:1024C0000446104909888C4205DB0F480078401CFF
:1024D0000D49087002E000200B4908700A48007896
:1024E0000F2805DD002008490870052000F0ACFE2B
:1024F00005B0F0BDFC0100205BD3BCE314CD594016
:102500000000B0400C01002018010020F8B5184868
:102510000078082804D016480078092800D0F8BDB3
:102520001348C18F40300088081A06B2002E00DA26
:102530000026B4B20E48858DA54201DD2F1B00E0B8
:10254000671BA32F0ED90B480078401C094908705F
:1025500008460078302808D300200870082000F0D2
:1025600073FE02E000200349087000BFD7E70000B7
:10257000FC010020170100200348002101800348CE
:1025800001800348018070472000002024000020C3
:1025900028000020F0B587B000250024FB484078D3
:1025A0000300FFF7F0FE32F01AEFEEF0EDF0ECEB87
:1025B000EAE9E8E7E6E5E4E3E2E1E0DFDEDDDCDBF3
:1025C000DAD9D89AD7D6D5556C83D4F0F0F0F0F09C
:1025D000F0F0F0F0F0F0F0D3D2F0ED484078EB49B5
:1025E000C978884233D0E948C07800280BD101204F
:1025F000E84988700020E649487005204881042099
:10260000E449087023E0E148C07801281FD1E1497E
:102610008870DF4948700220DE490870DB48007985
:10262000DB49C988884203DDD9488179D7480171DF
:10263000D749486BFEF75FF8D5494885D3480079FC
:102640000A214843D24948810846C089888179E2F5
:10265000CE49C8786421FDF773FD0646FDF7FEFFFD
:10266000CD49C860C868CD49FDF7E9FD0746FEF7CA
:1026700042F8C6B23146202001F036FB62E2C3497F
:10268000C8786421FDF75CFD0646FDF7E7FFC24907
:1026900008610869C149FDF7D2FD0746FEF72BF82E
:1026A000C6B23146212001F01FFB4BE2B749C87882
:1026B0006421FDF745FD0646FDF7D0FFB6494861A8
:1026C0004869B649FDF7BBFD0746FEF714F8C6B2E8
:1026D0003146222001F008FB34E2AC48C0780A28D9
:1026E00002DD0A20A949C870A848C0780300FFF796
:1026F0004AFE0B07080E141A20264B51575D630043
:1027000000BFA748A24948630320C8835AE0A548F0
:102710009F4948630520C88354E0A0489C4948630A
:102720000520C8834EE0A048994948630520C88326
:1027300048E09E48964948630620C88342E09C488A
:10274000934948630620C8833CE0EEE1E1E148E1BB
:1027500061E04DE039E0D0E1C3E1B6E1A9E19CE1FF
:102760008FE182E175E168E15BE14EE13EE12DE15F
:10277000E0E0B4E086E081E026E07AE078E076E030
:1027800074E06FE05AE0DCE18A4881494863072041
:10279000C88317E088487E4948630820C88311E051
:1027A00086487B4948630920C8830BE08448784900
:1027B00048630A20C88305E07A48754948630520C4
:1027C000C88300BF00BFBDE1BCE17048C0781928D4
:1027D00002DD19206D49C8706C48C078022802DA01
:1027E00002206A49C8706948C07869490882A9E12D
:1027F0006648C0780A2802DD0A206449C870634828
:10280000C078012802DA01206049C8705F48C078AA
:102810005F49488296E15D48C0780A2802DD0A20B7
:102820005A49C8705948C078012802DA012057492E
:10283000C8705648C0785649888283E101205549BE
:1028400088705248C0785F494978884203DD5D4806
:1028500040784E49C8704D48C5780A2068434C49B5
:1028600048816FE101204B4988706BE16AE169E1C1
:1028700068E1502046494882888263E1072000F0E1
:10288000C7FC5FE14148C0784E494870084640782F
:102890000A2148433E49C8804A4949780A2251439F
:1028A00008466438FDF7ECFE0391029045498978AB
:1028B000444AD278881AFDF7E3FE06460022424BCE
:1028C000FDF7ECFD01910090039B029AFDF74EFE8F
:1028D00005910490FDF78EFF2D49886132E12B4868
:1028E000C07838498870084680782949C8703549C9
:1028F00049780A22514308466438FDF7C1FE039126
:102900000290304989782F4AD278881AFDF7B8FEAC
:10291000064600222C4BFDF7C1FD01910090039B60
:10292000029AFDF723FE05910490FDF763FF184915
:10293000886107E11548C0782249C8700846C07808
:10294000134908711F4949780A22514308466438DF
:10295000FDF796FE039102901A498978194AD278B8
:10296000881AFDF78DFE06460022174BFDF796FDEF
:1029700001910090039B029AFDF7F8FD05910490E8
:10298000FDF738FF02498861DCE0000030000020DC
:10299000FC01002048000020480200200000C8423E
:1029A000000020420000A0420000F04200000C4362
:1029B00000002043000034430000484300005C4313
:1029C00000007043500100200000F03F5F48C078D5
:1029D0000A2148435E490881084600895D4908800C
:1029E000B0E05A48C0785C490880ABE05749C878E5
:1029F000FEF708FF04465948447140795849087267
:102A000056484179564801759CE05049C878FEF710
:102A1000F9FE044651488471817951481830017299
:102A200090E04A49C878FEF7EDFE04464B48C47171
:102A3000C1794B482430017284E04449C878FEF7DC
:102A4000E1FE044645480472017A4548303001727F
:102A500078E03E49C878FEF7D5FE04463F48447208
:102A6000417A3F483C3001726CE03849C878FEF743
:102A7000C9FE044639488472817A39484830017267
:102A800060E03249C878FEF7BDFE04463348C472A0
:102A9000C17A33485430017254E02C49C878FEF7AB
:102AA000B1FE04462D480473017B2D48603001724D
:102AB00048E02649C878FEF7A5FE04462748447337
:102AC000417B27486C3001723CE02049C878FEF712
:102AD00099FE044621488473817B21487830017235
:102AE00030E01A49C878FEF78DFE04461B48C473CF
:102AF000C17B1B488430017224E01449C878FEF77A
:102B000081FE044615480474017C1548903001721A
:102B100018E00E49C878FEF775FE04460F48447465
:102B2000417C0F489C3001720CE00849C878FEF7E0
:102B300069FE044609488474817C0948A830017202
:102B400000E000BF00BF07B0F0BD00003000002073
:102B5000FC0100200A0100200C010020500100208F
:102B60005000002010B50B488078012810D109488A
:102B70004078002805D007484178042001F0B4F8D7
:102B800003E00221032001F0AFF800200149887022
:102B900010BD000048000020F0B585B001201E499E
:102BA000087000201D49C8851D4848630A204885D3
:102BB0000520C8833220C8810F2008820320488264
:102BC0008882FF20913008815A20C8701420087133
:102BD0004B200001C880C98808466438FDF750FDC5
:102BE000019100900D49C9780C4A1279881AFDF7B5
:102BF00047FD044600220B4BFDF750FC0646019BA7
:102C0000009AFDF7B3FC03910290FDF7F3FD034931
:102C1000886105B0F0BD000048000020FC010020E4
:102C2000000020410000F03F70B586B0E448007815
:102C30000300FFF7A8FB07FD0595FCFBFAF9FD0073
:102C400001F074F800266BE0DE484078002805D1DA
:102C5000DD480078002801D1FEF7A8F8D94840786F
:102C6000D9490978884259D0D6484078002805DDEE
:102C7000D4484078D4490870FEF798F8D148407895
:102C800000284BD1D0480078002847DD0020CE49ED
:102C90000870CE49C98F8A008818FDF7F1FCCC4A2C
:102CA000CC4B01910090FDF7F9FB0022CA4B039138
:102CB0000290FDF75BFC05910490FDF755FD84B291
:102CC000C249403109888A008818FDF7D9FCC04AFA
:102CD000C04B01910090FDF7E1FB0022BE4B039138
:102CE0000290FDF743FC05910490FDF73DFD85B290
:102CF00028464630844203DC20464630854204DDC7
:102D0000B6480078401CB54908700A2C06DA0A2D2E
:102D100004DAB3480078401CB1490870701CC6B290
:102D2000642E91DBAD480078052808DD0020AB4912
:102D300008700220A2494870062008700FE0A848D9
:102D40000078052808DD0020A549087005209C4969
:102D500048700620087002E00020994908702BE1B5
:102D600000F0E4FF002671E096484078002805D185
:102D700095480078002801D1FEF718F8914840786E
:102D80009149097888425FD08E484078002805DD57
:102D90008C4840788C490870FEF708F889484078DC
:102DA000002851D18848007800284DDD0020864950
:102DB00008708649C98F8A008818FDF761FC844A2B
:102DC000844B01910090FDF769FB0022824B039137
:102DD0000290FDF7CBFB05910490FDF7C5FC84B292
:102DE0007A49403109888A008818FDF749FC784AF9
:102DF000784B01910090FDF751FB0022764B039137
:102E00000290FDF7B3FB05910490FDF7ADFC85B290
:102E100028464630844203DC2046463085420ADD9F
:102E20006E480078401C04E07FE072E06AE030E029
:102E3000C1E06A4908700A2C06DA0A2D04DA6848EB
:102E40000078401C66490870701CC6B2642E8BDB8B
:102E500062480078052808DD0020604908700220DB
:102E6000574948700620087012E05D480078052830
:102E700008DD00205A490870032051494870062097
:102E8000087005E000204E4908700120554908707F
:102E900092E055490868FDF72EFCC1B24B4820303E
:102EA00001710D20494988851920504908805048F2
:102EB0000069C007C00F002805D04E48C068C00791
:102EC000C00F00281AD10720404908704A4800F076
:102ED000A5F8FFF751FB3D48C0893C498881486B04
:102EE000FDF709FC394948850020888300F0E2FDA0
:102EF000FF20F53000F0DCF800F000FE0020304943
:102F0000087059E009203149087000202C490870E8
:102F100052E000F0E1FD00F007FE0121062000F084
:102F2000E3FE00202649087046E02548407803006B
:102F3000FFF729FA092F1907082F092F0C062F0070
:102F400000BF00BF00BF00F091F926E01F48808A53
:102F5000192802D219201D49888200201B49488166
:102F60000920087019E021480688872080008642E1
:102F700000DD0646012E00DA012631461E4800F02B
:102F800055FD0320114988820520488109200870D9
:102F900003E0002000F07EF900BF00BF0848407841
:102FA000002804D006484178042000F09DFE00204F
:102FB0000349087000E000BF00BF06B070BD00000C
:102FC000480000201800002004010020FC0100201F
:102FD0005BD3BCE314CD59400000B0400501002094
:102FE0000601002004000020500000200E000020F8
:102FF00040380040000C00404802002010B50A464E
:103000000146002900D110BD02E000230B70491CCD
:103010001346521E002BF8D100BFF4E70A49C160E5
:103020000A4901610A4941610021018141818161AF
:1030300087218900018401214184412109064162DF
:10304000C1210906816270470AD7233ECDCCCC3D11
:10305000295C0F3D70B505461148124948610020B2
:103060008861052008610FE000200E4988610E4943
:103070000E480068FDF74EF8012109060C1A00BF42
:1030800008488069A042FBD828466D1E0028EBD175
:1030900004480069400840000249086170BD000012
:1030A000FFFFFF0000E000E0A0860100000000201C
:1030B00070B5054611481249486100208861052015
:1030C000086110E000200E4988617D21C9000D488B
:1030D0000068FDF71FF8012109060C1A00BF084817
:1030E0008069A042FBD828466D1E0028EAD104481A
:1030F0000069400840000249086170BDFFFFFF0001
:1031000000E000E00000002010B506480078082824
:1031100003D004480078092803D1FFF78FF9FFF79F
:10312000AFF910BDFC01002000B58FB01B484078FE
:10313000022831DB00201949487002211848FDF7A8
:1031400073FC1849888702211748FDF76DFC154963
:103150004031088002211548FDF766FC1149C887F7
:103160003C2210316846FCF7FFFF0E480FC800F004
:103170009DFA0F480078002801D1012000E00020CE
:103180000B49087008460078002802D103490870EE
:1031900002E00120014908700FB000BD18000020B6
:1031A00020000020FC010020240000202800002036
:1031B0002C000020FEF792F8FEF70EFC00F0E4FD74
:1031C00000F0D0FD00F0B2FD00F0BEFD6420FEF77F
:1031D000DBFC18E0FFF720F80B4840887D2109014F
:1031E000884208DB0020094908800749488000F030
:1031F00083F8FFF789FF00F0BBFCFFF715FD00F037
:10320000CBFDFFF7AFFCE5E7100000200E0100202A
:10321000002801D00A4948700121094A91700949E2
:10322000898A192902D21921064A91820021054A68
:103230005181092111700621014A11707047000067
:1032400048000020FC01002010B50446002C01D0ED
:103250000548447001200449887000F007F80620F2
:103260000149087010BD00004800002010B500F0B2
:1032700033FC00F059FC0020034908700349087032
:1032800048700349087010BD48000020FC01002070
:103290000400002070B50446002C04D0124844708D
:1032A00001201149887011480078082807D00F487C
:1032B0000078072803D00D480078092813D10C485E
:1032C000058887208000854200DD0546012D00DA53
:1032D00001252946074800F0A9FB0520034948813C
:1032E0000920087000BF70BD48000020FC010020CC
:1032F0000E00002048020020F0B587B000200590A5
:10330000DE480078072804D008287DD0092879D124
:10331000FEE0DA488089D9494989884206DAD748E7
:103320008089D649498A4018D4498881D348808900
:10333000D2494989884206DDD0488089CF49498AE7
:10334000401ACE498881CD498889FDF7ADF90546F7
:103350000022CB4BFDF793F801910090FDF74AFA5C
:103360000290C64881690298FCF769FF0390C34840
:10337000016B0398FCF70AFF0490FDF7BCF984B2D7
:103380002046FDF791F90546BE4ABF4BFDF786F88A
:1033900003910290FDF7E8F9B84988850846C18F86
:1033A00040300088081A07B2002F00DA002738469C
:1033B000FDF766F90546B54AB54BFDF76FF8039181
:1033C0000290FDF7D1F9C0B20590AC48408DAB49F1
:1033D000C98B4018A94948850846808B401C8883C2
:1033E0000846808B0F280DDD059884420ADA0020FC
:1033F0008883486BFDF77FF9A0494885082008704D
:10340000002008842AE1FFE79C4880899B4949897C
:10341000884206DA994880899849498A401897492C
:1034200088819648808995494989884206DD934874
:1034300080899249498A401A904988818F498889B0
:10344000FDF732F9054600228D4BFDF718F8019182
:103450000090FDF7CFF90290884881690298FCF747
:10346000EEFE03908548016B0398FCF78FFE0490F5
:10347000FDF741F984B22046FDF716F90546814A69
:10348000814BFDF70BF803910290FDF76DF97B4935
:10349000888589780C2251437E4A8918087AFDF77D
:1034A000E8F805467548816B2846FDF7BFF90FD24D
:1034B0007249886BFDF776F90546774A774BFCF73A
:1034C000DEFF03910290FDF795F96C4988631EE0D9
:1034D0006A4989780C2251436E4A8918087AFDF7A7
:1034E000C8F805466548816B2846FDF7A9F90ED254
:1034F0006249886BFDF756F9674A684B0391029061
:10350000FCF718FF0546FDF775F95C498863A5E0EF
:103510005A48808959494989884216DA5749498960
:10352000564A9289891A88B25449898A814204DBB1
:1035300052494989514A918106E0504989894F4A47
:10354000928A89184D4A91811CE04C4880894B49E8
:103550004989884216DD49498989484A5289891A28
:1035600088B24649898A814204DB44494989434AF1
:10357000918106E041498989404A928A891A3F4AE5
:10358000918100BF3D488089052804DA3B48C08D01
:10359000401C3A49C8853949086B01218907FDF764
:1035A0004FF90FD23549086BFDF7FCF805463A4A4A
:1035B0003B4BFCF764FF03910290FDF71BF92F4989
:1035C000086303E0012080072C4908632B498889A0
:1035D000FDF76AF805460022294BFCF750FF0191E0
:1035E0000090FDF707F90290244881690298FCF7E2
:1035F00026FE03902148016B0398FCF7C7FD049059
:10360000FDF779F884B22046FDF74EF805461D4ACD
:103610001D4BFCF743FF03910290FDF7A5F81749F6
:103620008885886BFDF7BEF805461B4A1D4BFDF7E4
:10363000CDF80FD21149886BFDF7B4F80546164A4C
:10364000184BFCF71CFF03910290FDF7D3F80B49D0
:10365000886302E014480949886300BF00BF074936
:1036600088896421FCF76CFD0449887008468078DD
:103670000E2801D90E20887007B0F0BDFC01002093
:1036800000005940C3F5285C8F42204054E3A59BBD
:10369000C420C03F500000209A9999999999C93F38
:1036A0009999D93F9999B93FCDCCCC3D0FB4F8B594
:1036B00010A8C18A008B081A04B282480078824997
:1036C0000978884213D07F480078072807D07D48C2
:1036D0000078082803D07B480078092803D17B486C
:1036E00000887B49088077480078774908707548DA
:1036F0000078072804D008281ED009287ED164E06D
:10370000002C00DA00246F490879FCF7B2FF6D49FC
:1037100008636846837EA2B20846418D6D4800F07A
:10372000EFF80546284600F09FF9684908800846EA
:10373000008869490880BFE010A8818A6846807EB9
:103740000C225043654A8018C07A081A002821DDEF
:1037500010A98A8A6946897E0C2359435F4BC91890
:10376000C97A501AFCF77AFF00905648816B00988E
:10377000FCF765FD07465A49FCF79EFD0646FCF737
:10378000BAFF5049C8840846808DC98C40184D49FD
:10379000C88403E04B48808D4A49C8846846837ECC
:1037A000A2B24848C18C4B4800F0AAF8054628460A
:1037B00000F05AF9454908800846008846490880C3
:1037C000FEF72EF8FEF7A2FE76E010A8818A684682
:1037D000807E0C225043414A8018C07A081A002883
:1037E00023DD10A98A8A6946897E0C2359433B4B05
:1037F000C918C97A501AFCF731FF00E05BE000906D
:103800003048816B0098FCF71AFD07463449FCF7F5
:1038100053FD0646FCF76FFF2A49C8840846808D91
:10382000C98C40182749C88403E02648808D254963
:10383000C884002C00DA00242046FCF70FFF07465E
:103840002849FCF7FCFC0646FCF755FF26490870A2
:103850006846837EA2B21B48C18C1E4800F050F817
:103860000546284600F000F918490880FEF74EFE8C
:103870001448008A1C490978884203DA1148C08D2F
:1038800008280BD900200F49C88508700520174962
:10389000087019200D4908800D4908800948808961
:1038A000FF212D31884201D9FDF7BAFF0748008872
:1038B0000949088000E000BF00BFF8BC08BC04B0A4
:1038C00018470000FC010020140100200E00002019
:1038D00012010020480200201001002050000020AA
:1038E000000020412506013E08010020480000207C
:1038F00010B5044600F01AFAFFF74EF9600010BD4B
:10390000FFB589B004460B98FCF7B3FE07900A9800
:10391000FCF7AFFE06900799FCF789FC0890206938
:103920000899FCF78CFC07903B490798FCF788FF47
:1039300002D23948079006E038490798FCF776FF2D
:1039400001D2364807900A20205EFCF787FE0390DC
:103950000820205EFCF782FE012189070090FCF719
:103960006EFC01900899FCF766FC02900399FCF745
:103970000DFC04906169FCF762FC06900820205E53
:10398000FCF76CFE02900899FCF755FC0390E16887
:10399000FCF755FC04900799FCF7F8FB0590069995
:1039A000FCF7F4FB0546208960810898FCF78AFE45
:1039B00000B2208141263606C1273F060C98012817
:1039C00001D8174E174F31462846FCF739FF00D86B
:1039D000354639462846FCF729FF00D83D46E561C3
:1039E0002946A069FCF7D2FBA0610F49A069FCF74A
:1039F00027FF01D80C48A0617F21C905A069FCF709
:103A000015FF02D87F20C005A061A069FCF773FEF6
:103A100080B20DB0F0BD000000002041000020C1C8
:103A20000000C0400000C0C00000074470B504465C
:103A30000D462846FCF71DFE06460A493046FCF7AF
:103A4000FFFE00D8074E7F21C9053046FCF7EEFE89
:103A500001D87F26F605002020816081E061A66103
:103A600070BD00000000074470B506460C4804888D
:103A7000A64206DD351B062D00D90625601984B245
:103A800005E0A51B062D00D90625601B84B2204643
:103A9000FCF7EFFD0349886101480480204670BDB2
:103AA000120100204802002070B505460C46284649
:103AB000A04770BD10B5FDF7EBFB002805D0054809
:103AC000007804210843034908700020FDF746FEF2
:103AD00010BD00001400002010B50020FDF768FEA6
:103AE00010BD000010B504490220FDF7D5FC0220EE
:103AF000FDF734FE10BD0000AAFF000010B5012242
:103B000011214901481CFDF731FB01221121490116
:103B1000481CFDF72BFB0348FDF75FFA0148FDF752
:103B2000D4FA10BD0038004010B50348FDF755FA2F
:103B30000148FDF7D2FA10BD0038004010B58722C9
:103B400007490848FDF765FE7F20074908707E2079
:103B5000C8717F20054908707E20C87110BD000023
:103B60007401002064010020300000203800002093
:103B7000FEB502A95648FDF777FE0190019800288E
:103B80007DD0544800786946097A884206D10120E0
:103B900051490870002051490870FEBD4E48007818
:103BA000012806D002280CD0032821D0042867D190
:103BB00034E06846007A4749487002204649087058
:103BC00083E06846007A4349887008468078022876
:103BD00003DD002040490870DFE7002040490870FD
:103BE0003C48C01C3F49086003203B4908706CE01A
:103BF0006846007A3B490968394A1278885438483F
:103C00000078401C3649087032488078801C09785A
:103C1000884202DC04203049087056E02D48C07903
:103C20006946097A88424BD12A48401C2D490860D0
:103C3000002002902A4908700DE02A4800682849AF
:103C40000978405C6946097A484002902448007827
:103C5000401C234908701F488078801C204909783F
:103C60008842EADC6846007A00901E4800680778BF
:103C70001C4800684078C019C7B2002409E025E05C
:103C800022E0A01C17490968085CC019C7B2601C73
:103C9000C4B210488078A042F3DC07213846FCF714
:103CA00039FA0D460B488078801C0E4909680E5C75
:103CB0000098B04201D0B54201D1FEF76BFC00BFC5
:103CC00000200549087000E000BF00BF00BF64E7A6
:103CD0006401002030000020400000200C00002083
:103CE000410000204400002070B505460E46002427
:103CF0000D48457020466840044601200A498870F6
:103D000044400846C6702046704004460846047188
:103D1000002048717E20887108468078801DC2B2DC
:103D20000020FEF7BDF970BD3800002010B5FDF78A
:103D3000DBF9012003490870FDF720FE002001494E
:103D4000487010BD1800002010B5FDF72FFB0222AF
:103D50000321C020FDF76CFE012200210320FDF7A6
:103D600099FD10BD10B5FDF76DFA002805D0054886
:103D700000780221084303490870FDF7C2FAFDF7F5
:103D80004BFA10BD1400002010B5FFF7D7FEFDF769
:103D9000CEFAFDF7F1FA10BD10B50C4800780128F5
:103DA00013D10B480088401C094908800120FFF707
:103DB00051F907480088142807DD002004490880CD
:103DC0000249087003200349087010BD0400002058
:103DD000060000204800002000093D0000127A0083
:103DE0000024F4004086510100366E0100800096E8
:103DF000103E0000000000201C0100001C240000F8
:103E00002C3F00001C0100205C0500002C24000059
:103E100000093D0000000000000000000000190043
:103E20000000000000000000000000000000000092
:103E30000000000000000000000000000000000082
:103E40000000000000000000000000000000000072
:103E50000000000000000000000000000000000062
:103E600000009041E803E803021E0417000090419F
:103E7000E803E803021E041700000042E803E80319
:103E8000031E041700003842E803E803031E041E63
:103E900000007042E803E8030319051E0000944285
:103EA000E803E8030319061E0000B042E803E80334
:103EB0000219071E0000CC42E803E8030214072899
:103EC0000000E842E803E803021407280000024368
:103ED000E803E8030214031E00001043E803E803AC
:103EE0000214082100001E43E803E803021408231B
:103EF00000002C43E803E8030214082300003A43BF
:103F0000E803E8030214082300004843E803E80339
:103F1000021408230000000000002402F00000004A
:0C3F200000000000FF0000000000000096
:04000005000000C136
:00000001FF
