:020000040000FA
:1000000018070020D50000000B260000ED2200009C
:1000100000000000000000000000000000000000E0
:100020000000000000000000000000006B2D000038
:1000300000000000000000000D260000E13100007B
:10004000FD4300008F2500009D270000E51D0000F6
:10005000C52F0000E71D0000E91D000000000000A2
:100060000000000000000000000000000000000090
:100070007507000077070000F9430000FB4300000C
:10008000771F000000000000000000008D25000028
:10009000E91500000916000029160000F1220000F1
:1000A00000000000692D0000000000009D390000E4
:1000B000D13900000000000000000000651B0000B6
:1000C0000348854600F044FB0048004737450000E0
:1000D00018070020064908688546064880470648F4
:1000E0000047FEE7FEE7FEE7FEE7FEE7FEE700006B
:1000F0000000000009320000C1000000F8B502460F
:100100004A40D40F42004B0052085B089A4202D288
:100110000246084611464A0023D0C30D4A00DDB20C
:10012000120EAD1A202D35DA49020126490AF605CC
:100130008A19002C00D0524220214F1B1146B94091
:100140002A411018C20D9A4221D0002C17D0012D3F
:1001500008DCDA05801AD20F8019D207DBB200F072
:100160005EFAF8BDDA05801A012340001B06C018AC
:1001700080185A428018CA0F1043490007E0490806
:10018000C2071143DA05801A80194008801800F070
:100190003EFAF8BD61000122511A001BF7E7012267
:1001A000D2075140AAE70122D2075040A6E70246F3
:1001B00070B54A40D30FDB0740002DD04A002AD04B
:1001C000010E140E000212020919400A520A841884
:1001D000E50104465443000A120A2E045043A419B0
:1001E0004219200CC543AA18120C0125AD03521C5C
:1001F000521912047F39240400D0521C104301D438
:100200004000491EC2B20C06C0092018401C40081C
:10021000802A02D003E0002070BD40084000002981
:1002200000DA0020184370BD70B502464A40D50F71
:1002300040004A00ED0740085208002814D0002A68
:1002400012D0C40DD30D41020120C0055202490A4B
:10025000520AE41A091812187D34914201D3641C21
:1002600000E04900002C01DA002070BD002391421B
:1002700001D3891A0343400849000028F7D1002917
:100280000AD0914202D10121C90705E0914201D271
:10029000012101E00121C943E005C018401900F027
:1002A000B6F970BDF0B507460846584087B0C00F94
:1002B000049048000E46590040084908BC1A88417D
:1002C00005D2384631461E4617460B4602465800B0
:1002D000400810434CD0300D039040055900400DAC
:1002E000490D0590401A0290402872DA1803012146
:1002F000000B09050843019004980092002805D0DE
:1003000001995242002088410092019002984021B8
:100310000A1A0199009800F046F905460C466B460A
:1003200007CB00F061F9C0197141039A0E0D00234B
:10033000D71756401A467A40164344D0049A002AEA
:100340002DD0029A012A039A15DC1205C01A914198
:1003500001263605001C7141D20F059ED20700937D
:10036000019202962A46234600F09FF907B0F0BD9D
:1003700038463146FAE71605224A0F46B218C01A27
:10038000B74101210905001C4F4100187F4111466A
:1003900018187941E20F10436D19644113E0E20728
:1003A0006D0815436408C2071443039A0126120519
:1003B000C01A91413605001C7141CE0740083043F8
:1003C0004908C01851412A46234600F061F9CDE79B
:1003D000FFE7049801224000C117121A00238B4145
:1003E00004983146C417381AA141EEE730B401240D
:1003F000E407634030BC55E730B40124E4076140B2
:1004000030BC4FE70000E0FF0122D207002800DBEC
:10041000101A002900DB511A814201D801207047CF
:10042000002070470122D207002800DB101A0029A3
:1004300000DB511A814201D2012070470020704731
:100440000122D207002800DB101A002900DB511A14
:10045000814201D301207047002070470122D2075A
:10046000002800DB101A002900DB511A814201D953
:100470000120704700207047C217C10F504010B5CF
:100480004018CA079623002100F0C9F810BD10B526
:1004900000229623114600F0C2F810BDC20F4100A1
:1004A00040020123400ADB05D207090EC0187F294C
:1004B00001DA00207047962903DC9623591AC840B8
:1004C00001E096398840002AF4D04042704741004C
:1004D00040020122400AD205090E80187F2901DA64
:1004E00000207047962903DC9622511AC8407047B5
:1004F000963988407047000070B5CD0F4A00090357
:100500000123090B1B0519430B4BED070024520D6A
:100510009A4201DA002070BD074B34339A4203DC63
:100520009A1A00F050F802E00449511888402C4310
:10053000F1D0404270BD0000FF030000CDFBFFFF83
:10054000C20FD207400040080BD0C10D0723DB01CA
:10055000C91840020905400A1143C2084007114367
:10056000704700200146704770B50446002903D04B
:1005700000202022012310E0002801D00020C043E9
:10058000C046C0460DE02546D5408D4205D30D46F8
:100590009540641B1D46954040191546521E002D7E
:1005A000F1DC214670BD10B5202A04DB0146203A5B
:1005B0009140002010BD914020239C1A0346E34047
:1005C0001943904010BD10B5202A04DB0846203A9C
:1005D000D040002110BD0B46D340D0402024A21AA9
:1005E00091400843194610BD10B5202A06DBCB17F1
:1005F0000846203A1041C1170B4306E00B46134151
:10060000D0402024A21A91400843194610BD002969
:1006100004DA401C490001D140084000704770B422
:100620000024050C05D11024000402D1002921D09A
:100630001124050E01D100020834050F01D100017B
:10064000241D850F01D18000A41C002801DB40007F
:10065000641C002908D020252E1B0D46F540A14022
:1006600000D001212943084301061B1B000ADB1DA2
:1006700002D5002070BC7047DB05181880180029CF
:10068000F8DA401C4900F5D170BC400840007047C2
:1006900010B5002B08DA0024401C614192185B4120
:1006A0001A4301D14008400010BDF0B51FB482B01C
:1006B00005460C0003D0084604F06EF802E004F092
:1006C0006BF820300246009021462846FFF76BFF6A
:1006D000049B059A04460F4618431143084314D05F
:1006E000184610431BD0009840210A1A1846059955
:1006F000FFF769FF05460E46009A05990498FFF733
:1007000052FF084305D0012004E02046394607B0D7
:10071000F0BD0020C11705430E432C433743009919
:100720000E986305401A7905E40A00220C43FD0A7D
:100730000A3002D500200146E9E701051019694198
:100740000C9C0D9D00196941FFF7A2FFDFE7000037
:10075000064C0125064E05E0E36807CC2B430C3C14
:1007600098471034B442F7D3FFF7AEFC0C490000B1
:100770002C4900007047704780B598B017AA1070D8
:1007800016A80170B74909911420887703F000FD7D
:10079000099880680A90032800D960E10A988100CE
:1007A00001A040588746C046B90700005308000022
:1007B000F7080000AB09000016A8007801210840E6
:1007C000052102F0ACFC159017A8007840B2012872
:1007D0001ADBFFE7A3488089502801D3FFE73FE1F8
:1007E000A04880891599401814901498512803D373
:1007F000FFE75020089003E014A800880890FFE766
:1008000008989849888119E0964880890A2801D873
:10081000FFE725E1934880891599401A13901398B2
:10082000092803D8FFE70A20079003E013A80088EF
:100830000790FFE707988B498881FFE789480068A0
:10084000042805D1FFE78748808902F03DFCFFE7D7
:1008500006E116A8007801210840052102F05FFC9E
:1008600001463C204843129017A8007840B2012866
:100870001FDBFFE77B4800698149884205D3FFE71A
:1008800078494B2080000861EAE0764800691299B7
:100890004018119011987B49884203D3FFE77848AC
:1008A000069002E011980690FFE706986D490861EE
:1008B00020E06C4800694B218900884204D8FFE79A
:1008C00068496F480861CBE0664800696B49401889
:1008D0001299884204D2FFE74B208000059005E082
:1008E000604800691299401A0590FFE705985D4934
:1008F0000861FFE7B4E016A800780121084005214F
:1009000002F00DFCFFF7C3FD5A49FFF750FC1090B1
:1009100017A8007840B2012823DBFFE7514840695F
:100920005549FFF77FFD002804D1FFE74D495148A5
:10093000486195E04B4840691099FFF7DFFB0F9045
:100940000F984D49FFF760FD002803D1FFE74A48A3
:10095000049002E00F980490FFE704984149486131
:1009600022E0404840694349FFF778FD002804D160
:10097000FFE73C494048486172E03A4840691099B5
:10098000FFF70DFC0E900E983A49FFF759FD00282D
:1009900003D1FFE73748039002E00E980390FFE78A
:1009A000039830494861FFE75AE016A80078012112
:1009B0000840052102F0B3FBFFF769FD2A49FFF764
:1009C000F6FB0D9017A8007840B2012823DBFFE763
:1009D000244880692649FFF725FD002804D1FFE758
:1009E0002049224888613BE01E4880690D99FFF745
:1009F00085FB0C900C981E49FFF706FD002803D1DB
:100A0000FFE71B48029002E00C980290FFE7029873
:100A10001449886122E0134880691449FFF71EFDDC
:100A2000002804D1FFE70F491148886118E00D48FC
:100A300080690D99FFF7B3FB0B900B980B49FFF7FB
:100A4000FFFC002803D1FFE70848019002E00B9863
:100A50000190FFE7019803498861FFE700E0FFE7A5
:100A600018B080BDF800002000401C4600409C46A5
:100A700000B3714900007A44005CC147D4FEFFFF17
:100A8000341700003517000083B0029001916846CA
:100A900002800198029908600098401E029988809F
:100AA00002990020C8800299088103B0704783B082
:100AB000019000910198C08801990989884204D168
:100AC000FFE702A90020087010E001990868098971
:100AD000405C0099087001980089401C01998A883F
:100AE0001040088102A901200870FFE702A80078E1
:100AF00003B0704784B0029001A801700298C088CA
:100B0000411C029880880140684601800088029953
:100B10000989884204D1FFE703A9002008700BE08F
:100B20000198029A1168D288885400980299C88066
:100B300003A901200870FFE703A8007804B07047FC
:100B400010B584B00C460146069803A8017002A9AE
:100B50000C700192009300780978019A00F092F8E5
:100B60000099087006990020087004B010BD84B088
:100B7000039002A8017001A900200870694608705E
:100B8000FFE76846007802A9097888420EDAFFE795
:100B9000039869460978415C0198484001A90870AA
:100BA000FFE70098401C69460870EAE701A8007852
:100BB00004B0704780B586B00B46014605A80170A9
:100BC00004A90B70039200780978401802A90880E4
:100BD00001A900200870FFE701A8007804A909789E
:100BE000884218DAFFE70398002806D0FFE7039849
:100BF00001A90978405C009002E000200090FFE726
:100C000000990298401802A90880FFE70198401C4B
:100C100001A90870E0E702A800880721FFF7A4FCFB
:100C2000084606B080BD10B588B00C46014607A83E
:100C3000017006A90C70059204AA13701278029232
:100C400000780978059A00F041F8029902460120DF
:100C50009142039011D0FFE704A80078019007A803
:100C6000007806A90978059AFFF7A4FF01460198C4
:100C7000401A414248410390FFE703980121084090
:100C800008B010BD80B584B0034602A8037001AB64
:100C900019700092007808280AD1FFE702A80078AE
:100CA00001A90978009AFFF785FF03A9087009E0F8
:100CB00002A8007801A90978009A00F007F803A9B2
:100CC0000870FFE703A8007804B080BDB0B58AB013
:100CD00009AB187008A80170079203AD00202870B6
:100CE00009992B785A1C2A7004AAD15408992B7898
:100CF0005C1C2C70D15402A90870FFE702A8007890
:100D000008A9097888421ADAFFE70798002806D070
:100D1000FFE7079802A90978405C019002E00020F3
:100D20000190FFE7019803AB1A78511C197004A9D0
:100D30008854FFE70298401C02A90870DEE703A868
:100D4000017804A8FFF713FF0AB0B0BD80B584B0E6
:100D5000FFE75C4803A9FFF7AAFE002800D1AEE038
:100D6000594800680290062800D9A7E0029881003F
:100D700001A040588746C046950D0000A90D00000F
:100D8000B70D0000030E0000270E0000610E0000EA
:100D90008F0E000003A800787F2804D1FFE74A499E
:100DA00001200860FFE789E0039848490870464938
:100DB0000220086082E00399444841704078092885
:100DC0000DD3FFE740490020086003A800787F2882
:100DD00004D1FFE73C4901200860FFE710E03C49EF
:100DE000002008703948417803200422009200292D
:100DF000019001D100980190019833490860FFE704
:100E00005CE0039A32480378591C01702F49CB18D3
:100E10009A7000784978884204DBFFE72A49042069
:100E20000860FFE74AE0294A1078517803AB1B7845
:100E3000921CFFF7F8FE00280DD1FFE722490020A1
:100E4000086003A800787F2804D1FFE71E4901202D
:100E50000860FFE703E01C4905200860FFE72DE07C
:100E600003A8007800280DD0FFE71749002008608C
:100E700003A800787F2804D1FFE713490120086008
:100E8000FFE703E0104906200860FFE716E00E497F
:100E90000020086003A800787E2804D1FFE70B48F3
:100EA00000F018F809E003A800787F2804D1FFE7D4
:100EB000054901200860FFE7FFE7FFE749E704B0C5
:100EC00080BDC046FC0100209C0000209100002055
:100ED0009000002080B588B00790814900200880EC
:100EE0008049012008708049087007980078401EEA
:100EF0000490082800D9EFE00498810001A0405830
:100F00008746C046D90F0000D9100000290F000005
:100F1000570F0000D9100000BD0F0000D9100000CD
:100F2000D91000007B10000007984078002811D0ED
:100F3000FFE70798807800280CD0FFE76E4826214D
:100F4000405C002806D1FFE7079880786A4926228E
:100F50008854FFE7C1E00798407800282DD0FFE7CC
:100F600007988078002828D0FFE763480168891F28
:100F70004A42514106AA117006210160808C002866
:100F800010D1FFE707988078642803D3FFE7632038
:100F9000039003E0079880780390FFE70398564991
:100FA0008884FFE706A80078C007002804D1FFE77F
:100FB000012000F013FDFFE7FFE78EE04E480068D8
:100FC000042805D0FFE74C480068052803D1FFE757
:100FD00001F0DEFAFFE780E047480068002805D00E
:100FE000FFE745480068062801D1FFE775E007984C
:100FF0004078002801D1FFE76FE007984078032888
:1010000004D3FFE707980079029003E007988078FF
:101010000290FFE7029905A801700078019003286B
:1010200025D0FFE70198092804D0FFE701980A2896
:101030000FD020E030480068042809D0FFE72E4890
:101040000068052804D0FFE72B4904200860FFE76B
:1010500012E029480068042805D0FFE72648006808
:10106000052803D1FFE701F093FAFFE704E02249E6
:101070000620086000E0FFE72FE00798407800288E
:1010800001D1FFE729E019480078C007002801D006
:10109000FFE722E0002000F0A1FC079881781448C7
:1010A00001700078032804D3FFE71149002008707D
:1010B000FFE71049012008700F480068002808D198
:1010C000FFE70D4901200860002088830B49088054
:1010D000FFE703F05DF800E0FFE708B080BDC04621
:1010E00066010020690100207801002063010020D2
:1010F0006401002062010020F80000204C01002063
:1011000080B58EB00DAB18700CA801700B920078F2
:10111000092804D3FFE70CA908200870FFE70DA8F1
:10112000049000780CA9059109780B9A09AB0093FB
:101130000AABFFF705FD224806907F2100F034FA44
:1011400004990698097800F02FFA0599069809780D
:1011500000F02AFA08A900200870FFE708A8007824
:101160000CA9097888421ADAFFE70B98002806D004
:10117000FFE70B9808A90978405C039002E0002083
:101180000390FFE7039907A8017001780C4800F06D
:101190000BFAFFE70898401C08A90870DEE70AA8C8
:1011A00001780748029000F0FFF9029809A9097830
:1011B00000F0FAF902987E2100F0F6F90EB080BD39
:1011C000000C004080B58AB000200990089007907C
:1011D00043490868434A104308600868194A1043A5
:1011E0000860182007902020019008900920C00670
:1011F000059007A9029100F0F9FD019802990222D9
:10120000049207920890E548039000F0EFFD0299E0
:1012100003980122069207921122089200F0E6FD3F
:1012200003980499069A00F091FE0598069A082101
:1012300000F08CFE0598069A102100F087FE0AB097
:1012400080BDC04620005A5A80B58EB00020019063
:101250000D900C900B900A900990089007900690C2
:1012600005900490039002901D4908681D4A1043A0
:1012700008601D4908681D4A104308601C49086839
:101280004022D243104008600920C106086810407F
:1012900008601849086810400860BB4908680722C0
:1012A0001206904303225206801808602F200C90EB
:1012B000B92040000D90802006903848009006A983
:1012C00000F06AFF0098019906220492059102A994
:1012D00000F0A4FE0098019900F04EFE0EB080BD13
:1012E0003040004010005A5A3840004040005A5ADE
:1012F0001C0000480400004880B586B0024605A8DE
:10130000028004AA11700088002805D0FFE704A815
:101310000078002803D1FFE700F032F82BE004A8A2
:101320000078652804DBFFE704A964200870FFE764
:1013300005A801881148FFF717F90390039904A83D
:1013400000784843C821FFF70FF9029003A80188ED
:101350001248009000F008FF009802A9098800F0E8
:10136000EBFE00980121019100F030FE00980199F8
:1013700000F002FEFFE706B080BDC04640420F000D
:1013800080B582B0054800900021019100F0F4FD85
:101390000098019900F01AFE02B080BD00180040CC
:1013A00080B58AB000200290099008901F4A116809
:1013B0001F4B1943116008A9019148802F2000900C
:1013C00008801C488880E948059000F021FA0098C0
:1013D000019908803B208880E548069000F018FAC3
:1013E000142003900121079103F064F8029915205D
:1013F000049003F05FF8039803F012F8049803F0E8
:101400000FF80598079A114600F0B4F90698079A64
:10141000114600F0AFF90598079900F039F90698E0
:10142000079900F035F90AB080BDC046344000404D
:1014300004005A5AE7030000F0B599B000200E905E
:101440001890179016901590149013901290119078
:1014500010904B484B498022FFF716FB1020049058
:1014600001240D94214601F081FC082006902146BC
:1014700001F0A8FC02201090202005901190092076
:10148000C006019010A9099100F0B0FC01980999DB
:10149000109411220792119200F0A8FC049B0E9860
:1014A000394A116819436023994311601168214337
:1014B00006239943116013A90A918880C880334A92
:1014C00015928881C8810882032048824B20400100
:1014D00013902F48029002F07DFB029804210C919A
:1014E000224602F023FB1B200390214602F0AAFFB4
:1014F000039802F085FF2748274926023246FFF766
:10150000C3FA0598214601F031FC0498214601F008
:1015100059FC059809990C9A109211901F4808904F
:1015200000F064FC069B079A0898099910931192A1
:1015300000F05CFC0A990E98194B1A6807252F02D7
:10154000BA4392191A601A682D03AA432403121988
:101550001A60E12252021392088212480B9002F0A4
:1015600039FB0B980C990D9A02F0E0FA0E991C20A9
:101570000F9002F067FF0F9802F042FF19B0F0BD24
:10158000FC0100207901002018000048006CDC02FA
:10159000000C004008030020080200200001004861
:1015A000180100480010004080B584B0039002A8E4
:1015B00001700120C0030190FFE70398012102F0B0
:1015C00053FA002808D1FFE70198401E0190002837
:1015D00001D1FFE706E0F0E7039802A9097802F0DD
:1015E00001FDFFE704B080BD80B5C448012100F0D3
:1015F00089F8002807D0FFE701F00CFDBF48012162
:1016000000F014F8FFE780BD80B5BD48012100F06F
:1016100079F8002807D0FFE700F0FAFFB848012169
:1016200000F004F8FFE780BD7047000080B582B08D
:101630000190684601800198B04988420AD0FFE7CE
:101640000198AF49884205D0FFE70198AD4988422B
:1016500001D1FFE704E0AC48922102F067FFFFE709
:1016600068460088012805D0FFE7684600884028C2
:1016700001D1FFE704E0A448932102F057FFFFE700
:1016800068460288019988699043886102B080BDEC
:1016900080B582B0019000910198984988420AD0A3
:1016A000FFE701989649884205D0FFE701989549E0
:1016B000884201D1FFE704E09348632102F036FF3E
:1016C000FFE70098002804D0FFE70098012801D127
:1016D000FFE704E08C48642102F028FFFFE7009850
:1016E000002806D0FFE7019908680122104308602E
:1016F00005E001990868012290430860FFE702B005
:1017000080BDC04680B582B00190684601800198D6
:101710007A4988420AD0FFE701987949884205D082
:10172000FFE701987749884201D1FFE704E0764856
:10173000822102F0FBFEFFE768460088012805D001
:10174000FFE768460088402801D1FFE704E06E48C3
:10175000832102F0EBFEFFE70198006969460988E2
:101760000840411E884102B080BDC046004800408C
:101770004048004080B584B0039002A801800192E7
:1017800003985E4988420AD0FFE703985C49884283
:1017900005D0FFE703985B49884201D1FFE704E0E9
:1017A0005948722102F0C2FEFFE70198002804D0D8
:1017B000FFE70198012801D1FFE704E052487321B7
:1017C00002F0B4FEFFE702A80088012805D0FFE779
:1017D00002A80088402801D1FFE704E04A487421AC
:1017E00002F0A4FEFFE70198002807D0FFE702A857
:1017F00002880399C8681043C86006E002A80288FE
:101800000399C8689043C860FFE704B080BDC04634
:1018100080B582B0019000910198384988420AD081
:10182000FFE701983649884205D0FFE7019835491E
:10183000884201D1FFE704E03348492102F076FEF7
:10184000FFE70098408800280FD0FFE70098408805
:1018500003280AD0FFE700984088012805D0FFE759
:1018600000984088022801D1FFE704E026484A2179
:1018700002F05CFEFFE7009800882449884206DCFD
:10188000FFE700980088012801DBFFE704E01E481D
:101890004B2102F04BFEFFE70098C088082805D0D6
:1018A000FFE70098C088002801D1FFE704E0164850
:1018B0004C2102F03BFEFFE715490868154A10432A
:1018C0000860009880880199C86200980088019992
:1018D000886201980068082188430099C9880843F4
:1018E0000199086001988068072188430099498818
:1018F00008430199886002B080BDC046004800409E
:1019000040480040804800408B480000FFFF000036
:101910003440004004005A5A80B582B06D48007AC5
:1019200000281BD1FFE754480078002814D0FFE7B7
:101930006848C07A002801D0FFE742E04E490878A5
:10194000401E0870012000907D20000132213022CD
:10195000002300F093F800E033E0FFE75D48C08823
:10196000012805DBFFE75B49C888401EC88028E0E6
:101970005848807A002810D0FFE7FFF701FD55484E
:10198000002181728188C1808088002804D1FFE70E
:10199000504900200872FFE712E04E49087A401EC5
:1019A0000872C0B201280ADBFFE74A4901208872A9
:1019B0004888C8800888497AFFF79EFCFFE7FFE760
:1019C000FFE702B080BDC04680B5FFF73DFC41494E
:1019D0000020C8722849087080BDC04680B584B018
:1019E000039003980290002808D0FFE7029801288E
:1019F0002AD0FFE70298022830D03AE03548C07A72
:101A0000002801D0FFE735E03248007A00280FD1E6
:101A1000FFE71948007800280AD1FFE7012000906D
:101A20007D20000132213022002300F027F80AE057
:101A300011480078052805D8FFE70F490878401CB1
:101A40000870FFE7FFE715E00A2000907D20000105
:101A5000322164231A4600F011F80BE001200090B7
:101A60007D2000014B218A003221002300F006F87E
:101A700000E0FFE704B080BD35010020B0B586B0BE
:101A800004460A9805AD2C8004AC217003A90A8095
:101A900002A90B8001A908700E48C07A002801D065
:101AA000FFE715E005980B490880049848720398F1
:101AB000488002988880019808720398C8800120A5
:101AC000887205A8008804A90978FFF715FCFFE7CC
:101AD00006B0B0BD2401002080B582B01C4800785B
:101AE000002801D1FFE730E01A480078172801DB11
:101AF000FFE72AE018480088002805D0FFE71649CC
:101B00000888401E088020E0FFE712480078162869
:101B10000ADCFFE70F4A1078411C11708100104861
:101B2000401800F020F8F0E70C48007800280CD1AD
:101B3000FFE701AA00201070082001210091FFF7A3
:101B4000DFFA009805490870FFE702B080BDC04683
:101B500060010020610100205E0100206D01002075
:101B600002480000704780B582B00190019840782B
:101B7000012807D1FFE7019908788A1C0121FFF7A6
:101B8000BFFA0CE0019880786A4610700198C0781E
:101B90005070019800780221FFF7B2FAFFE702B017
:101BA00080BD000080B582B07F48808B002812D0B5
:101BB000FFE77D48818B491E8183808B142805D0E7
:101BC000FFE77948808B0A2804D1FFE70020FFF760
:101BD00005FFFFE73AE074480A2181810421016092
:101BE0000021018481601A4A11604068012804D0F4
:101BF000FFE76D4900200861FFE76B484068022855
:101C000004D0FFE7684900204861FFE76648406864
:101C1000032804D0FFE7644900208861FFE7624899
:101C2000407B002803D0FFE7FF20009003E05E48E0
:101C300080890090FFE7009901A80170007801F009
:101C400024FA5948808901F03FFAFFE702B080BDCD
:101C50004801002080B5544900208881086148610E
:101C60008861486001228A608877088402F0E6F97A
:101C700080BDC04681B00146684601700078802171
:101C8000084301B07047000082B001466846017009
:101C900000780A2804DBFFE701A90020087006E0AD
:101CA000684601780448405C01A90870FFE701A874
:101CB000007802B07047C046E447000080B50A488B
:101CC0000078C007002803D0FFE700F0A1FD0AE07C
:101CD00035480068002803D1FFE700F061FD02E00D
:101CE00000F07EFEFFE780BD6201002080B584B079
:101CF0002D4840690021FEF7A3FB002803D1FFE730
:101D00000020019003E0284840690190FFE7019816
:101D1000039003980A49FEF787FAFEF7D8FB029072
:101D200002980849884203D3FFE70748009002E081
:101D300002980090FFE7009880B204B080BDC046D2
:101D40000000C842DF030000DE03000080B582B05F
:101D50000020FFF743FE14488189144A11808189CD
:101D60004B20800048435021FEF7FEFB0190019874
:101D7000012803D8FFE70220009003E001A80088B3
:101D80000090FFE700990A4801800A4A002111806B
:101D9000094A11700088044988830520086001F011
:101DA000ACF902B080BDC046F800002072010020EE
:101DB00070010020740100206E01002008490020FD
:101DC0000870704780B506480078002806D1FFE704
:101DD00001F093F9024901200870FFE780BDC04679
:101DE00068010020704770477047000083B0029080
:101DF0000191029800900921C906884205D0FFE7A9
:101E000000984349884206D00BE042490868434A9B
:101E10001043086006E03F4908683F4A10430860E5
:101E200000E0FFE701984068002807D1FFE701982C
:101E300002680299C8691043C86167E001980268A6
:101E40000299C8699043C86101980079C0060028CA
:101E500041D5FFE7019802680299086810430860BD
:101E600001980268029908699043086101984068E6
:101E7000112807D1FFE70198026802990869104309
:101E80000861FFE7019802680299486A9043486236
:101E9000019802680299886A904388620198806874
:101EA00081210840812807D1FFE701980268029943
:101EB000486A10434862FFE7019880688221084021
:101EC000822807D1FFE7019802680299886A1043C7
:101ED0008862FFE719E00198026802990868904358
:101EE000086001984068202807D1FFE70198026840
:101EF000029948689043486006E001980268029998
:101F0000486810434860FFE7FFE7FFE703B070470A
:101F1000000100483040004020005A5A10005A5A30
:101F200084B0009101460098029101A908800298AE
:101F3000006D0988084203D0FFE70120039002E00A
:101F400000200390FFE7039804B0704783B002902D
:101F500001A8018000920098012805D1FFE701A89F
:101F600000880299C86504E001A800880299886584
:101F7000FFE703B07047704780B582B001900091D1
:101F80000198D849884201D1FFE705E0D648F12100
:101F9000490002F0CBFAFFE70098002804D0FFE7E1
:101FA0000098012801D1FFE705E0CF48FF21E43187
:101FB00002F0BCFAFFE7009A0199086801231A4071
:101FC00098438018086002B080BDC04680B582B0DA
:101FD000019000910198C349884201D1FFE704E0D4
:101FE000C148BF2102F0A2FAFFE70098002804D000
:101FF000FFE70098012801D1FFE704E0BA48C021BB
:1020000002F094FAFFE7009A0199086A01231A4046
:1020100098438018086202B080BDC04610B582B0F7
:10202000019000910198AF49884201D1FFE704E097
:10203000AD48792102F07AFAFFE7009880680F280E
:1020400006D8FFE7009880680A2801D0FFE704E07F
:10205000A5487A2102F06AFAFFE70098C0680128D3
:1020600005D0FFE70098C068002801D1FFE704E031
:102070009D487B2102F05AFAFFE70098006800288B
:1020800005D0FFE700980068012801D1FFE704E0D0
:1020900095487C2102F04AFAFFE700984068002842
:1020A00005D0FFE700984068012801D1FFE704E070
:1020B0008D487D2102F03AFAFFE70098C268019945
:1020C000086AD207920F0223984380180862019988
:1020D000086A0822D34318400862019988690322DC
:1020E000904388610098026801998869D207520F6D
:1020F0000424A04380188861009842680199886987
:10210000D207120F184080188861009882680199E0
:1021100088695207520E702398438018886100988E
:10212000826801998869520301231B041A4098436D
:102130008018886102B010BD80B582B001906846F9
:10214000018001986749884201D1FFE704E06648B1
:10215000044902F0EBF9FFE76846008801994863FB
:1021600002B080BD1E02000080B582B001906846BA
:10217000018001985B49884201D1FFE704E05A4899
:10218000044902F0D3F9FFE7684600880199C86264
:1021900002B080BD0B02000080B582B001900091BA
:1021A00001985049884201D1FFE704E04E483E21A2
:1021B00002F0BCF9FFE700980068802805D0FFE72F
:1021C00000980068002801D1FFE704E046483F215D
:1021D00002F0ACF9FFE70098406800280FD0FFE755
:1021E0000098406820280AD0FFE7009840684028FF
:1021F00005D0FFE700984068602801D1FFE704E0C0
:102200003948402102F092F9FFE7009880680028E1
:1022100005D0FFE700988068102801D1FFE704E0AF
:102220003148412102F082F9FFE70098C068082890
:1022300005D0FFE70098C068002801D1FFE704E05F
:102240002948422102F072F9FFE70098006904284A
:1022500005D0FFE700980069002801D1FFE704E0FE
:102260002148432102F062F9FFE700984069002805
:1022700005D0FFE700984069022801D1FFE704E09C
:102280001948442102F052F9FFE70098408B0028DA
:1022900001D1FFE704E01448452102F047F9FFE7C8
:1022A00001980068FE218843009A11685368194319
:1022B00093681943D3681943136919435269114349
:1022C0000843019908600098806901998862009824
:1022D000C0690199C86201998868072290438860A3
:1022E00002B080BD00180040B5480000FFE7FEE7DF
:1022F0007047000080B586B04A48007BC0070028C0
:1023000043D0FFE772B6474A117905A80170002152
:10231000117362B6007800F051F904900498002817
:1023200032D0FFE74048006800280ED1FFE704994B
:102330003D4801603D4A002111803D4A11703D4AEF
:102340001180006800F07AF81AE0049836490968AC
:10235000884214D0FFE7344802900068022100F060
:102360006DF8029804990160304A00211180304ACA
:102370001170304A1180006800F060F8FFE7FFE755
:102380002D4910200880FFE7FFE727480068002854
:1023900001D1FFE744E028480088012822DBFFE75D
:1023A00025490888401E088020480188491C018072
:1023B0000088962815D3FFE71D49012008701D4AA3
:1023C0001088411C88B211801E2809D3FFE71949E3
:1023D0000020088014480068012100F02FF8FFE772
:1023E000FFE71DE0124800780121084003A9019190
:1023F00008700D480068022100F020F8019800786C
:10240000C007002804D0FFE70020FFF7E7FAFFE746
:102410000549002008600549088005490870FFE764
:1024200006B080BD380100202001002030010020CE
:1024300034010020360100203201002080B584B034
:102440000390029103A8007802A9097801F048F9E5
:1024500001A908700298002810D1FFE701A80078B0
:10246000C00700280AD0FFE700F052FF002804D17F
:10247000FFE70020FFF7B2FAFFE7FFE704B080BDF7
:1024800081B0694600200870FFE7684600780F2891
:102490000BDCFFE7684602783B4900208854FFE7E1
:1024A0000098401C69460870EFE701B07047C046CD
:1024B00080B502F067F8FFF7E3FF402002F053F821
:1024C00000F004F8082000F029F880BD80B582B043
:1024D000402002F048F802F0A1F8C02002F072F8A3
:1024E00001A900200870FFE701A800780F280CDC84
:1024F000FFE701A801782448405C02F063F8FFE799
:102500000198401C01A90870EEE702F08FF814480A
:10251000007802F028F802B080BDC04680B582B0D5
:10252000014601A801700078002804D1FFE70C499A
:10253000802008700DE001A80078092804DBFFE77F
:1025400001A908200870FFE7019887300449087046
:10255000FFE70348007802F006F802B080BDC046ED
:102560008B00002082B0024601A802706A461170FA
:1025700000780F2806DCFFE7009801A90A780249D5
:102580008854FFE702B070474E0100207047704743
:1025900080B582B0074900200870074908809B4930
:1025A00001918883FFF756FB01990120086002B072
:1025B00080BDC0466E0100207401002083B001463A
:1025C00001A80170007800902E280CD0FFE7009839
:1025D0003D2811D0FFE700984C2807D0FFE700986E
:1025E0005B2806D00BE0012002900BE00220029055
:1025F00008E00320029005E00420029002E00020A1
:102600000290FFE7029803B07047704770470000E0
:1026100080B582B059480121FFF782FC014601A82C
:1026200001700078002805D0FFE756490868401C73
:10263000086004E052490868401C0860FFE701A8F0
:10264000007851490978884200D17FE001A80078DC
:10265000012868D1FFE74D480078002815D1FFE731
:10266000474800683D280FD3FFE745480068400809
:10267000E02809D8FFE745490120087045490020B6
:10268000087043490860FFE749E041490868400095
:1026900008603C4800683A490968884206D9FFE763
:1026A0003B490868012210430860FFE7394A107867
:1026B000411CC8B2117018280CD1FFE734480168DA
:1026C000090A8AB234490A600068087101208860EA
:1026D000087323E02F48007820281ED1FFE72C49FB
:1026E0000A68100E130CC018120A8218684602708D
:1026F0000078097888420CD1FFE7254842882649AE
:102700000A600068000A08710220886001200873CE
:10271000FFE71E4900200870FFE7FFE7FFE71949C0
:10272000002008600EE017480068FF21C43188428D
:1027300004D3FFE7154900200870FFE71049002087
:102740000860FFE7019810490870FFE70C4800682F
:10275000E1214900884207D8FFE70A480068FF21C5
:10276000C431884208D3FFE70849002008700449B3
:10277000086004490860FFE702B080BD000100481E
:10278000A8000020A400002000000020B0000020CD
:10279000AC000020A000002038010020704700009D
:1027A00080B582B018480088002804D1FFE70020D7
:1027B000FFF714F9FFE714480088132819D8FFE73A
:1027C00001A900200870FFE701A800780B280BDCA6
:1027D000FFE701A80078FF2101F0ECFDFFE7019879
:1027E000401C01A90870EFE707490888401C0880D1
:1027F00007E006490120086000208883024908801C
:10280000FFE702B080BDC0464C010020F800002068
:1028100080B58EB000200B9001F010FD01F00EFC91
:102820000B980DA90870FFE70DA8007802281ED8A4
:10283000FFE70DA8007800210A9101F019FD0A991F
:102840000D98C01CC0B201F013FD0A990D98801DAF
:10285000C0B201F00DFD0A990D980930C0B201F027
:1028600007FDFFE70D98401C0DA90870DCE70DA9D6
:1028700000200870FFE70DA8007805280CD8FFE7B6
:102880000DA801780B20002201F086FCFFE70D98CF
:10289000401C0DA90870EEE750480078002829D1A7
:1028A000FFE70CA900200870FFE70CA800780228B9
:1028B0001FD8FFE70CA80078FF21089101F07AFDEE
:1028C00008990C98C01CC0B201F074FD0C98801DD2
:1028D000C0B20021099101F06DFD09990C980930F1
:1028E000C0B201F067FDFFE70C98401C0CA908700E
:1028F000DBE771E039480078012835D1FFE70CA902
:1029000000200870FFE70CA8007802281FD8FFE716
:102910000CA800780021069101F04CFD06990C9856
:10292000C01CC0B201F046FD0C98801DC0B2FF2152
:10293000079101F03FFD07990C980930C0B201F0F2
:1029400039FDFFE70C98401C0CA90870DBE70B2051
:10295000049001220592114601F01EFC0498059A8C
:10296000022101F019FC36E00CA900200870FFE7F5
:102970000CA800780B280BDCFFE70CA80078FF21DF
:1029800001F018FDFFE70C98401C0CA90870EFE758
:102990000B200090002101910122039201F0FCFB29
:1029A0000098039A114601F0F7FB0098039A022160
:1029B00001F0F2FB0098039A032101F0EDFB01986E
:1029C000039A0721029101F0E7FB01980299039A0B
:1029D00001F0E2FBFFE7FFE70EB080BD64010020DD
:1029E00080B594B0DA48006888490968884207D001
:1029F000FFE701F023FBD648006884490860FFE741
:102A00007D20C00001F01AFCD14801680020022995
:102A1000109006D1FFE7CE48807F41424841109098
:102A2000FFE710980121084013A9087012A900209F
:102A30000870FFE712A8007802286CD8FFE712A8F8
:102A400000780E9013A801780020C90700290F9084
:102A500007D0FFE7BE488068401E414248410F90C2
:102A6000FFE70E980F9901221140C0B201F000FC5F
:102A700012A80078C01C0C9013A801780020C90788
:102A800000290D9007D0FFE7B1488068C01E414281
:102A900048410D90FFE70C980D9901221140C0B2FA
:102AA00001F0E6FB12A80078801D0A9013A80178B7
:102AB0000020C90700290B9006D0FFE7A4488068D2
:102AC000414248410B90FFE70A980B9901221140BF
:102AD000C0B201F0CDFB12A800780930089013A80D
:102AE00001780020C9070029099007D0FFE798481E
:102AF0008068801E414248410990FFE70898099983
:102B000001221140C0B201F0B3FBFFE71298401C54
:102B100012A908708EE78E4800680790401E0228B0
:102B200029D3FFE70798032809D0FFE70798001F7C
:102B3000022820D3FFE70798062856D062E001F06C
:102B40007DFA8348808B09300A21FDF70DFD01468F
:102B500011A801700078002804D1FFE711A9012015
:102B60000870FFE711A801780122009207200023D6
:102B700001F0A4FB47E000F08BFB01460023049327
:102B8000009303220392184601F098FB70480290CC
:102B900080691F49FDF748FBFDF780FC039A049B01
:102BA00001460093104601F089FB0299039A0498AC
:102BB0008989009006200223069301F07FFBFFF72E
:102BC00095F8039A069B014604980090092001F0AD
:102BD00075FB0498069A0721059101F0DDFA049827
:102BE0000599069A01F0D8FA0DE00620792101F046
:102BF000E1FB5748818C002300930720022201F05B
:102C00005DFB00E0FFE714B080BDC046B4000020CB
:102C100000007A4480B588B04C4A1078411CC8B294
:102C20001170092801D8FFE78DE048490020049081
:102C30000870474805908089FDF729FC4549FDF754
:102C4000F3FA07900799444803900068FDF756FA95
:102C5000039B0499024605981A6006AA1170406801
:102C6000012814D1FFE73A480069002805D0FFE7A2
:102C700037490869401E0861FFE7354800690028A8
:102C800004D1FFE706A901200870FFE70DE03048F6
:102C90000169491C016100693049884204D3FFE79A
:102CA00006A901200870FFE7FFE7294840680228CD
:102CB00015D1FFE70799264802904069FDF76FFAA2
:102CC00001460298416140690021FDF7C7FB0028D9
:102CD00004D1FFE706A901200870FFE704E01E48C1
:102CE00000681B494861FFE719484068032819D16B
:102CF000FFE707981B49FDF75AFA0146144801906F
:102D00008069FDF7FBF90146019881618069002126
:102D1000FDF7A4FB002804D1FFE706A901200870F5
:102D2000FFE707E00C4800680D49FDF740FA084945
:102D30008861FFE706A80078C007002803D0FFE7F6
:102D4000FFF704F8FFE708B080BDC046B8000020D8
:102D5000F800002000001042480100203417000055
:102D600000008C4200008CC27047704780B582B072
:102D70000190009101983621C943084205D1FFE72F
:102D80000198002801D0FFE704E088480C4901F0D1
:102D9000CDFBFFE70098002808D0FFE701982749FE
:102DA0000A6810431E4A1043086007E02349086878
:102DB000019A90431A4A10430860FFE702B080BDB1
:102DC0008702000080B582B0019000910198C0098F
:102DD000002805D1FFE70198002801D0FFE704E0B3
:102DE00072480D4901F0A2FBFFE70098002808D0C7
:102DF000FFE7019809490A681043094A104308602F
:102E000007E006490868019A9043054A10430860A4
:102E1000FFE702B080BDC0469E020000384000407F
:102E200000005A5A80B50120C00200F00BF8034997
:102E30000868034A1043086080BDC0463040004027
:102E400002005A5A80B584B0029001A95648088001
:102E500002980121C902884258D0FFE70298012157
:102E60000903884252D0FFE702980321C902884231
:102E70004CD0FFE7029801214903884246D0FFE782
:102E800002980521C902884240D0FFE70298032139
:102E9000090388423AD0FFE702980721C902884215
:102EA00034D0FFE702980121890388422ED0FFE742
:102EB00002980921C902884228D0FFE7029805211B
:102EC0000903884222D0FFE702980B21C9028842F9
:102ED0001CD0FFE7029803214903884216D0FFE780
:102EE00002980D21C902884210D0FFE702980721FD
:102EF000090388420AD0FFE702980F21C9028842DD
:102F000004D0FFE70298002801D1FFE705E0274839
:102F10008D21490001F00AFBFFE702980121C90257
:102F200088420DD1FFE7224800684007002806D1FB
:102F3000FFE720490868204A10430860FFE7FFE7E1
:102F40000298BD490988BE4A11400843BB49086040
:102F50001A4908681A4A10430860FFE7B748016831
:102F6000002009040029009006D4FFE701A800888A
:102F7000411E88410090FFE70098C007002805D057
:102F8000FFE70198401E01A90880E7E701A8008833
:102F9000002803D1FFE70120039002E00020039006
:102FA000FFE7039804B080BDFFFF00005E4800000B
:102FB000004000400840004010005A5A04400040C1
:102FC00001005A5A7047000080B582B0002001907D
:102FD000FFE7019807281BD8FFE701980101244863
:102FE0004018C06800280ED0FFE701980101204872
:102FF0000090405880470098019909014118C8681D
:10300000401EC860FFE7FFE70198401C0190E0E721
:1030100002B080BD81B000200090FFE70098072833
:1030200023D8FFE7009801011148401840680028A4
:1030300008D0FFE7009801010D4841184868401E7C
:1030400048600DE00098010109484218D168491C08
:10305000D1600099090141188868401E4860FFE767
:10306000FFE70098401C0090D8E701B07047C046C9
:103070000400002080B582B001AA00201070032057
:103080000121FEF73DF802B080BD80B584B003A9F0
:10309000087002A9012008700398487001A9002057
:1030A0000870FFE701A8007802280BD8FFE701208D
:1030B000022102AAFEF724F8FFE70198401C01A9AB
:1030C0000870EFE704B080BD80B584B0014603A866
:1030D00001804078002803D0FFE7FF20019003E043
:1030E00003A800780190FFE7019802AA107002205F
:1030F0000121FEF705F804B080BD80B584B003AAB5
:10310000029200201070012101910846FDF7F8FF9E
:103110000199029A0846FDF7F3FF04B080BD85B01F
:10312000024604A8027003910078C007002803D06B
:10313000FFE70398019002E001200190FFE701986A
:1031400002900298002803D1FFE70120009002E0DE
:1031500002980090FFE7009805B0704780B582B0F4
:103160009448808B00281ED0FFE79249888B401E30
:1031700088839548008800280CD0FFE79148018893
:10318000E748808B484390490988FDF7EDF980B204
:10319000019002E000200190FFE70198E04988815A
:1031A00000F0F6FF19E0DE490020888100F0F0FF12
:1031B00087480078C007002808D1FFE7834A1088B5
:1031C000411C88B211801E2806D3FFE7FEF742FD9E
:1031D000D34901200860FFE7FFE702B080BDC04689
:1031E0000348026803490868801808607047C046B1
:1031F0008C00002014030020014902480860704739
:103200008400002000093D0080B50B4802880B496E
:1032100008680B4B1A400B4B1840801808600A488E
:1032200002880A4908680A4B1A400A4B184080185D
:103230000860FFF7E1FF80BDC007100018400040A4
:10324000FF07000000F8FFFFC20710002040004009
:10325000FF03000000FCFFFF80B500F069F980BDAE
:1032600080B500F0E1F880BD80B5FDF76FFDFFF798
:1032700041F880BD80B5FEF74FFB80BD80B500F002
:1032800007FF80BD80B500F08FF980BD70477047A3
:1032900080B584B0C14801690391406801281BD101
:1032A000FFE7BE480068042805D0FFE7BB48006878
:1032B000052811D1FFE70398002803D1FFE700207C
:1032C000029006E003983B303C21FDF74DF9029057
:1032D000FFE70298039005E003983C21FDF744F9CD
:1032E0000390FFE70398642803D3FFE7632001906E
:1032F00003E003A800880190FFE7019880B204B0C2
:1033000080BDC04634480078012108407047C0465F
:1033100081B033480078C007002807D0FFE7304964
:103320000020087069460120087003E0694600200B
:103330000870FFE76846007801B0704780B582B03A
:10334000E14900200190086022230122CA5426226C
:1033500088548884888318490880DC490870D949D2
:103360000880D7490870DA490870DB490870D949E4
:103370000870DA4908708B490870894908706A49F1
:1033800008800E4908700E4908600E4908800E49F1
:1033900008800E4908800E4908700E490870FEF733
:1033A00059FC01980C4908700C4908700C490870C8
:1033B00002B080BDF80000204C0100206801002010
:1033C00048010020720100207001002074010020DB
:1033D0006E0100206D0100206201002063010020C9
:1033E0007601002083B0B6480178002000290290C1
:1033F00014D0FFE7B34801880020002902900DD1C6
:10340000FFE7B248017801200022009216290190BE
:1034100001DC0098019001980290FFE702980121D9
:10342000084003B07047C04680B582B0A648807F90
:1034300000280BD0FFE7A449887F401E887700064C
:10344000002803D1FFE700F0A3FEFFE79E480068D5
:10345000062810D1FFE735480068062803D0FFE7AB
:10346000FEF7ACFCFFE7314906200860FEF7AAFC36
:10347000FEF724FC51E0944801682A4A1160006874
:1034800000280AD0FFE790480068012805D0FFE730
:103490008D480068022803D1FFE7FEF71DFBFFE718
:1034A00089480068042805D0FFE787480068052898
:1034B00014D1FFE71C4A1088411C88B211803228C1
:1034C0000BD3FFE71849002008807F4906200860D9
:1034D00001208884FEF782FAFFE703E0124900200A
:1034E0000880FFE7784800680190032808D0FFE7CC
:1034F0000198042807D0FFE70198052806D008E0C6
:10350000FEF750FB06E0FFF785FB03E0FFF726FE22
:1035100000E0FFE7FEF7D2FBFFE702B080BDC04648
:10352000F8000020C000002066010020BC00002040
:1035300080B565480068002801D1FFE72DE01848F4
:103540000078002806D0FFE71549002008701549CB
:1035500008700BE01348007840087C2805D8FFE786
:1035600010490878401C0870FFE7FFE70D48007815
:10357000062812D3FFE7FFF735FF00280DD0FFE73D
:1035800051480068062808D0FFE7FE490620086079
:1035900001208884FEF722FAFFE780BDF8000020B2
:1035A000780100207701002080B582B0444800787F
:1035B00000280DD1FFE742480178491C01700078CE
:1035C000012804D1FFE73F4902200880FFE7FFE719
:1035D000EC480068062804D1FFE73D490220087046
:1035E0006CE0E8480068002801D1FFE766E0374852
:1035F0000078162806DCFFE731480078002801D063
:10360000FFE75BE0324800780190002804D0FFE734
:10361000019801280BD050E02F49002008702D4957
:103620000870FFF727FD2A490120087046E0294964
:103630000878401C087028480078002808D0FFE768
:10364000254900200870254908702149087033E099
:10365000FFF710FD1F48007802282CD3FFE71D4913
:10366000002008701D4A1078411CC8B211700B2848
:103670001CD3FFE7C3480068042805D0FFE7C14812
:10368000006805280BD1FFE7BE490620086001202D
:103690008884FEF7A3F90E490220087005E00F495F
:1036A000002008700A490870FFE703E0084900207D
:1036B0000870FFE7FFE7FFE700E0FFE702B080BD2B
:1036C000600100205E010020F80000206101002060
:1036D0006B0100206C010020690100206A010020BC
:1036E00080B58AB008AA107007A801700078022877
:1036F00004D1FFE709A9002008703EE1FFF702FEB0
:10370000002827D0FFE707A8007800281ED1FFE790
:1037100008A80078032805D0FFE708A80078042847
:1037200014D1FFE79B490020069008709A490120B8
:1037300005900870FEF78EFA059A069891490A607E
:103740008883FEF7BBFA00F0A3FCFFE709A901207C
:10375000087012E108A80078042805D0FFE708A83F
:103760000078032809D1FFE707A80078012804D1D1
:10377000FFE709A900200870FFE0824800680028E0
:1037800004D1FFE709A901200870F6E07D48006830
:10379000401E0490042800D9E8E00498810001A0AC
:1037A00040588746B93700001F380000DD38000058
:1037B000F93800006539000008A80078012805D014
:1037C000FFE708A80078022804D1FFE709A9002034
:1037D0000870D2E008A8007803280FD1FFE7FFF7B0
:1037E00001FE002804D1FFE709A901200870C4E008
:1037F0006449032008601E2088830FE008A8007831
:1038000004280AD1FFE75F49022008600120886090
:103810004860E120C0000861FFE7FFE7A7E008A8D3
:103820000078042826D1FFE756488068012809D18E
:10383000FFE754490020086102208860486054482E
:10384000486116E04F488068022809D1FFE74D49DA
:10385000002048610320886048604C48886107E088
:10386000FEF7F8F947490120086000208883FFE748
:10387000FFE732E008A80078012805D0FFE708A894
:103880000078022813D1FFE708A8017802910020F0
:10389000C0430129039001D102980390039807A91E
:1038A0000978491E4A425141FCF766FF14E008A816
:1038B000007803280FD1FFE7FFF794FD002804D11B
:1038C000FFE709A90120087057E02E49032008608E
:1038D0001E208883FFE7FFE7FFE748E008A800789D
:1038E000032808D1FFE7FEF7B5F926490120086053
:1038F00000208883FFE73AE008A80078042804D174
:10390000FFE709A90020087037E008A8007803281D
:1039100006D1FFE7FEF71AFA1B490120087020E0E4
:1039200008A80078012805D0FFE708A80078022839
:1039300016D1FFE7134900208860088408A9097898
:103940000091C0430129019001D100980190019894
:1039500007A90978491E4A425141FCF70DFFFFE7CC
:10396000FFE704E009A90020087006E0FFE700F087
:103970000FFC09A901200870FFE709A800780AB028
:1039800080BDC046F8000020760100200050C347EB
:1039900000409C45620100206301002080B582B098
:1039A0008848042100F090F800280DD0FFE78548F2
:1039B000019000F0F9FA01460448FDF79BF80198E0
:1039C000042100F01FF8FFE702B080BDFC010020D9
:1039D00080B582B07C48042100F076F800280DD034
:1039E000FFE77948019000F0DFFA01460448FDF74F
:1039F00081F80198042100F005F8FFE702B080BDCE
:103A00000803002080B582B00190684601800198CB
:103A10006C49884205D0FFE701986B49884201D183
:103A2000FFE705E06948BB21490000F07FFDFFE7A3
:103A3000684600880B49084206D1FFE768460088BF
:103A4000002801D0FFE705E06048FF21783100F051
:103A50006DFDFFE7684602880199086A9043086295
:103A600002B080BDA1F1000080B582B0019068462F
:103A7000018001985349884205D0FFE701985249D7
:103A8000884201D1FFE705E050486521890000F038
:103A90004DFDFFE70020002806D1FFE768460088BB
:103AA000002801D0FFE705E04848FF21963100F0EB
:103AB0003DFDFFE70198C069694609880840411E3D
:103AC000884102B080BDC04680B582B00190684692
:103AD000018001983B49884205D0FFE701983A49A7
:103AE000884201D1FFE705E03848AD21490000F0E8
:103AF0001DFDFFE7684600883549084206D1FFE70B
:103B000068460088002801D0FFE705E02F48FF2124
:103B10005C3100F00BFDFFE70198C0696946098838
:103B20000840411E884102B080BDC04680B584B0C7
:103B3000039002A80180019203982249884205D08F
:103B4000FFE703982049884201D1FFE705E01F48BD
:103B5000FF21363100F0EAFCFFE702A800881C498B
:103B6000084206D1FFE702A80088002801D0FFE73D
:103B700005E016489B21490000F0D8FCFFE70198BA
:103B8000002804D0FFE70198012801D1FFE705E0F4
:103B90000E48FF21383100F0C9FCFFE701980028EA
:103BA00007D0FFE702A8028803998868104388605D
:103BB00006E0029A03998868904380B28860FFE724
:103BC00004B080BD000C004000100040DF48000041
:103BD000A0F1000080B590B00F900E910DA90020CB
:103BE00008800CA908800B900F98FB49884205D0EB
:103BF000FFE70F98F949884201D1FFE704E0F84850
:103C0000892100F093FCFFE70E980068002807D098
:103C1000FFE70E980068DC49884201D8FFE704E01E
:103C2000EF488A2100F082FCFFE70E988088002888
:103C300015D0FFE70E9880880121490288420ED0F6
:103C4000FFE70E98808801218902884207D0FFE7AC
:103C50000E98808803214902884201D1FFE704E0E1
:103C6000F5488B2100F062FCFFE70E98C088002821
:103C70000ED0FFE70E98C08801214903884207D083
:103C8000FFE70E98C08803210903884201D1FFE7AE
:103C900004E0E9488C2100F049FCFFE70E988068B9
:103CA000002807D0FFE70E988068B849884201D8FD
:103CB000FFE704E0E0488D2100F038FCFFE70E98B4
:103CC0008089002807D0FFE70E988089012109022A
:103CD000884201D1FFE704E0D7488E2100F026FC9E
:103CE000FFE70E98C08900280AD0FFE70E98C08928
:103CF000202805D0FFE70E98C089102801D1FFE7E2
:103D000004E0CD488F2100F011FCFFE70E98008AF7
:103D100000280FD0FFE70E98008A08280AD0FFE796
:103D20000E98008A0C2805D0FFE70E98008A042818
:103D300001D1FFE704E0C048902100F0F7FBFFE766
:103D40000E98408A8008002806D1FFE70E98408A26
:103D5000002801D0FFE704E0B748912100F0E6FB1E
:103D6000FFE70E98808A00280FD0FFE70E98808A20
:103D700008280AD0FFE70E98808A042805D0FFE7BC
:103D80000E98808A0C2801D1FFE704E0AA4892210E
:103D900000F0CCFBFFE70F980A90A549884205D0B8
:103DA000FFE70A98A349884208D00FE078490868DD
:103DB0007A4A1043784A1040086008E0744908685D
:103DC000744A1043744A1040086000E0FFE70F98FF
:103DD0000068734908400E9AD188938819439389E3
:103DE0001943D3891943138A1943528A114308434B
:103DF0000F9908600F9840680C2188430E99898AB2
:103E000008430F9948600E98008A002806D0FFE703
:103E10000F99086840221043086005E00F99086870
:103E2000402290430860FFE70E988088002838D130
:103E3000FFE70E9806908068FCF729FB014606987C
:103E4000079100680001FCF722FB01460798FCF788
:103E5000EBF90B900B98FCF721FB01460DA809909C
:103E600001800B9908910088FCF706FB0146089831
:103E7000FCF795F98321C905FCF799F9FCF760FB7C
:103E80000022484BFCF70EFAFCF736FB0999024674
:103E90000CA8028009880F9AD16000880F990861E8
:103EA0006FE00E9880880121490288421FD1FFE708
:103EB0000E9804908068FCF7EAFA01460498059190
:103EC0000068C000FCF7E3FA01460598FCF7ACF97E
:103ED000FCF736FB0022334BFCF7E4F9FCF70CFB54
:103EE00001460DA8018000880F99C86048E00E982F
:103EF00080880121890288421FD1FFE70E98029035
:103F00008068FCF7C4FA01460298039100688000BB
:103F1000FCF7BDFA01460398FCF786F9FCF710FBA5
:103F20000022204BFCF7BEF9FCF7E6FA01460DA88B
:103F3000018000880F99C86021E00E980090806889
:103F4000FCF7A5FA8721C905FCF731F9014600986D
:103F500001910068FCF79BFA01460198FCF764F9AF
:103F6000FCF7EEFA00220F4BFCF79CF9FCF7C4FAC1
:103F700001460DA8018000880F99C860FFE7FFE7A0
:103F8000FFE710B080BDC046001BB700006CDC022C
:103F90003840004010005A5AFFFF5A5A08005A5A37
:103FA000C8C8FFFF0000E03F80B582B001900198D3
:103FB0001F49884205D0FFE701981E49884201D178
:103FC000FFE704E01C48762100F0B0FAFFE7019813
:103FD000406AC0B202B080BD000C0040001000403A
:103FE000DF48000080B582B00190684601700198FA
:103FF0000F49884205D0FFE701980E49884201D158
:10400000FFE704E00C48452100F090FAFFE768461E
:104010000078FF2801DCFFE704E00748462100F0B4
:1040200085FAFFE7684600780199886202B080BD92
:10403000000C004000100040DF48000081B06946DD
:1040400000200870FFE7684600780B2814DCFFE7C3
:1040500069460B78E64A0020D0540B78964AD05433
:104060000B78494AD0540A7848498854FFE70098A9
:10407000401C69460870E6E7DE490120087001B07F
:104080007047C04680B5FEF713FAFFF7D7FF80BD33
:1040900080B586B039490888401C088080B27349D1
:1040A000098888420CDBFFE7344900200880344A45
:1040B00013780120014699431170CE490870FFE73B
:1040C000CC480078C007002801D1FFE754E005A9DB
:1040D00000200870FFE705A800780B2846DCFFE702
:1040E00005A802782749895C04AA11700178C048A4
:1040F000405C03A9087022480078C007002809D155
:10410000FFE705A801786C48415C0398884303A940
:104110000870FFE703A80190007800F0F1FA019918
:10412000087005A801781848405C02A90870144876
:104130000078C007002809D1FFE705A801781348D7
:10414000415C0298884302A90870FFE7029903982E
:10415000084303A9087004A800780978FEF702FA5A
:10416000FFE70598401C05A90870B4E7FEF7AEF913
:10417000A04900200870FFE706B080BDC6000020FF
:10418000C4000020EE470000D4000020E000002022
:10419000984901200870704710B584B0034603A801
:1041A000037002AB1970019200780B2805DCFFE761
:1041B00002A80078082801DBFFE73CE002A80178AC
:1041C0000120884069460870019801280ED1FFE758
:1041D000009C03A80378864AD15C2143D154009BFC
:1041E00002783549885C9843885420E0019800287B
:1041F0000ED1FFE7009C03A803787D4AD15CA14360
:10420000D154009B02782C49885C984388540DE077
:10421000009C03A80378764AD15C2143D154009BCB
:1042200002782549885C18438854FFE7FFE7714905
:1042300001200870FFE704B010BDC04680B582B011
:10424000014601A801800088632803DCFFE7012004
:10425000009006E001A800886421FCF785F9009031
:10426000FFE700980149088002B080BD8800002067
:1042700082B0024601A802706A46117000780C28CC
:1042800001DBFFE715E068460078C007002806D08C
:10429000FFE701A802780849FF20885405E001A83B
:1042A0000278054900208854FFE752490120087030
:1042B000FFE702B07047C046C800002010B58CB0C0
:1042C0000E9C0BAC20700AA8018009A8027008A8F7
:1042D00003700A9807A9088006A900200870FFE764
:1042E00006A8007809A90978884261DAFFE70B99E6
:1042F0000998069A801A4018411E05A80170007896
:104300000C2801DBFFE74EE007A800880A21FCF734
:104310002BF90846FDF7B8FC04A9087008A8007836
:1043200006A90978491C884208D1FFE704A8039030
:104330000078FDF79FFC03990870FFE70E980128AD
:1043400022D1FFE707A8008800281DD1FFE706A8B3
:104350000078012818DBFFE706A80078029008A87B
:104360000078002804D0FFE708A80078019002E058
:1043700001200190FFE702980199884204DBFFE7E2
:1043800004A900200870FFE705A8007804A90978AF
:1043900000F010F807A8009000880A21FCF7E4F864
:1043A00000990880FFE70698401C06A9087097E767
:1043B0000CB010BD82B0024601A802706A461170AE
:1043C00000780B2812DCFFE701A801780848405C60
:1043D00069460978884209D0FFE7009801A90A7860
:1043E00003498854034901200870FFE702B0704771
:1043F000EC0000208A0000207047704770470000E2
:1044000081B000900098002808D4FFE700991F2091
:104410000140012088400A490860FFE701B0704769
:1044200081B000900098002808D4FFE700991F2071
:1044300001400120884002490860FFE701B0704751
:1044400000E100E070B582B0019000910198002871
:1044500014D4FFE701980321CB431840324A805817
:1044600001998C07E50EFF24AC40A043009CA401F9
:10447000E4B2AC4020431940885018E001980F2462
:10448000204008380321CB431840264A8058019920
:104490008D07EE0EFF25B540A843009DAD01EDB29E
:1044A000B54028432140083919408850FFE702B041
:1044B00070BDC04670B582B001900091019800288F
:1044C00014D4FFE701980321CB431840164A8058C3
:1044D00001998C07E50EFF24AC40A043009CA40189
:1044E000E4B2AC4020431940885018E001980F24F2
:1044F000204008380321CB4318400A4A80580199CC
:104500008D07EE0EFF25B540A843009DAD01EDB22D
:10451000B54028432140083919408850FFE702B0D0
:1045200070BDC0461CED00E000E400E082B00190E8
:10453000009102B0704780B582B000200190FEF774
:1045400071FCFCF72DFFFCF777FFFCF73BFEFDF756
:10455000AFFFFDF739FAFFF795FDFEF7EFFEFFE736
:10456000FEF732FDFCE780B582B001A9009108702A
:1045700000F054F80098007800F024F800F056F8A5
:1045800002B080BD80B584B00020039002900190FD
:104590000A4908680A4A1043086018200190202040
:1045A00002900920C00601A9FDF720FC2449102033
:1045B00008600820086004B080BDC046304000405C
:1045C00010005A5A82B001A908706946002008708C
:1045D000FFE76846007807281EDCFFE71749102030
:1045E000086001A80078C007002804D0FFE714493C
:1045F0000820086003E0114908200860FFE701A9CE
:104600000878400808700E4910200860FFE70098FD
:10461000401C69460870DCE702B07047084A082071
:104620001060102111600549086070470349082097
:104630000860034910220A6008607047580000486B
:104640005C00004882B0014601A801706A46002162
:1046500011700078C007002806D0FFE700980121FC
:10466000084369460870FFE701A800788007002822
:1046700006D5FFE700980221084369460870FFE766
:1046800001A800784007002806D5FFE7009804211C
:10469000084369460870FFE701A800780007002872
:1046A00006D5FFE700980821084369460870FFE730
:1046B00001A80078C006002806D5FFE70098102161
:1046C000084369460870FFE701A8007880060028C3
:1046D00006D5FFE700982021084369460870FFE7E8
:1046E00001A800784006002806D5FFE70098402181
:1046F000084369460870FFE76846007802B07047D3
:1047000080B586B0014605A8017000787F21084079
:10471000FFF798FF04A9087003A90020087002A9F8
:104720000870FFE702A80078072822D8FFE702A850
:1047300001781848415C01A801700078062812D859
:10474000FFE704A8007801A90978C840C00700283D
:1047500009D0FFE702A800780121814003980843AF
:1047600003A90870FFE7FFE70298401C02A9087040
:10477000D8E705A800780006002806D5FFE70398CB
:104780000221084303A90870FFE703A8007806B0D8
:1047900080BDC046FA4700002021020C01D0102144
:1047A0001046020A01D010460839020901D010460D
:1047B000091F820801D01046891E420801D0881EB8
:1047C0007047081A704702E008C8121F08C1002A83
:1047D000FAD170477047002001E001C1121F002A82
:1047E000FBD170473F065B4F666D7D077F6F070803
:1047F0000905060A0E0D040F0C0B0308020605043A
:10480000000101010000010100000C0150000D0138
:10481000B4000E0123000F011E002301F0001C0153
:1048200002001D010A001E0102001F01020010010A
:10483000000011010000120100001301000014012A
:10484000000015010000160100001701000018010A
:104850000000190100001A0100001B0100002E2EAB
:104860002F2E2E2F2E2E2F2E2E2F4C69627261721C
:104870006965732F7372632F637733326C30313015
:104880005F7379736374726C2E63002E2E2F2E2E3D
:104890002F2E2E2F2E2E2F4C696272617269657336
:1048A0002F7372632F637733326C3031305F6274F1
:1048B000696D2E63002E2E2F2E2E2F2E2E2F2E2E94
:1048C0002F4C69627261726965732F7372632F6313
:1048D0007733326C3031305F6774696D2E63002E30
:1048E0002E2F2E2E2F2E2E2F2E2E2F4C69627261E0
:1048F000726965732F7372632F637733326C303153
:10490000305F756172742E63000000003049000052
:104910000000002090000000C6470000C0490000D1
:104920009000002088060000D6470000000000002C
:1049300001000000753200000000000001000000CE
:104940000000000069320000030000000A000000BF
:10495000000000007D32000007000000140000008D
:1049600000000000613200000D0000006400000043
:10497000000000008532000015000000FA00000071
:10498000000000008D320000250000002C01000016
:10499000000000008F3200002B000000F401000036
:1049A00000000000593200003B000000E803000056
:1049B0000000000000093D000A00018A010000001B
:04000005000000C136
:00000001FF
